:100000000C94BD000C94E5000C94E5000C94E50004
:100010000C94E5000C94E5000C94E5000C94E500CC
:100020000C94E5000C94E5000C94E5000C94E500BC
:100030000C94E5000C94E5000C94E5000C94E500AC
:100040000C94280C0C94E5000C94F60B0C94D00B3B
:100050000C94E5000C94E5000C94E5000C94E5008C
:100060000C94720C0C94E5000000000025002800A0
:100070002B000000000023002600290000000008DB
:10008000000201000003040700000000000000005F
:1000900000000000240027002A00010204081020AC
:1000A000408001020408102001020408102004040A
:1000B0000404040404040202020202020303030310
:1000C00003034E002D004F002D0043002D0049007A
:1000D0002D0053002D0055002D004D002D00204D0A
:1000E0002055205320492043204F204E20200045FA
:1000F0000020202020202020202020002020202040
:1001000020002D3E00203D005D005B003E004500CC
:100110002D0059002D0042002D0044002D004F00FD
:100120002D004F002D0047002D00424154544552F0
:1001300059204348415247494E470047002D004E41
:10014000002D0049002D0047002D0052002D0041D8
:10015000002D0048002D0043002D0059002D0052B5
:10016000002D0045002D0054002D0054002D0041AD
:10017000002D0042002D0000910D11241FBECFEF75
:10018000D8E0DEBFCDBF12E0A0E0B1E0ECE3FDE4DB
:1001900002C005900D92AE35B107D9F724E0AEE567
:1001A000B2E001C01D92AF34B207E1F710E0CDEB31
:1001B000D0E004C02197FE010E945D25CC3BD10711
:1001C000C9F70E94900E0C949C260C94000091E0BC
:1001D000909324038093230310922203109221030F
:1001E00008958091FF0290910003891B990B089557
:1001F00008950895DC01ED91FC910190F081E02DCE
:100200000994EF92FF920F931F93CF93DF938C018A
:100210007B01D0E0C0E0F701EC0FFD1F6491662385
:1002200061F0D801ED91FC910190F081E02DC801C1
:100230000995892B11F02196EECFCE01DF91CF9158
:100240001F910F91FF90EF900895AF92BF92CF92C0
:10025000DF92EF92FF920F931F93CF93DF936C0186
:100260007B018B01040F151FEB015E01AE18BF0867
:10027000C017D10759F06991D601ED91FC91019019
:10028000F081E02DC6010995892B79F7C501DF9131
:10029000CF911F910F91FF90EF90DF90CF90BF9083
:1002A000AF900895FC01538D448D252F30E0842FAD
:1002B00090E0821B930B541710F0CF96089501978E
:1002C0000895FC01918D828D981761F0A28DAE0F7B
:1002D000BF2FB11D5D968C91928D9F5F9F73928F02
:1002E00090E008958FEF9FEF0895FC01918D828D2E
:1002F000981731F0828DE80FF11D858D90E00895FB
:100300008FEF9FEF0895FC01918D228D892F90E052
:10031000805C9F4F821B91098F739927089585E216
:1003200093E00E94830121E0892B09F420E0822FD1
:10033000089580E090E0892B29F00E948F018111BF
:100340000C9400000895FC01A48DA80FB92FB11DD5
:10035000A35ABF4F2C91848D90E001968F739927FB
:10036000848FA689B7892C93A089B1898C918370D9
:1003700080648C93938D848D981306C00288F389D2
:10038000E02D80818F7D80830895EF92FF920F93FF
:100390001F93CF93DF93EC0181E0888F9B8D8C8D31
:1003A00098131AC0E889F989808185FF15C09FB725
:1003B000F894EE89FF896083E889F98980818370E8
:1003C000806480839FBF81E090E0DF91CF911F9197
:1003D0000F91FF90EF900895F62E0B8D10E00F5FB8
:1003E0001F4F0F731127E02E8C8D8E110CC00FB68E
:1003F00007FCFACFE889F989808185FFF5CFCE0126
:100400000E94A301F1CFEB8DEC0FFD2FF11DE35AFC
:10041000FF4FF0829FB7F8940B8FEA89FB898081A8
:100420008062CFCFCF93DF93EC01888D8823B9F022
:10043000AA89BB89E889F9898C9185FD03C08081EF
:1004400086FD0DC00FB607FCF7CF8C9185FFF2CF6C
:10045000808185FFEDCFCE010E94A301E9CFDF911E
:10046000CF910895833081F028F4813099F0823063
:10047000A9F008958730A9F08830C9F08430B1F42C
:10048000809180008F7D03C0809180008F77809362
:100490008000089584B58F7784BD089584B58F7DDD
:1004A000FBCF8091B0008F778093B000089580914A
:1004B000B0008F7DF9CFCF93DF93282F30E0F90183
:1004C000E458FF4F8491F901E656FF4FD491F901AA
:1004D000E255FF4FC491CC23A1F081110E9432025A
:1004E000EC2FF0E0EE0FFF1FEE58FF4FA591B491F7
:1004F000EC91ED2381E090E009F480E0DF91CF9171
:10050000089580E090E0FACF1F93CF93DF93282FD8
:1005100030E0F901E458FF4F8491F901E656FF4FAE
:10052000D491F901E255FF4FC491CC23A9F0162FC5
:1005300081110E943202EC2FF0E0EE0FFF1FE8590C
:10054000FF4FA591B4918FB7F894EC91111108C0A9
:10055000D095DE23DC938FBFDF91CF911F9108955B
:10056000DE2BF8CFCF93DF9390E0FC01E656FF4FF0
:10057000249182559F4FFC0184918823C9F090E01B
:10058000880F991FFC01E057FF4FA591B491FC0122
:10059000E859FF4FC591D49161110DC09FB7F894F0
:1005A0008C91209582238C938881282328839FBF58
:1005B000DF91CF910895623051F49FB7F8943C9148
:1005C000822F809583238C93E8812E2BEFCF8FB7DA
:1005D000F894EC912E2B2C938FBFEACF1F93CF93DF
:1005E000DF93182FEB0161E00E94B202209739F4EB
:1005F00060E0812FDF91CF911F910C948402CF3F57
:10060000D10511F461E0F5CFE12FF0E0E458FF4FA0
:10061000E491E33031F140F4E130B1F0E230E1F067
:10062000C038D1057CF7E4CFE73029F1E83059F143
:10063000E430B1F780918000806280938000D09395
:100640008B00C0938A0004C084B5806884BDC7BD98
:10065000DF91CF911F91089584B5806284BDC8BD9C
:10066000F7CF80918000806880938000D0938900CC
:10067000C0938800EDCF8091B00080688093B00077
:10068000C093B300E5CF8091B00080628093B0004A
:10069000C093B400DDCF2091000190E4299F900128
:1006A00011248E50822B80937C0080917A0080648C
:1006B00080937A0080917A0086FDFCCF809178004B
:1006C0009091790008953FB7F8948091A702909196
:1006D000A802A091A902B091AA0226B5A89B05C0C4
:1006E0002F3F19F00196A11DB11D3FBFBA2FA92FB1
:1006F000982F8827BC01CD01620F711D811D911DAE
:1007000042E0660F771F881F991F4A95D1F7089519
:100710008F929F92AF92BF92CF92DF92EF92FF9211
:100720004B015C010E9463036B017C010E94630327
:100730006C197D098E099F09683E734081059105FA
:10074000A8F321E0821A9108A108B10888EEC80E2A
:1007500083E0D81EE11CF11C81149104A104B104B2
:1007600029F7FF90EF90DF90CF90BF90AF909F90D0
:100770008F9008952FB7F8946091A3027091A4020E
:100780008091A5029091A6022FBF0895089520910F
:100790007F02260F3327331F21323105ECF42091DD
:1007A000F902FC0190E080E0243069F082E00895D5
:1007B000A0917F022191AC01415A5D4FA40FB52F4A
:1007C000B11D2C930196861798F380917F02680FD4
:1007D00060937F0280E0089581E008951092F9020D
:1007E00081E08093F8021092F30261E082E10E94BE
:1007F000840261E083E10E948402E9EBF0E0808101
:100800008E7F808380818D7F808388E48093B80091
:1008100085E48093BC000895CF93DF9391E090939B
:100820005E028823B9F0C091B800D091BA008091DF
:10083000BC008A7B8093BC0060E082E10E9484025D
:1008400060E083E10E9484020E94EE03D093BA002C
:10085000C093B800DF91CF910895CF92DF92EF92CD
:10086000FF920F931F93CF93DF93D091210381E0E9
:10087000D13208F09CC0C09123030E9463036B0136
:100880007C018091F90281116CC082E08093F902B1
:1008900081E08093F8028FEF8093F7021092F602C6
:1008A000D093F502A3EBB2E0E3EDF2E080E0D813E1
:1008B0008DC01092F4028091F402CC0FC82BC0932B
:1008C000F4028091F302813009F084C01092F302A7
:1008D0000E9463036B017C018091F4028093BB0052
:1008E0008091FB029091FC02A091FD02B091FE026A
:1008F000892B8A2B8B2BA1F00E9463030091FB02B2
:100900001091FC022091FD023091FE026C197D09CC
:100910008E099F09061717072807390708F442C0F0
:100920008091BC0083FDD8CF85EC8093BC000E94F1
:1009300063036B017C018091F902823009F44CC0A1
:100940008091F7028F3F09F469C08091F7028032ED
:1009500009F466C08091F702803309F463C084E033
:1009600026C08091FB029091FC02A091FD02B09103
:10097000FE02892B8A2B8B2B09F483CF0E94630301
:100980000091FB021091FC022091FD023091FE02C9
:100990006C197D098E099F09061717072807390763
:1009A00008F06FCF8091FA020E940C0485E010924B
:1009B00022031092210310922403DF91CF911F9103
:1009C0000F91FF90EF90DF90CF9008959D919193BC
:1009D0008F5F6DCF85EEA9CF8091FB029091FC02D5
:1009E000A091FD02B091FE02892B8A2B8B2B09F47A
:1009F000A2CF0E9463030091FB021091FC022091A0
:100A0000FD023091FE026C197D098E099F090617BF
:100A100017072807390708F08ECFC4CF80E0C7CF6B
:100A200082E0C5CF83E0C3CF0895E09100038091B9
:100A3000FF02E81730F4F0E0EF5FFC4F808190E0B8
:100A400008958FEF9FEF0895909100038091FF022A
:100A50002FEF3FEF981748F4E92FF0E0EF5FFC4FDE
:100A6000208130E09F5F90930003C9010895CF92E9
:100A7000DF92EF92FF920F931F93CF93DF937C014E
:100A8000CB018A0120912403222389F0EB016B0121
:100A9000C40ED51ECC15DD0569F06991D701ED9125
:100AA000FC910190F081E02DC7010995F3CF642FEF
:100AB0000E94C703C801DF91CF911F910F91FF9052
:100AC000EF90DF90CF900895CF93DF931F92CDB733
:100AD000DEB76983209124032223F9F020912103BA
:100AE000203258F021E030E0FC013383228390E093
:100AF00080E00F90DF91CF91089580912203E82F3D
:100B0000F0E0ED54FD4F998190838F5F8093220335
:100B10008093210381E090E0ECCF61E0CE0101966B
:100B20000E94C703F7CF682F82EC93E00C94640512
:100B30000F931F93CF938C01C62FFC0184810E94D9
:100B4000E700F80183858C2B90E00E949305CF91FC
:100B50001F910F910C942D0490E080E008958EBDBC
:100B600000000DB407FEFDCF8EB50895CF93C82FBA
:100B70000E94E7000E942D04811102C0C093B202BE
:100B8000CF910895CF92DF92EF92FF920F931F9330
:100B9000CF93C82F0E9463036B017C018091F902FF
:100BA000811164C081E08093F9028093F8029FEF85
:100BB0009093F7021092F6021092F5028093F402DD
:100BC0008091F402CC0FC82BC093F4028091F30201
:100BD000813009F07DC01092F3020E9463036B0123
:100BE0007C018091F4028093BB008091FB02909184
:100BF000FC02A091FD02B091FE02892B8A2B8B2B67
:100C0000A1F00E9463030091FB021091FC0220916D
:100C1000FD023091FE026C197D098E099F090617AD
:100C200017072807390708F442C08091BC0083FDEC
:100C3000D8CF85EC8093BC000E9463036B017C01DC
:100C40008091F902813009F445C08091F60281114A
:100C500063C08091F602E3EDF2E0A1E0B3E090E042
:100C6000981751F121912D939F5FFACF8091FB024C
:100C70009091FC02A091FD02B091FE02892B8A2B7B
:100C80008B2B09F48BCF0E9463030091FB02109120
:100C9000FC022091FD023091FE026C197D098E0943
:100CA0009F09061717072807390708F077CF8091A3
:100CB000FA020E940C0480E0109200038093FF026D
:100CC000CF911F910F91FF90EF90DF90CF900895FB
:100CD00085EEB0CF8091FB029091FC02A091FD02C5
:100CE000B091FE02892B8A2B8B2B09F4A9CF0E948D
:100CF00063030091FB021091FC022091FD023091F0
:100D0000FE026C197D098E099F090617170728072F
:100D1000390708F095CFCBCF81E09DCFCF93DF93FC
:100D2000EC01809118040E94E700CE010E94930517
:100D30000E942D0480911804909119040E94C2050C
:100D40009091FF02809100039817F1F382EC93E0F9
:100D5000DF91CF910C9424050F931F93CF93DF93D2
:100D60008C01EB01809118040E94E700CE010E94E3
:100D700093050E942D0480911804909119040E94FB
:100D8000C2059091FF02809100039817F1F382EC65
:100D900093E00E942405EC01809118040E94E70072
:100DA000C8010E9493050E942D048091180490911F
:100DB00019040E94C2059091FF02809100039817C8
:100DC000F1F382EC93E00E94240520E0382FC90162
:100DD0008C2B9D2BDF91CF911F910F9108950F9335
:100DE0001F93CF938C01C62F0E9498056C2F6460CF
:100DF000C8010E9498056C2F6B7FC8010E9498055E
:100E000083EC90E00197F1F7CF911F910F91089536
:100E10000F931F93CF93DF938C01D62FC42F607F46
:100E2000642B0E94EF0680E1D89FB00111246C2B47
:100E3000C801DF91CF911F910F910C94EF0641E013
:100E40000E94080781E090E00895EF92FF920F93CF
:100E50001F93CF93DF938C017A0188E0689FB001E4
:100E60001124606440E0C8010E940807E70188E09F
:100E7000E80EF11C6991C8010E941F07CE15DF051D
:100E8000C9F7DF91CF911F910F91FF90EF900895D7
:100E9000CF93DF93CDB7DEB728970FB6F894DEBFB8
:100EA0000FBECDBF28E0EFE3F1E0DE011196019027
:100EB0000D922A95E1F7FC012185241708F44FEFE4
:100EC00050E0440F551F21E030E02C0F3D1F420F32
:100ED000531FFA012081620F606840E028960FB628
:100EE000F894DEBF0FBECDBFDF91CF910C94080701
:100EF00040E061E00E9408078BE39FE10197F1F772
:100F00000895FB0101900020E9F73197AF01461BDE
:100F1000570BDC01ED91FC910280F381E02D0994E7
:100F20008F929F92AF92BF92EF92FF920F931F9377
:100F3000CF93DF93CDB7DEB7A1970FB6F894DEBF9E
:100F40000FBECDBF7C01FA01CB0119A2223008F4FB
:100F50002AE08E010F5D1F4F822E912CB12CA12C07
:100F6000BF01A50194010E94C522F901CA016A309E
:100F70000CF5605DD8016E938D01232B242B252B5E
:100F800079F790E080E0109721F0BD01C7010E9441
:100F90008107A1960FB6F894DEBF0FBECDBFDF91DB
:100FA000CF911F910F91FF90EF90BF90AF909F90C6
:100FB0008F900895695CDECFCF92DF92EF92FF921F
:100FC0000F931F93CF93DF936B01770FEE08FF080A
:100FD000F7FE1BC0EC016DE20E94FA008C01442771
:100FE0005527BA014C195D096E097F092AE0CE0127
:100FF0000E949007800F911FDF91CF911F910F9159
:10100000FF90EF90DF90CF9008952AE0B701A601FE
:10101000DF91CF911F910F91FF90EF90DF90CF90D4
:101020000C9490074F925F926F927F928F929F9253
:10103000AF92BF92EF92FF920F931F93CF93DF93E4
:101040008C014A015B01E22EAB019401CB01B4019A
:101050000E94342568E172E0811126C02401350127
:10106000E89477F82FEF3FEF4FE75FE7C301B20156
:101070000E94342581110CC02FEF3FEF4FE75FE74F
:10108000C301B2010E9463236CE172E0181664F0A0
:101090002FEF3FEF4FE75FE4C501B4010E94C22488
:1010A00018169CF460E272E0C801DF91CF911F91A5
:1010B0000F91FF90EF90BF90AF909F908F907F9097
:1010C0006F905F904F900C9481072FEF3FEF4FE7A9
:1010D0005FECC501B4010E94632387FDE3CF20E0EC
:1010E00030E0A901C501B4010E946323D0E0C0E053
:1010F00087FF09C06DE2C8010E94FA00EC01B7FA4F
:10110000B094B7F8B094FE2C712C60E070E080E0F1
:101110009FE37E1440F420E030E040E251E40E947E
:1011200068237394F6CFA50194010E94F7224B0126
:101130005C010E94E1232B013C012AE0BC01A201D9
:10114000C8010E949007C80FD91FEE20D1F1C3013A
:10115000B2010E9410249B01AC01C501B4010E94A0
:10116000F6224B015C016EE2C8010E94FA00C80F32
:10117000D91FFA948FEFF81621F120E030E040E219
:1011800051E4C501B4010E94C7242B013C010E9417
:10119000E1234B01B12CA12C2AE0B501A401C80127
:1011A0000E949007C80FD91FC501B4010E941024E6
:1011B0009B01AC01C301B2010E94F6224B015C010C
:1011C000D8CFCE01DF91CF911F910F91FF90EF907B
:1011D000BF90AF909F908F907F906F905F904F9057
:1011E00008950C9481070F931F93CF93DF93EC0125
:1011F00089819A81EB81FC81E85BFF4F20813181FD
:101200002130310509F05BC0DC01ED91FC910190CA
:10121000F081E02D66E00995EB81FC81DF01A25BA6
:10122000BF4F8D919C91019709F054C0028D138D91
:101230008D8D9E8D049714F01E8E1D8E8D8D9E8D2E
:10124000892B99F589819A81DC01ED91FC910190BE
:10125000F081E02D6B8D09958B8D9C8D01969C8F77
:101260008B8F069714F1033A110524F084E090E087
:101270009C8F8B8FC801865991090D9720F483E0CC
:1012800090E09C8F8B8FC8018C5891090A9720F4AD
:1012900082E090E09C8F8B8FC801825891090A9759
:1012A00098F481E090E09C8F8B8F8D8D9E8D0196C0
:1012B0009E8F8D8FDF91CF911F910F91089563E5E0
:1012C00072E00E94F108A8CF0238110574F71C8E55
:1012D0001B8EEBCFEA5BFF4F0081118104361105B5
:1012E00051F489819A81DC01ED91FC910190F081AA
:1012F000E02D65E00995C8018B549109499750F498
:1013000089819A81DC01ED91FC910190F081E02DC1
:1013100064E00995C801C297499750F489819A8180
:10132000DC01ED91FC910190F081E02D63E00995E5
:10133000C8014997499750F489819A81DC01ED9160
:10134000FC910190F081E02D62E0099589819A81FC
:1013500098012150310928313105D0F4DC01ED919B
:10136000FC910190F081E02D61E0099563E572E068
:1013700089819A810E94F10817FF9CCF63E572E092
:1013800089819A81DF91CF911F910F910C94F1087F
:101390000115110559F72F8D222341F3DC01ED9141
:1013A000FC910190F081E02D60E0DF91CF911F91E1
:1013B0000F91099485ED8093BC008091FB02909180
:1013C000FC02A091FD02B091FE020796A11DB11D85
:1013D00023E0B695A795979587952A95D1F7209103
:1013E000BC0024FD03C01092F90208954091FB0255
:1013F0005091FC026091FD027091FE02452B462B3C
:10140000472B69F30097A105B10541F025E32A9523
:10141000F1F700000197A109B109E1CF8091FA022B
:101420000C940C04BF92CF92DF92EF92FF920F9335
:101430001F93CF93DF93EC018B01B42E6B01CC0C87
:10144000DD1C7C01EC0CFD1CF70140835183222341
:1014500049F0652FC6010E948D226B2DC6010196B1
:101460000E948D220C51110902301105F0F4FE0189
:10147000E85AFF4F8AAD9BAD25E0880F991F2A954A
:10148000E1F72AE030E0B9010E94492571836083C9
:10149000329688AD99AD45E0880F991F4A95E1F7DE
:1014A000B9010E94492571836083F7018081918190
:1014B000DF91CF911F910F91FF90EF90DF90CF9030
:1014C000BF900895CF93C82FE0911404F0911504B4
:1014D000E05BFF4F808191819C012A5231092230CB
:1014E0003105B0F48B9791F461E001C0660FCA95A5
:1014F000EAF7C62F80E70E94E7006C2F82EC93E0AA
:101500000E9464050E942D04CF910895CC5FF2CF14
:1015100080E70E94E70061E070E00C2E01C0660FDA
:101520000A94EAF782EC93E00E9464050E942D047D
:1015300086E30E94E7000E942D04811119C020E07B
:1015400041E050E066E170E0809114049091150450
:101550000E94120A20E04BE250E068E270E08091C5
:101560001404909115040E94120A90E080E0CCCF00
:1015700080E70E94E70064E06C0F82EC93E00E9439
:1015800064050E942D0486E30E94E7000E942D045A
:10159000E0911404F091150420E081110BC041E0AA
:1015A00050E066E170E0CF010E94120A20E04AE2BA
:1015B00050E0D3CF50E040E066E170E0CF010E9400
:1015C000120A20E050E040E068E270E080911404EC
:1015D000909115040E94120A82E090E095CF80E07D
:1015E0000E94620A18161906A4F1E0911404F09101
:1015F000150484A595A5019761F580913E0490910D
:101600003F040E948E0685FF24C0609138047091CB
:10161000390480913604909137040E94AC06BC01D5
:1016200090E080E00E94102422E03EE041E65FE38B
:101630000E94C7240E94DA2320E0AB0160E170E041
:1016400080911404909115040E94120A81E0809305
:101650000D040895CF92DF92EF92FF926B017C010F
:101660000E94BA03AB01BC014C195D096E097F09E8
:1016700041158DE758076105710568F420E06BE0BE
:1016800070E08091140490911504FF90EF90DF902A
:10169000CF900C94120AFF90EF90DF90CF900895B6
:1016A0007F928F929F92AF92BF92CF92DF92EF92F2
:1016B000FF920F931F93CF93DF93EC01B62EA72ECB
:1016C000922E832E742EF52E60E08AE00E94840212
:1016D00003E210E0C8010197F1F78B2D0E94AF05DE
:1016E0008F2D0E94AF05C12CD12C7601C82AFE2C6B
:1016F000ED2CDC2CCC24872D0E94AF05C82AFE2CB3
:10170000ED2CDC2CCC24882D0E94AF05C82AFE2CA1
:10171000ED2CDC2CCC24892D0E94AF05C82AC801F1
:101720000197F1F761E08AE00E9484028A899B892F
:101730008F369105B9F4A60153705A8F498F20E076
:1017400068E170E0888199810E94120AA7014F71B7
:1017500055275C8F4B8F20E069E170E0888199818B
:101760000E94120A8A899B89429751F4DE8ECD8E9F
:1017700020E0A6016AE170E0888199810E94120A46
:10178000BA8AAB8ADF91CF911F910F91FF90EF90B2
:10179000DF90CF90BF90AF909F908F907F900895F3
:1017A0001F920F920FB60F9211242F933F934F93D6
:1017B0005F936F937F938F939F93AF93BF93EF93B9
:1017C000FF9385E293E00E94A301FF91EF91BF9107
:1017D000AF919F918F917F916F915F914F913F91C9
:1017E0002F910F900FBE0F901F9018951F920F9280
:1017F0000FB60F9211242F938F939F93EF93FF9324
:10180000E0913503F09136038081E0913B03F09144
:101810003C0382FD1BC0908180913E038F5F8F73DC
:1018200020913F03821741F0E0913E03F0E0EB5D31
:10183000FC4F958F80933E03FF91EF919F918F9185
:101840002F910F900FBE0F901F9018958081F4CFAD
:101850001F920F920FB60F9211242F933F938F93E5
:101860009F93AF93BF938091A3029091A402A09104
:10187000A502B091A6023091A20223E0230F2D37DA
:1018800058F50196A11DB11D2093A2028093A302D9
:101890009093A402A093A502B093A6028091A70200
:1018A0009091A802A091A902B091AA020196A11D4F
:1018B000B11D8093A7029093A802A093A902B093B0
:1018C000AA02BF91AF919F918F913F912F910F905D
:1018D0000FBE0F901F90189526E8230F0296A11DAA
:1018E000B11DD2CF1F920F920FB60F9211242F93DA
:1018F0003F934F935F936F937F938F939F93AF9398
:10190000BF93EF93FF938091B900887F803609F4ED
:101910004AC0F0F5883209F4A7C018F5803109F4FF
:101920009BC0B8F4882309F4F9C0883009F494C046
:10193000FF91EF91BF91AF919F918F917F916F91A7
:101940005F914F913F912F910F900FBE0F901F907D
:101950001895883109F488C0803251F78093F702D6
:1019600014C0803409F49DC040F48033B9F3883347
:10197000F9F68093F70285ECB0C0803509F485C094
:10198000883509F496C0883499F60E94DA09D0CFD8
:10199000883909F48CC038F5883729F050F4883636
:1019A00011F0803729F683E08093F9021092A102AA
:1019B00057C0883809F47BC0803919F0803809F0A5
:1019C000B7CF8091A102803208F071C0E091A102EE
:1019D00081E08E0F8093A1028091BB00F0E0EF5771
:1019E000FD4F80833DC0803B39F0E0F4803A09F43C
:1019F00079C0883A09F09CCF84E08093F902109274
:101A0000800210927F02E091AC02F091AD02099544
:101A100080917F0281110FC081E080937F0210923C
:101A20005F0209C0803C09F4A6CF883C09F4A3CF2B
:101A3000883B09F07DCFE091800281E08E0F80939A
:101A40008002F0E0E15AFD4F80818093BB009091CD
:101A5000800280917F0229C08091F4028093BB00B4
:101A600085EC8093BC0064CF9091F6028091F502E2
:101A7000981758F5E091F60281E08E0F8093F602F8
:101A8000F0E0ED52FD4F8081E9CFE091F60281E078
:101A90008E0F8093F6028091BB00F0E0ED52FD4F77
:101AA00080839091F6028091F5029817C8F285E83C
:101AB000D8CFE091F60281E08E0F8093F6028091FC
:101AC000BB00F0E0ED52FD4F80838091F802811160
:101AD0005CCF81E08093F30284EA8093BC00109293
:101AE000F90226CF85EC8093BC001092F902809118
:101AF000A102803230F4E091A102F0E0EF57FD4FF7
:101B000010826091A10270E0E091AE02F091AF020C
:101B100081E892E009951092A1020ACF1092F70293
:101B200034CFCF93DF93E5E2F3E01382128288EEA5
:101B300093E0A0E0B0E084839583A683B78328EF89
:101B400031E03183208325EC30E03587248724EC95
:101B500030E03787268720EC30E0318B208B21EC7A
:101B600030E0338B228B22EC30E0358B248B26EC5B
:101B700030E0378B268B118E128E138E148EE2EC92
:101B8000F3E01382128284839583A683B7838AE06D
:101B900092E091838083EEECF3E010821182128256
:101BA0001382148215821682178280E09DE7A0E0DE
:101BB000B0E080879187A287B38714861586168642
:101BC0001786108A118A128A138A148A158A168A2D
:101BD000178A108E118E128E138E148E158E168EFD
:101BE000178E10A211A212A213A280E09CE3ACE116
:101BF000B6E484A395A3A6A3B7A310A611A612A624
:101C000013A615A614A6A0E0B4E088E0ED01199291
:101C10008A95E9F780E090E0A8ECB2E486A797A760
:101C2000A0ABB1AB13AE12AE15AE14AE17AE86E3D9
:101C300090E0909319048093180410922504109258
:101C4000240481E090E0909327048093260482E0AE
:101C500090E0909329048093280483E090E090938F
:101C60002B0480932A0484E090E090932D048093C9
:101C70002C0485E090E090932F0480932E0486E05E
:101C800090E0909331048093300487E090E090934B
:101C900033048093320488E090E09093350480937D
:101CA00034048CE090E090933704809336048DE008
:101CB00090E090933904809338048EE090E0909304
:101CC0003B0480933A048FE090E090933D0480932E
:101CD0003C048BE090E090933F0480933E048AE1C3
:101CE00090E090934104809340048BE190E09093C6
:101CF0004304809342048CE190E0909345048093E8
:101D000044048FEF90E09093470480934604109230
:101D100049041092480410924A04DF91CF9108952B
:101D2000CF93DF93CDB7DEB766970FB6F894DEBFDB
:101D30000FBECDBF789484B5826084BD84B58160C8
:101D400084BD85B5826085BD85B5816085BD809186
:101D50006E00816080936E001092810080918100FE
:101D600082608093810080918100816080938100F6
:101D7000809180008160809380008091B1008460B8
:101D80008093B1008091B00081608093B000809119
:101D90007A00846080937A0080917A0082608093D8
:101DA0007A0080917A00816080937A0080917A0035
:101DB000806880937A001092C10061E087E00E9401
:101DC000B20261E087E00E94840268EC70E080E08B
:101DD00090E00E94880387E20E94B6058FE30E948C
:101DE000B6058091B202882309F4B6C01C821B821A
:101DF0002BE431E03A8329838D8380E1898782E077
:101E00008A871B8618E01C87109200031092FF023D
:101E100010922203109221030E94EE0388EF90E0BB
:101E20009093AD028093AC0289EF90E09093AF0263
:101E30008093AE021E828A85823008F01E839B85C5
:101E4000992329F0813019F48E8184608E8362E3B6
:101E500070E080E090E00E9488036C858E010F5F47
:101E60001F4FC8010E94980568EE73E080E090E083
:101E70000E94880360E3C8010E94EF06FBE4EF2E96
:101E8000F6E4FF2EC7010197F1F760E3C8010E9455
:101E9000EF06C7010197F1F760E3C8010E94EF0662
:101EA00083E592E00197F1F760E2C8010E94EF0636
:101EB0006E81606240E0C8010E94080784E08F8361
:101EC00040E06CE0C8010E940807C8010E94780742
:101ED00082E0888740E066E0C8010E94080740E091
:101EE00062E0C8010E9408078BE39FE10197F1F7C8
:101EF00041E351E060E0C8010E94250749E251E05A
:101F000061E0C8010E94250741E251E062E0C8019A
:101F10000E94250749E151E063E0C8010E942507BE
:101F200041E151E064E0C8010E94250749E051E029
:101F300065E0C8010E94250741E051E066E0C80164
:101F40000E9425078091B0029091B1020E9478070B
:101F50001093B1020093B002A090B002B090B10211
:101F600083E08093000162E085E00E94B202B092BB
:101F70001304A092120481E991E00E9477258C015C
:101F800080E991E0D801FC011D923197E9F7480101
:101F9000F0E78F1AFEEF9F0AD4011C923801CC247F
:101FA000C394D12CF12CE12C55245394C701880FF4
:101FB000991F0E948522482EC6010E948522242D49
:101FC00030E0322F2227820F932F911DF30181934E
:101FD00091933F01F7ECEF16F10411F4D4015C92F8
:101FE000BFEFEB1AFB0AE2E0CE0ED11CF8ECEF16C5
:101FF000F104E1F6D8018D919C91893E934009F45A
:10200000A8C0F12CE12C21E050E040E0B701C8016C
:102010000E94120AEFEFEE1AFE0AF8ECEF16F10436
:1020200091F721E049EE53E070E060E0C8010E94C2
:10203000120A21E043E050E061E070E0C8010E9434
:10204000120A21E04EEF51E064E070E0C8010E9406
:10205000120A21E040E451E065E070E0C8010E940E
:10206000120A21E045EF50E066E070E0C8010E94EE
:10207000120A21E04AEA50E067E070E0C8010E94DD
:10208000120A21E04EE150E068E070E0C8010E94D1
:10209000120A21E050E040E061E170E0C8010E94D6
:1020A000120A21E04FEF5FEF62E170E0C8010E9489
:1020B000120A21E04FEF5FEF63E170E0C8010E9478
:1020C000120A21E04AEE56E06BE170E0C8010E947E
:1020D000120A21E04AE050E06CE170E0C8010E9481
:1020E000120A21E04DE250E06DE170E0C8010E946B
:1020F000120A21E04CE350E06EE170E0C8010E945A
:10210000120A21E04CE350E060E270E0C8010E9456
:10211000120A21E044E650E061E270E0C8010E944A
:10212000120A21E04FE750E062E270E0C8010E942D
:10213000120A21E048E552E065E270E0C8010E9421
:10214000120A21E048E552E06AE270E0C8010E940C
:10215000120AF801E85AFF4FD801DA968D919C9146
:1021600045E0880F991F4A95E1F72AE030E0B90170
:102170000E944925718360833296D801D8968D914B
:102180009C9155E0880F991F5A95E1F7B9010E947B
:102190004925718360831093150400931404E09122
:1021A0003503F091360382E08083E0913503F091AE
:1021B00036031082E0913103F09132031082E091F6
:1021C0003303F091340380E1808310923D03E0916A
:1021D0003903F0913A0386E08083E0913703F09170
:1021E0003803808180618083E0913703F091380368
:1021F000808188608083E0913703F091380380818B
:1022000080688083E0913703F091380380818F7D6F
:102210008083109200031092FF021092220310920A
:1022200021030E94EE0388EF90E09093AD0280932B
:10223000AC0289EF90E09093AF028093AE028CE005
:102240008093B80080E290E00E9477258C01C090D6
:102250001404D0901504FC01108281E0858384E190
:1022600090E097878687118A108A128A148A138AC7
:10227000168A158A108E178A118E128E148E138E5E
:10228000168E158E178ED482C382B282A1821093CD
:102290001104009310048AE390E00E9477257C01EA
:1022A000DC011C9215961C92159716961C92169797
:1022B00017961C92179718961C9218975E961C9268
:1022C0001E925D97D4961C921E92D397FC0115AA7C
:1022D00016AA17AA10AE82E381AFD282C1821483FC
:1022E000038361E087E00E94B20261E087E00E9420
:1022F000840260E086E00E94B20261E083E00E9416
:10230000B20220E043E050E061E070E0D7011196B6
:102310008D919C910E94120AF0920F04E0920E049B
:1023200080E290E00E9477258C01809114049091C6
:102330001504F80112821382148215821682178204
:1023400010861186128613861486158617861686C1
:10235000108A118A138A128A148A158A168A178A91
:10236000108E128E118E148E138E168E158E178E61
:102370009183808361E08AE00E94B20261E089E09B
:102380000E94B20261E088E00E94B20261E08AE04D
:102390000E94840280E48093800089E08093810021
:1023A00010928900109288008CB58F7D8CBD8CB501
:1023B0008C7F82608CBD8DB58E7F8DBD8CB58C6021
:1023C0008CBDFFB6F8948091AB02811127C0E8EB79
:1023D000F0E08491E4EAF0E09491E82FF0E0EE0F71
:1023E000FF1FE057FF4FA591B491EC91E92321F431
:1023F00061E08AE00E94840261E08AE00E94B20209
:102400008CB580618CBD8CB580648CBD61E08DE045
:102410000E94B20261E08BE00E94B2028091AB02A6
:102420008F5F8093AB02FFBE20E030E0A9016BE834
:1024300070E0C8010E94500B23EC30E041E050E016
:102440006CEE70E0C8010E94500B20E630E047E0DF
:1024500050E06DEE70E0C8010E94500B24E030E0C7
:1024600040E050E060E870E0C8010E94500B25E0B9
:102470003EE044E050E060E970E0C8010E94500B8B
:1024800023E030E040E050E061E970E0C8010E94E4
:10249000500B24EF31E040E050E063E970E0C80108
:1024A0000E94500B28EB3BE040E050E064E970E014
:1024B000C8010E94500B20E931E040E050E065E99E
:1024C00070E0C8010E94500B21E030E040E050E095
:1024D00063EA70E0C8010E94500B2AE030E040E05F
:1024E00050E064EA70E0C8010E94500B2AE030E03E
:1024F00040E050E065EA70E0C8010E94500B28E31C
:102500003EE040E050E066EA70E0C8010E94500BF7
:102510002AE030E040E050E067EA70E0C8010E9445
:10252000500B24EF31E040E050E068EA70E0C80171
:102530000E94500B24EF31E040E050E06AEA70E086
:10254000C8010E94500B2AE030E040E050E06BEA06
:1025500070E0C8010E94500B21E030E040E050E004
:1025600060EA70E0C8010E94500B20E030ED47E0C7
:1025700050E06DEA70E0C8010E94500B1093170400
:102580000093160420E050E040E067E170E08091A5
:102590001404909115040E94120A3324339400917C
:1025A000100410911104F801858181111582D80160
:1025B00013968D919C911497FC012489358950962E
:1025C0004D915C9151974130510509F4B9C54230A4
:1025D000510509F4CFC5D8011396ED91FC911497DC
:1025E00084899589892B11F452961C9200911604C6
:1025F00010911704F801808191812189222309F427
:1026000095C620E042E050E067E170E00E94120AC7
:1026100020E030E0A9016FE670E0C8010E94500B95
:1026200020E030E0A90162E170E0C8010E94500B97
:10263000D801ED91FC91119786A597A58130910560
:1026400009F09DC6E0ACF1AC24AD35ADA6A8B7A8A5
:1026500042AD53AD54963C92429FC001439F900DB2
:10266000529F900D112464E670E00E9449254B01B1
:102670002E9DC0012F9D900D3E9D900D112464E66E
:1026800070E00E9449256A9D60016B9DD00C7A9D87
:10269000D00C1124F12CE12CDF01A65ABF4F4D9034
:1026A0005C90052C000C6608770822A533A5032E44
:1026B000000C440B550B2419350946095709A89CF1
:1026C000B001A99C700DB89C700D112490E080E0C1
:1026D0006C197D098E099F090E943925E85AFF4F20
:1026E00020813181032E000C440B550B2419350930
:1026F000460957090E949B22C20ED31EE41EF51EF6
:10270000F801848960E0811101C061E088E00E94E5
:102710008402A701960167EA70E0C8010E94500B8D
:102720000E94BA03D801ED91FC91DF01A65ABF4F78
:102730004D915C9122A533A54217530741F420A582
:1027400031A52230310519F4D80150961C9226ADDE
:1027500037AD37FF03C0319521953109DF01A05C0A
:10276000BF4F4D915C91241735070CF019C6F80145
:102770006683778380879187683EF3E07F078105D2
:10278000910560F4D8011296CD90DD90ED90FC900B
:102790001597CD28CE28CF2809F427C6F80121891E
:1027A000222391F0C280D380E480F5806C197D09EA
:1027B0008E099F09693C71058105910528F01282F7
:1027C000138214821582118AF801C284D384E484AE
:1027D000F584F8EECF0EF3E0DF1EE11CF11C0E9441
:1027E000BA03C616D706E806F906B0F5D8018D91EA
:1027F0009C911197FC0126A537A521303105D1F414
:102800001E964D915C911F97268D378D421B530B61
:102810009A012B5B3F4F2B38310560F450963C9268
:1028200057FF03C051954195510920E06BE270E0DC
:102830000E94120A0E94BA03D8011A966D937D93E2
:102840008D939C931D97ED91FC911197868D978D9B
:102850001F969C938E931E97D801ED91FC9186A5AF
:1028600097A5019769F00E94BA03F8016287738700
:102870008487958730E1432E37E2532E578646866C
:1028800000910E0410910F040E94BA0328EC30E06E
:1028900040E050E00E94C522672B682B692B09F0AD
:1028A00035C181E10E944B03D801D396ED90FC9095
:1028B0006701CC0CDD1CC00ED11EBC01990F880B2A
:1028C000990B0E9412242DEC3CEC4CE85AE30E9438
:1028D000C72420E030E04EE453E40E94C7240E9465
:1028E000DA23F60170A3678FFFEFEF1AFF0A2AE0E1
:1028F000E216F10409F482C5D801D496FC92EE9256
:10290000D397F8017F9698012D5C3F4F90E080E0CF
:1029100041915191840F951F2E173F07C9F76AE027
:1029200070E00E944925AB0120E06DE070E0D80125
:1029300011968D919C910E94120AD8011196ED91E9
:10294000FC91129786A597A5019711F416963C92D3
:10295000428D538D848D958D2A01481A590AC201E2
:1029600045975CF0D80116961C924850510920E01A
:102970006EE070E0CF010E94120AF801818192811D
:10298000DC015A964D915C915B97FC01E25BFF4F35
:10299000208131812130310509F034C5F8011682DA
:1029A0004850510920E06EE070E00E94120A85E173
:1029B0000E944B038E5F9140BC01990F880B990BCD
:1029C0000E94122422E335E540E550E40E94C7242A
:1029D0009B01AC010E94F722D8015D96CD90DC905E
:1029E0007601EE0CFF1CE00EF11E0E94DA23F701C7
:1029F00072876187FFEFCF1ADF0A2AE0C216D1047F
:102A000009F40FC5D8015E96DC92CE925D97F8016D
:102A100039969801235E3F4F90E080E041915191BB
:102A2000840F951F2E173F07C9F76AE070E00E94D8
:102A30004925AB0120E06CE070E0D80111968D9142
:102A40009C910E94120AF80181819281FC01E85B4D
:102A5000FF4F208131812130310571F4DC0158961E
:102A60002D913C91293C31053CF020E041E050E0C3
:102A700067E270E00E94120AF80181819281FC01F4
:102A8000E85BFF4F20813181232B39F0DC01589620
:102A90002D913C91243631053CF420E050E040E09B
:102AA00067E270E00E94120AF801E180F280D7012B
:102AB0005A968D919C9120E04FEF5FEF05970CF1B6
:102AC000F701248D358D2639310514F025E930E0E4
:102AD0002F37310514F42FE730E0032E000C440BA0
:102AE000550B2F57310941095109A4E6B0E00E9466
:102AF000BA2226E130E040E050E00E949B22A9018A
:102B000020E063E270E0C7010E94120A86E00E94A2
:102B10005B02019709F089C4D80118968C91189727
:102B2000811183C417963C9286E00E945B0221E0EB
:102B3000892B09F420E0D80118962C931897119648
:102B40008D919C911297FC01C280D380F3E0CF1647
:102B5000D104F9F417962C912223D9F020E044E017
:102B600050E061E070E00E94120AD8011396ED90E7
:102B7000FC90F701818192810E947807D7015196DC
:102B8000DC92CE92509784E190E01F969C938E93B6
:102B90001E97F80181819281DC0112962D913C9162
:102BA000232B09F5FC01E25BFF4F208131812130AD
:102BB0003105C9F420E041E050E061E070E00E949E
:102BC000120AF801E380F480D70111968D919C914F
:102BD0000E94780785E690E0F701918B808B88E270
:102BE00090E097878687D80111968D919C91FC0182
:102BF000228133812130310519F5E25BFF4F2081BD
:102C00003181232BE9F420E044E050E061E070E002
:102C10000E94120AD8011396ED90FC90F701818171
:102C200092810E94780783E090E0D70151969C93AF
:102C30008E93509784E190E01F969C938E931E97FD
:102C4000F80181819281DC0112962D913C911397BC
:102C50002230310570F427812111EEC3DE962D91CB
:102C60003C91121613060CF0E3C32F3131050CF022
:102C7000E3C3F80181819281DC011296CD90DC9052
:102C8000B3E0CB16D10429F5FC01EC5AFF4F2081AB
:102C9000318132974081518124173507D4F41216BF
:102CA0001306BCF420E044E050E061E070E00E94D4
:102CB000120AF801E380F480D70111968D919C915E
:102CC0000E947807F701D18AC08A84E190E0978753
:102CD0008687D80111968D919C911297FC012281D3
:102CE000338124303105C1F41396ED91FC91208994
:102CF00031892436310581F420E050E040E061E084
:102D000070E00E94120A70E060E08FE00E94EE0224
:102D100060E087E00E948402D801D596CD90DD90D6
:102D2000ED90FC90D897B8EECB0EB3E0DB1EE11C23
:102D3000F11C0E94BA03C616D706E806F90608F089
:102D40007FC0D8011196ED91FC91129782819381F9
:102D50008330910509F09CC38FEF15968C93D801B1
:102D600015966C9170E08FE00E94EE02F80181816F
:102D70009281DC0158962D913C91293D3F4F0CF4F6
:102D800095C320E041E050E064E270E00E94120A46
:102D9000F80181819281FC01EA5BFF4F2081318142
:102DA00037FD05C0329620813181232B21F420E4A8
:102DB000D801D9962C93FC01408D518DE65BFF4FD5
:102DC00020813181421753077CF4F801A1ADAF3F58
:102DD00059F0FC01E85BFF4F608171816130710542
:102DE00019F4AF5FF801A1AF245D3E4F24173507FA
:102DF0008CF4D801D9962C91D997222359F0FC0153
:102E0000E85BFF4F408151814130510519F4215059
:102E1000D9962C93F80141AD50E020E066E270E0D5
:102E20000E94120AD801D9966C9170E083E00E944A
:102E3000EE020E94BA03F80165AB76AB87AB90AFA8
:102E40000E94BA0328E230E040E050E00E94C52230
:102E5000672B682B692B09F007C1009114041091AE
:102E6000150480E10E944B0320E0AC0169E070E0B2
:102E7000C8010E94120AE0911404F09115042289FD
:102E800033894085518580899189BA01681B790B06
:102E9000621773072CF5840F951F2817390704F55F
:102EA00020E042E050E06AE070E0CF010E94120AA8
:102EB0006091DE037091DF038091E0039091E10364
:102EC000611571058105910509F0F4C20E94BA03EC
:102ED0006093DE037093DF038093E0039093E1033C
:102EE000E0911404F09115042289338942855385B9
:102EF00080899189BA01681B790B621773072CF5D9
:102F0000840F951F2817390704F520E041E050E0B1
:102F10006AE070E0CF010E94120A6091DE037091B6
:102F2000DF038091E0039091E10361157105810554
:102F3000910509F0C2C20E94BA036093DE03709348
:102F4000DF038093E0039093E103E0911404F09198
:102F50001504228933894485558580899189BA0170
:102F6000681B790B621773072CF5840F951F2817C0
:102F7000390704F520E043E050E06AE070E0CF015B
:102F80000E94120A6091DE037091DF038091E003DA
:102F90009091E103611571058105910509F090C2D9
:102FA0000E94BA036093DE037093DF038093E00313
:102FB0009093E103E0911404F09115042289338980
:102FC0004685578580899189BA01681B790B6217FC
:102FD00073072CF5840F951F2817390704F520E097
:102FE00044E050E06AE070E0CF010E94120A609174
:102FF000DE037091DF038091E0039091E10361159E
:1030000071058105910509F05EC20E94BA036093C3
:10301000DE037093DF038093E0039093E1038091DC
:10302000140490911504DC0152962D913C91293E97
:103030003340D4F020E050E040E06AE070E00E94CD
:10304000120A20E050E040E06BE070E08091140450
:10305000909115040E94120A1092DE031092DF0371
:103060001092E0031092E103C090E203D090E303DA
:10307000E090E403F090E503E0E5CE0ED11CE11C06
:10308000F11C0E94BA03C616D706E806F90630F509
:1030900080914A048823C1F000911004109111041A
:1030A000D80150968D919C9151978330910509F4E8
:1030B000EDC40CF00BC28130910509F4C8C20CF0CC
:1030C00037C3892B09F42FC20E94BA036093E2032D
:1030D0007093E3038093E4039093E50380914A04A3
:1030E000882309F419C780910D04882309F414C7B3
:1030F00085E00E945B02019721F480910C0481110C
:10310000C7C685E00E945B02019729F480910C04F8
:10311000882309F470C685E00E945B02892B09F4BC
:10312000ABC685E00E945B02892B09F06AC68091DC
:103130000C04811166C682E090E09E878D8761C68F
:10314000C9010197029720F02430310509F043CAE4
:10315000D80152968C91529781113DCA5A963C9251
:103160005A97E2E0F0E05196FC93EE935097529616
:103170003C9231CA23303105A1F452962C915297DA
:1031800021110FC05A963C925A97E1E0F0E0519617
:10319000FC93EE93509754961C921E92539752961E
:1031A0003C92DC0154962D913C912130310571F512
:1031B000F801228921112AC023893489418D4423B1
:1031C00009F492C047E0429FF001439FF00D1124A3
:1031D000ED5AFE4F60817181FB01EE0FFF1FE80F7A
:1031E000F91F408151814F5F5F4F21E00E94120A19
:1031F00020E044EC5FEF69E270E0D80113968D9116
:103200009C910E94120AD80152963C92F801838147
:103210009481DC0154962D913C912230310511F5B9
:10322000228921111FC023893489418D442309F447
:103230006CC047E0429FF001439FF00D1124ED5A0E
:10324000FE4F60817181FB01EE0FFF1FE80FF91F38
:10325000408151814150510921E00E94120AD80158
:1032600052963C92D8011396ED91FC911497848963
:103270009589049751F552968C915297811125C0EA
:1032800051EF452E58ED552E58965C924E92579719
:1032900056965C924E92559753968D919C9127E04D
:1032A000289FD001299FB00D1124AD5ABE4F16960C
:1032B0008C91882339F0D80159968C9159978325A0
:1032C00059968C93D80152963C928489958901979E
:1032D000029708F080C9868997898D3D95400CF446
:1032E0007AC9F801128A77C9B1EF4B2EB8ED5B2E7F
:1032F000508E478A568A458A121613060CF083CFE1
:1033000021503109348B238B7ECF61EF462E68ED3F
:10331000562E508E478A568A458A2F5F3F4F273157
:10332000310508F09CCF348B238B99CFFC01E65AF2
:10333000FF4F40815181DC019A962D913C919B97E2
:103340004217530731F498962D913C912230310564
:1033500071F0F801278D222351F0DC0112962D9196
:103360003C912330310519F42089222321F020E0FB
:1033700050E040E049C920E041E050E045C90297F3
:1033800031F0F801148AC12CD12C7601B9C95496B8
:103390003C9248EEC42E43E0D42EE12CF12CB0C96F
:1033A000683EB3E07B078105910508F4EBC9D801BD
:1033B0001696CD90DD90ED90FC9019972B013C0175
:1033C0004C185D086E087F0873016201EE5BFF4FC9
:1033D00080809180092C000CAA08BB088C149D04E5
:1033E000AE04BF0408F4CEC9D9C912966D937D937B
:1033F0008D939C93159751963C92D0C9F80114AACD
:1034000013AA7FCA5C962D913C91F80166816111E7
:1034100002C048505109241735070CF0C3CAA9014E
:10342000C1CAF801168E158EF2CAF80117827CCB3C
:10343000223E3F4F0CF01DCC20E043E050E061E025
:1034400070E00E94120A61E087E00E948402F801A5
:10345000E380F480D70111968D919C910E947807AA
:10346000F701118A108A84E190E0978786876FEFD1
:1034700070E08FE00E94EE0220E050E040E069E260
:1034800070E0D80111968D919C910E94120AF1CBA7
:10349000009719F4F801158262CC15962C911597B6
:1034A000019709F05CCC2111F5CF56CC20E050E01B
:1034B00040E06ACC0E942A0B13CD0E942A0B45CD16
:1034C0000E942A0B77CD0E942A0BA9CD8336910545
:1034D00009F464C38536910509F48CC3049709F097
:1034E000F3CD5A968C915A978823B1F011968D910D
:1034F0009C910E94780740E060E0F8018181928110
:103500000E9448076AE271E0D80111968D919C9162
:103510000E940101F801128E41E06EE0D80111967F
:103520008D919C91FFC0F8018181928128E0DC019E
:103530001B962C9360E00E949805D8011E96ED9191
:10354000FC911F973797EE30F10500F5E255F54EE7
:1035500011968D919C9140E00C945D25211B1B1BC5
:10356000151B0F1B091B031BFD1AF71AF11AEB1A87
:10357000E51ADF1AD51ABC1A61E00E9448076CED03
:1035800070E0F801818192810E940101F801868535
:10359000978501979787868744244394512C892BDC
:1035A00009F092CD518A408A8FCD61E00E94480790
:1035B0006AED70E0D80111968D919C91E5CF63E0A2
:1035C0000E94480768ED70E0DCCF63E00E94480786
:1035D00066ED70E0EFCF65E00E94480764ED70E0B3
:1035E000D0CF65E00E94480762ED70E0E3CF67E06E
:1035F0000E94480760ED70E0C4CF67E00E94480772
:103600006EEC70E0D7CF69E00E9448076CEC70E088
:10361000B8CF69E00E9448076AEC70E0CBCF6BE05E
:103620000E94480768EC70E0ACCF6BE00E9448074E
:1036300066EC70E0BFCF6DE00E94480764EC70E07C
:10364000A0CF6DE00E94480762EC70E0B3CF5A96BD
:103650008C915A978823B1F011968D919C910E947C
:10366000780740E060E0F801818192810E9448077C
:103670006EED70E0D80111968D919C910E94010130
:10368000F801128E41E060E0D80111968D919C9175
:103690000E944807D8011396ED91FC91149786A5D6
:1036A00097A5892B39F464E272E011968D919C9173
:1036B0000E94F108D8011396ED91FC91149786A50C
:1036C00097A50197D1F460E372E011968D919C91DA
:1036D0000E94F108D8011396ED91FC91149762A510
:1036E00073A511968D919C910E94DC0761E572E0B3
:1036F000F801818192810E94F108D8011396ED9121
:10370000FC91149786A597A5029739F468E372E0B7
:1037100011968D919C910E94F10841E06EE0F801B4
:10372000818192810E944807C8010E94F308CCCC95
:103730005A968C915A97882379F011968D919C9185
:103740000E94780771EF472E78ED572EF801508EC2
:10375000478A568A458A128ED8015396AD90BC90FE
:103760004501EFEF8E1A9E0AB6E1AB16B10419F4CB
:1037700088248A94982C40E060E0D80111968D91BD
:103780009C910E9448076CE071E0F8018181928170
:103790000E9401016AE071E0D80111968D919C911F
:1037A0000E94010187E08A9DF0018B9DF00D11249C
:1037B000ED5AFE4FE080F180B701F80181819281DE
:1037C0000E94DC0768E071E0D80111968D919C9110
:1037D0000E940101B7FC96C0D8011396ED91FC91AF
:1037E0001497EE0CFF1CEE0DFF1D55962D913C918C
:1037F0005697808191812817390709F479C040E0F4
:1038000065E011968D919C910E944807F801218DE9
:103810008181928165E071E0211102C062E071E076
:103820000E94010140E068E0D80111968D919C91C1
:103830000E9448076CEF70E0F801818192810E943C
:10384000010140E068E0D80111968D919C910E94A1
:10385000480727E02A9DC0012B9D900D1124FC01F3
:10386000ED5AFE4F6F01A480B580D8011396ED91FB
:10387000FC91EE0DFF1D60817181072E000C880BFD
:10388000990B0E9412242B013C01F6016281738185
:10389000072E000C880B990B0E9412249B01AC018F
:1038A000C301B2010E946823AB01BC019501D8019C
:1038B00011968D919C910E94120861EF70E0F801C1
:1038C000818192810E940101D60116968C918823F4
:1038D00079F040E06FE0F801818192810E94480711
:1038E0006FEE70E0D80111968D919C910E940101BC
:1038F000F80183819481E80EF91ED7018D919C9186
:10390000968B858B41E060E0F801818192810E9475
:103910004807D80111968D919C91129797FC04C08D
:1039200059962C91222329F064E472E00E94F10858
:10393000CBCB63E572E00E94F10865E572E0F80127
:10394000818192810E94F10827E0289DC001299D74
:10395000900D11249C012D5A3E4F6901D901ED9023
:10396000FC90B701F801818192810E94DC0767E534
:1039700072E0D80111968D919C910E94F108F7FC9C
:10398000A3CBD8011396ED91FC911497EE0CFF1C7C
:10399000EE0DFF1D57962D913C9158978081918196
:1039A0002817390709F463C041E065E011968D914D
:1039B0009C910E94480769E572E0F801818192813B
:1039C0000E94F10841E068E0D80111968D919C9128
:1039D0000E9448076AE472E0F801818192810E94A6
:1039E000F10841E068E0D80111968D919C910E9408
:1039F0004807F601A480B580D8011396ED91FC919B
:103A0000EE0DFF1D60817181072E000C880B990B54
:103A10000E9412242B013C01F60162817381072E62
:103A2000000C880B990B0E9412249B01AC01C3016E
:103A3000B2010E946823AB01BC019501D801119627
:103A40008D919C910E941208F6018681882379F05D
:103A500041E06FE0D80111968D919C910E9448073A
:103A60006CE572E0F801818192810E94F108D80131
:103A700013968D919C911497E80EF91EF7018081A1
:103A8000918158969C938E9357971ECB1E96ED91DD
:103A9000FC911F973797EE30F10500F5EA5AF24E88
:103AA00011968D919C9140E00C945D25C81DC21D1E
:103AB000BC1DB61DB01DAA1DA41D9E1D981D921DE6
:103AC0008C1D861D7C1D641D64E00E94480768E211
:103AD00071E0F801818192810E940101F8018685DF
:103AE0009785019797878687892B09F0EDCA83E62A
:103AF00090E0918B808BE8CA64E00E94480766E200
:103B000071E0D80111968D919C91E6CF65E00E94FD
:103B1000480764E271E0DDCF65E00E94480762E299
:103B200071E0EFCF66E00E94480760E271E0D1CF1C
:103B300066E00E9448076EE171E0E3CF67E00E9413
:103B400048076CE171E0C5CF67E00E9448076AE171
:103B500071E0D7CF69E00E94480768E171E0B9CF12
:103B600069E00E94480766E171E0CBCF6AE00E94FD
:103B7000480764E171E0ADCF6AE00E94480762E166
:103B800071E0BFCF6BE00E94480760E171E0A1CF18
:103B90006BE00E9448076EE071E0B3CF40E060E068
:103BA000F801818192810E94480764E472E0D801A3
:103BB00011968D919C910E94F10841E060E0F8011E
:103BC000818192810E94480764E472E0D8011196D5
:103BD0008D919C910E94F108F80181819281DC0114
:103BE0001B961C9260E00E94980534E6432E512CEF
:103BF000F801D8CC11968D919C9128E0FC01238787
:103C000060E00E949805D8011E96ED91FC911F97E7
:103C10003B97EE31F10508F030C0EB5EF14E1196A6
:103C20008D919C9140E00C945D25F51EEF1EE91EE0
:103C3000E31EDD1ED71ED11ECB1EC51EBF1EB91E24
:103C4000B31EAD1EA71EA11E9B1E951E8F1E891E94
:103C5000831E7D1E771E711E6B1E651E5F1E591E04
:103C6000531E491E331E60E00E94480765E771E05D
:103C7000F801818192810E940101F8018685978572
:103C8000019797878687892B09F01ECA84E090E008
:103C900030CF60E00E94480763E771E0D8011196D9
:103CA0008D919C91E8CF61E00E94480761E771E047
:103CB000DFCF61E00E9448076FE671E0EFCF62E07E
:103CC0000E9448076DE671E0D3CF62E00E9448078A
:103CD0006BE671E0E3CF63E00E94480769E671E0BC
:103CE000C7CF63E00E94480767E671E0D7CF64E082
:103CF0000E94480765E671E0BBCF64E00E94480778
:103D000063E671E0CBCF65E00E94480761E671E0B1
:103D1000AFCF65E00E9448076FE571E0BFCF66E076
:103D20000E9448076DE571E0A3CF66E00E94480756
:103D30006BE571E0B3CF68E00E94480769E571E088
:103D400097CF68E00E94480767E571E0A7CF69E078
:103D50000E94480765E571E08BCF69E00E94480743
:103D600063E571E09BCF6AE00E94480761E571E07E
:103D70007FCF6AE00E9448076FE471E08FCF6BE06D
:103D80000E9448076DE471E073CF6BE00E94480722
:103D90006BE471E083CF6CE00E94480769E471E056
:103DA00067CF6CE00E94480767E471E077CF6DE071
:103DB0000E94480765E471E05BCF6DE00E94480710
:103DC00063E471E06BCF6EE00E94480761E471E04C
:103DD0004FCF6EE00E9448076FE371E05FCF6FE066
:103DE0000E9448076DE371E043CF6FE00E944807EF
:103DF0006BE371E053CF30920C042FEF3FEF3E871F
:103E00002D878091140490911504DC0190960D91FA
:103E10001C9120E04D855E8564E170E00E94120AED
:103E2000ED85FE85319709F0A1C10E94EF0A8091CE
:103E3000140490911504DC0190960D911C919197BA
:103E400094962D913C91959796964D915C912F3F2C
:103E5000320709F54F3F5407F1F421E0A80162E170
:103E600070E00E94120A21E0A80163E170E08091F5
:103E70001404909115042DC080910C04882309F43A
:103E800050C910920C0441E050E05E874D87B9CFD5
:103E90001E861D86B6CFB901641B750B1616170654
:103EA000D4F024173507B9F49A01201B310B1216F0
:103EB00013061CF09801241B350B283037400CF0FA
:103EC0004CC121E0401751070CF04CC1A80163E13F
:103ED00070E00E94120A8091140490911504DC0194
:103EE00094964D905C90959796968D909C907201CB
:103EF000E818F908F7FE03C0F194E194F108BCE278
:103F0000EB16B1E0FB060CF067C120E050E040E0AA
:103F100061E170E00E94120AC090E603D090E703CE
:103F2000E090E803F090E90324E1C20ED11CE11C0B
:103F3000F11C0E94BA03C616D706E806F90608F077
:103F40008BC081E00E94620A181619060CF478C032
:103F5000E0911404F091150484A595A5019709F04A
:103F60006FC080913E0490913F040E948E0685FFB1
:103F700067C0609138047091390480913604909143
:103F800037040E94AC06BC0190E080E00E9410243F
:103F900022E03EE041E65FE30E94C7246B017C0122
:103FA0000E9463032B013C018090F2039090F30385
:103FB000A090F403B090F50320E030E04AEF53E422
:103FC000C501B4010E94632387FF0AC020E030ECE2
:103FD00041E455E4C701B6010E94C2241816F4F06A
:103FE00020E030E04AEF53E4C701B6010E946323AA
:103FF00087FF0AC020E030EC41E455E4C501B4017C
:104000000E94C224181654F020E03CE34CE156E430
:10401000C501B4010E94632381115BC1C092F20308
:10402000D092F303E092F403F092F5030E9463034D
:104030006093EA037093EB038093EC039093ED039A
:104040000E94EF0A0E94BA036093E6037093E703AD
:104050008093E8039093E903E0911404F091150430
:1040600082A193A1892BA1F0DF01A65ABF4F2D9108
:104070003C9182A593A52817390751F480A591A5F5
:10408000029731F4A0911604B09117045F963C9208
:10409000DF01A057BE4F8C91811130924A0482817A
:1040A0009381039729F0E0911604F0911704178E7D
:1040B000C090EE03D090EF03E090F003F090F10396
:1040C000B8EECB0EB3E0DB1EE11CF11C0E94BA037C
:1040D000C616D706E806F90608F5E0911004F09137
:1040E0001104878D8325878F0E94BA036093EE03A6
:1040F0007093EF038093F0039093F1038091140485
:1041000090911504FC01EE5AFF4F408151814F5FA1
:104110005F4F20E069E270E00E94120A809114046F
:1041200090911504FC0126AD37AD121613060CF064
:10413000E0C12B3031050CF0E0C180E090E0892B2C
:1041400011F40C94CF120E948F01882311F40C9467
:10415000CF120E9400000C94CF1221E00417150723
:104160000CF4B4CEA80162E170E0B3CE2D853E859B
:104170002230310509F0AFCE8091140490911504DE
:10418000DC0194962D913C91A901401B510B141612
:1041900015061CF0A801421B530BFC0166A177A178
:1041A0009B01201B310B121613061CF09801261BD5
:1041B000370B473951050CF48ECE273931050CF4F5
:1041C0008ACE20E04FEF5FEF62E170E00E94120ABA
:1041D00020E04FEF5FEF49CEFC0100A111A120E0EC
:1041E00041E050E061E170E00E94120AC0901404C6
:1041F000D0901504F9E0EF16F7E0FF0674F0D60151
:1042000096968D909C90B0EF8B1AB1EF9B0A083078
:10421000E7E01E0714F4005F114FF601E85AFF4F64
:10422000A080B1803296E080F18097010F2C000CC5
:10423000440B550B2F87388B498B5A8B34E1430E37
:10424000511CC201550CAA0BBB0B8B8B9C8BAD8BED
:10425000BE8B012E000C220B330BA9019801281BE9
:10426000390B4A0B5B0BB5010B2C000C880B990B1F
:104270004F84588869887A8864197509860997096E
:104280000E943925940124513109032E000C440B5E
:10429000550B6B887C888D889E88261937094809BC
:1042A00059090E949B228F859889A989BA89820F12
:1042B000931FA41FB51F8E159F052CF07C01A81617
:1042C000B9060CF4750120E0A70165E170E0C601B4
:1042D00021CE8091EA039091EB03A091EC03B09181
:1042E000ED038F87988BA98BBA8BA5019401C70129
:1042F000B6010E94F6224B015C010091FA03109175
:10430000FB0320E030E0A9010E94C22487FDDCC04D
:104310000230110534F40F5F1F4F1093FB0300931D
:10432000FA038091FA039091FB030196039708F436
:1043300075CE009114041091150420E030E0A9011D
:10434000C701B6010E94C22420E030E040E05FE3F4
:1043500087FDC2C0C701B6010E94F7220E94DA237E
:1043600020E0AB016FE070E0C8010E94120A20E07B
:1043700030E0A901C501B4010E94C22418160CF452
:10438000B0C0C501B401905820E030E048E453E4E7
:104390000E94632387FF42CE20E034E244EF58E4DA
:1043A000C501B4010E94C72420E030E040E251E49E
:1043B0000E94C7244B015C01A30192018F8598895B
:1043C000A989BA89281B390B4A0B5B0BA3E0B0E023
:1043D0000E94BA220E9410249B01AC01C501B401C5
:1043E0000E9468234B015C01009114041091150494
:1043F000D801DC966D917C91072E000C880B990BEF
:104400000E9412249B01AC01C501B4010E946823E3
:1044100020910804309109042F5F3F4F3093090425
:10442000209308042330310521F4109209041092DE
:104430000804E0910804F0910904EE0FFF1FEE0F4D
:10444000FF1FE253FC4F66A777A780AB91AB20918B
:1044500000043091010440910204509103046091E2
:10446000FC037091FD038091FE039091FF030E9475
:10447000F7222091040430910504409106045091E4
:1044800007040E94F72220E030E040E450E40E945C
:1044900068234B015C0120E030E0A9010E94C224A6
:1044A00020E030E040E05FE387FD1EC0C501B401BD
:1044B0000E94F7220E94DA2320E0AB016FE170E056
:1044C000C8010E94120AAACD0F3F9FEF19070CF4F2
:1044D00028CF0150110921CFC701B6010E94F62251
:1044E0003DCFC501B40150CFC501B4010E94F622F1
:1044F000E1CF263F3F4F0CF020CE20E050E040E0DF
:1045000069E270E00E94120A18CEF999FECF92BDBE
:1045100081BDF89A992780B50895262FF999FECF85
:104520001FBA92BD81BD20BD0FB6F894FA9AF99AD0
:104530000FBE01960895052E97FB1EF400940E946D
:10454000B22257FD07D00E94C52207FC03D04EF4CB
:104550000C94B22250954095309521953F4F4F4F86
:104560005F4F089590958095709561957F4F8F4F1F
:104570009F4F08950E94E722A59F900DB49F900D34
:10458000A49F800D911D11240895A1E21A2EAA1B4B
:10459000BB1BFD010DC0AA1FBB1FEE1FFF1FA217F3
:1045A000B307E407F50720F0A21BB30BE40BF50BF0
:1045B000661F771F881F991F1A9469F76095709579
:1045C000809590959B01AC01BD01CF010895A29FFC
:1045D000B001B39FC001A39F700D811D1124911DD7
:1045E000B29F700D811D1124911D08955058BB2755
:1045F000AA270E940E230C9488240E947A2438F063
:104600000E94812420F039F49F3F19F426F40C9481
:1046100077240EF4E095E7FB0C947124E92F0E94B7
:10462000992458F3BA17620773078407950720F097
:1046300079F4A6F50C94BB240EF4E0950B2EBA2F5A
:10464000A02D0B01B90190010C01CA01A001112498
:10465000FF27591B99F0593F50F4503E68F11A1644
:10466000F040A22F232F342F4427585FF3CF4695D5
:1046700037952795A795F0405395C9F77EF41F16F7
:10468000BA0B620B730B840BBAF09150A1F0FF0FC1
:10469000BB1F661F771F881FC2F70EC0BA0F621FAD
:1046A000731F841F48F4879577956795B795F7959D
:1046B0009E3F08F0B0CF9395880F08F09927EE0F32
:1046C0009795879508950E944D2408F481E00895F8
:1046D0000E947C230C9488240E94812458F00E941C
:1046E0007A2440F029F45F3F29F00C947124511191
:1046F0000C94BC240C9477240E94992468F3992389
:10470000B1F3552391F3951B550BBB27AA276217CD
:104710007307840738F09F5F5F4F220F331F441FDA
:10472000AA1FA9F335D00E2E3AF0E0E832D091500E
:104730005040E695001CCAF72BD0FE2F29D0660FFB
:10474000771F881FBB1F261737074807AB07B0E83E
:1047500009F0BB0B802DBF01FF2793585F4F3AF044
:104760009E3F510578F00C9471240C94BC245F3F5B
:10477000E4F3983ED4F3869577956795B795F795CA
:104780009F5FC9F7880F911D9695879597F90895B2
:10479000E1E0660F771F881FBB1F6217730784074E
:1047A000BA0720F0621B730B840BBA0BEE1F88F75D
:1047B000E09508950E94E1236894B1110C94BC2403
:1047C00008950E94A12488F09F5798F0B92F992747
:1047D000B751B0F0E1F0660F771F881F991F1AF0EC
:1047E000BA95C9F714C0B13091F00E94BB24B1E072
:1047F00008950C94BB24672F782F8827B85F39F071
:10480000B93FCCF3869577956795B395D9F73EF484
:1048100090958095709561957F4F8F4F9F4F08952C
:10482000E89409C097FB3EF490958095709561954A
:104830007F4F8F4F9F4F9923A9F0F92F96E9BB2700
:104840009395F695879577956795B795F111F8CF7C
:10485000FAF4BB0F11F460FF1BC06F5F7F4F8F4FE7
:104860009F4F16C0882311F096E911C0772321F0DD
:104870009EE8872F762F05C0662371F096E8862F75
:1048800070E060E02AF09A95660F771F881FDAF7CC
:10489000880F9695879597F90895990F0008550FF9
:1048A000AA0BE0E8FEEF16161706E807F907C0F0B6
:1048B00012161306E407F50798F0621B730B840BBE
:1048C000950B39F40A2661F0232B242B252B21F498
:1048D00008950A2609F4A140A6958FEF811D811D38
:1048E000089597F99F6780E870E060E008959FEF72
:1048F00080EC089500240A94161617061806090677
:10490000089500240A941216130614060506089545
:10491000092E0394000C11F4882352F0BB0F40F4CD
:10492000BF2B11F460FF04C06F5F7F4F8F4F9F4F0D
:10493000089557FD9058440F551F59F05F3F71F08F
:104940004795880F97FB991F61F09F3F79F08795F6
:104950000895121613061406551FF2CF4695F1DF7F
:1049600008C0161617061806991FF1CF869571050F
:10497000610508940895E894BB2766277727CB0143
:1049800097F908950E944D2408F48FEF08950E942E
:10499000DA240C9488240E947A2438F00E9481241E
:1049A00020F0952311F00C9471240C947724112499
:1049B0000C94BC240E94992470F3959FC1F3950F29
:1049C00050E0551F629FF001729FBB27F00DB11D93
:1049D000639FAA27F00DB11DAA1F649F6627B00D23
:1049E000A11D661F829F2227B00DA11D621F739F0C
:1049F000B00DA11D621F839FA00D611D221F749F1A
:104A00003327A00D611D231F849F600D211D822F60
:104A1000762F6A2F11249F5750409AF0F1F0882387
:104A20004AF0EE0FFF1FBB1F661F771F881F9150B4
:104A30005040A9F79E3F510580F00C9471240C94CE
:104A4000BC245F3FE4F3983ED4F386957795679551
:104A5000B795F795E7959F5FC1F7FE2B880F911DDE
:104A60009695879597F908950E944D24880B990B88
:104A70000895DB018F939F930E94BA22BF91AF915B
:104A8000A29F800D911DA39F900DB29F900D1124A8
:104A9000089597FB072E16F4009407D077FD09D0F0
:104AA0000E94632507FC05D03EF4909581959F4FA9
:104AB0000895709561957F4F0895EE0FFF1F059043
:104AC000F491E02D0994AA1BBB1B51E107C0AA1F5A
:104AD000BB1FA617B70710F0A61BB70B881F991F9F
:104AE0005A95A9F780959095BC01CD0108950F9333
:104AF0001F93CF93DF938230910510F482E090E012
:104B0000E0914D04F0914E0430E020E0B0E0A0E0F0
:104B1000309799F42115310509F44AC0281B390B47
:104B200024303105D8F58A819B816115710589F1A1
:104B3000FB0193838283FE0111C040815181028178
:104B4000138148175907E0F04817590799F410974F
:104B500061F012960C93129713961C933296CF0124
:104B6000DF91CF911F910F91089500934D04109301
:104B70004E04F4CF2115310551F04217530738F098
:104B8000A901DB019A01BD01DF01F801C1CFEF01ED
:104B9000F9CF90934E0480934D04CDCFFE01E20FE8
:104BA000F31F819391932250310939832883D7CF02
:104BB00020914B0430914C04232B41F420913B0174
:104BC00030913C0130934C0420934B0420913901E7
:104BD00030913A012115310541F42DB73EB740918E
:104BE0003D0150913E01241B350BE0914B04F091A7
:104BF0004C04E217F307A0F42E1B3F0B28173907CC
:104C000078F0AC014E5F5F4F2417350748F04E0F28
:104C10005F1F50934C0440934B04819391939FCF1B
:104C2000F0E0E0E09CCFCF93DF930097E9F0FC0148
:104C3000329713821282A0914D04B0914E04ED017F
:104C400030E020E01097A1F420813181820F931F82
:104C500020914B0430914C042817390709F061C0AA
:104C6000F0934C04E0934B04DF91CF910895EA0157
:104C7000CE17DF07E8F54A815B819E01411551059A
:104C8000B1F7E901FB83EA8349915991C40FD51F1C
:104C9000EC17FD0761F4808191810296840F951FC6
:104CA000E90199838883828193819B838A83F0E0E1
:104CB000E0E012968D919C9113970097B9F52D9194
:104CC0003C911197CD010296820F931F20914B04C6
:104CD00030914C042817390739F6309751F5109266
:104CE0004E0410924D04B0934C04A0934B04BCCFDF
:104CF000D383C28340815181840F951FC817D90780
:104D000061F44E5F5F4F88819981480F591F51832D
:104D100040838A819B81938382832115310509F029
:104D2000B0CFF0934E04E0934D049ECFFD01DC0123
:0C4D3000C0CF13821282D7CFF894FFCFBF
:104D3C00010A0A1F1F1F0E04040E1F1F1F1F1F1F17
:104D4C001F0E1B111F1F1F1F1F0E1B11111F1F1FBB
:104D5C001F0E1B1111111F1F1F0E1B111111111FE3
:104D6C001F0E1B11111111111F00004F04800000A8
:104D7C0000400014005400000000001F072501AC87
:104D8C0005C6030C0001000000000D000A00010024
:104D9C00000E000A000100002300010000000026A4
:104DAC00000100000000270001000000000F000AB5
:104DBC00000100001B0001000000011C000A0001A2
:104DCC0000011D000A000100012D0001000000007F
:104DDC002C0001000000001E000A000100001F0052
:104DEC000A0001000010000A0001000012000A0075
:104DFC0001000013000A0001000015000100000072
:104E0C0000000001000100010B000100010000285E
:104E1C00000100000000290001000000002A000130
:104E2C000000000100000000C50125015201120222
:104E3C008301610175010000000064053705AC05B4
:104E4C001405F100240515056E616E00696E66008F
:104E5C006F766600202020202053544F50202000D5
:104E6C0054454D504F3A20002020202021425241E1
:104E7C004B452100202020202020202020202020F5
:0E4E8C0020202020005B005D002D3E00450030
:00000001FF
