:100000000C9465000C948D000C948D000C948D0064
:100010000C948D000C948D000C948D000C948D002C
:100020000C948D000C948D000C948D000C948D001C
:100030000C948D000C948D000C948D000C948D000C
:100040000C9408200C948D000C9486230C94B823F7
:100050000C948D000C948D000C948D000C948D00EC
:100060000C943F120C948D00000000080002010067
:100070000003040700000000000000000102040863
:100080001020408001020408102001020408102002
:10009000040404040404040402020202020203032E
:1000A00003030303000000002300260029000000D2
:1000B0000000250028002B0000000000240027007D
:1000C0002A009A079D11E823B90711241FBECFEF1C
:1000D000D8E0DEBFCDBF13E0A0E0B1E0E8E3F9E592
:1000E00002C005900D92A430B107D9F724E0A4E036
:1000F000B3E001C01D92A73DB207E1F710E0C8ECE4
:10010000D0E004C02297FE010E94DE29C23CD10744
:10011000C9F70E9485270C948F2C0C9400008EBD8B
:1001200000000DB407FEFDCF8EB50895CF92DF928B
:10013000EF92FF92C0904B03D0904C03E0904D03A0
:10014000F0904E0380913F0390914003A0914103B2
:10015000B0914203C81AD90AEA0AFB0A84E00E9455
:100160001822892B09F04FC080914F0381114DC097
:1001700089ECC816D104E104F10490F069E070E064
:1001800080915203909153030E94BE1CAA2797FDB1
:10019000A095BA2F8C159D05AE05BF0508F072C05D
:1001A00069E070E080915203909153030E94BE1C5D
:1001B000AA2797FDA095BA2F8C159D05AE05BF0502
:1001C00020F540E050E068E270E0809152039091A9
:1001D00053030E94ED1C40E050E069E270E0809122
:1001E0005203909153030E94ED1C0E945220609391
:1001F0003F0370934003809341039093420381E057
:1002000080934F0302C010924F0369E070E0809129
:100210005203909153030E94BE1CAA2797FDA095FC
:10022000BA2F8C159D05AE05BF05A0F440E050E047
:1002300068E270E080915203909153030E94ED1C9C
:1002400040E050E069E270E08091520390915303E6
:100250000E94ED1C68E270E080915203909153037C
:100260000E94BE1C892B09F042C06FE270E08091B1
:100270005203909153030E94BE1C892BC1F540E0AC
:1002800050E037C0A60168E270E08091520390917F
:1002900053030E94ED1C68E070E08091520390913E
:1002A00053030E94BE1CDC01A70196010E94D429C1
:1002B0009B01AC0160E87DE88BE590E00E94A329FA
:1002C000A90169E270E080915203909153030E946A
:1002D000ED1C0E94522060933F0370934003809373
:1002E00041039093420381E080934F0359CF41E053
:1002F00050E06BE370E08091520390915303FF90C4
:10030000EF90DF90CF900C94ED1CBF92CF92DF92D4
:10031000EF92FF920F931F93CF93DF9300D000D003
:10032000CDB7DEB7082FB92E162F60E0822F2C83B1
:100330004B835A8379830E94E2218AE090E00E94F5
:10034000BB20802F0E948F007981872F0E948F0011
:10035000C82ED12CE12CF12CFE2CED2CDC2CCC2445
:10036000812F0E948F00C82AFE2CED2CDC2CCC247F
:100370005A81852F0E948F00C82AFE2CED2CDC2C80
:10038000CC244B81842F0E948F00C82A8AE090E001
:100390000E94BB2061E02C81822F0E94E22180918B
:1003A0001A0390911B038F36910509F066C04091A6
:1003B0001C0350911D0360911E0370911F03452B78
:1003C000462B472B09F44AC0A601537050931903DA
:1003D000409318036CE370E08091520390915303B3
:1003E0000E94ED1C6FE370E08091520390915303E3
:1003F0000E94BE1C209118033091190382179307A5
:100400004CF46FE370E080915203909153030E948B
:10041000BE1C01C0C901AC016FE370E080915203C2
:10042000909153030E94ED1C609114037091150389
:10043000882777FD8095982F0E9432282AE037ED93
:1004400043E25EE30E94E6280E94FF272CEB32E0A5
:10045000261B370B30930F0320930E03A7014F7118
:10046000552750931703409316036DE370E0809176
:100470005203909153030E94ED1C80911A039091B6
:100480001B03429769F4D0921503C0921403A6018E
:100490006EE370E080915203909153030E94ED1C33
:1004A00020911A0330911B0380910C0390910D034E
:1004B0002817390741F4C0921003D0921103E0923B
:1004C0001203F092130300931A03B0921B030F90D0
:1004D0000F900F900F90DF91CF911F910F91FF9090
:1004E000EF90DF90CF90BF9008952AE030E040E099
:1004F00050E0BA018BE890E00E9485012AE030E0EC
:1005000043EC50E061E070E08CEE90E00E948501E9
:100510002AE030E040E650E067E070E08DEE90E0E9
:100520000E9485012AE030E044E050E060E070E0A5
:1005300080E890E00E9485012AE030E045E05EE03E
:1005400064E070E080E990E00E9485012AE030E0FC
:1005500043E050E060E070E081E990E00E948501B6
:100560002AE030E044EF51E060E070E083E990E0A1
:100570000E9485012AE030E048EB5BE060E070E03B
:1005800084E990E00E9485012AE030E040E951E0F2
:1005900060E070E085E990E00E9485012AE030E0AB
:1005A00041E050E060E070E083EA90E00E94850165
:1005B0002AE030E04AE050E060E070E084EA90E059
:1005C0000E9485012AE030E04AE050E060E070E0FF
:1005D00085EA90E00E9485012AE030E048E35EE091
:1005E00060E070E086EA90E00E9485012AE030E059
:1005F0004AE050E060E070E087EA90E00E94850108
:100600002AE030E044EF51E060E070E088EA90E0FA
:100610000E9485012AE030E044EF51E060E070E0A4
:100620008AEA90E00E9485012AE030E04AE050E04A
:1006300060E070E08BEA90E00E9485012AE030E003
:1006400041E050E060E070E080EA90E00E948501C7
:100650002AE030E040E050ED67E070E08DEA90E0A5
:100660000C94850161E087E00E94A92161E087E0A8
:100670000E94E22143E050E064E370E08091520385
:10068000909153030E94ED1C83E00E94012161E0E0
:100690008AE00E94A92161E083E00E94A92161E033
:1006A00089E00E94A92161E088E00E94A92161E01F
:1006B0008AE00E94E22160E084E00E94A92160E0DB
:1006C00086E00E94A92180E48093800089E08093E5
:1006D000810010928900109288008CB58F7D8CBDAE
:1006E0008CB58C7F82608CBD8DB58E7F8DBD8CB5B9
:1006F0008C608CBD0E94A41026E040E051EE60E0CA
:1007000070E086E394E00E9424230C947502CF935A
:10071000DF936FE370E080915203909153030E9446
:10072000BE1C4E975CF46FE270E080915203909192
:1007300053030E94BE1C181619062CF010922103B8
:100740001092200309C0809120039091210301960B
:10075000909321038093200348EE53E06FE370E011
:1007600080915203909153030E94ED1CC09120038D
:10077000D09121036EE470E0809152039091530375
:100780000E94BE1C8C179D07B4F410922103109296
:10079000200348EE53E06FE370E0809152039091A4
:1007A00053030E94ED1C8091500390915103DF91FF
:1007B000CF910C94AB1CDF91CF91089564E370E06E
:1007C00080915203909153030E94BE1C039731F411
:1007D00086E00E941822019709F455C081E08093B9
:1007E0002E0364E370E080915203909153030E94C2
:1007F000BE1C892B59F469E370E0809152039091FB
:1008000053030E94BE1C019709F45DC064E370E0CD
:1008100080915203909153030E94BE1C019759F49A
:1008200069E370E080915203909153030E94BE1CD3
:10083000039709F453C064E370E0809152039091F0
:1008400053030E94BE1C892B31F486E00E941822BB
:10085000019769F44EC064E370E080915203909177
:1008600053030E94BE1C019709F06DC0EECF69E2F0
:1008700070E080915203909153030E94BE1C8D3210
:100880009140BCF5089580912E03882309F4A9CFE7
:1008900080915003909151030E94AB1C44E050E0C2
:1008A00064E370E080915203909153030E94ED1C29
:1008B00040E050E060E370E0809152039091530378
:1008C0000E94ED1C8ECF41E050E064E370E0809127
:1008D0005203909153030E94ED1C98CF42E050E0E8
:1008E00064E370E080915203909153030E94ED1CE9
:1008F000A2CF43E050E064E370E080915203909116
:1009000053030E94ED1C61E087E00E94E2211092F7
:100910002E031092250380914B0390914C03A091DC
:100920004D03B0914E0380933B0390933C03A093FF
:100930003D03B0933E0380932F0390933003A09325
:100940003103B09332030895AF92BF92CF92DF92FA
:10095000EF92FF920F931F93CF93DF936CE270E0BF
:1009600080915203909153030E94BE1C8C016BE452
:1009700070E080915203909153030E94BE1C20911D
:1009800052033091530308171907DCF441E050E09B
:1009900068E370E0C9010E94ED1C66E170E080919F
:1009A0005203909153030E94BE1CAC0167E370E0B8
:1009B00080915203909153030E94ED1C40E050E05F
:1009C00099C042E050E068E370E0C9010E94ED1C6C
:1009D00067E370E080915203909153030E94BE1C24
:1009E0008C0167E170E080915203909153030E9463
:1009F000BE1C0817190714F56CE270E080915203D1
:100A0000909153030E94BE1C8C0164E170E08091C0
:100A10005203909153030E94BE1C845691090817FB
:100A2000190764F467E370E08091520390915303D7
:100A30000E94BE1CAC014F5F5F4F9BC067E370E03C
:100A400080915203909153030E94BE1C1816190600
:100A5000BCF46CE270E080915203909153030E94C9
:100A6000BE1C8C0164E170E08091520390915303AD
:100A70000E94BE1C8C599F4F801791070CF46EC0CA
:100A800067E370E080915203909153030E94BE1C73
:100A9000BC0183E00E94212167E370E08091520352
:100AA000909153030E94BE1C8C0167E170E080911D
:100AB0005203909153030E94BE1C08171907C9F1F5
:100AC0008091250381115EC06CE270E08091520339
:100AD000909153030E94BE1C8C0166E470E08091EB
:100AE0005203909153030E94BE1C0817190754F03B
:100AF00041E050E069E370E080915203909153032C
:100B00000E94ED1C68E370E08091520390915303C2
:100B10000E94BE1C019709F043C06FE270E0809113
:100B20005203909153030E94BE1C892B09F450C0BC
:100B300037C06CE270E080915203909153030E94A1
:100B4000BE1C8C0166E470E08091520390915303C7
:100B50000E94BE1C08171907ACF0B2CF67E370E023
:100B600080915203909153030E94BE1CAC014150EE
:100B7000510967E370E080915203909153030E9402
:100B8000ED1C7ECF43E050E069E370E080915203BA
:100B9000909153030E94ED1C81E080932503B2CF16
:100BA00068E370E080915203909153030E94BE1C51
:100BB000019709F01FC16FE270E08091520390919C
:100BC00053030E94BE1C181619060CF490C012C1E3
:100BD00068E470E080915203909153030E94BE1C20
:100BE0007C0169E470E080915203909153030E946C
:100BF000BE1C8C0167E470E0809152039091530316
:100C00000E94BE1CEC016DE270E080915203909155
:100C100053030E94BE1CE01AF10A0027F7FC00955E
:100C2000102F9E01442737FD4095542FBC01882783
:100C300077FD8095982F1F921F921F92E4E6EF9305
:100C4000A12CB12C65010E9497250F900F900F9059
:100C50000F906536710514F064E670E08B0177FF44
:100C600002C000E010E064E370E0809152039091D4
:100C700053030E94BE1C019759F465E370E0809114
:100C80005203909153030E94BE1C081719072CF5BC
:100C900064E370E080915203909153030E94BE1C64
:100CA0000297DCF464E370E0809152039091530367
:100CB0000E94BE1C039709F032C165E370E0809189
:100CC0005203909153030E94BE1C05970CF027C15C
:100CD00045E050E064E370E0CFC0A80165E370E058
:100CE00080915203909153030E94ED1CDBCF68E486
:100CF00070E080915203909153030E94BE1C7C01CE
:100D00006AE470E080915203909153030E94BE1CEC
:100D10008C0167E470E080915203909153030E942C
:100D2000BE1CEC016DE270E0809152039091530380
:100D30000E94BE1CE01AF10A0027F7FC0095102F54
:100D40009E01442737FD4095542FBC01882777FD2D
:100D50008095982F1F921F921F92E4E6EF93A12C8B
:100D6000B12C65010E9497250F900F900F900F9066
:100D70006536710514F064E670E08B0177FF02C000
:100D800000E010E064E370E080915203909153031F
:100D90000E94BE1C019761F465E370E080915203EC
:100DA000909153030E94BE1C081719070CF074C0E1
:100DB00064E370E080915203909153030E94BE1C43
:100DC00002970CF069C064E370E080915203909147
:100DD00053030E94BE1C039709F068C065E370E0EE
:100DE00080915203909153030E94BE1C05970CF40E
:100DF00060C05CC068E470E080915203909153033E
:100E00000E94BE1C7C0167E470E0809152039091C7
:100E100053030E94BE1CEC016DE270E0809152030E
:100E2000909153030E94BE1C0027F7FC0095102FE1
:100E30009E01442737FD4095542FBC01882777FD3C
:100E40008095982F1F921F921F92E4E6EF93A12C9A
:100E5000B12C65010E9497250F900F900F900F9075
:100E60006536710514F064E670E0AB0177FF02C0EF
:100E700040E050E065E370E08091520390915303AD
:100E8000DF91CF911F910F91FF90EF90DF90CF9066
:100E9000BF90AF900C94ED1CA80165E370E08091C9
:100EA0005203909153030E94ED1C8DCF40E050E01F
:100EB0000BC060E470E080915203909153030E9454
:100EC000BE1CAC014F5F5F4F60E470E08091520345
:100ED000909153030E94ED1C60E470E080915203F6
:100EE000909153030E94BE1C8C016FE470E08091CE
:100EF0005203909153030E94BE1C0817190779F4FE
:100F000045E050E064E370E0809152039091530318
:100F10000E94ED1C40E050E060E470E0ADCFDF9156
:100F2000CF911F910F91FF90EF90DF90CF90BF90E6
:100F3000AF9008950F9300E022E040E167E280E681
:100F400093E00E946C1322E040E16FE384E593E0BC
:100F50000E946C1346E050E065E070E080E593E0AD
:100F60000E94791E64EF72E086E093E00F910C948A
:100F70004C2686E093E00C94DE250F931F93CF93CD
:100F8000DF9300D000D000D0CDB7DEB786E394E089
:100F90000E944122181619060CF05AC14AE366E372
:100FA00074E0CE0101960E946F25BE016F5F7F4FF6
:100FB00086E093E00E949826CE0101960E94DE25ED
:100FC0004AE066E374E0CE0101960E946F25CE01EF
:100FD00001960E9479277093050360930403CE0164
:100FE00001960E94DE2586E093E00E941A276BE6B8
:100FF00071E086E093E00E94FB2681110FC060E75C
:1010000071E086E093E00E94FB268823E9F06BE420
:1010100071E086E394E00E94762416C000E010E0C0
:10102000B80180915203909153030E94BE1C4AE084
:1010300050E0BC0186E394E00E9429250F5F1F4F1A
:101040000035110569F7DBCF65E771E086E093E0D5
:101050000E94FB26882331F064E471E086E394E08B
:101060000E94762469E771E086E093E00E94FB2607
:10107000882361F0409104035091050360E070E023
:1010800080915203909153030E94ED1C64E871E03B
:1010900086E093E00E94FB26882361F040910403E0
:1010A0005091050361E070E08091520390915303E9
:1010B0000E94ED1C6FE871E086E093E00E94FB2641
:1010C000882361F0409104035091050362E070E0D1
:1010D00080915203909153030E94ED1C6AE971E0E4
:1010E00086E093E00E94FB26882361F04091040390
:1010F0005091050363E070E0809152039091530397
:101100000E94ED1C65EA71E086E093E00E94FB26F8
:10111000882361F0409104035091050364E070E07E
:1011200080915203909153030E94ED1C61EB71E09A
:1011300086E093E00E94FB26882361F0409104033F
:101140005091050365E070E0809152039091530344
:101150000E94ED1C6DEB71E086E093E00E94FB269F
:10116000882361F0409104035091050366E070E02C
:1011700080915203909153030E94ED1C69EC71E041
:1011800086E093E00E94FB26882361F040910403EF
:101190005091050367E070E08091520390915303F2
:1011A0000E94ED1C66ED71E086E093E00E94FB2654
:1011B000882361F0409104035091050368E070E0DA
:1011C00080915203909153030E94ED1C62EE71E0F6
:1011D00086E093E00E94FB26882361F0409104039F
:1011E0005091050369E070E08091520390915303A0
:1011F0000E94ED1C60EF71E086E093E00E94FB2608
:10120000882361F040910403509105036AE070E087
:1012100080915203909153030E94ED1C6EEF71E098
:1012200086E093E00E94FB26882361F0409104034E
:10123000509105036BE070E080915203909153034D
:101240000E94ED1C64EF72E086E093E00E94A42609
:1012500026960FB6F894DEBF0FBECDBFDF91CF91BB
:101260001F910F910895CF93DF9360E370E0809119
:101270005203909153030E94BE1C2091520330915F
:101280005303892B09F092C264E370E0C9010E9404
:10129000BE1CEC018091260390912703C817D90743
:1012A00041F080E693E00E94EB13D0932703C093B4
:1012B00026032097F1F440E060E080E693E00E948E
:1012C000F9136CE072E080E693E00E94692441E04B
:1012D00060E080E693E00E94F9136CE072E080E643
:1012E00093E00E94692480E693E0DF91CF910C9413
:1012F0009913C130D10509F090C080E693E00E94B7
:101300009E1340E060E080E693E00E94F9136DE1F7
:1013100072E080E693E00E94692441E060E080E6AC
:1013200093E00E94F91365E172E080E693E00E9489
:1013300069248091280390912903019690932903B1
:101340008093280306970CF45FC065E370E08091FA
:101350005203909153030E94BE1C8135910534F0D5
:1013600084E090E0909329038093280365E370E084
:1013700080915203909153030E94BE1C80359105C9
:101380005CF465E370E080915203909153030E94F6
:10139000BE1CCC970CF073C265E370E080915203E1
:1013A000909153030E94BE1CCC975CF465E370E0FF
:1013B00080915203909153030E94BE1C8D970CF0B4
:1013C00065C265E370E080915203909153030E94DF
:1013D000BE1C8D975CF465E370E0809152039091A0
:1013E00053030E94BE1C83970CF057C265E370E064
:1013F00080915203909153030E94BE1C839724F462
:1014000010922903109228036091280380E693E04C
:101410000E94681462E172E076C2C230D105C9F45C
:1014200080E693E00E949E1340E060E080E693E057
:101430000E94F9136EE272E080E693E00E94692454
:1014400041E060E080E693E00E94F9136FE372E010
:101450005AC2C330D10509F071C180E693E00E9401
:101460009E1362E370E080915203909153030E94B7
:10147000BE1C883E934054F448EE53E062E370E0B3
:1014800080915203909153030E94ED1C40E060E074
:1014900080E693E00E94F91360E572E080E693E055
:1014A0000E94692441E060E080E693E00E94F91325
:1014B00080915003909151030E94B61C20E030E0CF
:1014C000A9010E94E2281816BCF461E672E080E6E9
:1014D00093E00E94692480915003909151030E94EF
:1014E000B61C0E94FF274AE050E080E693E00E948D
:1014F000212569E172E002C069E672E080E693E0CE
:101500000E94692441E06EE080E693E00E94F913B6
:1015100068E370E080915203909153030E94BE1CD7
:10152000029731F466E080E693E00E94681406C0FA
:101530006BE172E080E693E00E94692441E06FE095
:1015400080E693E00E94F91369E370E08091520312
:10155000909153030E94BE1C019709F073C06091E3
:10156000280380E693E00E946814809128039091FC
:1015700029030196909329038093280306970CF47E
:10158000C8C165E370E080915203909153030E94BB
:10159000BE1C8135910534F084E090E090932903DE
:1015A0008093280365E370E0809152039091530388
:1015B0000E94BE1C803591055CF465E370E080916B
:1015C0005203909153030E94BE1CCC970CF06CC147
:1015D00065E370E080915203909153030E94BE1C1A
:1015E000CC975CF465E370E08091520390915303D3
:1015F0000E94BE1C8D970CF05EC165E370E0809187
:101600005203909153030E94BE1C8D975CF465E3D6
:1016100070E080915203909153030E94BE1C839707
:101620000CF050C165E370E0809152039091530338
:101630000E94BE1C83970CF06CC11092290310927B
:10164000280367C165E370E08091520390915303D2
:101650000E94BE1C803591052CF065E080E693E089
:101660000E94681465E370E08091520390915303E7
:101670000E94BE1C803591055CF465E370E08091AA
:101680005203909153030E94BE1CCC970CF021C1D1
:1016900065E370E080915203909153030E94BE1C59
:1016A000CC975CF465E370E0809152039091530312
:1016B0000E94BE1C8D970CF012C165E370E0809112
:1016C0005203909153030E94BE1C8D975CF465E316
:1016D00070E080915203909153030E94BE1C839747
:1016E0000CF003C165E370E08091520390915303C5
:1016F0000E94BE1C83975CF465E370E08091520306
:10170000909153030E94BE1C49970CF0F4C065E30E
:1017100070E080915203909153030E94BE1C499740
:101720000CF0EFC080910A01882309F4EAC060E060
:1017300080E693E0DF91CF910C946814C430D1051A
:10174000C9F480E693E00E949E1340E060E080E6EA
:1017500093E00E94F91367E772E080E693E00E944D
:10176000692441E060E080E693E00E94F91368E8B4
:1017700072E0C9C0259709F0CCC080E693E00E94D2
:101780009E1340E060E080E693E00E94F91369E96F
:1017900072E080E693E00E94692441E060E080E628
:1017A00093E00E94F9136EE272E0ADC060E370E076
:1017B000C9010E94BE1CAC014150510962E370E0B6
:1017C00080915203909153030E94ED1C40E060E031
:1017D00080E693E00E94F9136AEA72E080E693E003
:1017E0000E94692461E370E0809152039091530359
:1017F0000E94BE1C019719F461EB72E002C06CEB11
:1018000072E080E693E00E94692441E060E080E6B7
:1018100093E00E94F91367EC72E080E693E00E9487
:10182000692462E370E080915203909153030E9417
:10183000BE1C4AE050E0BC0180E693E00E942125F6
:1018400066E672E080E693E00E94692462E370E05D
:1018500080915203909153030E94BE1CBC01809161
:101860005203909153030E94BE1C4AE050E0BC0119
:1018700080E693E00E94212564E172E044C083E0A9
:1018800090E0909329038093280386CD82E090E036
:10189000909329038093280394CD81E090E0909366
:1018A000290380932803A2CD83E090E0909329033D
:1018B000809328038DCE82E090E09093290380935B
:1018C00028039BCE81E090E0909329038093280326
:1018D000A9CE64E080E693E00E946814D9CE63E06C
:1018E00080E693E00E946814E8CE62E080E693E030
:1018F0000E946814F7CE61E080E693E00E946814CD
:1019000006CF6BE172E080E693E0DF91CF910C941B
:101910006924DF91CF910895CF92DF92EF92FF92E9
:1019200080914B0390914C03A0914D03B0914E03D5
:10193000803D9740A105B10508F48CC064E370E0D8
:1019400080915203909153030E94BE1C039709F0AB
:1019500081C080914B0390914C03A0914D03B091B5
:101960004E034091330350913403609135037091DD
:101970003603841B950BA60BB70B893E9340A1053C
:10198000B10508F445C080910A0191E08927809350
:101990000A010E94870380912403882329F1E090A3
:1019A0002203F09023036DE470E080915203909144
:1019B00053030E94BE1CE816F9060CF052C062E404
:1019C00070E080915203909153030E94BE1C0197D6
:1019D00009F447C0809122039091230301969093CC
:1019E00023038093220304C0109223031092220346
:1019F00080914B0390914C03A0914D03B0914E0305
:101A00008093330390933403A0933503B09336034C
:101A10006BE370E080915203909153030E94BE1CCF
:101A2000892B09F02DC162E170E080915203909101
:101A300053030E94BE1C892B09F422C164E370E0A9
:101A400080915203909153030E94BE1C039709F0AA
:101A500017C12DC080915003909151030E94AB1C7F
:101A600078CF40E050E069E270E0809152039091BD
:101A700053030E94ED1C1092240310922303109232
:101A8000220362E470E080915203909153030E941C
:101A9000BE1C019709F0ACCF40E050E062E470E07A
:101AA00080915203909153030E94ED1CA1CF62E1FB
:101AB00070E080915203909153030E94BE1CC0902D
:101AC0004B03D0904C03E0904D03F0904E034091B7
:101AD0002F03509130036091310370913203C41A87
:101AE000D50AE60AF70A28EE33E0DC010E94C22993
:101AF0006C157D058E059F0550F444E050E064E3CD
:101B000070E080915203909153030E94ED1CC090AD
:101B10004B03D0904C03E0904D03F0904E03809126
:101B2000470390914803A0914903B0914A03C81A12
:101B3000D90AEA0AFB0A60E170E0809152039091B1
:101B400053030E94BE1CAA2797FDA095BA2F8C159F
:101B50009D05AE05BF0590F40E94330980914B03AB
:101B600090914C03A0914D03B0914E038093470395
:101B700090934803A0934903B0934A0363E370E052
:101B800080915203909153030E94BE1C019751F023
:101B900063E370E080915203909153030E94BE1C56
:101BA000029779F5C0904B03D0904C03E0904D0321
:101BB000F0904E038091430390914403A09145031C
:101BC000B0914603C81AD90AEA0AFB0A60E170E03C
:101BD00080915203909153030E94BE1CAA2797FD47
:101BE000A095BA2F8C159D05AE05BF05D0F440E039
:101BF00050E063E370E080915203909153030E94A0
:101C0000ED1C80914B0390914C03A0914D03B0913A
:101C10004E038093430390934403A0934503B093F2
:101C2000460364E370E080915203909153030E9455
:101C3000BE1C049781F480914B0390914C03A091BA
:101C40004D03B0914E03893B2BE09207A105B105EE
:101C500008F070C026C064E370E080915203909158
:101C600053030E94BE1C059731F364E370E080913A
:101C70005203909153030E94BE1C029791F4DBCF54
:101C800080914B0390914C03A0914D03B0914E0372
:101C900080932F0390933003A0933103B0933203CA
:101CA00036CF80914B0390914C03A0914D03B0919E
:101CB0004E0380933B0390933C03A0933D03B0936A
:101CC0003E03C0904B03D0904C03E0904D03F09046
:101CD0004E038091370390913803A0913903B0915E
:101CE0003A03C81AD90AEA0AFB0A65E170E0809152
:101CF0005203909153030E94BE1CAA2797FDA09502
:101D0000BA2F8C159D05AE05BF0508F048C00E948E
:101D1000A40480914B0390914C03A0914D03B0918A
:101D20004E038093370390933803A0933903B09305
:101D30003A0335C040913B0350913C0360913D0311
:101D400070913E036C017D01C41AD50AE60AF70AB8
:101D500061E170E080915203909153030E94BE1C98
:101D6000AA2797FDA095BA2F8C159D05AE05BF0536
:101D700008F0A7CF40E050E064E370E080915203A8
:101D8000909153030E94ED1C809150039091510358
:101D90000E94AB1C60E087E00E94E22192CFFF909E
:101DA000EF90DF90CF900895CF92DF92EF92FF9265
:101DB00080914301882309F47DC08DE693E00E9461
:101DC00071116FE370E08DE693E00E9485118DE65E
:101DD00093E00E949A11811128C08091560390913E
:101DE0005703909363038093620380915803809319
:101DF0006403809159038093650380915A03809313
:101E0000660380915B038093670380915C038093FA
:101E1000680380915D038093690380915E038093E2
:101E20006A0380915F0380936B0380E693E00E94D6
:101E30006E1443E151E060E080E693E00E942E14CE
:101E40004BE151E061E080E693E00E942E1443E212
:101E500051E062E080E693E00E942E144BE251E0F4
:101E600063E080E693E00E942E1443E351E064E0D7
:101E700080E693E00E942E144BE351E065E080E69B
:101E800093E00E942E144BE051E066E080E693E080
:101E90000E942E1480E693E00E949E1341E050E0E1
:101EA00062E270E080915203909153030E94ED1C16
:101EB000109243010E94522060934B0370934C0395
:101EC00080934D0390934E03809150039091510362
:101ED0000E94331C80912C0390912D0320912A03A2
:101EE00030912B03820F931F97FD01967C01F5948F
:101EF000E79485E10E9404219701281B390BC90151
:101F00000B96479750F485E10E940421BC01809113
:101F10005003909151030E94821580912A03909161
:101F20002B0390932D0380932C0385E10E940421C1
:101F300090932B0380932A0381E10E940421BC012A
:101F400080915003909151030E947B1580E10E9483
:101F50000421BC0180915003909151030E94DA1535
:101F60000E94DE030E94BD072AE030E040E050E01E
:101F7000BA018FE690E00E9485012AE030E040E05F
:101F800050E0BA0182E190E00E94850163E270E0D6
:101F900080915203909153030E94BE1C019771F4EB
:101FA00064E370E080915203909153030E94BE1C41
:101FB000039721F4809124038823B1F169E270E052
:101FC00080915203909153030E94BE1C7C016CE4EB
:101FD00070E080915203909153030E94BE1C8E15B5
:101FE0009F050CF49FC08091240381119BC061E088
:101FF00088E00E94E2212AE030E040E050E0BA01AF
:1020000087EA90E00E94850110921C0310921D0344
:1020100010921E0310921F030E948C0CFF90EF90F1
:10202000DF90CF900C94960060E088E00E94E2215F
:10203000C0901C03D0901D03E0901E03F0901F037E
:1020400080915003909151030E94B01CA0E0B0E039
:10205000C816D906EA06FB06A0F480911C039091ED
:102060001D03A0911E03B0911F038C509E4FAF4FD4
:10207000BF4F80931C0390931D03A0931E03B09346
:102080001F03C0901C03D0901D03E0901E03F0902E
:102090001F03C114D104E104F10469F080915003DD
:1020A000909151030E94B01CA0E0B0E08C159D05FA
:1020B000AE05BF0530F169E270E080915203909166
:1020C00053030E94BE1C7C016CE470E080915203BB
:1020D000909153030E94BE1C8E159F051CF481E055
:1020E0008093240340911C0350911D0360911E03B3
:1020F00070911F032AE030E087EA90E00E9485019A
:102100008BCF80915003909151030E94B01CA0E0AE
:10211000B0E080931C0390931D03A0931E03B09323
:102120001F03C9CF60E088E00E94E2212AE030E08E
:1021300048EE53E060E070E087EA90E00E9485019D
:1021400081E08093240368CFCF93CFB7F894809138
:102150006C03811127C0EAE9F0E08491E6E8F0E041
:102160009491E82FF0E0EE0FFF1FE854FF4FA59188
:10217000B4918C91892321F461E08AE00E94E221EC
:1021800061E08AE00E94A9218CB580618CBD8CB58C
:1021900080648CBD61E08DE00E94A92161E08BE04C
:1021A0000E94A92180916C038F5F80936C03CFBF45
:1021B000CF91089580919D0390E020919E03821B12
:1021C0009109089520919E0380919D03281750F452
:1021D000E22FF0E0E156FC4F808190E02F5F2093EA
:1021E0009E0308958FEF9FEF0895E0919E038091E5
:1021F0009D03E81730F4F0E0E156FC4F808190E059
:1022000008958FEF9FEF08950895CF92DF92EF9298
:10221000FF920F931F93CF93DF937C01CB018A0131
:1022200020917903222389F0EB016B01C40ED51EA6
:10223000CC15DD0569F06991D701ED91FC91019014
:10224000F081E02DC7010995F3CF642F0E9416128B
:10225000C801DF91CF911F910F91FF90EF90DF9018
:10226000CF900895CF93DF931F92CDB7DEB76983E8
:10227000209179032223D1F020917A03203240F07B
:1022800021E030E0FC013383228380E090E015C040
:1022900080917B03E82FF0E0E458FC4F9981908314
:1022A0008F5F80937B0380937A0305C061E0CE014A
:1022B00001960E94161281E090E00F90DF91CF917D
:1022C0000895FC011382128248EE53E060E070E052
:1022D00044835583668377838EEC92E09183808379
:1022E000089510929E0310929D0310927B0310920A
:1022F0007A030C94A11181E08093790360939C038D
:1023000010927B0310927A0308950C947B110F9323
:10231000062F21E040917A036CE773E080919C03E3
:102320000E94BF1110927B0310927A0310927903DE
:102330000F91089561E00C9487118DE693E00C9461
:10234000611110922C0481E080932A0410922904D8
:1023500061E082E10E94E22161E083E10E94E221EA
:10236000E9EBF0E080818E7F808380818D7F8083A8
:1023700088E48093B80085E48093BC0008950F93AF
:10238000413208F04AC090912C049111FCCF92E0A8
:1023900090932C0400932A049FEF9093BF03109214
:1023A000040440930304FB0165E074E0DB019A2F11
:1023B000961B941718F491919D93F9CF10922B04CA
:1023C00090912B04880F892B80932B0480912904F2
:1023D000813061F41092290480912B048093BB001A
:1023E0008091BC0083FDF8CF85EC01C085EE809321
:1023F000BC00222321F080912C048230E1F38091F3
:10240000BF038F3F61F08091BF03803251F0809114
:10241000BF03803341F483E007C081E005C080E062
:1024200003C082E001C084E00F910895613298F406
:1024300020912C04243089F46093E103FC0183EEA5
:1024400093E0DC012A2F281B261718F421912D93E5
:10245000F9CF80E0089581E0089582E0089585ED48
:102460008093BC008091BC0084FDFCCF10922C04B2
:10247000089585EC8093BC0010922C0408951F925F
:102480000F920FB60F9211242F933F934F935F93A8
:102490006F937F938F939F93AF93BF93EF93FF932C
:1024A0008091B900887F803609F49EC078F5883223
:1024B00009F45DC090F4803109F456C038F48823E3
:1024C00009F4F5C0883009F44FC0F5C0883109F42B
:1024D0004EC0803209F45FC0EEC0803409F46AC097
:1024E00058F4803309F457C0883309F0E4C080936E
:1024F000BF030E943912DFC0803509F44FC0883510
:1025000009F45DC0883409F0D6C0D3C0883909F415
:10251000C4C0A8F4883709F467C038F4883609F4D1
:1025200063C0803709F460C0C6C0883809F4B5C0FC
:10253000803909F45FC0803809F0BDC05BC0803BC2
:1025400009F483C038F4803A09F466C0883A09F483
:102550007CC0B1C0803C09F4A4C0883C09F4A1C08F
:10256000883B09F487C0A7C080912B0410C09091CC
:10257000040480910304981770F5E091040481E04D
:102580008E0F80930404F0E0EB5FFB4F808180931B
:10259000BB0085EC83C08093BF038BC0E091040433
:1025A00081E08E0F809304048091BB00F0E0EB5F2C
:1025B000FB4F808390910404809103046BC0E091F1
:1025C000040481E08E0F809304048091BB00F0E04E
:1025D000EB5FFB4F808380912A0481116AC081E008
:1025E0008093290484EA5EC083E080932C041092D7
:1025F000C003CFCF8091C003803208F04EC0E0917D
:10260000C00381E08E0F8093C0038091BB00F0E097
:10261000EF53FC4F8083BDCF0E9439128091C003DD
:10262000803230F4E091C003F0E0EF53FC4F1082B1
:102630006091C00370E0E0912504F091260481ECE4
:1026400093E009951092C00336C084E080932C0477
:102650001092E2031092E103E0912704F091280424
:1026600009958091E103811105C081E08093E10328
:102670001092E303E091E20381E08E0F8093E20386
:10268000F0E0ED51FC4F80818093BB009091E2031C
:102690008091E103981708F47CCF85E88093BC0013
:1026A0000AC085EC8093BC0010922C0404C01092E8
:1026B000BF030E942F12FF91EF91BF91AF919F91A5
:1026C0008F917F916F915F914F913F912F910F90DB
:1026D0000FBE0F901F9018950F93FC01138212826A
:1026E0008EED92E091838083648340872187028707
:1026F00088E083870F9108951F93CF93DF93EC01B8
:10270000162F6C818DE693E00E947B11E0916D03A2
:10271000F0916E036B85612B0190F081E02D8DE6C9
:1027200093E009958DE693E0DF91CF911F910C9492
:102730009A11FC01138660E00C947C1328E0FC01E4
:10274000238760E00C947C131F93CF93DF93EC01FD
:10275000162F64600E947C1381E090E00E94BB20F1
:10276000612F6B7FCE010E947C1382E390E0DF91AA
:10277000CF911F910C94BB201F93CF93DF93EC015B
:10278000162F0E947C13612FCE01DF91CF911F91F4
:102790000C94A413EF92FF921F93CF93DF931F9299
:1027A000CDB7DEB77C01162F607F642B49830E9472
:1027B000BC1380E1189FB00111244981642BC7012B
:1027C0000F90DF91CF911F91FF90EF900C94BC136D
:1027D00040E00C94CA1361E00E94E81380ED97E09A
:1027E0000C94BB2062E00E94E81380ED97E00C940B
:1027F000BB20CF93DF93CDB7DEB728970FB6F89401
:10280000DEBF0FBECDBF28E0E4E5F1E0DE011196AA
:1028100001900D922A95E1F7FC012185241710F40F
:102820004FEF420FFE013196E40FF11DE40FF11D51
:102830002081260F2068622F28960FB6F894DEBFFD
:102840000FBECDBFDF91CF910C94E813FC016681E0
:10285000262F246026836C600C94E813CF92DF92BD
:10286000EF92FF920F931F93CF93DF9300D0CDB7DA
:10287000DEB78C01677088E0689FB0011124606446
:10288000C80149835A830E94E8134981C42E5A81A2
:10289000D52EE12CF12CD6016D916D01D801ED9171
:1028A000FC910190F081E02DC8010995BFEFEB1A72
:1028B000FB0AE8E0EE16F10471F70F900F90DF913C
:1028C000CF911F910F91FF90EF90DF90CF900895DF
:1028D00041E00E94CA1381E090E00895CF93DF9316
:1028E000EC018DE693E00E9471111D828985823092
:1028F00010F098E09D839A85992329F0813019F48E
:102900008D8184608D8362E370E080E090E00E94BE
:1029100081206B85CE010E947C1368EE73E080E01D
:1029200090E00E94812060E3CE010E94BC1384E904
:1029300091E10E94BB2060E3CE010E94BC1384E9B8
:1029400091E10E94BB2060E3CE010E94BC1386E9A6
:1029500090E00E94BB2060E2CE010E94BC136D811A
:102960006062CE010E94E81384E08E83CE010E9453
:102970002614CE010E94EB1382E08F8366E0CE0125
:102980000E94E813CE01DF91CF910C94F213EF92E5
:10299000FF920F931F93CF93DF93EC01862F7A0161
:1029A0008901198218821D821C821F821E8219864B
:1029B00018861B8E1A8E1D8E1C8EFE01E25AFF4F4A
:1029C0001182108232961082118212821382349602
:1029D00011821082329610823396118210823296C2
:1029E00011821082329611821082329610821182E8
:1029F00012821382349610821182128213823496CC
:102A00001082319691E09083319610826A837B83A5
:102A100062E00E94A921F982E882FE01E959FF4F94
:102A20001183008380E090E0FE01E80FF91F138618
:102A30001286029680319105B9F780E090E0FE01A0
:102A4000E80FF91F178E168E029680349105B9F79C
:102A500084E490E00E9494278C010E94AE1EFE0147
:102A6000E658FF4F118300838CE690E00E94942784
:102A70008C010E94171FFE01E458FF4F1183008351
:102A800084E891E00E9494278C010E948F1FC25815
:102A9000DF4F19830883DF91CF911F910F91FF9032
:102AA000EF900895CF93DF93EC01C959DF4F6AE2AD
:102AB00070E0888199810E94BE1CBC01882777FD47
:102AC0008095982F0E94322829E030EF4CE85AE395
:102AD0000E94E62820E030E04EE453E40E94E6281D
:102AE0000E94FF27AB016DE270E088819981DF9140
:102AF000CF910C94ED1C86589F4FFC0180819181F1
:102B00000C94C21EEF92FF920F931F93CF93DF930B
:102B1000EC017B018C0109591F4FAB016BE270E0A6
:102B2000F801808191810E94ED1CB701882777FD13
:102B30008095982F0E94322829E030EF4CE85AE324
:102B40000E94E62820E030E048E455E40E94E628B0
:102B50000E94FF277E01FEE7EF0EF11CF701808146
:102B600091810E94A51FF701808191810E9402201E
:102B70007C0163E170E0F801808191810E94BE1CBC
:102B8000D701A81BB90B28EE33E00E94C22929EB1C
:102B900030E040E050E00E94A329C458DF4FB90163
:102BA00088819981DF91CF911F910F91FF90EF90D4
:102BB0000C942D1F2F923F924F925F926F927F92B3
:102BC0008F929F92AF92BF92CF92DF92EF92FF923D
:102BD0000F931F93CF93DF9300D000D000D0CDB7D9
:102BE000DEB78B0189599F4F9E838D836CE070E027
:102BF000FC01808191810E94BE1C6C016FE070E03D
:102C0000ED81FE81808191810E94BE1CC81AD90A83
:102C10006CE070E0ED81FE81808191810E94BE1C9C
:102C20004C016FE070E0ED81FE81808191810E9416
:102C3000BE1C5C016DE070E0ED81FE8180819181C0
:102C40000E94BE1C7C016FE070E0ED81FE818081FE
:102C500091810E94BE1CE81AF90A6DE070E0ED81D6
:102C6000FE81808191810E94BE1C1C016FE070E09A
:102C7000ED81FE81808191810E94BE1C2C016EE05D
:102C800070E0ED81FE81808191810E94BE1C3C013B
:102C90006FE070E0ED81FE81808191810E94BE1C19
:102CA000681A790A6EE070E0ED81FE818081918181
:102CB0000E94BE1C9A8389836FE070E0ED81FE81E3
:102CC000808191810E94BE1C9C838B83C016D1069B
:102CD0000CF048C0A80CB91C0A151B050CF042C02A
:102CE00063E370E0ED81FE81808191810E94BE1CD2
:102CF0000197C1F161E370E0ED81FE8180819181F6
:102D00000E94BE1CED81FE8120813181019709F076
:102D1000E5C062E370E0C9010E94BE1CBC01ED8108
:102D2000FE81808191810E94BE1C6C0162E370E093
:102D3000ED81FE81808191810E94BE1CA6014150DF
:102D40005109BC01ED81FE81808191810E94ED1CC1
:102D500041E050E063E370E0ED81FE81808191818C
:102D60000E94ED1CE016F1060CF048C0420C531C0A
:102D7000041515050CF042C063E370E0ED81FE819F
:102D8000808191810E94BE1C0297C1F161E370E0D5
:102D9000ED81FE81808191810E94BE1CED81FE81CA
:102DA00020813181019709F0B0C062E370E0C90170
:102DB0000E94BE1CBC01ED81FE81808191810E9438
:102DC000BE1C7C0162E370E0ED81FE818081918117
:102DD0000E94BE1CA7014F5F5F4FBC01ED81FE81C9
:102DE000808191810E94ED1C42E050E063E370E03D
:102DF000ED81FE81808191810E94ED1C601671063B
:102E0000F4F589819A812B813C81820F931F0817E9
:102E10001907ACF563E370E0ED81FE81808191815B
:102E20000E94BE1C039759F161E370E0ED81FE81C1
:102E3000808191810E94BE1C892B09F07DC062E3D4
:102E400070E0ED81FE81808191810E94BE1C813500
:102E500091050CF071C041E050E061E370E0ED815C
:102E6000FE81808191810E94ED1C43E050E063E38C
:102E700070E0ED81FE81808191810E94ED1C093E10
:102E8000F3E01F0754F040E050E063E370E0ED81B1
:102E9000FE81808191810E94ED1CA8016EE270E0AC
:102EA000ED81FE818081918126960FB6F894DEBF78
:102EB0000FBECDBFDF91CF911F910F91FF90EF908B
:102EC000DF90CF90BF90AF909F908F907F906F904A
:102ED0005F904F903F902F900C94ED1C60E370E05A
:102EE000C9010E94BE1C181619060CF031CF60E310
:102EF00070E0ED81FE81808191810E94BE1CAC0159
:102F00004150510960E370E01DCF60E370E0C901FA
:102F10000E94BE1C803591050CF066CF60E370E026
:102F2000ED81FE81808191810E94BE1CAC014F5FCA
:102F30005F4F60E370E052CF40E050E08ECFCF9221
:102F4000DF92EF92FF920F931F93CF93DF93EC01E9
:102F500088810E9404212E813F81280F391F3F83E1
:102F60002E83888599850196853091052CF4998763
:102F700088878DE99FEF4DC019861886C90165E0E5
:102F800070E00E946D298B011F821E8269E170E052
:102F90007E0187E6E80EF11CF701808191810E9495
:102FA000BE1C6801C81AD90AA60161E470E0F701E5
:102FB000808191810E94ED1CF4E0CF0ED11C89E04C
:102FC000C816D10410F40C811D812A8D3B8DF901A6
:102FD000EE0FFF1FEC0FFD1F8C8D9D8D42855385DD
:102FE000841B950B13870287800F911F9D8F8C8FF9
:102FF0002F5F3F4F283031051CF43B8F2A8F02C0D2
:103000001B8E1A8E97FD079623E0959587952A9536
:10301000E1F7DF91CF911F910F91FF90EF90DF903B
:10302000CF900895CF93DF93EC018A810E941822FC
:10303000019741F4FE01EA59FF4F8081882311F086
:1030400080E01DC08A810E941822019759F4FE0178
:10305000EA59FF4F8081811105C081E080838FEFA5
:103060009FEF1BC08A810E941822892B51F4FE0118
:10307000EA59FF4F8081882321F0108281E090E09F
:103080000CC08A810E941822892B39F4CA59DF4F5B
:103090008881811102C082E0F2CFDF91CF91089543
:1030A000FC0124813581215031092336310550F44A
:1030B000EA59FF4F8081811106C081E080838FEF44
:1030C0009FEF0895089580E090E00895EF92FF92B9
:1030D0000F931F93CF93DF937C01FC0180810E94AB
:1030E00004218C01E701C959DF4F62E070E088815B
:1030F00099810E94BE1C0817190764F560E070E012
:10310000888199810E94BE1C9801281B390B8881F7
:10311000998160E070E01216130684F40E94BE1CD0
:103120009801281B390BC9014F97A4F0F701EC59FE
:10313000FF4F80819181029769F405C00E94BE1CF7
:10314000801B910BF1CFA80160E070E0888199812C
:103150000E94ED1C62E070E0888199810E94BE1C93
:103160000817190754F4F701EC59FF4F808191813A
:10317000029719F441E050E002C040E050E064E200
:1031800070E0888199810E94ED1C62E070E0888186
:1031900099810E94BE1C0817190744F4F701EC59E5
:1031A000FF4F80819181019709F448C062E070E08F
:1031B000888199810E94BE1C0817190764F161E09B
:1031C00070E0888199810E94BE1C9801281B390BF0
:1031D0008881998161E070E01216130684F40E94E0
:1031E000BE1CF801E81BF90BCF014F97A4F0F701C3
:1031F000EC59FF4F80819181029769F405C00E94CC
:10320000BE1C801B910BF1CFA80161E070E08881AA
:1032100099810E94ED1C62E070E0888199810E9492
:10322000BE1C081719079CF0F701EC59FF4F80816D
:103230009181029761F441E050E00BC041E050E021
:1032400062E470E0888199810E94ED1CAFCF40E07C
:1032500050E065E270E088819981DF91CF911F9104
:103260000F91FF90EF900C94ED1CFC01E958FF4F7B
:1032700020813296222349F0DC01A858BF4F8C915F
:10328000811103C081E08083089510820895AF9278
:10329000BF92CF92DF92EF92FF920F931F93CF9343
:1032A000DF938C01FC0144815581EC01C959DF4F4A
:1032B00069E170E0888199810E94ED1CF801E7596D
:1032C000FF4F408151816AE170E0888199810E94BD
:1032D000ED1CF801ED58FF4FC080D180E280F380F3
:1032E00020E030E048EC52E4C701B6010E94E62835
:1032F0000E9404285B01C701B6010E94FF27AB01B1
:103300006FE270E0888199810E94ED1C58EEE52EF5
:1033100053E0F52EC501B7010E945929AB016C019C
:103320006BE170E0888199810E94ED1CA6016CE13F
:1033300070E0888199810E94ED1CF801E159FF4FEE
:1033400020E030E048EC52E4608171818281938119
:103350000E94E6280E940428CB01B7010E94592947
:10336000AB016C016DE170E0888199810E94ED1CD8
:10337000A6016EE170E0888199810E94ED1C6801D0
:10338000FBE6CF0ED11CF60180819181B7010E942E
:103390005929AB016FE170E0888199810E94ED1C91
:1033A000F60180819181B7010E945929AC0160E248
:1033B00070E0888199810E94ED1CF801E958FF4F67
:1033C000408150E061E270E0888199810E94ED1CAB
:1033D000F801E858FF4F408150E062E270E08881D8
:1033E00099810E94ED1CF801E758FF4F408150E0A1
:1033F00063E270E088819981DF91CF911F910F91F5
:10340000FF90EF90DF90CF90BF90AF900C94ED1CA9
:103410002F923F924F925F926F927F928F929F92E4
:10342000AF92BF92CF92DF92EF92FF920F931F93D2
:10343000CF93DF9300D000D0CDB7DEB74C019C0115
:1034400029593F4F3C832B8361E070E0D9018D9176
:103450009C910E94BE1C7C0160E070E0EB81FC81CD
:10346000808191810E94BE1C0027F7FC0095102FDF
:103470009C01442737FD4095542FD40114966D913B
:103480007C911597882777FD8095982F1F921F9222
:10349000E3E0EF93E8EEEF93A12CB12C65010E94DD
:1034A00097253401B9E66B0E711CF30171836083BB
:1034B00065E270E0AB81BC818D919C910E94BE1C45
:1034C0000F900F900F900F90019729F488EE93E0E2
:1034D000F30191838083D3018D919C91893EB3E068
:1034E0009B0714F088EE93E097FF02C080E090E025
:1034F000F30191838083940127583F4F3A832983B6
:10350000D9018C91811102C01182108265E070E0B6
:10351000EB81FC81808191810E94BE1C8C0163E063
:1035200070E0AB81BC818D919C910E94BE1CFC011E
:103530000E9FC0010F9F900D1E9F900D112404E659
:1035400010E0B8010E946D296B0167E070E0AB816B
:10355000BC818D919C910E94BE1CC89E7001C99E29
:10356000F00CD89EF00C112466E070E0EB81FC8139
:10357000808191810E94BE1C6C0163E070E0AB8190
:10358000BC818D919C910E94BE1CFC01CE9EC0010D
:10359000CF9E900DDE9E900D1124B8010E946D29E2
:1035A0006B0167E070E0AB81BC818D919C910E94C2
:1035B000BE1CC89E8001C99E100DD89E100D1124FE
:1035C000F401E359FF4F118300835701C12CD12C23
:1035D000F30160817181882777FD8095982F1F9274
:1035E0001F921F930F9318EEE12E13E0F12E00E0CF
:1035F00010E020E030E0A9010E949725F401E55990
:10360000FF4F718360830F900F900F900F90A981EF
:10361000BA818C91811102C01182108265E070E044
:10362000EB81FC81808191810E94BE1C8C0166E04F
:1036300070E0AB81BC818D919C910E94BE1C4AE0E0
:10364000409F5001419FB00C1124CC24B7FCC09482
:10365000DC2CF301208131811901442437FC409492
:10366000542C9C01429FC001439F900D1124AA2716
:1036700097FDA095BA2FBF93AF939F938F9318EEAA
:10368000E12E13E0F12E00E010E020E030E0A9018F
:10369000C201B1010E949725840101591F4F0E9468
:1036A000322820E030E048EC52E40E949727D8010D
:1036B0006D937D938D939C9313970F900F900F9024
:1036C0000F90E981FA818081811105C01D921D92C0
:1036D0001D921C92139764E070E0EB81FC81808165
:1036E00091810E94BE1C5C0165E070E0AB81BC81F1
:1036F0008D919C910E94BE1C6C0164E070E0EB8196
:10370000FC81808191810E94BE1C8C0166E070E08A
:10371000AB81BC818D919C910E94BE1C7C01AC9CB4
:10372000B001AD9C700DBC9C700D1124882777FDF5
:103730008095982F0E94322820E030E040E251E44A
:103740000E94E6280E94FF275B016C01F301808143
:1037500091812C01662457FC6094762C0E9DB0015B
:103760000F9D700D1E9D700D1124882777FD80958B
:10377000982F0E94322820E030E040E251E40E947D
:10378000E6280E94FF279F938F937F936F9318EEF5
:10379000E12E13E0F12E00E010E020E030E0A9017E
:1037A000C301B2010E949725F3E78F0E911C0E947E
:1037B000322820E030E048EC52E40E949727D40100
:1037C0006D937D938D939C9313970F900F900F9013
:1037D0000F90E981FA818081811105C01D921D92AF
:1037E0001D921C9213970F900F900F900F90DF91E6
:1037F000CF911F910F91FF90EF90DF90CF90BF90EE
:10380000AF909F908F907F906F905F904F903F9080
:103810002F9008950F931F93CF93DF93EC010C81AA
:103820001D81FC01E959FF4F62E070E080819181C8
:103830000E94BE1CFE01E858FF4F081719073CF410
:10384000DE01AC59BF4F8D919C91029711F010820F
:1038500005C0C958DF4F81E088838083DF91CF9115
:103860001F910F910895EF92FF920F931F93CF93A3
:10387000DF93EC018C0109591F4F66E270E0F801FB
:10388000808191810E94BE1C9E012C593F4F79017D
:10389000892B71F4CE010E941218F7019183808365
:1038A000CE010E949F178D39FFEF9F0771F40FC063
:1038B000CE010E945018F7019183808367E270E087
:1038C000F801808191810E94BE1C9D838C83CE0172
:1038D0000E946618CE010E94081ACE010E940A1C9E
:1038E000CE010E943519CE010E944719CE010E94D7
:1038F0005215FE01E658FF4F808191810E94111FF1
:10390000AC016AE270E0F801808191810E94ED1CB7
:10391000FE01E458FF4F808191810E94891FAC0114
:103920006CE270E0F801808191810E94ED1CC25828
:10393000DF4F888199810E940220AC0166E370E02C
:10394000F80180819181DF91CF911F910F91FF90BC
:10395000EF900C94ED1C89589F4FFC011082089544
:1039600085599F4FFC018081918108958D589F4F0B
:10397000FC0160817181828193810895660F771FB8
:10398000680F791FFB018081918108950F931F9328
:10399000CF93DF938B01EA014F3F510541F03CF09B
:1039A000CA016FEF70E00E946D29EC0101C060E078
:1039B000000F111FC80101960E94472C6C2FC801EF
:1039C00002960E94472C61E0C8018B599F4FDF91FE
:1039D000CF911F910F910C94472CEF92FF920F9370
:1039E0001F93CF93DF938C01EA01CB014A977B01B0
:1039F000EE0CFF1C8C9720F0AE01C8010E94C61C83
:103A0000F801EE0DFF1DD183C083DF91CF911F918F
:103A10000F91FF90EF900895FF920F931F93CF9314
:103A2000DF93EB01CC0FDD1FCE0101960E943F2CEE
:103A3000F82ECE0102960E943F2C082F10E0CE01F6
:103A40008B599F4F0E943F2C813039F4C8012FEFD2
:103A5000F29E800D911D112402C08FEF9FEFDF9128
:103A6000CF911F910F91FF900895EF92FF920F93C6
:103A70001F93CF93DF93EC018B017A010E940C1D01
:103A8000000F111FC00FD11F97FD03C099838883BA
:103A900002C0F982E882DF91CF911F910F91FF90D0
:103AA000EF900895CF93DF93D82FC92FE82FF92FE8
:103AB00020E530E01192119221503109D9F740E010
:103AC00050E060E070E08D2F9C2F0E94351D40E09B
:103AD00050E061E070E08D2F9C2F0E94351D44E086
:103AE00051E062E070E08D2F9C2F0E94351D4CE369
:103AF00050E063E070E08D2F9C2F0E94351D40E266
:103B000050E064E070E08D2F9C2F0E94351D4AE04C
:103B100050E065E070E08D2F9C2F0E94351D4DE236
:103B200050E066E070E08D2F9C2F0E94351D4AEE1C
:103B300056E067E070E08D2F9C2F0E94351D48E015
:103B400050E068E070E08D2F9C2F0E94351D40E40E
:103B50005FE169E070E08D2F9C2F0E94351D40EDE4
:103B600053E16AE070E08D2F9C2F0E94351D44E1E7
:103B700051E06BE070E08D2F9C2F0E94351D4EEFC1
:103B800051E06CE070E08D2F9C2F0E94351D40E4C9
:103B900051E06DE070E08D2F9C2F0E94351D4AEAA8
:103BA00050E06EE070E08D2F9C2F0E94351D42E3A7
:103BB00050E06FE070E08D2F9C2F0E94351D40E992
:103BC00051E060E170E08D2F9C2F0E94351D40ED8B
:103BD00057E061E170E08D2F9C2F0E94351D4CE273
:103BE00051E062E170E08D2F9C2F0E94351D44EC66
:103BF00059E063E170E08D2F9C2F0E94351D48E550
:103C000052E064E170E08D2F9C2F0E94351D4CEA3C
:103C10005DE065E170E08D2F9C2F0E94351D41E431
:103C200050E066E170E08D2F9C2F0E94351D40E52D
:103C300050E067E170E08D2F9C2F0E94351D41E020
:103C400050E068E170E08D2F9C2F0E94351D44E606
:103C500050E066E470E08D2F9C2F0E94351D4FE7E9
:103C600050E067E470E08D2F9C2F0E94351D44EAE0
:103C700050E068E470E08D2F9C2F0E94351D45E0D8
:103C800050E069E470E08D2F9C2F0E94351D4AE0C2
:103C900050E06AE470E08D2F9C2F0E94351D41EFAB
:103CA0005FEF6BE470E08D2F9C2F0E94351D44E880
:103CB00053E06CE470E08D2F9C2F0E94351D41E095
:103CC00050E06DE470E08D2F9C2F0E94351D44E084
:103CD00050E06EE470E08D2F9C2F0E94351D43E074
:103CE00050E06FE470E08D2F9C2FDF91CF910C940A
:103CF000351DEF92FF920F931F93CF93DF9300D068
:103D000000D0CDB7DEB77C0180EA90E04B835C83C6
:103D100069837A830E9494278C010E94521DF701C7
:103D20001383028380E890E00E9494278C01F701BE
:103D3000228133814B815C8169817A810E94C71421
:103D4000F701118300830F900F900F900F90DF9178
:103D5000CF911F910F91FF90EF900895FC0115AE48
:103D600014AEFE9610821182128213823496118252
:103D70001082FC012EE130E01192119221503109A4
:103D8000D9F70895CF92DF92EF92FF920F931F938E
:103D9000CF93DF93FC018B0144AD55ADEA01CC0F0D
:103DA000DD1FCE0FDF1FDF01DE96C880D980EE2435
:103DB000D7FCE094FE2C6D917D918D919C91139791
:103DC0006C197D098E099F0919830883222717FD25
:103DD0002095322F600F711F821F931F6D937D936B
:103DE0008D939C9313974F5F5F4F4E3151051CF499
:103DF00055AF44AF02C015AE14AEEF01CE5BDF4F3E
:103E00002EE130E040E050E00E94A329398328836E
:103E1000DF91CF911F910F91FF90EF90DF90CF90A6
:103E200008958E5B9F4FFC01808191810895FC0174
:103E3000EC59FF4F11821082329610821182128249
:103E40001382349611821082FC0122E330E0119239
:103E5000119221503109D9F708958F929F92AF9214
:103E6000BF92CF92DF92EF92FF920F931F93CF9367
:103E7000DF93AC018B01DC01AC59BF4FCD90DC90DE
:103E80001197F601EE0FFF1FE40FF51F7A0186E68A
:103E9000E80EF11C80809180AA2497FCA094BA2C93
:103EA000E701688179818A819B81681979098A098A
:103EB0009B0911830083222717FD2095322F600F65
:103EC000711F821F931F688379838A839B83E60116
:103ED0002196C233D1051CF4CD93DC9302C01D9210
:103EE0001C92EA01C659DF4F22E330E040E050E087
:103EF0000E94A32939832883DF91CF911F910F91CD
:103F0000FF90EF90DF90CF90BF90AF909F908F90F9
:103F1000089586599F4FFC01808191810895FC018D
:103F2000E458FE4F11821082329610821182128262
:103F30001382349611821082FC012EEB30E0119234
:103F4000119221503109D9F708958F929F92AF9223
:103F5000BF92CF92DF92EF92FF920F931F93CF9376
:103F6000DF93AC018B01DC01A458BE4FCD90DC90F7
:103F70001197F601EE0FFF1FE80FF91F7C0182E891
:103F8000E81A8EEFF80A80809180AA2497FCA0940A
:103F9000BA2CE701688179818A819B816819790946
:103FA0008A099B0911830083222717FD2095322F50
:103FB000600F711F821F931F688379838A839B839D
:103FC000E6012196CE3BD1051CF4CD93DC9302C0D3
:103FD0001D921C92EA01CE57DE4F2EEB30E040E0FE
:103FE00050E00E94A32939832883DF91CF911F914C
:103FF0000F91FF90EF90DF90CF90BF90AF909F9088
:104000008F9008958E579E4FFC0180819181089575
:104010001F920F920FB60F9211242F933F938F93FD
:104020009F93AF93BF9380912E0490912F04A09102
:104030003004B091310430912D0423E0230F2D374B
:1040400020F40196A11DB11D05C026E8230F02969C
:10405000A11DB11D20932D0480932E0490932F0455
:10406000A0933004B09331048091320490913304D2
:10407000A0913404B09135040196A11DB11D809327
:10408000320490933304A0933404B0933504BF9169
:10409000AF919F918F913F912F910F900FBE0F90F5
:1040A0001F9018952FB7F89460912E0470912F04EB
:1040B00080913004909131042FBF08953FB7F89458
:1040C0008091320490913304A0913404B09135046E
:1040D00026B5A89B05C02F3F19F00196A11DB11D63
:1040E0003FBF6627782F892F9A2F620F711D811D80
:1040F000911D42E0660F771F881F991F4A95D1F7DF
:1041000008958F929F92AF92BF92CF92DF92EF92DB
:10411000FF926B017C010E945E204B015C01C11487
:10412000D104E104F104F1F00E9496270E945E2080
:10413000681979098A099B09683E734081059105D0
:1041400070F321E0C21AD108E108F10888EE880E68
:1041500083E0981EA11CB11CC114D104E104F10438
:1041600029F7DDCFFF90EF90DF90CF90BF90AF9019
:104170009F908F9008958230910538F0880F991F95
:10418000880F991F05970197F1F70895789484B5E2
:10419000826084BD84B5816084BD85B5826085BD43
:1041A00085B5816085BDEEE6F0E080818160808329
:1041B000E1E8F0E01082808182608083808181600C
:1041C0008083E0E8F0E0808181608083E1EBF0E0D3
:1041D000808184608083E0EBF0E080818160808377
:1041E000EAE7F0E080818460808380818260808360
:1041F0008081816080838081806880831092C1008B
:1042000008958093530108958E3008F08E50877082
:104210002091530190E4299F90011124822B8093D7
:104220007C0080917A00806480937A0080917A008B
:1042300086FDFCCF809178002091790090E0922B50
:1042400008951F93CF93DF93182FEB0161E00E9435
:10425000A921209711F460E004C0CF3FD10539F4C3
:1042600061E0812FDF91CF911F910C94E221E12F2A
:10427000F0E0E859FF4FE491E330F9F048F4E13021
:10428000B9F0E230A1F584B5806284BDC8BD34C008
:10429000E730E9F0E83019F1E43049F58091800029
:1042A000806280938000D0938B00C0938A0024C0EA
:1042B00084B5806884BDC7BD1FC0809180008068C0
:1042C00080938000D0938900C093880015C08091AE
:1042D000B00080688093B000C093B3000DC080919F
:1042E000B00080628093B000C093B40005C0C038B5
:1042F000D1050CF0B5CFAFCFDF91CF911F910895CD
:10430000833081F028F4813099F08230A1F0089553
:104310008730A9F08830B9F08430D1F480918000E2
:104320008F7D03C0809180008F77809380000895F7
:1043300084B58F7702C084B58F7D84BD0895809148
:10434000B0008F7703C08091B0008F7D8093B00064
:104350000895CF93DF9390E0FC01E458FF4F249140
:10436000FC01E057FF4F8491882349F190E0880FCA
:10437000991FFC01E854FF4FA591B49182559F4FBE
:10438000FC01C591D4919FB7611108C0F8948C913C
:10439000209582238C93888182230AC0623051F455
:1043A000F8948C91322F309583238C938881822BC3
:1043B000888304C0F8948C91822B8C939FBFDF91EB
:1043C000CF9108950F931F93CF93DF931F92CDB793
:1043D000DEB7282F30E0F901E859FF4F8491F90149
:1043E000E458FF4F1491F901E057FF4F0491002367
:1043F000C9F0882321F069830E9480216981E02F20
:10440000F0E0EE0FFF1FE255FF4FA591B4919FB76B
:10441000F8948C91611103C01095812301C0812B08
:104420008C939FBF0F90DF91CF911F910F910895B3
:10443000CF93DF93282F30E0F901E859FF4F8491A3
:10444000F901E458FF4FD491F901E057FF4FC491AF
:10445000CC2391F081110E948021EC2FF0E0EE0F2F
:10446000FF1FEC55FF4FA591B4912C912D2381E0B6
:1044700090E021F480E002C080E090E0DF91CF91F5
:104480000895FC01818D228D90E0805C9F4F821BFE
:1044900091098F7399270895FC01918D828D98174A
:1044A00031F0828DE80FF11D858D90E008958FEF3A
:1044B0009FEF0895FC01918D828D981761F0828D98
:1044C000DF01A80FB11D5D968C91928D9F5F9F7348
:1044D000928F90E008958FEF9FEF08958EED93E215
:1044E000892B49F080E090E0892B29F00E94DE239F
:1044F00081110C9400000895FC01848DDF01A80F48
:10450000B11DA35ABF4F2C91848D90E001968F73FB
:104510009927848FA689B7892C93A089B1898C911A
:1045200080648C93938D848D981306C00288F389E0
:10453000E02D80818F7D80830895CF93DF93EC0100
:10454000888D8823C9F0EA89FB89808185FD05C0B3
:10455000A889B9898C9186FD0FC00FB607FCF5CFED
:10456000808185FFF2CFA889B9898C9185FFEDCF35
:10457000CE010E947C22E7CFDF91CF910895CF92A8
:10458000DF92FF920F931F93CF93DF931F92CDB7CC
:10459000DEB76C0181E0D60158968C9358975B96F4
:1045A0009C915B975C968C915C97981307C0509692
:1045B000ED91FC915197808185FD2EC0F601038D10
:1045C00010E00F5F1F4F0F731127F02EF601848D3F
:1045D000F81211C00FB607FCF9CFD6015096ED9135
:1045E000FC915197808185FFF1CFC60169830E94BC
:1045F0007C226981EBCF838DE80FF11DE35AFF4FD9
:104600006083D6015B960C935B975296ED91FC917B
:104610005397808180620CC0D6015696ED91FC9133
:10462000579760835096ED91FC91519780818064FB
:10463000808381E090E00F90DF91CF911F910F91E7
:10464000FF90DF90CF900895BF92CF92DF92EF92CC
:10465000FF92CF93DF93EC016A017B01B22EE889D0
:10466000F98982E08083411581EE58076105710563
:10467000A1F060E079E08DE390E0A70196010E944F
:10468000812921503109410951095695479537959E
:104690002795211580E1380798F0E889F98910827B
:1046A00060E874E88EE190E0A70196010E948129FC
:1046B000215031094109510956954795379527955C
:1046C000EC85FD853083EE85FF852083188EEC898F
:1046D000FD89B082EA89FB89808180618083EA89D3
:1046E000FB89808188608083EA89FB89808180687A
:1046F0008083EA89FB8980818F7D8083DF91CF91E0
:10470000FF90EF90DF90CF90BF9008951F920F928F
:104710000FB60F9211242F938F939F93EF93FF93D4
:10472000E0914604F09147048081E0914C04F091BF
:104730004D0482FD12C0908180914F048F5F8F7372
:1047400020915004821751F0E0914F04F0E0EA5CB0
:10475000FB4F958F80934F0401C08081FF91EF91B3
:104760009F918F912F910F900FBE0F901F901895D2
:104770001F920F920FB60F9211242F933F934F93D6
:104780005F936F937F938F939F93AF93BF93EF93B9
:10479000FF9386E394E00E947C22FF91EF91BF910A
:1047A000AF919F918F917F916F915F914F913F91C9
:1047B0002F910F900FBE0F901F90189586E394E0F5
:1047C0000E94412221E0892B09F420E0822F0895E4
:1047D000109239041092380488EE93E0A0E0B0E023
:1047E00080933A0490933B04A0933C04B0933D041F
:1047F00086EE92E0909337048093360485EC90E047
:10480000909343048093420484EC90E09093450499
:104810008093440480EC90E0909347048093460496
:1048200081EC90E0909349048093480482EC90E0FE
:1048300090934B0480934A0486EC90E090934D044F
:1048400080934C0410924F04109250041092510423
:10485000109252040895CF92DF92EF92FF920F933D
:104860001F93CF93DF937C016A01EB0100E010E01E
:104870000C151D0571F06991D701ED91FC91019026
:10488000F081E02DC7010995892B19F00F5F1F4FAB
:10489000EFCFC801DF91CF911F910F91FF90EF9063
:1048A000DF90CF9008956115710581F0DB010D90C7
:1048B0000020E9F7AD0141505109461B570BDC01BF
:1048C000ED91FC910280F381E02D099480E090E06D
:1048D00008950C945324DC01ED91FC910190F0813A
:1048E000E02D099462EF72E00C9453240F931F9310
:1048F000CF93DF93EC010E9453248C01CE010E94E0
:104900007224800F911FDF91CF911F910F91089515
:104910008F929F92AF92BF92DF92EF92FF920F938E
:104920001F93CF93DF93CDB7DEB7A1970FB6F8945F
:10493000DEBF0FBECDBF7C01F42FD52ECB0119A257
:10494000223008F42AE08E010F5D1F4F822E912C39
:10495000A12CB12C6F2F7D2DA50194010E948129DE
:10496000F22FD32ECA01015011096A3014F4E0E38A
:1049700001C0E7E3E60FD801EC93232B242B252B72
:1049800049F7B801C7010E945324A1960FB6F894C5
:10499000DEBF0FBECDBFDF91CF911F910F91FF9072
:1049A000EF90DF90BF90AF909F908F900895CF923F
:1049B000DF92EF92FF920F931F93CF93DF93EC015F
:1049C0006A017B012115310579F4E881F9810190B3
:1049D000F081E02D642FDF91CF911F910F91FF9017
:1049E000EF90DF90CF9009942A303105E9F477FFFA
:1049F0001AC06DE20E946B248C0144275527BA012E
:104A00004C195D096E097F092AE0CE010E948824B5
:104A1000800F911FDF91CF911F910F91FF90EF9029
:104A2000DF90CF9008952AE0B701A601CE01DF9173
:104A3000CF911F910F91FF90EF90DF90CF900C944A
:104A400088249A01AB01662757FD6095762F0C9458
:104A5000D7240F931F93CF93DF93EC019A01AB01FF
:104A6000662757FD6095762F0E94D7248C01CE01D2
:104A70000E947224800F911FDF91CF911F910F919F
:104A800008950F931F93CF93DF93EC010E94522060
:104A9000688779878A879B87E881F9810680F78113
:104AA000E02DCE01099597FF15C00E945220088580
:104AB00019852A853B85601B710B820B930B0C813A
:104AC0001D812E813F81601771078207930720F3B4
:104AD0008FEF9FEFDF91CF911F910F910895EF928C
:104AE000FF920F931F93CF93DF93EC018B01E42E82
:104AF00064EF72E00E944C26C8010E944125FF2409
:104B0000E7FCF09497FD0BC08E159F0541F0682FD0
:104B1000CE010E94E826C8010E944125F3CFCE01B4
:104B2000DF91CF911F910F91FF90EF9008954F92D9
:104B30005F926F927F92AF92BF92CF92DF92EF928D
:104B4000FF920F931F93CF93DF93CDB7DEB7290169
:104B50003A01621B730B840B950B29893A894B89A7
:104B60005C892A193B094C095D09298B3A8B4B8BCF
:104B70005C8B9B01AC0169897A898B899C890E9435
:104B80004929E418F50806091709A80197010E94A8
:104B9000A3292A0D3B1D4C1D5D1DCA01B901DF91E2
:104BA000CF911F910F91FF90EF90DF90CF90BF902A
:104BB000AF907F906F905F904F900895FC0180813F
:104BC00091810C94892ACF93DF93EC01888199819C
:104BD000009711F00E94892A198218821D821C8276
:104BE0001B821A82DF91CF9108950F931F93CF9369
:104BF000DF93EC018B016F5F7F4F888199810E9469
:104C0000182B009731F0998388831B830A8381E0F6
:104C100001C080E0DF91CF911F910F910895CF9354
:104C2000DF93EC0188819981892B29F08A819B810E
:104C30008617970760F4CE010E94F525882341F07E
:104C40008C819D81892B19F4E881F981108281E0A2
:104C5000DF91CF910895EF92FF920F931F93CF931F
:104C6000DF93EC017B018A01BA010E940F268111BA
:104C700004C0CE010E94E32507C01D830C83B70149
:104C8000888199810E94232CCE01DF91CF911F91C1
:104C90000F91FF90EF900895FC0111821082138212
:104CA0001282158214826115710559F0FB01019081
:104CB0000020E9F7AF0141505109461B570B0C94F6
:104CC0002B2608950F931F93CF93DF938C01EB0155
:104CD000FC0180819181009799F0428153812C8160
:104CE0003D814217530750F0688179810E94232C3F
:104CF0008C819D81F8019583848313C00E94892A49
:104D000088819981F801918380838A819B81938333
:104D100082838C819D8195838483198218821B8272
:104D20001A821D821C82DF91CF911F910F910895ED
:104D3000CF93DF93EC018617970711F00E9462264C
:104D4000CE01DF91CF910895CF93DF93EC016115F0
:104D5000710561F0FB0101900020E9F7AF014150BE
:104D60005109461B570B0E942B2602C00E94E325C7
:104D7000CE01DF91CF910895EF92FF920F931F9391
:104D8000CF93DF93EC017B010C811D8161157105CF
:104D900011F480E016C04115510591F0040F151F64
:104DA000B8010E940F268823A1F3288139818C81C4
:104DB0009D81B701820F931F0E94232C1D830C83BA
:104DC00081E0DF91CF911F910F91FF90EF900895B7
:104DD000CF93DF9300D0CDB7DEB769831A8241E06D
:104DE00050E0BE016F5F7F4F0E94BC260F900F9076
:104DF000DF91CF910895FC0124813581232B31F47B
:104E000021E061157105A1F0FB0108C0FC01808162
:104E100091816115710531F421E0FC0180818823C5
:104E200039F005C00E941A2C21E0892B09F020E0FE
:104E3000822F0895AF92BF92CF92DF92EF92FF92AE
:104E40000F931F93CF93DF937C01DC01CD90DC9017
:104E50001197C114D10409F441C01496CD91DC918D
:104E600015972097D9F156018501BFEFAB1ABB0A00
:104E7000F8018081992787FD90950E94092C892B44
:104E800099F72197CC0DDD1D8881992787FD909595
:104E90000E94092C892B91F4AE014F5F5F4F401B9C
:104EA000510BD70115965C934E931497C016D106FB
:104EB00050F4B801C6010E94112C05C0C017D107DB
:104EC00058F32197E1CFD701ED91FC9111971496FA
:104ED0008D919C911597E80FF91F1082DF91CF916A
:104EE0001F910F91FF90EF90DF90CF90BF90AF9008
:104EF0000895FC0180819181009711F00C94E22BC0
:104F000060E070E0CB01089508950E94C6200E94E1
:104F100084270E943203CEE6D2E20E94D40E20976C
:104F2000E1F30E946E22F9CF0C94F12908950CD080
:104F30000FC107D140F0FED030F021F45F3F19F0EF
:104F4000F0C0511139C1F3C014D198F39923C9F3BA
:104F50005523B1F3951B550BBB27AA27621773077F
:104F6000840738F09F5F5F4F220F331F441FAA1F33
:104F7000A9F333D00E2E3AF0E0E830D091505040F3
:104F8000E695001CCAF729D0FE2F27D0660F771FA1
:104F9000881FBB1F261737074807AB07B0E809F083
:104FA000BB0B802DBF01FF2793585F4F2AF09E3F18
:104FB000510568F0B6C000C15F3FECF3983EDCF3EA
:104FC000869577956795B795F7959F5FC9F7880F91
:104FD000911D9695879597F90895E1E0660F771FE3
:104FE000881FBB1F621773078407BA0720F0621B74
:104FF000730B840BBA0BEE1F88F7E095089504D06D
:105000006894B111D9C00895BCD088F09F5790F032
:10501000B92F9927B751A0F0D1F0660F771F881FDD
:10502000991F1AF0BA95C9F712C0B13081F0C3D0F8
:10503000B1E00895C0C0672F782F8827B85F39F096
:10504000B93FCCF3869577956795B395D9F73EF43C
:1050500090958095709561957F4F8F4F9F4F0895E4
:10506000E89409C097FB3EF4909580957095619502
:105070007F4F8F4F9F4F9923A9F0F92F96E9BB27B8
:105080009395F695879577956795B795F111F8CF34
:10509000FAF4BB0F11F460FF1BC06F5F7F4F8F4F9F
:1050A0009F4F16C0882311F096E911C0772321F095
:1050B0009EE8872F762F05C0662371F096E8862F2D
:1050C00070E060E02AF09A95660F771F881FDAF784
:1050D000880F9695879597F90895990F0008550FB1
:1050E000AA0BE0E8FEEF16161706E807F907C0F06E
:1050F00012161306E407F50798F0621B730B840B76
:10510000950B39F40A2661F0232B242B252B21F44F
:1051100008950A2609F4A140A6958FEF811D811DEF
:10512000089597F99F6780E870E060E008959FEF29
:1051300080EC089500240A9416161706180609062E
:10514000089500240A9412161306140605060895FD
:10515000092E0394000C11F4882352F0BB0F40F485
:10516000BF2B11F460FF04C06F5F7F4F8F4F9F4FC5
:10517000089557FD9058440F551F59F05F3F71F047
:105180004795880F97FB991F61F09F3F79F08795AE
:105190000895121613061406551FF2CF4695F1DF37
:1051A00008C0161617061806991FF1CF86957105C7
:1051B000610508940895E894BB2766277727CB01FB
:1051C00097F908958ADF08F48FEF08950BD0C0CFC8
:1051D000B1DF28F0B6DF18F0952309F0A2CFA7CFF2
:1051E0001124EACFC6DFA0F3959FD1F3950F50E0CD
:1051F000551F629FF001729FBB27F00DB11D639F89
:10520000AA27F00DB11DAA1F649F6627B00DA11D2E
:10521000661F829F2227B00DA11D621F739FB00DD4
:10522000A11D621F839FA00D611D221F749F332744
:10523000A00D611D231F849F600D211D822F762FDD
:105240006A2F11249F5750408AF0E1F088234AF0DA
:10525000EE0FFF1FBB1F661F771F881F9150504026
:10526000A9F79E3F510570F05CCFA6CF5F3FECF3EE
:10527000983EDCF3869577956795B795F795E79512
:105280009F5FC1F7FE2B880F911D9695879597F923
:105290000895DB018F939F930E94C929BF91AF911D
:1052A000A29F800D911DA39F900DB29F900D112480
:1052B0000895AA1BBB1B51E107C0AA1FBB1FA6175D
:1052C000B70710F0A61BB70B881F991F5A95A9F7AF
:1052D00080959095BC01CD01089597FB072E16F49B
:1052E000009407D077FD09D00E94592907FC05D00A
:1052F0003EF4909581959F4F0895709561957F4FED
:105300000895A1E21A2EAA1BBB1BFD010DC0AA1F06
:10531000BB1FEE1FFF1FA217B307E407F50720F01E
:10532000A21BB30BE40BF50B661F771F881F991F99
:105330001A9469F760957095809590959B01AC01E2
:10534000BD01CF010895052E97FB1EF400940E9425
:10535000BA2957FD07D00E94812907FC03D04EF4DB
:105360000C94BA2950954095309521953F4F4F4F59
:105370005F4F089590958095709561957F4F8F4F01
:105380009F4F08950E94E229B7FF0895821B930B57
:1053900008950E94E229A59F900DB49F900DA49FAF
:1053A000800D911D11240895B7FF0C94C9290E9406
:1053B000C929821B930B0895EE0FFF1F0590F491EE
:1053C000E02D0994A29FB001B39FC001A39F700D6F
:1053D000811D1124911DB29F700D811D1124911DFD
:1053E0000895CF93DF938230910510F482E090E02E
:1053F000E091D504F091D60420E030E0A0E0B0E0E8
:10540000309739F14081518148175907B8F0481752
:10541000590771F482819381109729F013969C9318
:105420008E9312972CC09093D6048093D50427C0F6
:105430002115310531F04217530718F0A901DB019E
:1054400001C0EF019A01BD01DF010280F381E02D6F
:10545000D7CF21153105F9F0281B390B2430310540
:1054600080F48A819B816115710521F0FB01938392
:10547000828304C09093D6048093D504FE013296B3
:1054800044C0FE01E20FF31F819391932250310932
:10549000398328833AC02091D3043091D404232B3C
:1054A00041F420910201309103013093D404209300
:1054B000D30420910001309101012115310541F4FF
:1054C0002DB73EB74091040150910501241B350BC7
:1054D000E091D304F091D404E217F307A0F42E1B5B
:1054E0003F0B2817390778F0AC014E5F5F4F241748
:1054F000350748F04E0F5F1F5093D4044093D304F8
:105500008193919302C0E0E0F0E0CF01DF91CF9171
:105510000895CF93DF93009709F487C0FC01329779
:1055200013821282C091D504D091D604209781F4C1
:1055300020813181280F391F8091D3049091D404A8
:105540008217930779F5F093D404E093D3046DC0E8
:10555000DE0120E030E0AE17BF0750F412964D9107
:105560005C9113979D014115510509F1DA01F3CFC3
:10557000B383A28340815181840F951F8A179B07B3
:1055800071F48D919C911197840F951F02969183D0
:10559000808312968D919C9113979383828321151A
:1055A000310529F4F093D604E093D5043EC0D90127
:1055B0001396FC93EE9312974D915D91A40FB51F36
:1055C000EA17FB0779F480819181840F951F029679
:1055D000D90111969C938E938281938113969C930B
:1055E0008E931297E0E0F0E08A819B81009719F09A
:1055F000FE01EC01F9CFCE01029628813981820F9C
:10560000931F2091D3043091D4042817390769F4EB
:10561000309729F41092D6041092D50402C0138258
:105620001282D093D404C093D304DF91CF91089514
:10563000A0E0B0E0EEE1FBE20C945C2CEC01CB01CD
:10564000209719F40E94F129B8C0FE01E60FF71F58
:105650009E0122503109E217F30708F4ACC0D901CA
:105660000D911C91119706171707B8F00530110519
:1056700008F49FC0A801445051094617570708F481
:1056800098C002501109061B170B019311936D93DB
:105690007C93CF010E94892A8CC05B01A01AB10AB9
:1056A0004E01800E911EA091D504B091D604612CBC
:1056B000712C60E070E0109709F449C0A815B90595
:1056C000C9F5ED90FC901197670142E0C40ED11C22
:1056D000CA14DB0478F147018A189B08640142E090
:1056E000C40ED11C1296BC9012971396AC91B5E0E3
:1056F000CB16D10440F0B282A38391828082D9017B
:105700008D939C9309C00E5F1F4F0E0D1F1DF90155
:1057100011830083EB2DFA2F6115710531F0DB0148
:105720001396FC93EE93129744C0F093D604E09343
:10573000D5043FC06D917C9111976616770608F4E9
:105740003B01BD0112960D90BC91A02DB4CF60918C
:10575000D3047091D40468157905E9F468167906C4
:10576000D0F440910001509101014115510541F4DF
:105770004DB75EB76091040170910501461B570B50
:10578000E417F507C0F4F093D404E093D304F901CF
:10579000918380830EC00E94F1297C01009759F00B
:1057A000A801BE010E94112CCE010E94892AC701C6
:1057B00004C0CE0102C080E090E0CDB7DEB7EEE0DD
:1057C0000C94782C1F93FC0199278827BC01E8943E
:1057D00011911032E9F3193010F01E30C8F31B326A
:1057E00051F01D3249F4689406C00E942A2C610FC2
:1057F000711D811D911D119110531A30B0F33EF4AB
:1058000090958095709561957F4F8F4F9F4F1F9119
:10581000089591114AC0803219F089508550D0F70F
:105820000895FB01DC0102C001900D9241505040EF
:10583000D8F70895FB01DC018D91019080190110CA
:10584000D9F3990B0895FB01DC0101900D92002022
:10585000E1F70895592F482F372F262F660F771F0E
:10586000881F991F660F771F881F991F620F731F6C
:10587000841F951F660F771F881F991F0895F99938
:10588000FECF92BD81BDF89A992780B50895262F45
:10589000F999FECF1FBA92BD81BD20BD0FB6F89415
:1058A000FA9AF99A0FBE01960895992788270895C4
:1058B0002F923F924F925F926F927F928F929F9220
:1058C000AF92BF92CF92DF92EF92FF920F931F930E
:1058D000CF93DF93CDB7DEB7CA1BDB0B0FB6F894BF
:1058E000DEBF0FBECDBF09942A88398848885F84FF
:1058F0006E847D848C849B84AA84B984C884DF8070
:10590000EE80FD800C811B81AA81B981CE0FD11D53
:105910000FB6F894DEBF0FBECDBFED01089510E0C5
:10592000C8ECD0E004C0FE010E94DE292296CA3CE9
:08593000D107C9F7F894FFCF7D
:105938000000D704800001000000010A0A1F1F1F91
:105948000E04040E1B11111111111F0E1B11111140
:10595800111F1F0E1B1111111F1F1F0E1B11111FCD
:105968001F1F1F0E1B111F1F1F1F1F0E1F1F1F1F73
:105978001F1F1F0176332E302E31004D757369635A
:105988006F6E000100004000140054003078252E8E
:105998003258252E3458252E34580072656164001B
:1059A8006E616D65007665720041544D5F504F54CD
:1059B8005F444E0041544D5F504F545F5550004175
:1059C800544D5F504F545F43540041544D5F4D4F09
:1059D800545F52540041544D5F4255545F524F57E3
:1059E8000041544D5F4D494E5F52504D0041544D5A
:1059F8005F4D41585F52504D0041544D5F4D4F54DB
:105A08005F3152504D0041544D5F4E554D5F4D41F1
:105A1800470041544D5F53454E535F54494D45002F
:105A280041544D5F41494E5F4355525230004154F5
:105A38004D5F41494E5F435552523100202020208E
:105A480020202020202020202020202000424154F7
:105A580054455259204348415247494E4700204235
:105A68002041205420542045205220592020002035
:105A7800492053202020462055204C204C2020002F
:105A8800204D2055205320492043204F204E2020D0
:105A98000054656D706F3A20002020202020535458
:105AA8004F5020202020002020202047204F204F2A
:105AB800204420202020200020202020204220597F
:105AC80020452020202020200020202020204C209D
