:100000000C9465000C948D000C948D000C948D0064
:100010000C948D000C948D000C948D000C948D002C
:100020000C948D000C948D000C948D000C948D001C
:100030000C948D000C948D000C948D000C948D000C
:100040000C94E31F0C948D000C9461230C94932367
:100050000C948D000C948D000C948D000C948D00EC
:100060000C9433120C948D00000000080002010073
:100070000003040700000000000000000102040863
:100080001020408001020408102001020408102002
:10009000040404040404040402020202020203032E
:1000A00003030303000000002300260029000000D2
:1000B0000000250028002B0000000000240027007D
:1000C0002A008E079111C323AD0711241FBECFEF65
:1000D000D8E0DEBFCDBF13E0A0E0B1E0EEEEF8E582
:1000E00002C005900D92A430B107D9F724E0A4E036
:1000F000B3E001C01D92A73DB207E1F710E0C8ECE4
:10010000D0E004C02297FE010E94B929C23CD10769
:10011000C9F70E9460270C946A2C0C9400008EBDD5
:1001200000000DB407FEFDCF8EB50895CF92DF928B
:10013000EF92FF92C0904B03D0904C03E0904D03A0
:10014000F0904E0380913F0390914003A0914103B2
:10015000B0914203C81AD90AEA0AFB0A84E00E9455
:10016000F321892B09F04FC080914F0381114DC0BD
:1001700089ECC816D104E104F10490F069E070E064
:1001800080915203909153030E94991CAA2797FDD6
:10019000A095BA2F8C159D05AE05BF0508F072C05D
:1001A00069E070E080915203909153030E94991C82
:1001B000AA2797FDA095BA2F8C159D05AE05BF0502
:1001C00020F540E050E068E270E0809152039091A9
:1001D00053030E94C81C40E050E069E270E0809147
:1001E0005203909153030E94C81C0E942D206093DB
:1001F0003F0370934003809341039093420381E057
:1002000080934F0302C010924F0369E070E0809129
:100210005203909153030E94991CAA2797FDA09521
:10022000BA2F8C159D05AE05BF05A0F440E050E047
:1002300068E270E080915203909153030E94C81CC1
:1002400040E050E069E270E08091520390915303E6
:100250000E94C81C68E270E08091520390915303A1
:100260000E94991C892B09F042C06FE270E08091D6
:100270005203909153030E94991C892BC1F540E0D1
:1002800050E037C0A60168E270E08091520390917F
:1002900053030E94C81C68E070E080915203909163
:1002A00053030E94991CDC01A70196010E94AF290B
:1002B0009B01AC0160E87DE88BE590E00E947E291F
:1002C000A90169E270E080915203909153030E946A
:1002D000C81C0E942D2060933F03709340038093BD
:1002E00041039093420381E080934F0359CF41E053
:1002F00050E06BE370E08091520390915303FF90C4
:10030000EF90DF90CF900C94C81CBF92CF92DF92F9
:10031000EF92FF920F931F93CF93DF9300D000D003
:10032000CDB7DEB7082FB92E162F60E0822F2C83B1
:100330004B835A8379830E94BD218AE090E00E941A
:100340009620802F0E948F007981872F0E948F0036
:10035000C82ED12CE12CF12CFE2CED2CDC2CCC2445
:10036000812F0E948F00C82AFE2CED2CDC2CCC247F
:100370005A81852F0E948F00C82AFE2CED2CDC2C80
:10038000CC244B81842F0E948F00C82A8AE090E001
:100390000E94962061E02C81822F0E94BD218091D5
:1003A0001A0390911B038F36910509F066C04091A6
:1003B0001C0350911D0360911E0370911F03452B78
:1003C000462B472B09F44AC0A601537050931903DA
:1003D000409318036CE370E08091520390915303B3
:1003E0000E94C81C6FE370E0809152039091530308
:1003F0000E94991C209118033091190382179307CA
:100400004CF46FE370E080915203909153030E948B
:10041000991C01C0C901AC016FE370E080915203E7
:10042000909153030E94C81C6091140370911503AE
:10043000882777FD8095982F0E940D282AE037EDB8
:1004400043E25EE30E94C1280E94DA272CEB32E0EF
:10045000261B370B30930F0320930E03A7014F7118
:10046000552750931703409316036DE370E0809176
:100470005203909153030E94C81C80911A039091DB
:100480001B03429769F4D0921503C0921403A6018E
:100490006EE370E080915203909153030E94C81C58
:1004A00020911A0330911B0380910C0390910D034E
:1004B0002817390741F4C0921003D0921103E0923B
:1004C0001203F092130300931A03B0921B030F90D0
:1004D0000F900F900F90DF91CF911F910F91FF9090
:1004E000EF90DF90CF90BF9008952AE030E040E099
:1004F00050E0BA018BE890E00E9485012AE030E0EC
:1005000043EC50E061E070E08CEE90E00E948501E9
:100510002AE030E040E650E067E070E08DEE90E0E9
:100520000E9485012AE030E044E050E060E070E0A5
:1005300080E890E00E9485012AE030E045E05EE03E
:1005400064E070E080E990E00E9485012AE030E0FC
:1005500043E050E060E070E081E990E00E948501B6
:100560002AE030E044EF51E060E070E083E990E0A1
:100570000E9485012AE030E048EB5BE060E070E03B
:1005800084E990E00E9485012AE030E040E951E0F2
:1005900060E070E085E990E00E9485012AE030E0AB
:1005A00041E050E060E070E083EA90E00E94850165
:1005B0002AE030E04AE050E060E070E084EA90E059
:1005C0000E9485012AE030E04AE050E060E070E0FF
:1005D00085EA90E00E9485012AE030E048E35EE091
:1005E00060E070E086EA90E00E9485012AE030E059
:1005F0004AE050E060E070E087EA90E00E94850108
:100600002AE030E044EF51E060E070E088EA90E0FA
:100610000E9485012AE030E044EF51E060E070E0A4
:100620008AEA90E00E9485012AE030E04AE050E04A
:1006300060E070E08BEA90E00E9485012AE030E003
:1006400041E050E060E070E080EA90E00E948501C7
:100650002AE030E040E050ED67E070E08DEA90E0A5
:100660000C94850161E087E00E94842161E087E0CD
:100670000E94BD2143E050E064E370E080915203AA
:10068000909153030E94C81C83E00E94DC2061E02B
:100690008AE00E94842161E083E00E94842161E07D
:1006A00089E00E94842161E088E00E94842161E069
:1006B0008AE00E94BD2160E084E00E94842160E025
:1006C00086E00E94842180E48093800089E080930A
:1006D000810010928900109288008CB58F7D8CBDAE
:1006E0008CB58C7F82608CBD8DB58E7F8DBD8CB5B9
:1006F0008C608CBD0E94981026E040E051EE60E0D6
:1007000070E086E394E00E94FF220C947502CF9380
:10071000DF936FE370E080915203909153030E9446
:10072000991C4E975CF46FE270E0809152039091B7
:1007300053030E94991C181619062CF010922103DD
:100740001092200309C0809120039091210301960B
:10075000909321038093200348EE53E06FE370E011
:1007600080915203909153030E94C81CC0912003B2
:10077000D09121036EE470E0809152039091530375
:100780000E94991C8C179D07B4F4109221031092BB
:10079000200348EE53E06FE370E0809152039091A4
:1007A00053030E94C81C8091500390915103DF9124
:1007B000CF910C94861CDF91CF91089564E370E093
:1007C00080915203909153030E94991C039731F436
:1007D00086E00E94F321019709F473C081E08093C1
:1007E0002E0364E370E080915203909153030E94C2
:1007F000991C892B59F469E370E080915203909120
:1008000053030E94991C019709F47BC064E370E0D4
:1008100080915203909153030E94991C019759F4BF
:1008200069E370E080915203909153030E94991CF8
:10083000039709F471C064E370E0809152039091D2
:1008400053030E94991C892B89F586E00E94F321AD
:10085000019709F06CC043E050E064E370E08091E0
:100860005203909153030E94C81C61E087E00E94EC
:10087000BD2110922E031092250380914B0390917D
:100880004C03A0914D03B0914E0380933B03909392
:100890003C03A0933D03B0933E0380932F039093BA
:1008A0003003A0933103B093320341C064E370E09E
:1008B00080915203909153030E94991C0197B9F5BE
:1008C000C4CF80912E03882309F48BCF80915003ED
:1008D000909151030E94861C44E050E064E370E074
:1008E00080915203909153030E94C81C40E050E055
:1008F00060E370E080915203909153030E94C81C02
:1009000070CF41E050E064E370E080915203909139
:1009100053030E94C81C7ACF42E050E064E370E0C9
:1009200080915203909153030E94C81C84CF089574
:10093000AF92BF92CF92DF92EF92FF920F931F93ED
:10094000CF93DF936CE270E0809152039091530358
:100950000E94991C8C016BE470E08091520390918D
:1009600053030E94991C209152033091530308179E
:100970001907DCF441E050E068E370E0C9010E942F
:10098000C81C66E170E080915203909153030E946D
:10099000991CAC0167E370E080915203909153037E
:1009A0000E94C81C40E050E099C042E050E068E37B
:1009B00070E0C9010E94C81C67E370E08091520397
:1009C000909153030E94991C8C0167E170E0809123
:1009D0005203909153030E94991C0817190714F5AC
:1009E0006CE270E080915203909153030E94991C35
:1009F0008C0164E170E080915203909153030E9456
:100A0000991C845691090817190764F467E370E08C
:100A100080915203909153030E94991CAC014F5F47
:100A20005F4F9BC067E370E0809152039091530346
:100A30000E94991C18161906BCF46CE270E08091B3
:100A40005203909153030E94991C8C0164E170E061
:100A500080915203909153030E94991C8C599F4F8F
:100A6000801791070CF46EC067E370E08091520329
:100A7000909153030E94991CBC0183E00E94FC20CA
:100A800067E370E080915203909153030E94991C98
:100A90008C0167E170E080915203909153030E94B2
:100AA000991C08171907C9F18091250381115EC0AF
:100AB0006CE270E080915203909153030E94991C64
:100AC0008C0166E470E080915203909153030E9480
:100AD000991C0817190754F041E050E069E370E0F1
:100AE00080915203909153030E94C81C68E370E008
:100AF00080915203909153030E94991C019709F031
:100B000043C06FE270E080915203909153030E94C2
:100B1000991C892B09F450C037C06CE270E08091B9
:100B20005203909153030E94991C8C0166E470E07B
:100B300080915203909153030E94991C0817190742
:100B4000ACF0B2CF67E370E0809152039091530311
:100B50000E94991CAC014150510967E370E08091FB
:100B60005203909153030E94C81C7ECF43E050E093
:100B700069E370E080915203909153030E94C81C76
:100B800081E080932503B2CF68E370E08091520347
:100B9000909153030E94991C019709F01FC16FE2C5
:100BA00070E080915203909153030E94991C181693
:100BB00019060CF490C012C168E470E080915203F1
:100BC000909153030E94991C7C0169E470E080912C
:100BD0005203909153030E94991C8C0167E470E0CA
:100BE00080915203909153030E94991CEC016DE295
:100BF00070E080915203909153030E94991CE01A77
:100C0000F10A0027F7FC0095102F9E01442737FDBD
:100C10004095542FBC01882777FD8095982F1F920F
:100C20001F921F92E4E6EF93A12CB12C65010E9464
:100C300072250F900F900F900F906536710514F08C
:100C400064E670E08B0177FF02C000E010E064E32F
:100C500070E080915203909153030E94991C019778
:100C600059F465E370E080915203909153030E9420
:100C7000991C081719072CF564E370E08091520362
:100C8000909153030E94991C0297DCF464E370E096
:100C900080915203909153030E94991C039709F08D
:100CA00032C165E370E080915203909153030E943A
:100CB000991C05970CF027C145E050E064E370E013
:100CC000CFC0A80165E370E0809152039091530377
:100CD0000E94C81CDBCF68E470E0809152039091C1
:100CE00053030E94991C7C016AE470E080915203D6
:100CF000909153030E94991C8C0167E470E08091ED
:100D00005203909153030E94991CEC016DE270E034
:100D100080915203909153030E94991CE01AF10AAA
:100D20000027F7FC0095102F9E01442737FD4095C2
:100D3000542FBC01882777FD8095982F1F921F9212
:100D40001F92E4E6EF93A12CB12C65010E9472255D
:100D50000F900F900F900F906536710514F064E6B8
:100D600070E08B0177FF02C000E010E064E370E008
:100D700080915203909153030E94991C019761F452
:100D800065E370E080915203909153030E94991C97
:100D9000081719070CF074C064E370E080915203E7
:100DA000909153030E94991C02970CF069C064E370
:100DB00070E080915203909153030E94991C039715
:100DC00009F068C065E370E080915203909153038D
:100DD0000E94991C05970CF460C05CC068E470E048
:100DE00080915203909153030E94991C7C0167E407
:100DF00070E080915203909153030E94991CEC0182
:100E00006DE270E080915203909153030E94991C0F
:100E10000027F7FC0095102F9E01442737FD4095D1
:100E2000542FBC01882777FD8095982F1F921F9221
:100E30001F92E4E6EF93A12CB12C65010E9472256C
:100E40000F900F900F900F906536710514F064E6C7
:100E500070E0AB0177FF02C040E050E065E370E076
:100E60008091520390915303DF91CF911F910F9185
:100E7000FF90EF90DF90CF90BF90AF900C94C81C84
:100E8000A80165E370E080915203909153030E94A2
:100E9000C81C8DCF40E050E00BC060E470E0809152
:100EA0005203909153030E94991CAC014F5F5F4F16
:100EB00060E470E080915203909153030E94C81C3B
:100EC00060E470E080915203909153030E94991C5A
:100ED0008C016FE470E080915203909153030E9463
:100EE000991C0817190779F445E050E064E370E0B5
:100EF00080915203909153030E94C81C40E050E03F
:100F000060E470E0ADCFDF91CF911F910F91FF9022
:100F1000EF90DF90CF90BF90AF9008950F9300E0D7
:100F200022E040E167E280E693E00E94601322E065
:100F300040E16FE384E593E00E94601346E050E0F7
:100F400065E070E080E593E00E94541E64EF72E07B
:100F500086E093E00F910C94272686E093E00C94B2
:100F6000B9250F931F93CF93DF9300D000D000D00B
:100F7000CDB7DEB786E394E00E941C22181619064E
:100F80000CF05AC14AE366E374E0CE0101960E9478
:100F90004A25BE016F5F7F4F86E093E00E94732673
:100FA000CE0101960E94B9254AE066E374E0CE01C5
:100FB00001960E944A25CE0101960E945427709303
:100FC000050360930403CE0101960E94B92586E0D3
:100FD00093E00E94F5266BE671E086E093E00E94C4
:100FE000D62681110FC060E771E086E093E00E9491
:100FF000D6268823E9F06BE471E086E394E00E9452
:10100000512416C000E010E0B80180915203909185
:1010100053030E94991C4AE050E0BC0186E394E02F
:101020000E9404250F5F1F4F0035110569F7DBCFC4
:1010300065E771E086E093E00E94D626882331F0D0
:1010400064E471E086E394E00E94512469E771E072
:1010500086E093E00E94D626882361F04091040345
:101060005091050360E070E080915203909153032A
:101070000E94C81C64E871E086E093E00E94D626D6
:10108000882361F0409104035091050361E070E012
:1010900080915203909153030E94C81C6FE871E045
:1010A00086E093E00E94D626882361F040910403F5
:1010B0005091050362E070E08091520390915303D8
:1010C0000E94C81C6AE971E086E093E00E94D6267F
:1010D000882361F0409104035091050363E070E0C0
:1010E00080915203909153030E94C81C65EA71E0FD
:1010F00086E093E00E94D626882361F040910403A5
:101100005091050364E070E0809152039091530385
:101110000E94C81C61EB71E086E093E00E94D62635
:10112000882361F0409104035091050365E070E06D
:1011300080915203909153030E94C81C6DEB71E0A3
:1011400086E093E00E94D626882361F04091040354
:101150005091050366E070E0809152039091530333
:101160000E94C81C69EC71E086E093E00E94D626DC
:10117000882361F0409104035091050367E070E01B
:1011800080915203909153030E94C81C66ED71E058
:1011900086E093E00E94D626882361F04091040304
:1011A0005091050368E070E08091520390915303E1
:1011B0000E94C81C62EE71E086E093E00E94D62691
:1011C000882361F0409104035091050369E070E0C9
:1011D00080915203909153030E94C81C60EF71E00C
:1011E00086E093E00E94D626882361F040910403B4
:1011F000509105036AE070E080915203909153038F
:101200000E94C81C6EEF71E086E093E00E94D62633
:10121000882361F040910403509105036BE070E076
:1012200080915203909153030E94C81C64EF72E0B6
:1012300086E093E00E947F2626960FB6F894DEBFE4
:101240000FBECDBFDF91CF911F910F910895CF9326
:10125000DF9360E370E080915203909153030E940A
:10126000991C2091520330915303892B09F092C2AB
:1012700064E370E0C9010E94991CEC01809126038F
:1012800090912703C817D90741F080E693E00E94A8
:10129000DF13D0932703C09326032097F1F440E097
:1012A00060E080E693E00E94ED136CE072E080E67F
:1012B00093E00E94442441E060E080E693E00E94D5
:1012C000ED136CE072E080E693E00E94442480E637
:1012D00093E0DF91CF910C948D13C130D10509F0CB
:1012E00090C080E693E00E94921340E060E080E6C8
:1012F00093E00E94ED136DE172E080E693E00E94BE
:10130000442441E060E080E693E00E94ED1365E153
:1013100072E080E693E00E9444248091280390913B
:1013200029030196909329038093280306970CF4D0
:101330005FC065E370E080915203909153030E9477
:10134000991C8135910534F084E090E09093290355
:101350008093280365E370E08091520390915303DA
:101360000E94991C803591055CF465E370E08091E2
:101370005203909153030E94991CCC970CF073C2B6
:1013800065E370E080915203909153030E94991C91
:10139000CC975CF465E370E0809152039091530325
:1013A0000E94991C8D970CF065C265E370E08091F6
:1013B0005203909153030E94991C8D975CF465E34E
:1013C00070E080915203909153030E94991C83977F
:1013D0000CF057C265E370E0809152039091530383
:1013E0000E94991C839724F41092290310922803D9
:1013F0006091280380E693E00E945C1462E172E051
:1014000076C2C230D105C9F480E693E00E949213FF
:1014100040E060E080E693E00E94ED136EE272E04F
:1014200080E693E00E94442441E060E080E693E09F
:101430000E94ED136FE372E05AC2C330D10509F088
:1014400071C180E693E00E94921362E370E08091A4
:101450005203909153030E94991C883E934054F488
:1014600048EE53E062E370E08091520390915303A1
:101470000E94C81C40E060E080E693E00E94ED130B
:1014800060E572E080E693E00E94442441E060E081
:1014900080E693E00E94ED138091500390915103F8
:1014A0000E94911C20E030E0A9010E94BD2818167E
:1014B000BCF461E672E080E693E00E9444248091EF
:1014C0005003909151030E94911C0E94DA274AE038
:1014D00050E080E693E00E94FC2469E172E002C0E3
:1014E00069E672E080E693E00E94442441E06EE009
:1014F00080E693E00E94ED1368E370E08091520370
:10150000909153030E94991C029731F466E080E6A3
:1015100093E00E945C1406C06BE172E080E693E009
:101520000E94442441E06FE080E693E00E94ED13C6
:1015300069E370E080915203909153030E94991CDB
:10154000019709F073C06091280380E693E00E9440
:101550005C148091280390912903019690932903AC
:101560008093280306970CF4C8C165E370E080916E
:101570005203909153030E94991C8135910534F0D8
:1015800084E090E0909329038093280365E370E062
:1015900080915203909153030E94991C80359105CC
:1015A0005CF465E370E080915203909153030E94D4
:1015B000991CCC970CF06CC165E370E080915203EC
:1015C000909153030E94991CCC975CF465E370E002
:1015D00080915203909153030E94991C8D970CF0B7
:1015E0005EC165E370E080915203909153030E94C5
:1015F000991C8D975CF465E370E0809152039091A3
:1016000053030E94991C83970CF050C165E370E06E
:1016100080915203909153030E94991C83970CF080
:101620006CC1109229031092280367C165E370E032
:1016300080915203909153030E94991C803591052B
:101640002CF065E080E693E00E945C1465E370E0B6
:1016500080915203909153030E94991C803591050B
:101660005CF465E370E080915203909153030E9413
:10167000991CCC970CF021C165E370E08091520376
:10168000909153030E94991CCC975CF465E370E041
:1016900080915203909153030E94991C8D970CF0F6
:1016A00012C165E370E080915203909153030E9450
:1016B000991C8D975CF465E370E0809152039091E2
:1016C00053030E94991C83970CF003C165E370E0FB
:1016D00080915203909153030E94991C83975CF46C
:1016E00065E370E080915203909153030E94991C2E
:1016F00049970CF0F4C065E370E08091520390913B
:1017000053030E94991C49970CF0EFC080910A0185
:10171000882309F4EAC060E080E693E0DF91CF918E
:101720000C945C14C430D105C9F480E693E00E94A7
:10173000921340E060E080E693E00E94ED1367E7DB
:1017400072E080E693E00E94442441E060E080E69D
:1017500093E00E94ED1368E872E0C9C0259709F094
:10176000CCC080E693E00E94921340E060E080E607
:1017700093E00E94ED1369E972E080E693E00E9435
:10178000442441E060E080E693E00E94ED136EE2C5
:1017900072E0ADC060E370E0C9010E94991CAC0129
:1017A0004150510962E370E08091520390915303DC
:1017B0000E94C81C40E060E080E693E00E94ED13C8
:1017C0006AEA72E080E693E00E94442461E370E0FC
:1017D00080915203909153030E94991C019719F430
:1017E00061EB72E002C06CEB72E080E693E00E9475
:1017F000442441E060E080E693E00E94ED1367EC52
:1018000072E080E693E00E94442462E370E08091FD
:101810005203909153030E94991C4AE050E0BC018E
:1018200080E693E00E94FC2466E672E080E693E0A6
:101830000E94442462E370E080915203909153032C
:101840000E94991CBC0180915203909153030E9405
:10185000991C4AE050E0BC0180E693E00E94FC2421
:1018600064E172E044C083E090E0909329038093A8
:10187000280386CD82E090E090932903809328038B
:1018800094CD81E090E09093290380932803A2CD2A
:1018900083E090E090932903809328038DCE82E02B
:1018A00090E090932903809328039BCE81E090E001
:1018B0009093290380932803A9CE64E080E693E007
:1018C0000E945C14D9CE63E080E693E00E945C1431
:1018D000E8CE62E080E693E00E945C14F7CE61E01F
:1018E00080E693E00E945C1406CF6BE172E080E634
:1018F00093E0DF91CF910C944424DF91CF91089530
:10190000CF92DF92EF92FF9280914B0390914C0324
:10191000A0914D03B0914E03803D9740A105B105C4
:1019200008F48CC064E370E08091520390915303FB
:101930000E94991C039709F081C080914B039091FC
:101940004C03A0914D03B0914E034091330350914D
:1019500034036091350370913603841B950BA60BFD
:10196000B70B893E9340A105B10508F445C08091AD
:101970000A0191E0892780930A010E9487038091E0
:101980002403882329F1E0902203F09023036DE4DF
:1019900070E080915203909153030E94991CE816C5
:1019A000F9060CF052C062E470E08091520390910D
:1019B00053030E94991C019709F447C080912203A8
:1019C000909123030196909323038093220304C0F4
:1019D000109223031092220380914B0390914C03A9
:1019E000A0914D03B0914E03809333039093340341
:1019F000A0933503B09336036BE370E080915203FC
:101A0000909153030E94991C892B09F02DC162E12A
:101A100070E080915203909153030E94991C892B8E
:101A200009F422C164E370E0809152039091530362
:101A30000E94991C039709F017C12DC08091500393
:101A4000909151030E94861C78CF40E050E069E2FB
:101A500070E080915203909153030E94C81C109231
:101A60002403109223031092220362E470E0809119
:101A70005203909153030E94991C019709F0ACCF37
:101A800040E050E062E470E0809152039091530393
:101A90000E94C81CA1CF62E170E080915203909136
:101AA00053030E94991CC0904B03D0904C03E090CC
:101AB0004D03F0904E0340912F03509130036091FD
:101AC000310370913203C41AD50AE60AF70A28EEE8
:101AD00033E0DC010E949D296C157D058E059F0574
:101AE00050F444E050E064E370E080915203909140
:101AF00053030E94C81CC0904B03D0904C03E0904D
:101B00004D03F0904E038091470390914803A091BC
:101B10004903B0914A03C81AD90AEA0AFB0A60E1EC
:101B200070E080915203909153030E94991CAA2760
:101B300097FDA095BA2F8C159D05AE05BF0590F4B5
:101B40000E94270980914B0390914C03A0914D0373
:101B5000B0914E038093470390934803A0934903A9
:101B6000B0934A0363E370E0809152039091530372
:101B70000E94991C019751F063E370E08091520339
:101B8000909153030E94991C029779F5C0904B03E2
:101B9000D0904C03E0904D03F0904E0380914303AE
:101BA00090914403A0914503B0914603C81AD90A05
:101BB000EA0AFB0A60E170E08091520390915303BE
:101BC0000E94991CAA2797FDA095BA2F8C159D05F8
:101BD000AE05BF05D0F440E050E063E370E08091D3
:101BE0005203909153030E94C81C80914B03909123
:101BF0004C03A0914D03B0914E0380934303909307
:101C00004403A0934503B093460364E370E08091DE
:101C10005203909153030E94991C049781F4809180
:101C20004B0390914C03A0914D03B0914E03893B1F
:101C30002BE09207A105B10508F070C026C064E34F
:101C400070E080915203909153030E94991C059774
:101C500031F364E370E080915203909153030E944A
:101C6000991C029791F4DBCF80914B0390914C0328
:101C7000A0914D03B0914E0380932F0390933003B6
:101C8000A0933103B093320336CF80914B039091F0
:101C90004C03A0914D03B0914E0380933B0390936E
:101CA0003C03A0933D03B0933E03C0904B03D09000
:101CB0004C03E0904D03F0904E03809137039091D8
:101CC0003803A0913903B0913A03C81AD90AEA0A35
:101CD000FB0A65E170E080915203909153030E94EA
:101CE000991CAA2797FDA095BA2F8C159D05AE05C6
:101CF000BF0508F048C00E94980480914B03909162
:101D00004C03A0914D03B0914E0380933703909301
:101D10003803A0933903B0933A0335C040913B0395
:101D200050913C0360913D0370913E036C017D0135
:101D3000C41AD50AE60AF70A61E170E080915203FD
:101D4000909153030E94991CAA2797FDA095BA2F42
:101D50008C159D05AE05BF0508F0A7CF40E050E00B
:101D600064E370E080915203909153030E94C81C79
:101D700080915003909151030E94861C60E087E09F
:101D80000E94BD2192CFFF90EF90DF90CF900895F9
:101D9000CF92DF92EF92FF9280914301882309F462
:101DA0007DC08DE693E00E9465116FE370E08DE6E3
:101DB00093E00E9479118DE693E00E948E118111CB
:101DC00028C08091560390915703909363038093AA
:101DD0006203809158038093640380915903809338
:101DE000650380915A038093660380915B0380931F
:101DF000670380915C038093680380915D03809307
:101E0000690380915E0380936A0380915F038093EE
:101E10006B0380E693E00E94621443E151E060E0CE
:101E200080E693E00E9422144BE151E061E080E6FD
:101E300093E00E94221443E251E062E080E693E0E6
:101E40000E9422144BE251E063E080E693E00E949E
:101E5000221443E351E064E080E693E00E94221400
:101E60004BE351E065E080E693E00E9422144BE0F2
:101E700051E066E080E693E00E94221480E693E061
:101E80000E94921341E050E062E270E080915203C0
:101E9000909153030E94C81C109243010E942D2070
:101EA00060934B0370934C0380934D0390934E03C8
:101EB00080915003909151030E940E1C80912C033D
:101EC00090912D0320912A0330912B03820F931FB1
:101ED00097FD01967C01F594E79485E10E94DF204F
:101EE0009701281B390BC9010B96479750F485E1E0
:101EF0000E94DF20BC0180915003909151030E9409
:101F0000731580912A0390912B0390932D03809356
:101F10002C0385E10E94DF2090932B0380932A03FA
:101F200081E10E94DF20BC01809150039091510318
:101F30000E946C1580E10E94DF20BC01809150035B
:101F4000909151030E94CB150E94DE030E94B107BD
:101F50002AE030E040E050E0BA018FE690E00E94D5
:101F600085012AE030E040E050E0BA0182E190E0F3
:101F70000E94850163E270E08091520390915303C7
:101F80000E94991C019771F464E370E08091520300
:101F9000909153030E94991C039721F4809124038C
:101FA0008823B1F169E270E080915203909153036C
:101FB0000E94991C7C016CE470E080915203909126
:101FC00053030E94991C8E159F050CF49FC08091AD
:101FD000240381119BC061E088E00E94BD212AE0BA
:101FE00030E040E050E0BA0187EA90E00E948501CD
:101FF00010921C0310921D0310921E0310921F03D7
:102000000E94800CFF90EF90DF90CF900C94960090
:1020100060E088E00E94BD21C0901C03D0901D03A9
:10202000E0901E03F0901F038091500390915103A4
:102030000E948B1CA0E0B0E0C816D906EA06FB0699
:10204000A0F480911C0390911D03A0911E03B091F8
:102050001F038C509E4FAF4FBF4F80931C03909334
:102060001D03A0931E03B0931F03C0901C03D090C8
:102070001D03E0901E03F0901F03C114D104E1047E
:10208000F10469F080915003909151030E948B1CE0
:10209000A0E0B0E08C159D05AE05BF0530F169E20A
:1020A00070E080915203909153030E94991C7C012F
:1020B0006CE470E080915203909153030E94991C4C
:1020C0008E159F051CF481E08093240340911C032E
:1020D00050911D0360911E0370911F032AE030E0B0
:1020E00087EA90E00E9485018BCF80915003909108
:1020F00051030E948B1CA0E0B0E080931C039093DE
:102100001D03A0931E03B0931F03C9CF60E088E0B6
:102110000E94BD212AE030E048EE53E060E070E02C
:1021200087EA90E00E94850181E08093240368CFD4
:10213000CF93CFB7F89480916C03811127C0EAE95F
:10214000F0E08491E6E8F0E09491E82FF0E0EE0F03
:10215000FF1FE854FF4FA591B4918C91892321F47E
:1021600061E08AE00E94BD2161E08AE00E94842152
:102170008CB580618CBD8CB580648CBD61E08DE0D8
:102180000E94842161E08BE00E94842180916C0395
:102190008F5F80936C03CFBFCF91089580919D0393
:1021A00090E020919E03821B9109089520919E0347
:1021B00080919D03281750F4E22FF0E0E156FC4F88
:1021C000808190E02F5F20939E0308958FEF9FEF13
:1021D0000895E0919E0380919D03E81730F4F0E0AC
:1021E000E156FC4F808190E008958FEF9FEF0895B6
:1021F0000895CF92DF92EF92FF920F931F93CF93A8
:10220000DF937C01CB018A0120917903222389F09D
:10221000EB016B01C40ED51ECC15DD0569F069918B
:10222000D701ED91FC910190F081E02DC701099556
:10223000F3CF642F0E940A12C801DF91CF911F9142
:102240000F91FF90EF90DF90CF900895CF93DF93A1
:102250001F92CDB7DEB76983209179032223D1F095
:1022600020917A03203240F021E030E0FC013383FA
:10227000228380E090E015C080917B03E82FF0E09E
:10228000E458FC4F998190838F5F80937B03809308
:102290007A0305C061E0CE0101960E940A1281E036
:1022A00090E00F90DF91CF910895FC01138212828C
:1022B00048EE53E060E070E04483558366837783A3
:1022C0008EEC92E091838083089510929E03109289
:1022D0009D0310927B0310927A030C94951181E078
:1022E0008093790360939C0310927B0310927A038E
:1022F00008950C946F110F93062F21E040917A03FB
:102300006CE773E080919C030E94B31110927B03F1
:1023100010927A03109279030F91089561E00C9462
:102320007B118DE693E00C94551110922C0481E002
:1023300080932A041092290461E082E10E94BD2169
:1023400061E083E10E94BD21E9EBF0E080818E7FB6
:10235000808380818D7F808388E48093B80085E4CA
:102360008093BC0008950F93413208F04AC09091C9
:102370002C049111FCCF92E090932C0400932A043A
:102380009FEF9093BF031092040440930304FB015A
:1023900065E074E0DB019A2F961B941718F4919175
:1023A0009D93F9CF10922B0490912B04880F892BC9
:1023B00080932B0480912904813061F410922904C8
:1023C00080912B048093BB008091BC0083FDF8CFEB
:1023D00085EC01C085EE8093BC00222321F0809122
:1023E0002C048230E1F38091BF038F3F61F0809134
:1023F000BF03803251F08091BF03803341F483E00A
:1024000007C081E005C080E003C082E001C084E035
:102410000F910895613298F420912C04243089F4AE
:102420006093E103FC0183EE93E0DC012A2F281B7B
:10243000261718F421912D93F9CF80E0089581E0BB
:10244000089582E0089585ED8093BC008091BC00E2
:1024500084FDFCCF10922C04089585EC8093BC0081
:1024600010922C0408951F920F920FB60F92112410
:102470002F933F934F935F936F937F938F939F938C
:10248000AF93BF93EF93FF938091B900887F80361D
:1024900009F49EC078F5883209F45DC090F480316B
:1024A00009F456C038F4882309F4F5C0883009F4DB
:1024B0004FC0F5C0883109F44EC0803209F45FC0C6
:1024C000EEC0803409F46AC058F4803309F457C070
:1024D000883309F0E4C08093BF030E942D12DFC04F
:1024E000803509F44FC0883509F45DC0883409F09F
:1024F000D6C0D3C0883909F4C4C0A8F4883709F419
:1025000067C038F4883609F463C0803709F460C0C6
:10251000C6C0883809F4B5C0803909F45FC0803876
:1025200009F0BDC05BC0803B09F483C038F4803A39
:1025300009F466C0883A09F47CC0B1C0803C09F453
:10254000A4C0883C09F4A1C0883B09F487C0A7C097
:1025500080912B0410C0909104048091030498177B
:1025600070F5E091040481E08E0F80930404F0E0A4
:10257000EB5FFB4F80818093BB0085EC83C0809331
:10258000BF038BC0E091040481E08E0F80930404AC
:102590008091BB00F0E0EB5FFB4F808390910404DF
:1025A000809103046BC0E091040481E08E0F80935E
:1025B00004048091BB00F0E0EB5FFB4F80838091CF
:1025C0002A0481116AC081E08093290484EA5EC0F4
:1025D00083E080932C041092C003CFCF8091C0037E
:1025E000803208F04EC0E091C00381E08E0F8093EE
:1025F000C0038091BB00F0E0EF53FC4F8083BDCF60
:102600000E942D128091C003803230F4E091C0030B
:10261000F0E0EF53FC4F10826091C00370E0E09156
:102620002504F091260481EC93E009951092C003F3
:1026300036C084E080932C041092E2031092E103F0
:10264000E0912704F091280409958091E10381111C
:1026500005C081E08093E1031092E303E091E2037F
:1026600081E08E0F8093E203F0E0ED51FC4F80811A
:102670008093BB009091E2038091E103981708F4E6
:102680007CCF85E88093BC000AC085EC8093BC00B9
:1026900010922C0404C01092BF030E942312FF91D9
:1026A000EF91BF91AF919F918F917F916F915F91CA
:1026B0004F913F912F910F900FBE0F901F90189543
:1026C0000F93FC01138212828EED92E0918380833E
:1026D000648340872187028788E083870F9108956C
:1026E0001F93CF93DF93EC01162F6C818DE693E05F
:1026F0000E946F11E0916D03F0916E036B85612B69
:102700000190F081E02D8DE693E009958DE693E050
:10271000DF91CF911F910C948E11FC01138660E024
:102720000C94701328E0FC01238760E00C94701374
:102730001F93CF93DF93EC01162F64600E947013F8
:1027400081E090E00E949620612F6B7FCE010E9475
:10275000701382E390E0DF91CF911F910C9496204B
:102760001F93CF93DF93EC01162F0E947013612FFC
:10277000CE01DF91CF911F910C949813EF92FF92AD
:102780001F93CF93DF931F92CDB7DEB77C01162F37
:10279000607F642B49830E94B01380E1189FB001D1
:1027A00011244981642BC7010F90DF91CF911F91B4
:1027B000FF90EF900C94B01340E00C94BE1361E0D6
:1027C0000E94DC1380ED97E00C94962062E00E945A
:1027D000DC1380ED97E00C949620CF93DF93CDB778
:1027E000DEB728970FB6F894DEBF0FBECDBF28E046
:1027F000E4E5F1E0DE01119601900D922A95E1F7F2
:10280000FC012185241710F44FEF420FFE01319691
:10281000E40FF11DE40FF11D2081260F2068622FC7
:1028200028960FB6F894DEBF0FBECDBFDF91CF91D3
:102830000C94DC13FC016681262F246026836C60D7
:102840000C94DC13CF92DF92EF92FF920F931F93C1
:10285000CF93DF9300D0CDB7DEB78C01677088E0EF
:10286000689FB00111246064C80149835A830E94A3
:10287000DC134981C42E5A81D52EE12CF12CD601CE
:102880006D916D01D801ED91FC910190F081E02DE9
:10289000C8010995BFEFEB1AFB0AE8E0EE16F10458
:1028A00071F70F900F90DF91CF911F910F91FF90D3
:1028B000EF90DF90CF90089541E00E94BE1381E039
:1028C00090E00895CF93DF93EC018DE693E00E94B2
:1028D00065111D828985823010F098E09D839A856C
:1028E000992329F0813019F48D8184608D8362E30E
:1028F00070E080E090E00E945C206B85CE010E9439
:10290000701368EE73E080E090E00E945C2060E36A
:10291000CE010E94B01384E991E10E94962060E309
:10292000CE010E94B01384E991E10E94962060E3F9
:10293000CE010E94B01386E990E00E94962060E2EA
:10294000CE010E94B0136D816062CE010E94DC1343
:1029500084E08E83CE010E941A14CE010E94DF1300
:1029600082E08F8366E0CE010E94DC13CE01DF910E
:10297000CF910C94E613EF92FF920F931F93CF9396
:10298000DF93EC01862F7A018901198218821D825A
:102990001C821F821E82198618861B8E1A8E1D8E1F
:1029A0001C8EFE01E25AFF4F118210823296108275
:1029B0001182128213823496118210823296108212
:1029C00033961182108232961182108232961082D2
:1029D0001182128213823496108211821282138223
:1029E00034961082319691E09083319610826A83FA
:1029F0007B8362E00E948421F982E882FE01E9592A
:102A0000FF4F1183008380E090E0FE01E80FF91F83
:102A100013861286029680319105B9F780E090E026
:102A2000FE01E80FF91F178E168E0296803491056D
:102A3000B9F784E490E00E946F278C010E94891E00
:102A4000FE01E858FF4F118300838CE690E00E945E
:102A50006F278C010E94F21EFE01E658FF4F118382
:102A6000008384E891E00E946F278C010E946A1F16
:102A7000C458DF4F19830883DF91CF911F910F91C5
:102A8000FF90EF900895CF93DF93EC01C959DF4F8A
:102A90006AE270E0888199810E94991CBC018827B4
:102AA00077FD8095982F0E940D2829E030EF4CE8A3
:102AB0005AE30E94C12820E030E04EE453E40E9433
:102AC000C1280E94DA27AB016DE270E0888199810C
:102AD000DF91CF910C94C81C88589F4FFC018081D6
:102AE00091810C949D1EEF92FF920F931F93CF93B1
:102AF000DF93EC017B018C0109591F4FAB016BE2A5
:102B000070E0F801808191810E94C81CB70188277C
:102B100077FD8095982F0E940D2829E030EF4CE832
:102B20005AE30E94C12820E030E048E455E40E94C6
:102B3000C1280E94DA277E01FCE7EF0EF11CF701A5
:102B4000808191810E94801FF701808191810E9484
:102B5000DD1F7C0163E170E0F801808191810E94BA
:102B6000991CD701A81BB90B28EE33E00E949D29C0
:102B700029EB30E040E050E00E947E29C658DF4F4C
:102B8000B90188819981DF91CF911F910F91FF90B9
:102B9000EF900C94081F2F923F924F925F926F928A
:102BA0007F928F929F92AF92BF92CF92DF92EF92DD
:102BB000FF920F931F93CF93DF9300D000D000D0EC
:102BC000CDB7DEB78B0189599F4F9E838D836CE013
:102BD00070E0FC01808191810E94991C6C016FE082
:102BE00070E0ED81FE81808191810E94991CC81A5C
:102BF000D90A6CE070E0ED81FE81808191810E94B4
:102C0000991C4C016FE070E0ED81FE818081918123
:102C10000E94991C5C016DE070E0ED81FE81808175
:102C200091810E94991C7C016FE070E0ED81FE8132
:102C3000808191810E94991CE81AF90A6DE070E088
:102C4000ED81FE81808191810E94991C1C016FE0C1
:102C500070E0ED81FE81808191810E94991C2C01A0
:102C60006EE070E0ED81FE81808191810E94991C6F
:102C70003C016FE070E0ED81FE81808191810E94D6
:102C8000991C681A790A6EE070E0ED81FE818081FE
:102C900091810E94991C9A8389836FE070E0ED8195
:102CA000FE81808191810E94991C9C838B83C01638
:102CB000D1060CF048C0A80CB91C0A151B050CF075
:102CC00042C063E370E0ED81FE81808191810E94CA
:102CD000991C0197C1F161E370E0ED81FE81808173
:102CE00091810E94991CED81FE81208131810197A3
:102CF00009F0E5C062E370E0C9010E94991CBC01C3
:102D0000ED81FE81808191810E94991C6C0162E3BA
:102D100070E0ED81FE81808191810E94991CA60165
:102D200041505109BC01ED81FE81808191810E9459
:102D3000C81C41E050E063E370E0ED81FE818081DA
:102D400091810E94C81CE016F1060CF048C0420CAC
:102D5000531C041515050CF042C063E370E0ED81CF
:102D6000FE81808191810E94991C0297C1F161E3EB
:102D700070E0ED81FE81808191810E94991CED813E
:102D8000FE8120813181019709F0B0C062E370E0DB
:102D9000C9010E94991CBC01ED81FE818081918155
:102DA0000E94991C7C0162E370E0ED81FE818081CC
:102DB00091810E94991CA7014F5F5F4FBC01ED817B
:102DC000FE81808191810E94C81C42E050E063E353
:102DD00070E0ED81FE81808191810E94C81C6016A7
:102DE0007106F4F589819A812B813C81820F931FB2
:102DF00008171907ACF563E370E0ED81FE8180816F
:102E000091810E94991C039759F161E370E0ED8173
:102E1000FE81808191810E94991C892B09F07DC0DF
:102E200062E370E0ED81FE81808191810E94991CB6
:102E3000813591050CF071C041E050E061E370E034
:102E4000ED81FE81808191810E94C81C43E050E0A9
:102E500063E370E0ED81FE81808191810E94C81C56
:102E6000093EF3E01F0754F040E050E063E370E0F8
:102E7000ED81FE81808191810E94C81CA8016EE2D3
:102E800070E0ED81FE818081918126960FB6F894E5
:102E9000DEBF0FBECDBFDF91CF911F910F91FF908D
:102EA000EF90DF90CF90BF90AF909F908F907F90EA
:102EB0006F905F904F903F902F900C94C81C60E3F0
:102EC00070E0C9010E94991C181619060CF031CF48
:102ED00060E370E0ED81FE81808191810E94991C08
:102EE000AC014150510960E370E01DCF60E370E038
:102EF000C9010E94991C803591050CF066CF60E3F2
:102F000070E0ED81FE81808191810E94991CAC016D
:102F10004F5F5F4F60E370E052CF40E050E08ECFF4
:102F2000CF92DF92EF92FF920F931F93CF93DF9395
:102F3000EC0188810E94DF202E813F81280F391FFC
:102F40003F832E83888599850196853091052CF4E1
:102F5000998788878DE99FEF4DC019861886C9012A
:102F600065E070E00E9448298B011F821E8269E1A2
:102F700070E07E0187E6E80EF11CF7018081918107
:102F80000E94991C6801C81AD90AA60161E470E080
:102F9000F701808191810E94C81CF4E0CF0ED11C02
:102FA00089E0C816D10410F40C811D812A8D3B8D57
:102FB000F901EE0FFF1FEC0FFD1F8C8D9D8D4285DB
:102FC0005385841B950B13870287800F911F9D8F5C
:102FD0008C8F2F5F3F4F283031051CF43B8F2A8F99
:102FE00002C01B8E1A8E97FD079623E09595879554
:102FF0002A95E1F7DF91CF911F910F91FF90EF900C
:10300000DF90CF900895CF93DF93EC018A810E94E7
:10301000F321019741F4FE01EA59FF4F8081882393
:1030200011F080E01DC08A810E94F321019759F4BC
:10303000FE01EA59FF4F8081811105C081E0808344
:103040008FEF9FEF1BC08A810E94F321892B51F4DF
:10305000FE01EA59FF4F8081882321F0108281E030
:1030600090E00CC08A810E94F321892B39F4CA595F
:10307000DF4F8881811102C082E0F2CFDF91CF91D2
:103080000895FC0124813581215031092336310511
:1030900050F4EA59FF4F8081811106C081E080839E
:1030A0008FEF9FEF0895089580E090E00895EF92EC
:1030B000FF920F931F93CF93DF937C01FC018081DC
:1030C0000E94DF208C01E701C959DF4F62E070E008
:1030D000888199810E94991C0817190764F560E09E
:1030E00070E0888199810E94991C9801281B390BF6
:1030F0008881998160E070E01216130684F40E94C2
:10310000991C9801281B390BC9014F97A4F0F701AE
:10311000EC59FF4F80819181029769F405C00E94AC
:10312000991C801B910BF1CFA80160E070E08881B1
:1031300099810E94C81C62E070E0888199810E9498
:10314000991C0817190754F4F701EC59FF4F8081B7
:103150009181029719F441E050E002C040E050E054
:1031600064E270E0888199810E94C81C62E070E08E
:10317000888199810E94991C0817190744F4F70166
:10318000EC59FF4F80819181019709F448C062E0BA
:1031900070E0888199810E94991C0817190764F1D1
:1031A00061E070E0888199810E94991C9801281B38
:1031B000390B8881998161E070E01216130684F45E
:1031C0000E94991CF801E81BF90BCF014F97A4F05E
:1031D000F701EC59FF4F80819181029769F405C096
:1031E0000E94991C801B910BF1CFA80161E070E057
:1031F000888199810E94C81C62E070E08881998171
:103200000E94991C081719079CF0F701EC59FF4F11
:1032100080819181029761F441E050E00BC041E070
:1032200050E062E470E0888199810E94C81CAFCFB1
:1032300040E050E065E270E088819981DF91CF91B4
:103240001F910F91FF90EF900C94C81CFC01EB585C
:10325000FF4F20813296222349F0DC01AA58BF4F4C
:103260008C91811103C081E08083089510820895BC
:10327000AF92BF92CF92DF92EF92FF920F931F9384
:10328000CF93DF938C01FC0144815581EC01C95936
:10329000DF4F69E170E0888199810E94C81CF801C4
:1032A000E759FF4F408151816AE170E0888199813F
:1032B0000E94C81CF801EF58FF4FC080D180E28007
:1032C000F38020E030E048EC52E4C701B6010E94F0
:1032D000C1280E94DF275B01C701B6010E94DA27DF
:1032E000AB016FE270E0888199810E94C81C58EEA2
:1032F000E52E53E0F52EC501B7010E943429AB013C
:103300006C016BE170E0888199810E94C81CA60164
:103310006CE170E0888199810E94C81CF801E35932
:10332000FF4F20E030E048EC52E4608171818281FF
:1033300093810E94C1280E94DF27CB01B7010E9420
:103340003429AB016C016DE170E0888199810E94A4
:10335000C81CA6016EE170E0888199810E94C81C9A
:103360006801FBE6CF0ED11CF60180819181B70187
:103370000E943429AB016FE170E0888199810E943D
:10338000C81CF60180819181B7010E943429AC01EB
:1033900060E270E0888199810E94C81CF801EB58B6
:1033A000FF4F408150E061E270E0888199810E9486
:1033B000C81CF801EA58FF4F408150E062E270E01B
:1033C000888199810E94C81CF801E958FF4F40810B
:1033D00050E063E270E088819981DF91CF911F9185
:1033E0000F91FF90EF90DF90CF90BF90AF900C9433
:1033F000C81C2F923F924F925F926F927F928F9252
:103400009F92AF92BF92CF92DF92EF92FF920F9373
:103410001F93CF93DF9300D000D0CDB7DEB74C0120
:103420009C0129593F4F3C832B8361E070E0D90117
:103430008D919C910E94991C7C0160E070E0EB8171
:10344000FC81808191810E94991C0027F7FC0095E6
:10345000102F9C01442737FD4095542FD40114961A
:103460006D917C911597882777FD8095982F1F92F5
:103470001F92E3E0EF93E8EEEF93A12CB12C6501EE
:103480000E9472250F900F900F900F90693EB3E04D
:103490007B0714F068EE73E03401E9E66E0E711CF0
:1034A00077FF02C060E070E0D30111967C936E93C9
:1034B000F401E958FF4FFA83E9838081811102C04A
:1034C0001D921C9265E070E0AB81BC818D919C9156
:1034D0000E94991C8C0163E070E0EB81FC8180818B
:1034E00091810E94991C9C01029FC001039F900D35
:1034F000129F900D112404E610E0B8010E944829A3
:103500007B0167E070E0AB81BC818D919C910E9452
:10351000991CE89E6001E99ED00CF89ED00C112405
:1035200066E070E0EB81FC81808191810E94991CB2
:103530007C0163E070E0AB81BC818D919C910E9425
:10354000991CFC01EE9EC001EF9E900DFE9E900D19
:103550001124B8010E9448298B0167E070E0AB811B
:10356000BC818D919C910E94991C5601C12CD12C3B
:10357000F301208131811901442437FC4094542CFB
:103580009C01029FC001039F900D129F900D11247A
:103590001F921F929F938F9318EEE12E13E0F12E4E
:1035A00000E010E020E030E0A901C201B1010E947A
:1035B0007225F401E559FF4F718360830F900F90DE
:1035C0000F900F90A981BA818C91811102C0118254
:1035D000108265E070E0EB81FC81808191810E9426
:1035E000991C8C0166E070E0AB81BC818D919C914F
:1035F0000E94991C4AE0409F5001419FB00C112449
:10360000CC24B7FCC094DC2CF3012081318119015A
:10361000442437FC4094542C9C01429FC001439F9A
:10362000900D1124AA2797FDA095BA2FBF93AF93B1
:103630009F938F9318EEE12E13E0F12E00E010E03F
:1036400020E030E0A901C201B1010E94722584018D
:1036500003591F4F0E940D2820E030E048EC52E44F
:103660000E947227D8016D937D938D939C9313973D
:103670000F900F900F900F90E981FA818081811156
:1036800005C01D921D921D921C92139764E070E07C
:10369000EB81FC81808191810E94991C6C0165E025
:1036A00070E0AB81BC818D919C910E94991C8C0132
:1036B00064E070E0EB81FC81808191810E94991C23
:1036C0007C0166E070E0AB81BC818D919C910E9491
:1036D000991C1C01C09EB001C19E700DD09E700D42
:1036E0001124882777FD8095982F0E940D2820E0CF
:1036F00030E040E251E40E94C1280E94DA275B01D9
:103700006C01F301808191812C01662457FC609447
:10371000762CE29CB001E39C700DF29C700D11249C
:10372000882777FD8095982F0E940D2820E030E0B3
:1037300040E251E40E94C1280E94DA279F938F93B0
:103740007F936F9318EEE12E13E0F12E00E010E06E
:1037500020E030E0A901C301B2010E947225F1E727
:103760008F0E911C0E940D2820E030E048EC52E4BE
:103770000E947227D4016D937D938D939C93139730
:103780000F900F900F900F90E981FA818081811145
:1037900005C01D921D921D921C9213970F900F90C1
:1037A0000F900F90DF91CF911F910F91FF90EF90AD
:1037B000DF90CF90BF90AF909F908F907F906F9051
:1037C0005F904F903F902F9008950F931F93CF934A
:1037D000DF93EC010C811D81FC01E959FF4F62E090
:1037E00070E0808191810E94991CFE01EA58FF4F90
:1037F000081719073CF4DE01AC59BF4F8D919C911D
:10380000029711F0108205C0CB58DF4F81E088830A
:103810008083DF91CF911F910F910895EF92FF92D6
:103820000F931F93CF93DF93EC018C0109591F4F26
:1038300066E270E0F801808191810E94991C9E01EE
:103840002C593F4F7901892B71F4CE010E94031846
:10385000F70191838083CE010E9490178D39FFEF8D
:103860009F0771F40FC0CE010E944118F7019183A8
:10387000808367E270E0F801808191810E94991C49
:103880009D838C83CE010E945718CE010E94F919A6
:10389000CE010E94E51BCE010E942619CE010E9496
:1038A0003819CE010E944315FE01E858FF4F808170
:1038B00091810E94EC1EAC016AE270E0F801808107
:1038C00091810E94C81CFE01E658FF4F80819181C2
:1038D0000E94641FAC016CE270E0F801808191816C
:1038E0000E94C81CC458DF4F888199810E94DD1F47
:1038F000AC0166E370E0F80180819181DF91CF91A6
:103900001F910F91FF90EF900C94C81C8B589F4F04
:10391000FC011082089585599F4FFC01808191819F
:1039200008958F589F4FFC0160817181828193813E
:103930000895660F771F680F791FFB0180819181C1
:1039400008950F931F93CF93DF938B01EA014F3FAD
:10395000510541F03CF0CA016FEF70E00E94482928
:10396000EC0101C060E0000F111FC80101960E9428
:10397000222C6C2FC80102960E94222C61E0C80103
:103980008B599F4FDF91CF911F910F910C94222C57
:10399000EF92FF920F931F93CF93DF938C01EA0175
:1039A000CB014A977B01EE0CFF1C8C9720F0AE01F7
:1039B000C8010E94A11CF801EE0DFF1DD183C08338
:1039C000DF91CF911F910F91FF90EF900895FF929B
:1039D0000F931F93CF93DF93EB01CC0FDD1FCE012D
:1039E00001960E941A2CF82ECE0102960E941A2CE3
:1039F000082F10E0CE018B599F4F0E941A2C813066
:103A000039F4C8012FEFF29E800D911D112402C0E0
:103A10008FEF9FEFDF91CF911F910F91FF9008954E
:103A2000EF92FF920F931F93CF93DF93EC018B01E3
:103A30007A010E94E71C000F111FC00FD11F97FDD4
:103A400003C09983888302C0F982E882DF91CF9115
:103A50001F910F91FF90EF900895CF93DF93D82F90
:103A6000C92FE82FF92F20E530E011921192215053
:103A70003109D9F740E050E060E070E08D2F9C2FD5
:103A80000E94101D40E050E061E070E08D2F9C2FFF
:103A90000E94101D44E051E062E070E08D2F9C2FE9
:103AA0000E94101D4CE350E063E070E08D2F9C2FCE
:103AB0000E94101D40E250E064E070E08D2F9C2FCA
:103AC0000E94101D4AE050E065E070E08D2F9C2FB1
:103AD0000E94101D4DE250E066E070E08D2F9C2F9B
:103AE0000E94101D4AEE56E067E070E08D2F9C2F7B
:103AF0000E94101D48E050E068E070E08D2F9C2F80
:103B00000E94101D40E45FE169E070E08D2F9C2F62
:103B10000E94101D40ED53E16AE070E08D2F9C2F54
:103B20000E94101D44E151E06BE070E08D2F9C2F4E
:103B30000E94101D4EEF51E06CE070E08D2F9C2F25
:103B40000E94101D40E451E06DE070E08D2F9C2F2D
:103B50000E94101D4AEA50E06EE070E08D2F9C2F0D
:103B60000E94101D42E350E06FE070E08D2F9C2F0B
:103B70000E94101D40E951E060E170E08D2F9C2F04
:103B80000E94101D40ED57E061E170E08D2F9C2FE9
:103B90000E94101D4CE251E062E170E08D2F9C2FDD
:103BA0000E94101D44EC59E063E170E08D2F9C2FC2
:103BB0000E94101D48E552E064E170E08D2F9C2FBB
:103BC0000E94101D4CEA5DE065E170E08D2F9C2F96
:103BD0000E94101D41E450E066E170E08D2F9C2FA3
:103BE0000E94101D40E550E067E170E08D2F9C2F92
:103BF0000E94101D41E050E068E170E08D2F9C2F85
:103C00000E94101D44E650E066E470E08D2F9C2F6A
:103C10000E94101D4FE750E067E470E08D2F9C2F4D
:103C20000E94101D44EA50E068E470E08D2F9C2F44
:103C30000E94101D45E050E069E470E08D2F9C2F3C
:103C40000E94101D4AE050E06AE470E08D2F9C2F26
:103C50000E94101D41EF5FEF6BE470E08D2F9C2FF1
:103C60000E94101D44E853E06CE470E08D2F9C2FFF
:103C70000E94101D41E050E06DE470E08D2F9C2FFC
:103C80000E94101D44E050E06EE470E08D2F9C2FE8
:103C90000E94101D43E050E06FE470E08D2F9C2FD8
:103CA000DF91CF910C94101DEF92FF920F931F9311
:103CB000CF93DF9300D000D0CDB7DEB77C0180EA90
:103CC00090E04B835C8369837A830E946F278C0129
:103CD0000E942D1DF701138302838EE790E00E945E
:103CE0006F278C01F701228133814B815C816981CF
:103CF0007A810E94BB14F701118300830F900F900B
:103D00000F900F90DF91CF911F910F91FF90EF9047
:103D10000895FC0115AE14AEFE9610821182128237
:103D20001382349611821082FC012EE130E0119250
:103D3000119221503109D9F70895CF92DF92EF9275
:103D4000FF920F931F93CF93DF93FC018B0144AD40
:103D500055ADEA01CC0FDD1FCE0FDF1FDF01DE9670
:103D6000C880D980EE24D7FCE094FE2C6D917D9123
:103D70008D919C9113976C197D098E099F09198368
:103D80000883222717FD2095322F600F711F821F95
:103D9000931F6D937D938D939C9313974F5F5F4F0C
:103DA0004E3151051CF455AF44AF02C015AE14AEF0
:103DB000EF01CE5BDF4F2EE130E040E050E00E94AB
:103DC0007E2939832883DF91CF911F910F91FF9036
:103DD000EF90DF90CF9008958E5B9F4FFC01808124
:103DE00091810895FC01EC59FF4F118210823296A7
:103DF0001082118212821382349611821082FC0189
:103E000022E330E01192119221503109D9F708953F
:103E10008F929F92AF92BF92CF92DF92EF92FF92DA
:103E20000F931F93CF93DF93AC018B01DC01AC594F
:103E3000BF4FCD90DC901197F601EE0FFF1FE40FFE
:103E4000F51F7A0186E6E80EF11C80809180AA2495
:103E500097FCA094BA2CE701688179818A819B81C3
:103E6000681979098A099B0911830083222717FDA4
:103E70002095322F600F711F821F931F68837983F3
:103E80008A839B83E6012196C233D1051CF4CD932E
:103E9000DC9302C01D921C92EA01C659DF4F22E357
:103EA00030E040E050E00E947E2939832883DF9192
:103EB000CF911F910F91FF90EF90DF90CF90BF9027
:103EC000AF909F908F90089586599F4FFC018081FD
:103ED00091810895FC01E458FE4F118210823296C0
:103EE0001082118212821382349611821082FC0198
:103EF0002EEB30E01192119221503109D9F708953B
:103F00008F929F92AF92BF92CF92DF92EF92FF92E9
:103F10000F931F93CF93DF93AC018B01DC01A45867
:103F2000BE4FCD90DC901197F601EE0FFF1FE80F0A
:103F3000F91F7C0182E8E81A8EEFF80A80809180F0
:103F4000AA2497FCA094BA2CE701688179818A8120
:103F50009B81681979098A099B09118300832227AB
:103F600017FD2095322F600F711F821F931F6883EA
:103F700079838A839B83E6012196CE3BD1051CF48D
:103F8000CD93DC9302C01D921C92EA01CE57DE4F06
:103F90002EEB30E040E050E00E947E2939832883F8
:103FA000DF91CF911F910F91FF90EF90DF90CF9015
:103FB000BF90AF909F908F9008958E579E4FFC01B9
:103FC0008081918108951F920F920FB60F92112454
:103FD0002F933F938F939F93AF93BF9380912E0422
:103FE00090912F04A0913004B091310430912D04B0
:103FF00023E0230F2D3720F40196A11DB11D05C02C
:1040000026E8230F0296A11DB11D20932D04809355
:104010002E0490932F04A0933004B0933104809128
:10402000320490913304A0913404B0913504019688
:10403000A11DB11D8093320490933304A0933404E6
:10404000B0933504BF91AF919F918F913F912F9184
:104050000F900FBE0F901F9018952FB7F894609196
:104060002E0470912F0480913004909131042FBF61
:1040700008953FB7F8948091320490913304A09151
:104080003404B091350426B5A89B05C02F3F19F024
:104090000196A11DB11D3FBF6627782F892F9A2F4A
:1040A000620F711D811D911D42E0660F771F881FF1
:1040B000991F4A95D1F708958F929F92AF92BF9220
:1040C000CF92DF92EF92FF926B017C010E94392028
:1040D0004B015C01C114D104E104F104F1F00E9430
:1040E00071270E943920681979098A099B09683E5D
:1040F00073408105910570F321E0C21AD108E108EF
:10410000F10888EE880E83E0981EA11CB11CC11432
:10411000D104E104F10429F7DDCFFF90EF90DF90A7
:10412000CF90BF90AF909F908F900895823091056F
:1041300038F0880F991F880F991F05970197F1F79D
:104140000895789484B5826084BD84B5816084BD0F
:1041500085B5826085BD85B5816085BDEEE6F0E000
:10416000808181608083E1E8F0E01082808182605C
:104170008083808181608083E0E8F0E080818160DD
:104180008083E1EBF0E0808184608083E0EBF0E00D
:10419000808181608083EAE7F0E0808184608083B1
:1041A000808182608083808181608083808180685B
:1041B00080831092C10008958093530108958E303A
:1041C00008F08E5087702091530190E4299F900150
:1041D0001124822B80937C0080917A0080648093EC
:1041E0007A0080917A0086FDFCCF80917800209142
:1041F000790090E0922B08951F93CF93DF93182FAF
:10420000EB0161E00E948421209711F460E004C07A
:10421000CF3FD10539F461E0812FDF91CF911F911C
:104220000C94BD21E12FF0E0E859FF4FE491E33019
:10423000F9F048F4E130B9F0E230A1F584B58062DC
:1042400084BDC8BD34C0E730E9F0E83019F1E4308E
:1042500049F580918000806280938000D0938B002C
:10426000C0938A0024C084B5806884BDC7BD1FC0C8
:1042700080918000806880938000D0938900C093F3
:10428000880015C08091B00080688093B000C09312
:10429000B3000DC08091B00080628093B000C093E5
:1042A000B40005C0C038D1050CF0B5CFAFCFDF9159
:1042B000CF911F910895833081F028F4813099F0D7
:1042C0008230A1F008958730A9F08830B9F08430A9
:1042D000D1F4809180008F7D03C0809180008F7722
:1042E00080938000089584B58F7702C084B58F7D58
:1042F00084BD08958091B0008F7703C08091B00095
:104300008F7D8093B0000895CF93DF9390E0FC0100
:10431000E458FF4F2491FC01E057FF4F849188231C
:1043200049F190E0880F991FFC01E854FF4FA591D7
:10433000B49182559F4FFC01C591D4919FB76111F3
:1043400008C0F8948C91209582238C9388818223D5
:104350000AC0623051F4F8948C91322F3095832347
:104360008C938881822B888304C0F8948C91822B53
:104370008C939FBFDF91CF9108950F931F93CF939D
:10438000DF931F92CDB7DEB7282F30E0F901E8594F
:10439000FF4F8491F901E458FF4F1491F901E05760
:1043A000FF4F04910023C9F0882321F069830E9404
:1043B0005B216981E02FF0E0EE0FFF1FE255FF4F18
:1043C000A591B4919FB7F8948C91611103C0109599
:1043D000812301C0812B8C939FBF0F90DF91CF91E0
:1043E0001F910F910895CF93DF93282F30E0F901AB
:1043F000E859FF4F8491F901E458FF4FD491F90136
:10440000E057FF4FC491CC2391F081110E945B21B2
:10441000EC2FF0E0EE0FFF1FEC55FF4FA591B4918C
:104420002C912D2381E090E021F480E002C080E017
:1044300090E0DF91CF910895FC01818D228D90E075
:10444000805C9F4F821B91098F7399270895FC010F
:10445000918D828D981731F0828DE80FF11D858D39
:1044600090E008958FEF9FEF0895FC01918D828D6C
:10447000981761F0828DDF01A80FB11D5D968C91B8
:10448000928D9F5F9F73928F90E008958FEF9FEFC3
:10449000089589EB93E2892B49F080E090E0892B25
:1044A00029F00E94B92381110C9400000895FC01A9
:1044B000848DDF01A80FB11DA35ABF4F2C91848DAD
:1044C00090E001968F739927848FA689B7892C93E2
:1044D000A089B1898C9180648C93938D848D98137D
:1044E00006C00288F389E02D80818F7D8083089546
:1044F000CF93DF93EC01888D8823C9F0EA89FB898B
:10450000808185FD05C0A889B9898C9186FD0FC081
:104510000FB607FCF5CF808185FFF2CFA889B98956
:104520008C9185FFEDCFCE010E945722E7CFDF911E
:10453000CF910895CF92DF92FF920F931F93CF9365
:10454000DF931F92CDB7DEB76C0181E0D60158969C
:104550008C9358975B969C915B975C968C915C973B
:10456000981307C05096ED91FC915197808185FD7D
:104570002EC0F601038D10E00F5F1F4F0F73112740
:10458000F02EF601848DF81211C00FB607FCF9CF9A
:10459000D6015096ED91FC915197808185FFF1CF26
:1045A000C60169830E9457226981EBCF838DE80F92
:1045B000F11DE35AFF4F6083D6015B960C935B9726
:1045C0005296ED91FC915397808180620CC0D60188
:1045D0005696ED91FC91579760835096ED91FC9122
:1045E000519780818064808381E090E00F90DF911B
:1045F000CF911F910F91FF90DF90CF900895BF92C0
:10460000CF92DF92EF92FF92CF93DF93EC016A019A
:104610007B01B22EE889F98982E08083411581EE21
:10462000580761057105A1F060E079E08DE390E045
:10463000A70196010E945C292150310941095109C5
:104640005695479537952795211580E1380798F0BD
:10465000E889F989108260E874E88EE190E0A701AA
:1046600096010E945C292150310941095109569552
:10467000479537952795EC85FD853083EE85FF8539
:104680002083188EEC89FD89B082EA89FB898081BC
:1046900080618083EA89FB89808188608083EA89E0
:1046A000FB89808180688083EA89FB8980818F7D96
:1046B0008083DF91CF91FF90EF90DF90CF90BF90FC
:1046C00008951F920F920FB60F9211242F938F937C
:1046D0009F93EF93FF93E0914604F091470480810C
:1046E000E0914C04F0914D0482FD12C090818091C4
:1046F0004F048F5F8F7320915004821751F0E09127
:104700004F04F0E0EA5CFB4F958F80934F0401C0AB
:104710008081FF91EF919F918F912F910F900FBE0C
:104720000F901F9018951F920F920FB60F921124A1
:104730002F933F934F935F936F937F938F939F93A9
:10474000AF93BF93EF93FF9386E394E00E945722C9
:10475000FF91EF91BF91AF919F918F917F916F9159
:104760005F914F913F912F910F900FBE0F901F902F
:10477000189586E394E00E941C2221E0892B09F41D
:1047800020E0822F0895109239041092380488EEA8
:1047900093E0A0E0B0E080933A0490933B04A093B0
:1047A0003C04B0933D0486EE92E0909337048093EE
:1047B000360485EC90E0909343048093420484ECAB
:1047C00090E0909345048093440480EC90E09093B3
:1047D00047048093460481EC90E0909349048093D1
:1047E000480482EC90E090934B0480934A0486EC5A
:1047F00090E090934D0480934C0410924F041092DB
:10480000500410925104109252040895CF92DF92F6
:10481000EF92FF920F931F93CF93DF937C016A0176
:10482000EB0100E010E00C151D0571F06991D70156
:10483000ED91FC910190F081E02DC7010995892B44
:1048400019F00F5F1F4FEFCFC801DF91CF911F917C
:104850000F91FF90EF90DF90CF9008956115710553
:1048600081F0DB010D900020E9F7AD0141505109C5
:10487000461B570BDC01ED91FC910280F381E02D8A
:10488000099480E090E008950C942E24DC01ED91D1
:10489000FC910190F081E02D099462EF72E00C949C
:1048A0002E240F931F93CF93DF93EC010E942E24AD
:1048B0008C01CE010E944D24800F911FDF91CF917A
:1048C0001F910F9108958F929F92AF92BF92DF92A6
:1048D000EF92FF920F931F93CF93DF93CDB7DEB785
:1048E000A1970FB6F894DEBF0FBECDBF7C01F42FA9
:1048F000D52ECB0119A2223008F42AE08E010F5DDB
:104900001F4F822E912CA12CB12C6F2F7D2DA50134
:1049100094010E945C29F22FD32ECA010150110983
:104920006A3014F4E0E301C0E7E3E60FD801EC934A
:10493000232B242B252B49F7B801C7010E942E24D5
:10494000A1960FB6F894DEBF0FBECDBFDF91CF9119
:104950001F910F91FF90EF90DF90BF90AF909F90CD
:104960008F900895CF92DF92EF92FF920F931F9353
:10497000CF93DF93EC016A017B012115310579F4B6
:10498000E881F9810190F081E02D642FDF91CF91D2
:104990001F910F91FF90EF90DF90CF9009942A30F4
:1049A0003105E9F477FF1AC06DE20E9446248C01BC
:1049B00044275527BA014C195D096E097F092AE081
:1049C000CE010E946324800F911FDF91CF911F9130
:1049D0000F91FF90EF90DF90CF9008952AE0B701FC
:1049E000A601CE01DF91CF911F910F91FF90EF9023
:1049F000DF90CF900C9463249A01AB01662757FD9A
:104A00006095762F0C94B2240F931F93CF93DF936E
:104A1000EC019A01AB01662757FD6095762F0E9445
:104A2000B2248C01CE010E944D24800F911FDF9192
:104A3000CF911F910F9108950F931F93CF93DF9301
:104A4000EC010E942D20688779878A879B87E881FF
:104A5000F9810680F781E02DCE01099597FF15C0F9
:104A60000E942D20088519852A853B85601B710BC6
:104A7000820B930B0C811D812E813F816017710782
:104A80008207930720F38FEF9FEFDF91CF911F9164
:104A90000F910895EF92FF920F931F93CF93DF939F
:104AA000EC018B01E42E64EF72E00E942726C8011E
:104AB0000E941C25FF24E7FCF09497FD0BC08E1587
:104AC0009F0541F0682FCE010E94C326C8010E94B5
:104AD0001C25F3CFCE01DF91CF911F910F91FF9055
:104AE000EF9008954F925F926F927F92AF92BF9234
:104AF000CF92DF92EF92FF920F931F93CF93DF93AA
:104B0000CDB7DEB729013A01621B730B840B950BFD
:104B100029893A894B895C892A193B094C095D0925
:104B2000298B3A8B4B8B5C8B9B01AC0169897A8911
:104B30008B899C890E942429E418F5080609170925
:104B4000A80197010E947E292A0D3B1D4C1D5D1D69
:104B5000CA01B901DF91CF911F910F91FF90EF90A2
:104B6000DF90CF90BF90AF907F906F905F904F900D
:104B70000895FC01808191810C94642ACF93DF9386
:104B8000EC0188819981009711F00E94642A1982B2
:104B900018821D821C821B821A82DF91CF91089598
:104BA0000F931F93CF93DF93EC018B016F5F7F4FC8
:104BB000888199810E94F32A009731F09983888334
:104BC0001B830A8381E001C080E0DF91CF911F91B8
:104BD0000F910895CF93DF93EC0188819981892B00
:104BE00029F08A819B818617970760F4CE010E9485
:104BF000D025882341F08C819D81892B19F4E8818F
:104C0000F981108281E0DF91CF910895EF92FF92B8
:104C10000F931F93CF93DF93EC017B018A01BA01BD
:104C20000E94EA25811104C0CE010E94BE2507C062
:104C30001D830C83B701888199810E94FE2BCE01D0
:104C4000DF91CF911F910F91FF90EF900895FC019C
:104C500011821082138212821582148261157105ED
:104C600059F0FB0101900020E9F7AF0141505109D3
:104C7000461B570B0C94062608950F931F93CF9352
:104C8000DF938C01EB01FC0180819181009799F009
:104C9000428153812C813D814217530750F0688136
:104CA00079810E94FE2B8C819D81F80195838483FC
:104CB00013C00E94642A88819981F80191838083BE
:104CC0008A819B81938382838C819D819583848358
:104CD000198218821B821A821D821C82DF91CF9159
:104CE0001F910F910895CF93DF93EC0186179707DB
:104CF00011F00E943D26CE01DF91CF910895CF9310
:104D0000DF93EC016115710561F0FB01019000205A
:104D1000E9F7AF0141505109461B570B0E94062687
:104D200002C00E94BE25CE01DF91CF910895EF927F
:104D3000FF920F931F93CF93DF93EC017B010C81C4
:104D40001D816115710511F480E016C041155105F2
:104D500091F0040F151FB8010E94EA258823A1F3E2
:104D6000288139818C819D81B701820F931F0E9418
:104D7000FE2B1D830C8381E0DF91CF911F910F915A
:104D8000FF90EF900895CF93DF9300D0CDB7DEB7BB
:104D900069831A8241E050E0BE016F5F7F4F0E943D
:104DA00097260F900F90DF91CF910895FC012481F9
:104DB0003581232B31F421E061157105A1F0FB0150
:104DC00008C0FC01808191816115710531F421E0F9
:104DD000FC018081882339F005C00E94F52B21E079
:104DE000892B09F020E0822F0895AF92BF92CF92D5
:104DF000DF92EF92FF920F931F93CF93DF937C018B
:104E0000DC01CD90DC901197C114D10409F441C0AC
:104E10001496CD91DC9115972097D9F15601850113
:104E2000BFEFAB1ABB0AF8018081992787FD9095E7
:104E30000E94E42B892B99F72197CC0DDD1D8881E9
:104E4000992787FD90950E94E42B892B91F4AE0160
:104E50004F5F5F4F401B510BD70115965C934E93EC
:104E60001497C016D10650F4B801C6010E94EC2B6D
:104E700005C0C017D10758F32197E1CFD701ED91B5
:104E8000FC91119714968D919C911597E80FF91F3D
:104E90001082DF91CF911F910F91FF90EF90DF90E3
:104EA000CF90BF90AF900895FC01808191810097D1
:104EB00011F00C94BD2B60E070E0CB0108950895D3
:104EC0000E94A1200E945F270E943203C9E4D2E21F
:104ED0000E94C80E2097E1F30E944922F9CF0C945A
:104EE000CC2908950CD00FC107D140F0FED030F08E
:104EF00021F45F3F19F0F0C0511139C1F3C014D152
:104F000098F39923C9F35523B1F3951B550BBB2790
:104F1000AA2762177307840738F09F5F5F4F220F3D
:104F2000331F441FAA1FA9F333D00E2E3AF0E0E836
:104F300030D091505040E695001CCAF729D0FE2F82
:104F400027D0660F771F881FBB1F26173707480714
:104F5000AB07B0E809F0BB0B802DBF01FF279358CA
:104F60005F4F2AF09E3F510568F0B6C000C15F3F19
:104F7000ECF3983EDCF3869577956795B795F795B2
:104F80009F5FC9F7880F911D9695879597F90895AA
:104F9000E1E0660F771F881FBB1F62177307840746
:104FA000BA0720F0621B730B840BBA0BEE1F88F755
:104FB000E095089504D06894B111D9C00895BCD08B
:104FC00088F09F5790F0B92F9927B751A0F0D1F0F2
:104FD000660F771F881F991F1AF0BA95C9F712C07C
:104FE000B13081F0C3D0B1E00895C0C0672F782FF1
:104FF0008827B85F39F0B93FCCF3869577956795E8
:10500000B395D9F73EF490958095709561957F4F53
:105010008F4F9F4F0895E89409C097FB3EF49095F9
:105020008095709561957F4F8F4F9F4F9923A9F081
:10503000F92F96E9BB279395F69587957795679510
:10504000B795F111F8CFFAF4BB0F11F460FF1BC054
:105050006F5F7F4F8F4F9F4F16C0882311F096E9E7
:1050600011C0772321F09EE8872F762F05C0662395
:1050700071F096E8862F70E060E02AF09A95660F4E
:10508000771F881FDAF7880F9695879597F9089507
:10509000990F0008550FAA0BE0E8FEEF1616170649
:1050A000E807F907C0F012161306E407F50798F0B1
:1050B000621B730B840B950B39F40A2661F0232BCA
:1050C000242B252B21F408950A2609F4A140A69546
:1050D0008FEF811D811D089597F99F6780E870E02B
:1050E00060E008959FEF80EC089500240A9416165E
:1050F000170618060906089500240A9412161306C6
:10510000140605060895092E0394000C11F4882353
:1051100052F0BB0F40F4BF2B11F460FF04C06F5F6F
:105120007F4F8F4F9F4F089557FD9058440F551F45
:1051300059F05F3F71F04795880F97FB991F61F019
:105140009F3F79F087950895121613061406551F90
:10515000F2CF4695F1DF08C0161617061806991FFC
:10516000F1CF86957105610508940895E894BB27F1
:1051700066277727CB0197F908958ADF08F48FEF28
:1051800008950BD0C0CFB1DF28F0B6DF18F095231B
:1051900009F0A2CFA7CF1124EACFC6DFA0F3959FD5
:1051A000D1F3950F50E0551F629FF001729FBB270E
:1051B000F00DB11D639FAA27F00DB11DAA1F649FBA
:1051C0006627B00DA11D661F829F2227B00DA11D6D
:1051D000621F739FB00DA11D621F839FA00D611DF3
:1051E000221F749F3327A00D611D231F849F600D14
:1051F000211D822F762F6A2F11249F5750408AF04D
:10520000E1F088234AF0EE0FFF1FBB1F661F771FD8
:10521000881F91505040A9F79E3F510570F05CCF18
:10522000A6CF5F3FECF3983EDCF3869577956795C4
:10523000B795F795E7959F5FC1F7FE2B880F911DF6
:105240009695879597F90895DB018F939F930E9418
:10525000A429BF91AF91A29F800D911DA39F900D96
:10526000B29F900D11240895AA1BBB1B51E107C0EA
:10527000AA1FBB1FA617B70710F0A61BB70B881FE6
:10528000991F5A95A9F780959095BC01CD01089575
:1052900097FB072E16F4009407D077FD09D00E94E3
:1052A000342907FC05D03EF4909581959F4F0895D1
:1052B000709561957F4F0895A1E21A2EAA1BBB1B22
:1052C000FD010DC0AA1FBB1FEE1FFF1FA217B307D2
:1052D000E407F50720F0A21BB30BE40BF50B661FE8
:1052E000771F881F991F1A9469F7609570958095AC
:1052F00090959B01AC01BD01CF010895052E97FB50
:105300001EF400940E94952957FD07D00E945C2945
:1053100007FC03D04EF40C94952950954095309598
:1053200021953F4F4F4F5F4F089590958095709511
:1053300061957F4F8F4F9F4F08950E94BD29B7FF02
:105340000895821B930B08950E94BD29A59F900D7F
:10535000B49F900DA49F800D911D11240895B7FF57
:105360000C94A4290E94A429821B930B0895EE0F8C
:10537000FF1F0590F491E02D0994A29FB001B39F07
:10538000C001A39F700D811D1124911DB29F700D4E
:10539000811D1124911D0895CF93DF9382309105D3
:1053A00010F482E090E0E091D504F091D60420E082
:1053B00030E0A0E0B0E0309739F1408151814817EA
:1053C0005907B8F04817590771F4828193811097F3
:1053D00029F013969C938E9312972CC09093D60429
:1053E0008093D50427C02115310531F042175307AA
:1053F00018F0A901DB0101C0EF019A01BD01DF0135
:105400000280F381E02DD7CF21153105F9F0281B5B
:10541000390B2430310580F48A819B816115710537
:1054200021F0FB019383828304C09093D604809380
:10543000D504FE01329644C0FE01E20FF31F8193B2
:10544000919322503109398328833AC02091D304A3
:105450003091D404232B41F42091020130910301B7
:105460003093D4042093D3042091000130910101A2
:105470002115310541F42DB73EB7409104015091FB
:105480000501241B350BE091D304F091D404E217FD
:10549000F307A0F42E1B3F0B2817390778F0AC0157
:1054A0004E5F5F4F2417350748F04E0F5F1F509334
:1054B000D4044093D3048193919302C0E0E0F0E0E0
:1054C000CF01DF91CF910895CF93DF93009709F437
:1054D00087C0FC01329713821282C091D504D0910B
:1054E000D604209781F420813181280F391F8091C3
:1054F000D3049091D4048217930779F5F093D404E0
:10550000E093D3046DC0DE0120E030E0AE17BF07AA
:1055100050F412964D915C9113979D0141155105E0
:1055200009F1DA01F3CFB383A28340815181840F63
:10553000951F8A179B0771F48D919C911197840F89
:10554000951F02969183808312968D919C9113975B
:10555000938382832115310529F4F093D604E093D7
:10556000D5043EC0D9011396FC93EE9312974D914A
:105570005D91A40FB51FEA17FB0779F48081918133
:10558000840F951F0296D90111969C938E93828168
:10559000938113969C938E931297E0E0F0E08A81BA
:1055A0009B81009719F0FE01EC01F9CFCE01029624
:1055B00028813981820F931F2091D3043091D40424
:1055C0002817390769F4309729F41092D6041092FD
:1055D000D50402C013821282D093D404C093D304A2
:1055E000DF91CF910895A0E0B0E0E9EFFAE20C94EA
:1055F000372CEC01CB01209719F40E94CC29B8C0BC
:10560000FE01E60FF71F9E0122503109E217F30752
:1056100008F4ACC0D9010D911C911197061717071A
:10562000B8F00530110508F49FC0A8014450510995
:105630004617570708F498C002501109061B170BAC
:10564000019311936D937C93CF010E94642A8CC0C7
:105650005B01A01AB10A4E01800E911EA091D504E3
:10566000B091D604612C712C60E070E0109709F4C1
:1056700049C0A815B905C9F5ED90FC9011976701CF
:1056800042E0C40ED11CCA14DB0478F147018A1829
:105690009B08640142E0C40ED11C1296BC90129784
:1056A0001396AC91B5E0CB16D10440F0B282A3833F
:1056B00091828082D9018D939C9309C00E5F1F4F08
:1056C0000E0D1F1DF90111830083EB2DFA2F6115BB
:1056D000710531F0DB011396FC93EE93129744C0F1
:1056E000F093D604E093D5043FC06D917C9111975F
:1056F0006616770608F43B01BD0112960D90BC9129
:10570000A02DB4CF6091D3047091D40468157905AD
:10571000E9F468167906D0F4409100015091010136
:105720004115510541F44DB75EB760910401709188
:105730000501461B570BE417F507C0F4F093D4049A
:10574000E093D304F901918380830EC00E94CC2999
:105750007C01009759F0A801BE010E94EC2BCE01FC
:105760000E94642AC70104C0CE0102C080E090E01C
:10577000CDB7DEB7EEE00C94532C1F93FC019927B4
:105780008827BC01E89411911032E9F3193010F028
:105790001E30C8F31B3251F01D3249F4689406C024
:1057A0000E94052C610F711D811D911D11911053D7
:1057B0001A30B0F33EF490958095709561957F4FC7
:1057C0008F4F9F4F1F91089591114AC0803219F059
:1057D00089508550D0F70895FB01DC0102C001908B
:1057E0000D9241505040D8F70895FB01DC018D9196
:1057F000019080190110D9F3990B0895FB01DC0188
:1058000001900D920020E1F70895592F482F372F6E
:10581000262F660F771F881F991F660F771F881F17
:10582000991F620F731F841F951F660F771F881FB4
:10583000991F0895F999FECF92BD81BDF89A9927D5
:1058400080B50895262FF999FECF1FBA92BD81BD6C
:1058500020BD0FB6F894FA9AF99A0FBE01960895F2
:105860009927882708952F923F924F925F926F92C7
:105870007F928F929F92AF92BF92CF92DF92EF92E0
:10588000FF920F931F93CF93DF93CDB7DEB7CA1B61
:10589000DB0B0FB6F894DEBF0FBECDBF09942A888C
:1058A000398848885F846E847D848C849B84AA8434
:1058B000B984C884DF80EE80FD800C811B81AA81C1
:1058C000B981CE0FD11D0FB6F894DEBF0FBECDBF8C
:1058D000ED01089510E0C8ECD0E004C0FE010E9484
:0E58E000B9292296CA3CD107C9F7F894FFCF28
:1058EE000000D704800001000000010A0A1F1F1FDC
:1058FE000E04040E1B11111111111F0E1B1111118B
:10590E00111F1F0E1B1111111F1F1F0E1B11111F17
:10591E001F1F1F0E1B111F1F1F1F1F0E1F1F1F1FBD
:10592E001F1F1F0176332E302E31004D75736963A4
:10593E006F6E000100004000140054003078252ED8
:10594E003258252E3458252E345800726561640065
:10595E006E616D65007665720041544D5F504F5417
:10596E005F444E0041544D5F504F545F55500041BF
:10597E00544D5F504F545F43540041544D5F4D4F53
:10598E00545F52540041544D5F4255545F524F572D
:10599E000041544D5F4D494E5F52504D0041544DA4
:1059AE005F4D41585F52504D0041544D5F4D4F5425
:1059BE005F3152504D0041544D5F4E554D5F4D413C
:1059CE00470041544D5F53454E535F54494D45007A
:1059DE0041544D5F41494E5F435552523000415440
:1059EE004D5F41494E5F43555252310020202020D9
:1059FE002020202020202020202020200042415442
:105A0E0054455259204348415247494E470020427F
:105A1E00204120542054204520522059202000207F
:105A2E00492053202020462055204C204C20200079
:105A3E00204D2055205320492043204F204E20201A
:105A4E000054656D706F3A200020202020205354A2
:105A5E004F5020202020002020202047204F204F74
:105A6E0020442020202020002020202020422059C9
:105A7E0020452020202020200020202020204C20E7
:105A8E004F205720202020202000504152414D20F1
:105A9E00002D20454449543A202020002D20524507
:105AAE0041443A20202000505F00000000002611E3
:105ABE00F910CE10D610E910F810000000005C149A
:105ACE000624000000009A2206241C2235222722DA
