:100000000C9462000C948A000C948A000C948A0070
:100010000C948A000C948A000C948A000C948A0038
:100020000C948A000C948A000C948A000C948A0028
:100030000C948A000C948A000C948A000C948A0018
:100040000C94E9080C948A000C94B7080C9491085D
:100050000C948A000C948A000C948A000C948A00F8
:100060000C9433090C948A0000000000250028003D
:100070002B000000000023002600290000000000E3
:10008000240027002A0001020408102040800102F9
:1000900004081020010204081020040404040404CD
:1000A000040402020202020203030303030300002A
:1000B0000008000201000003040700000000000027
:1000C0000000880A11241FBECFEFD8E0DEBFCDBFED
:1000D00012E0A0E0B1E0E0E0FEE402C005900D9285
:1000E000A435B107D9F724E0A4E5B2E001C01D9220
:1000F000AB35B207E1F710E0C2E6D0E004C02197CB
:10010000FE010E940625C136D107C9F70E94800D65
:100110000C94FE260C9400008091E6029091E70278
:10012000891B990B089508950895AF92BF92CF92BD
:10013000DF92EF92FF920F931F93CF93DF936C01A7
:100140007B018B01040F151FEB015E01AE18BF0888
:10015000C017D10759F06991D601ED91FC9101903A
:10016000F081E02DC6010995892B79F7C501DF9152
:10017000CF911F910F91FF90EF90DF90CF90BF90A4
:10018000AF900895FC01538D448D252F30E0842FCE
:1001900090E0821B930B541710F0CF9608950197AF
:1001A0000895FC01918D828D981761F0A28DAE0F9C
:1001B000BF2FB11D5D968C91928D9F5F9F73928F23
:1001C00090E008958FEF9FEF0895FC01918D828D4F
:1001D000981731F0828DE80FF11D858D90E008951C
:1001E0008FEF9FEF0895FC01918D228D892F90E074
:1001F000805C9F4F821B91098F739927089582E637
:1002000093E00E94F30021E0892B09F420E0822F83
:10021000089580E090E0892B29F00E94FF00811171
:100220000C9400000895FC01A48DA80FB92FB11DF6
:10023000A35ABF4F2C91848D90E001968F7399271C
:10024000848FA689B7892C93A089B1898C918370FA
:1002500080648C93938D848D981306C00288F389F3
:10026000E02D80818F7D80830895EF92FF920F9320
:100270001F93CF93DF93EC0181E0888F9B8D8C8D52
:1002800098131AC0E889F989808185FF15C09FB746
:10029000F894EE89FF896083E889F9898081837009
:1002A000806480839FBF81E090E0DF91CF911F91B8
:1002B0000F91FF90EF900895F62E0B8D10E00F5FD9
:1002C0001F4F0F731127E02E8C8D8E110CC00FB6AF
:1002D00007FCFACFE889F989808185FFF5CFCE0147
:1002E0000E941301F1CFEB8DEC0FFD2FF11DE35AAE
:1002F000FF4FF0829FB7F8940B8FEA89FB898081CA
:100300008062CFCFCF93DF93EC01888D8823B9F043
:10031000AA89BB89E889F9898C9185FD03C0808110
:1003200086FD0DC00FB607FCF7CF8C9185FFF2CF8D
:10033000808185FFEDCFCE010E941301E9CFDF91CF
:10034000CF910895833081F028F4813099F0823084
:10035000A9F008958730A9F08830C9F08430B1F44D
:10036000809180008F7D03C0809180008F77809383
:100370008000089584B58F7784BD089584B58F7DFE
:10038000FBCF8091B0008F778093B000089580916B
:10039000B0008F7DF9CFCF93DF93282F30E0F901A4
:1003A000E255FF4F8491F901EA57FF4FD491F901CB
:1003B000E656FF4FC491CC23A1F081110E94A20107
:1003C000EC2FF0E0EE0FFF1FEE58FF4FA591B49118
:1003D000EC91ED2381E090E009F480E0DF91CF9192
:1003E000089580E090E0FACF1F93CF93DF93282FFA
:1003F00030E0F901E255FF4F8491F901EA57FF4FD0
:10040000D491F901E656FF4FC491CC23A9F0162FE1
:1004100081110E94A201EC2FF0E0EE0FFF1FE859BE
:10042000FF4FA591B4918FB7F894EC91111108C0CA
:10043000D095DE23DC938FBFDF91CF911F9108957C
:10044000DE2BF8CFCF93DF9390E0FC01EA57FF4F0C
:10045000249186569F4FFC0184918823C9F090E037
:10046000880F991FFC01E458FF4FA591B491FC013E
:10047000E859FF4FC591D49161110DC09FB7F89411
:100480008C91209582238C938881282328839FBF79
:10049000DF91CF910895623051F49FB7F8943C9169
:1004A000822F809583238C93E8812E2BEFCF8FB7FB
:1004B000F894EC912E2B2C938FBFEACF8E3008F05E
:1004C0008E502091000190E4299F900111248770A3
:1004D000822B80937C0080917A00806480937A00E4
:1004E00080917A0086FDFCCF809178009091790010
:1004F00008953FB7F89480919D0290919E02A0913B
:100500009F02B091A00226B5A89B05C02F3F19F00D
:100510000196A11DB11D3FBFBA2FA92F982F882783
:10052000BC01CD01620F711D811D911D42E0660F5E
:10053000771F881F991F4A95D1F708958F929F9230
:10054000AF92BF92CF92DF92EF92FF924B015C018C
:100550000E9479026B017C010E9479026C197D096D
:100560008E099F09683E734081059105A8F321E03B
:10057000821A9108A108B10888EEC80E83E0D81E3F
:10058000E11CF11C81149104A104B10429F7FF902E
:10059000EF90DF90CF90BF90AF909F908F90089595
:1005A0002FB7F8946091990270919A0280919B0202
:1005B00090919C022FBF08950F931F930E94D00229
:1005C00060936A0370936B0380936C0390936D0345
:1005D00082E693E00E94D10097FF1DC00E94D002E6
:1005E00000916A0310916B0320916C0330916D03AD
:1005F000601B710B820B930B0091660310916703D4
:10060000209168033091690360177107820793078F
:10061000F8F28FEF9FEF1F910F91089508952091A9
:100620007502260F3327331F21323105ECF4209158
:100630002E03FC0190E080E0243069F082E0089510
:10064000A09175022191AC014B5A5D4FA40FB52FBB
:10065000B11D2C930196861798F380917502680F4F
:100660006093750280E0089581E0089510922E0352
:1006700081E080932D031092080361E082E10E94E3
:10068000F40161E083E10E94F401E9EBF0E0808194
:100690008E7F808380818D7F808388E48093B80003
:1006A00085E48093BC000895CF93DF9391E090930D
:1006B00054028823B9F0C091B800D091BA0080915B
:1006C000BC008A7B8093BC0060E082E10E94F40160
:1006D00060E083E10E94F4010E943603D093BA00E7
:1006E000C093B800DF91CF910895CF92DF92EF923F
:1006F000FF920F931F93CF93DF93D091570381E025
:10070000D13208F09CC0C09156030E9479026B015F
:100710007C0180912E0381116CC082E080932E03B6
:1007200081E080932D038FEF80932C0310922B0395
:10073000D0932A03A6E3B3E0EAE0F3E080E0D81325
:100740008DC01092090380910903CC0FC82BC09370
:10075000090380910803813009F084C010920803D6
:100760000E9479026B017C01809109038093BB0098
:100770008091300390913103A0913203B091330303
:10078000892B8A2B8B2BA1F00E94790200913003D8
:100790001091310320913203309133036C197D099C
:1007A0008E099F09061717072807390708F442C062
:1007B0008091BC0083FDD8CF85EC8093BC000E9463
:1007C00079026B017C0180912E03823009F44CC0C8
:1007D00080912C038F3F09F469C080912C038032F3
:1007E00009F466C080912C03803309F463C084E06F
:1007F00026C08091300390913103A0913203B091D3
:100800003303892B8A2B8B2B09F483CF0E94790227
:100810000091300310913103209132033091330362
:100820006C197D098E099F090617170728073907D4
:1008300008F06FCF80912F030E94540385E010923F
:1008400035031092570310923403DF91CF911F911B
:100850000F91FF90EF90DF90CF9008959D9191932D
:100860008F5F6DCF85EEA9CF8091300390913103DA
:10087000A0913203B0913303892B8A2B8B2B09F47F
:10088000A2CF0E9479020091300310913103209190
:100890003203309133036C197D098E099F090617C5
:1008A00017072807390708F08ECFC4CF80E0C7CFDD
:1008B00082E0C5CF83E0C3CF0895E091E702809145
:1008C000E602E81730F4F0E0E851FD4F808190E057
:1008D00008958FEF9FEF08959091E7028091E602CF
:1008E0002FEF3FEF981748F4E92FF0E0E851FD4F64
:1008F000208130E09F5F9093E702C9010895CF9275
:10090000DF92EF92FF920F931F93CF93DF937C01BF
:10091000CB018A0120913403222389F0EB016B0182
:10092000C40ED51ECC15DD0569F06991D701ED9196
:10093000FC910190F081E02DC7010995F3CF642F60
:100940000E940F03C801DF91CF911F910F91FF907B
:10095000EF90DF90CF900895CF93DF931F92CDB7A4
:10096000DEB76983209134032223F9F020915703E5
:10097000203258F021E030E0FC013383228390E004
:1009800080E00F90DF91CF91089580913503E82F9B
:10099000F0E0EA5CFC4F998190838F5F8093350390
:1009A0008093570381E090E0ECCF61E0CE010196A7
:1009B0000E940F03F7CF682F8FEF93E00C94AC04E5
:1009C000FC01248131E030933403209356031092CC
:1009D0003503109257038385862B90E00E94DB0439
:1009E0000C94750388E08093560460E08BE494E0F7
:1009F0000C94E00490E080E008958EBD00000DB4FA
:100A000007FEFDCF8EB50895FB0101900020E9F7A8
:100A10003197AF01461B570BDC01ED91FC91028031
:100A2000F381E02D09948F929F92AF92BF92EF9243
:100A3000FF920F931F93CF93DF93CDB7DEB7A197AC
:100A40000FB6F894DEBF0FBECDBF7C01FA01CB011B
:100A500019A2223008F42AE08E010F5D1F4F822E6A
:100A6000912CB12CA12CBF01A50194010E94E92376
:100A7000F901CA016A300CF5605DD8016E938D01F1
:100A8000232B242B252B79F790E080E0109721F081
:100A9000BD01C7010E940405A1960FB6F894DEBF00
:100AA0000FBECDBFDF91CF911F910F91FF90EF90BF
:100AB000BF90AF909F908F900895695CDECFCF92EA
:100AC000DF92EF92FF920F931F93CF93DF93EC018E
:100AD0006A017B01E881F9810190F081E02D6DE2EE
:100AE00009958C0144275527BA014C195D096E09F7
:100AF0007F092AE0CE010E941305800F911FDF912C
:100B0000CF911F910F91FF90EF90DF90CF900895BC
:100B1000BC018BE494E00C940405AB01770F660BE9
:100B2000770B77FD0C945F052AE00C941305CF92A8
:100B3000DF92EF92FF920F931F93CF93C82F0E94E3
:100B400079026B017C0180912E03811164C081E0E8
:100B500080932E0380932D039FEF90932C0310928C
:100B60002B0310922A038093090380910903CC0F71
:100B7000C82BC093090380910803813009F07DC020
:100B8000109208030E9479026B017C018091090395
:100B90008093BB008091300390913103A091320388
:100BA000B0913303892B8A2B8B2BA1F00E94790201
:100BB00000913003109131032091320330913303BF
:100BC0006C197D098E099F09061717072807390731
:100BD00008F442C08091BC0083FDD8CF85EC80939F
:100BE000BC000E9479026B017C0180912E03813050
:100BF00009F445C080912B03811163C080912B03C0
:100C0000EAE0F3E0A8EEB2E090E0981751F121910C
:100C10002D939F5FFACF8091300390913103A09183
:100C20003203B0913303892B8A2B8B2B09F48BCFA2
:100C30000E94790200913003109131032091320318
:100C4000309133036C197D098E099F090617170728
:100C50002807390708F077CF80912F030E945403AB
:100C600080E01092E7028093E602CF911F910F91EE
:100C7000FF90EF90DF90CF90089585EEB0CF8091F8
:100C8000300390913103A0913203B0913303892B4B
:100C90008A2B8B2B09F4A9CF0E9479020091300393
:100CA0001091310320913203309133036C197D0987
:100CB0008E099F09061717072807390708F095CFEF
:100CC000CBCF81E09DCF0F931F93CF938C01C62F85
:100CD0000E94E0046C2F6460C8010E94E0046C2F45
:100CE0006B7FC8010E94E00483EC90E00197F1F76C
:100CF000CF911F910F9108950F931F93CF93DF937F
:100D00008C01D62FC42F607F642B0E94630680E184
:100D1000D89FB00111246C2BC801DF91CF911F9196
:100D20000F910C946306CF93DF93CDB7DEB728976E
:100D30000FB6F894DEBF0FBECDBF98E0EAE5F1E054
:100D4000DE01119601900D929A95E1F7909154046D
:100D5000961708F46FEF262F30E0220F331F41E083
:100D600050E04C0F5D1F240F351FF9016081680FA3
:100D7000606840E08BE494E028960FB6F894DEBFFC
:100D80000FBECDBFDF91CF910C947C0641E00E9455
:100D90007C0681E090E008950F931F93CF93DF933B
:100DA0008B0198E0899FB0011124606440E08BE4DE
:100DB00094E00E947C06E801085F1F4F69918BE474
:100DC00094E00E94C606C017D107C1F7DF91CF910A
:100DD0001F910F9108950F931F93CF93DF93EC0111
:100DE00088819981009759F02A813B81261737071E
:100DF00030F081E0DF91CF911F910F9108958B0129
:100E00006F5F7F4F0E943126009759F09983888346
:100E10001B830A832C813D81232B59F7FC0110820F
:100E2000E8CF80E0E7CFCF92DF92EF92FF920F936F
:100E30001F93CF93DF9300D0CDB7DEB78C01C62EC2
:100E4000FC0111821082138212821582148270E0DA
:100E500060E00E94EB06F80120813181811137C0EA
:100E60002115310519F0C9010E94A825F801118248
:100E7000108215821482138212820E94DC020C2CD2
:100E8000000CDD0897FD2BC08C159D0541F1898371
:100E90001A82F801E480F580FFEFEF1AFF0AB7012C
:100EA000C8010E94EB06882379F0F8012081318186
:100EB00084819581BE016F5F7F4F820F931F0E94D7
:100EC000F726F801F582E4820E94DC02DBCF15826E
:100ED000148264E971E0C9010E94F726CECFC801EF
:100EE0000F900F90DF91CF911F910F91FF90EF9096
:100EF000DF90CF900895DF92EF92FF920F931F93B0
:100F0000CF93DF93EC017A01CB014A978B01000F5D
:100F1000111F8C9760F4C00FD11FF982E882DF9116
:100F2000CF911F910F91FF90EF90DF900895D42EF5
:100F300060E04F3F510539F034F0CA016FEF70E0C7
:100F40000E94EB24D82EC80101960E9472236D2DB9
:100F5000C80102960E94722361E0C8018B599F4F1D
:100F60000E947223D8CF9F92AF92BF92CF92DF920E
:100F7000EF92FF920F931F93CF93DF93182F092FB8
:100F8000B42EA52E962EF72E60E08AE00E94F40182
:100F9000C3E2D0E0CE010197F1F7812F0E94FD045A
:100FA0008F2D0E94FD04C12CD12C7601C82AFE2C65
:100FB000ED2CDC2CCC24892D0E94FD04C82AFE2CAB
:100FC000ED2CDC2CCC248A2D0E94FD04C82AFE2C9A
:100FD000ED2CDC2CCC248B2D0E94FD04C82A2197FB
:100FE000F1F761E08AE00E94F40180916003909142
:100FF00061038F369105D1F580915C0390915D037B
:10100000A0915E03B0915F03892B8A2B8B2B19F182
:1010100080913D0490913E04A601537050935B0370
:1010200040935A036CE370E00E947B0780913D047B
:1010300090913E04FC01E258FF4F208131814091A4
:101040005A0350915B03241735070CF4A9016FE391
:1010500070E00E947B07A7014F7155276DE370E098
:1010600080913D0490913E040E947B078091600333
:1010700090916103429769F4D0925903C09258034A
:10108000A6016EE370E080913D0490913E040E94C1
:101090007B071093600300936103DF91CF911F9151
:1010A0000F91FF90EF90DF90CF90BF90AF909F9007
:1010B000089585ED8093BC008091300390913103B9
:1010C000A0913203B09133030796A11DB11D23E017
:1010D000B695A795979587952A95D1F72091BC004D
:1010E00024FD03C010922E030895409130035091C7
:1010F00031036091320370913303452B462B472B0C
:1011000069F30097A105B10541F025E32A95F1F7B0
:1011100000000197A109B109E1CF80912F030C9440
:1011200054031F920F920FB60F9211242F933F93E7
:101130004F935F936F937F938F939F93AF93BF93DF
:10114000EF93FF9382E693E00E941301FF91EF91EA
:10115000BF91AF919F918F917F916F915F914F91CF
:101160003F912F910F900FBE0F901F9018951F92D7
:101170000F920FB60F9211242F938F939F93EF939B
:10118000FF93E0917203F09173038081E091780303
:10119000F091790382FD1BC0908180917B038F5F6A
:1011A0008F7320917C03821741F0E0917B03F0E084
:1011B000EE59FC4F958F80937B03FF91EF919F91A8
:1011C0008F912F910F900FBE0F901F9018958081D7
:1011D000F4CF1F920F920FB60F9211242F933F93CB
:1011E0008F939F93AF93BF938091990290919A02AE
:1011F000A0919B02B0919C023091980223E0230FB2
:101200002D3758F50196A11DB11D209398028093AA
:10121000990290939A02A0939B02B0939C028091B2
:101220009D0290919E02A0919F02B091A002019612
:10123000A11DB11D80939D0290939E02A0939F02D9
:10124000B093A002BF91AF919F918F913F912F9149
:101250000F900FBE0F901F90189526E8230F02964F
:10126000A11DB11DD2CF1F920F920FB60F92112464
:101270002F933F934F935F936F937F938F939F939E
:10128000AF93BF93EF93FF938091B900887F80362F
:1012900009F44AC0F0F5883209F4A7C018F5803186
:1012A00009F49BC0B8F4882309F4F9C0883009F424
:1012B00094C0FF91EF91BF91AF919F918F917F91DA
:1012C0006F915F914F913F912F910F900FBE0F90B3
:1012D0001F901895883109F488C0803251F78093A7
:1012E0002C0314C0803409F49DC040F48033B9F35A
:1012F0008833F9F680932C0385ECB0C0803509F46F
:1013000085C0883509F496C0883499F60E9459083A
:10131000D0CF883909F48CC038F5883729F050F4DB
:10132000883611F0803729F683E080932E031092DF
:10133000970257C0883809F47BC0803919F080388B
:1013400009F0B7CF80919702803208F071C0E09128
:10135000970281E08E0F809397028091BB00F0E0AE
:10136000E958FD4F80833DC0803B39F0E0F4803A7E
:1013700009F479C0883A09F09CCF84E080932E0369
:101380001092760210927502E091A402F091A502EB
:1013900009958091750281110FC081E080937502DB
:1013A0001092550209C0803C09F4A6CF883C09F48C
:1013B000A3CF883B09F07DCFE091760281E08E0FCC
:1013C00080937602F0E0EB5AFD4F80818093BB0062
:1013D000909176028091750229C0809109038093D3
:1013E000BB0085EC8093BC0064CF90912B0380916F
:1013F0002A03981758F5E0912B0381E08E0F809314
:101400002B03F0E0E65FFC4F8081E9CFE0912B03F6
:1014100081E08E0F80932B038091BB00F0E0E65FAC
:10142000FC4F808390912B0380912A039817C8F278
:1014300085E8D8CFE0912B0381E08E0F80932B03BA
:101440008091BB00F0E0E65FFC4F808380912D032C
:1014500081115CCF81E08093080384EA8093BC0013
:1014600010922E0326CF85EC8093BC0010922E03A1
:1014700080919702803230F4E0919702F0E0E958D1
:10148000FD4F10826091970270E0E091A202F0910E
:10149000A30287E792E00995109297020ACF109273
:1014A0002C0334CFBF92CF92DF92EF92FF920F9333
:1014B0001F93CF93DF936C017A01EB01CC0FDD1FFB
:1014C000CE0101960E946A23B82ECE0102960E9498
:1014D0006A23082F10E0CE018B599F4F0E946A2388
:1014E000CC0DDD1D813061F0F982E882DF91CF9172
:1014F0001F910F91FF90EF90DF90CF90BF900895D4
:101500008FEFB89E000D111D112419830883EECFB3
:10151000EF92FF920F931F93CF93DF931092650387
:101520001092640388EE93E0A0E0B0E0809366033D
:1015300090936703A0936803B093690326E631E0B4
:10154000309363032093620325EC30E030936F0304
:1015500020936E0324EC30E03093710320937003EA
:1015600020EC30E0309373032093720321EC30E0E1
:10157000309375032093740322EC30E030937703AB
:101580002093760326EC30E03093790320937803A0
:1015900010927B0310927C0310927D0310927E03C5
:1015A00010920204109201048093030490930404A7
:1015B000A0930504B093060488E791E0909300049B
:1015C0008093FF0310924E0410924D044AE851E0BC
:1015D00050934C0440934B0487E280934F0420E1E6
:1015E0002093530492E0909354041092550488E0A1
:1015F0008093560410924204109241045093400488
:1016000040933F043FE33093430420934704909377
:1016100048041092490480934A0480EA90E00E94B2
:101620000C25EC01FC0180569F4F11921192E81796
:10163000F907D9F750E040E070E060E0CE010E9489
:10164000520A50E040E061E070E0CE010E94520A90
:1016500042E850E062E070E0CE010E94520A4CE3A2
:1016600050E063E070E0CE010E94520A40E250E098
:1016700064E070E0CE010E94520A4AE050E065E06A
:1016800070E0CE010E94520A4DE250E066E070E048
:10169000CE010E94520A4AEE56E067E070E0CE01A9
:1016A0000E94520A48E050E068E070E0CE010E94DB
:1016B000520A40E45FE169E070E0CE010E94520A04
:1016C00040ED53E16AE070E0CE010E94520A44E12D
:1016D00051E06BE070E0CE010E94520A4EEF51E003
:1016E0006CE070E0CE010E94520A40E451E06DE0EF
:1016F00070E0CE010E94520A4AEA50E06EE070E0CB
:10170000CE010E94520A42E350E06FE070E0CE0149
:101710000E94520A40E951E060E170E0CE010E946F
:10172000520A40ED57E061E170E0CE010E94520A9A
:101730004CE251E062E170E0CE010E94520A44ECBA
:1017400059E063E170E0CE010E94520A48E552E0A0
:1017500064E170E0CE010E94520A4CEA5DE065E16E
:1017600070E0CE010E94520A41E450E066E170E070
:10177000CE010E94520A40E550E067E170E0CE01E0
:101780000E94520A41E050E068E170E0CE010E9400
:10179000520A46E950E066E470E0CE010E94520A27
:1017A0004FE750E067E470E0CE010E94520A44EA3D
:1017B00050E068E470E0CE010E94520A45E050E03B
:1017C00069E470E0CE010E94520A42E150E06AE40E
:1017D00070E0CE010E94520A48ED5FEF6BE470E0CA
:1017E000CE010E94520A44E853E06CE470E0CE015E
:1017F0000E94520A41E050E06DE470E0CE010E9488
:10180000520A44E050E06EE470E0CE010E94520AB9
:1018100043E050E06FE470E0CE010E94520AD093A2
:101820003E04C0933D048AE990E00E940C258C019F
:10183000DC0111961C921E9215961C921E92149712
:1018400017961C921E92169719961C921E92189724
:10185000FC013A9680E2DF011D928A95E9F7F801D2
:1018600013A612A614A615A616A617A67801B0E709
:10187000EB0EF11CF7011182108232961082118258
:10188000128213823496118210823296108233961D
:101890001182108232961182108232961182108249
:1018A0003296108211821282138234961082118233
:1018B0001282138234961082319681E080833196B1
:1018C000108237961082118212821382349680E041
:1018D00090E0A0E8B0E480839183A283B38385E0A5
:1018E00090E0D80113969C938E93129762E00E9429
:1018F000220286E090E0F80191838083E758FF4F51
:10190000D183C083D8011B961C921E921A971D96F4
:101910001C921E921C971F961C921E921E97519607
:101920001C921E92509753961C921E925297559657
:101930001C921E92549757961C921E925697599637
:101940001C921E925897E954F10911921192EE15CA
:10195000FF05D9F784E490E00E940C25FC0115AE48
:1019600014AEFE9610821182128213823496118276
:101970001082FC019C01245C3F4F119211922E17A2
:101980003F07D9F7F801E457FF4F918380838CE636
:1019900090E00E940C25DC01AC59BF4F11961C92BF
:1019A0001E92FC01EA59FF4F1082118212821382AB
:1019B000349611821082FC0111921192AE17BF076A
:1019C000D9F7F801E257FF4F9183808384E891E0D3
:1019D0000E940C25DC01A458BE4F11961C921E9249
:1019E000FC01E258FE4F108211821282138234965B
:1019F00011821082FC0111921192EA17FB07D9F7AC
:101A0000F801E057FF4F9183808310933C040093CB
:101A10003B0486E390E090930C0480930B041092B7
:101A200018041092170481E090E090931A048093B8
:101A3000190482E090E090931C0480931B0483E0DF
:101A400090E090931E0480931D0484E090E09093B6
:101A5000200480931F0485E090E0909322048093FB
:101A6000210486E090E0909324048093230487E08F
:101A700090E0909326048093250488E090E0909372
:101A80002804809327048CE090E090932A048093AC
:101A900029048DE090E090932C0480932B048EE039
:101AA00090E090932E0480932D048FE090E090932B
:101AB000300480932F048BE090E090933204809365
:101AC00031048AE190E090933404809333048BE1F5
:101AD00090E090933604809335048CE190E09093ED
:101AE0003804809337048FEF90E090933A0480930A
:101AF0003904DF91CF911F910F91FF90EF900895DE
:101B0000CF93DF93CDB7DEB766970FB6F894DEBFFD
:101B10000FBECDBF789484B5826084BD84B58160EA
:101B200084BD85B5826085BD85B5816085BD8091A8
:101B30006E00816080936E00109281008091810020
:101B40008260809381008091810081608093810018
:101B5000809180008160809380008091B1008460DA
:101B60008093B1008091B00081608093B00080913B
:101B70007A00846080937A0080917A0082608093FA
:101B80007A0080917A00816080937A0080917A0057
:101B9000806880937A001092C10061E087E00E9423
:101BA000220261E087E00E94F40143E050E064E338
:101BB00070E080913D0490913E040E947B0783E099
:101BC0008093000161E08AE00E94220261E083E0EC
:101BD0000E94220261E089E00E94220261E088E026
:101BE0000E94220261E08AE00E94F40160E084E049
:101BF0000E94220260E086E00E94220280E480933C
:101C0000800089E080938100109289001092880002
:101C10008CB58F7D8CBD8CB58C7F82608CBD8DB575
:101C20008E7F8DBD8CB58C608CBD1FB7F894809174
:101C3000A102811127C0E4EAF0E08491E0E9F0E03C
:101C40009491E82FF0E0EE0FFF1FE458FF4FA591AD
:101C5000B491EC91E92321F461E08AE00E94F4015F
:101C600061E08AE00E9422028CB580618CBD8CB557
:101C700080648CBD61E08DE00E94220261E08BE017
:101C80000E9422028091A1028F5F8093A1021FBF58
:101C9000E0917203F091730382E08083E09172031C
:101CA000F09173031082E0916E03F0916F03108244
:101CB000E0917003F091710380E1808310927A03C8
:101CC000E0917603F091770386E08083E0917403DE
:101CD000F0917503808180618083E0917403F091BD
:101CE0007503808188608083E0917403F0917503AF
:101CF000808180688083E0917403F0917503808116
:101D00008F7D808340E050E0BA018BE890E00E9434
:101D1000B30743EC50E061E070E08CEE90E00E948D
:101D2000B30740E650E067E070E08DEE90E00E947F
:101D3000B30744E050E060E070E080E890E00E948B
:101D4000B30745E05EE064E070E080E990E00E9467
:101D5000B30743E050E060E070E081E990E00E946A
:101D6000B30744EF51E060E070E083E990E00E9447
:101D7000B30748EB5BE060E070E084E990E00E942C
:101D8000B30740E951E060E070E085E990E00E942F
:101D9000B30741E050E060E070E083EA90E00E9429
:101DA000B30740ED57E060E070E084EA90E00E9405
:101DB000B3074AE050E060E070E085EA90E00E94FE
:101DC000B30748E35EE060E070E086EA90E00E94DE
:101DD000B3074AE050E060E070E087EA90E00E94DC
:101DE000B30744EF51E060E070E088EA90E00E94C1
:101DF000B30744EF51E060E070E08AEA90E00E94AF
:101E0000B3074AE050E060E070E08BEA90E00E94A7
:101E1000B30741E050E060E070E080EA90E00E94AB
:101E2000B30740E050ED67E070E08DEA90E00E947B
:101E3000B3074CE850E06DE270E080913D04909172
:101E40003E040E947B0742E050E068E370E080912E
:101E50003D0490913E040E947B07809153018823AA
:101E600009F4F8C01092E7021092E60210923503CE
:101E7000109257030E94360323E930E03093A50205
:101E80002093A40244E950E05093A3024093A2029D
:101E900051E0509334038FE3809356030E947503FF
:101EA000811128C0809141049091420490934E0486
:101EB00080934D048091430480934F0480914404A7
:101EC000809350048091450480935104809146048E
:101ED0008093520480914704809353048091480476
:101EE00080935404809149048093550480914A045E
:101EF0008093560410923503109257030E943603C4
:101F00001092500480915404823018F098E090931D
:101F1000500490915504992339F0813029F480912F
:101F2000500484608093500462E370E080E090E0AD
:101F30000E949E02609156048BE494E00E94E004AB
:101F400068EE73E080E090E00E949E0260E38BE424
:101F500094E00E9463068BE496E40197F1F760E356
:101F60008BE494E00E9463068BE496E40197F1F71A
:101F700060E38BE494E00E94630683E592E00197BE
:101F8000F1F760E28BE494E00E94630660915004F4
:101F9000606240E08BE494E00E947C0684E08093E1
:101FA000510440E06CE08BE494E00E947C0640E049
:101FB00061E08BE494E00E947C060BE31FE1C80122
:101FC0000197F1F782E08093520440E066E08BE4F1
:101FD00094E00E947C0640E062E08BE494E00E9482
:101FE0007C06C8010197F1F76BE471E080E00E9484
:101FF000CC0663E471E081E00E94CC066BE371E003
:1020000082E00E94CC0663E371E083E00E94CC068C
:102010006BE271E084E00E94CC0663E271E085E04F
:102020000E94CC066BE171E086E00E94CC0663E181
:1020300071E087E00E94CC060E94F20441E050E08B
:1020400062E270E080913D0490913E040E947B0723
:10205000109253010E94D0026093E2027093E30257
:102060008093E4029093E50220903B0430903C047E
:10207000410199E7890E911CD4018D919C91FC013D
:10208000E45BFF4F20813181F101EA58FF4F5F018E
:10209000A10145585F4F5E8B4D8B232B09F0FFC587
:1020A000D10112968C910E94CB01019731F4F1017C
:1020B000E858FF4F808181113CC5F10182810E9467
:1020C000CB01019739F4F101E858FF4F8081882353
:1020D00009F412C5D10112968C910E94CB01892B73
:1020E00009F411C5D10112968C910E94CB01892B64
:1020F00009F414C5ED85FE85D501ED93FC93D4015B
:10210000ED91FC91EA57FF4F808191810197E1F4B5
:10211000F10180810E945E02D10116960D911C9101
:102120001797080F191F17961C930E93169718965A
:102130008D919C91199701968430910509F4FCC406
:1021400019969C938E931897D1018C910E945E02F0
:102150008C01F40180819181DC0114962D913C91D8
:102160001597021713076CF42D913C91A801421B9F
:10217000530B141615060CF0B6C54F3151050CF073
:10218000B8C5D4018D919C91FC0124813581021741
:10219000130744F4D5012D913C9141E050E02230E9
:1021A000310511F050E040E064E270E00E947B07EE
:1021B000F40180819181DC0114962D913C910217EC
:1021C000130764F4F501208131812130310531F4A8
:1021D00041E050E062E470E00E947B07D4018D9101
:1021E0009C91FC0124813581021713076CF0228138
:1021F0003381A801421B530B141615060CF086C53B
:102200004F3151050CF088C5F40180819181DC01CA
:1022100014962D913C910217130744F0F50120818B
:10222000318141E050E02230310511F050E040E0D2
:1022300065E270E00E947B07910125573F4F3A8B82
:10224000298BD9014C91411105C0F101E558FF4F8F
:1022500011821082F401A080B180D5011A960D90F0
:10226000BC91A02DBC87AB87F50166807780068581
:102270001785248535853A872987269DC001279DA6
:10228000900D369D900D112424E630E0B9010E9496
:10229000EB24069FF001079FF00D169FF00D11240F
:1022A000D101A158BF4F1196FC93EE931497CD9096
:1022B000DC900D2C000CEE08FF08C10183589F4FE5
:1022C00098878F83442309F434C5AB85BC856A9E07
:1022D000C0016B9E900D7A9E900D1124B9010E9451
:1022E000EB24609F2001619F500C709F500C1124C3
:1022F000712C612C9F0150E040E0241935094609FA
:102300005709C701B6010E94C72428EE33E040E018
:1023100050E00E948023420E531E641E751EEF8102
:10232000F885518240828AE02B853C85829F20017E
:10233000839F500C1124052C000C6608770881013E
:102340000F571F4F49855A85849F9001859F300DF7
:102350001124032E000C440B550B24193509460992
:102360005709C701B6010E94C72428EE33E040E0B8
:1023700050E00E948023CA01B901640D751D861DBD
:10238000971D0E944D2220E030E048EC52E40E946C
:102390001A24D8016D937D938D939C931397F50127
:1023A000008511852B853C85209FB001219F700DF4
:1023B000309F700D1124072E000C880B990B0E9482
:1023C0004D2220E030E040E251E40E94AC220E9425
:1023D0008C242B013C01A1014B575F4F5C874B873D
:1023E00089859A85809FB001819F700D909F700DA7
:1023F0001124072E000C880B990B0E944D2220E01F
:1024000030E040E251E40E94AC220E948C249B0107
:10241000AC012419350946095709C701B6010E94C4
:10242000C72428EE33E040E050E00E948023CA0138
:10243000B901640D751D861D971D0E944D2220E077
:1024400030E048EC52E40E941A24AB85BC856D93C1
:102450007D938D939C931397D10114964D915C912C
:10246000F50184819581910127573F4FF101E6578E
:10247000FF4F481759070CF06DC4C1018A589F4F90
:10248000DC018D919C91029709F064C481E0D9012F
:102490008C938083D9018C91D101A557BF4F88239C
:1024A00009F45AC48081811157C4E1E0EC9369E1D9
:1024B00070E0C5010E947B07AD89BE894D915C919A
:1024C0006AE170E0F401808191810E947B07F10153
:1024D000EB57FF4FC080D180E280F38020E030E0F6
:1024E00048EC52E4C701B6010E94AC220E9493243A
:1024F0008B01C701B6010E948C24AB016FE270E032
:10250000D4018D919C910E947B07C80168EE73E015
:102510000E94D724AB018C016BE170E0F401808153
:1025200091810E947B07A8016CE170E0D4018D913C
:102530009C910E947B07F101EF57FF4F20E030E0B4
:1025400048EC52E460817181828193810E94AC22C7
:102550000E949324CB0168EE73E00E94D724AB0164
:102560008C016DE170E0F401808191810E947B0714
:10257000A8016EE170E0D4018D919C910E947B07CF
:10258000EF81F8858081918168EE73E00E94D72405
:10259000AB016FE170E0D4018D919C910E947B07AB
:1025A000EF81F8858081918168EE73E00E94D724E5
:1025B000AC0160E270E0D4018D919C910E947B0798
:1025C000F101E757FF4F408150E061E270E0F40114
:1025D000808191810E947B07F101E657FF4F408186
:1025E00050E062E270E0D4018D919C910E947B07E3
:1025F000E989FA89408150E063E270E0D4018D916D
:102600009C910E947B07F40100811181F801EC5A32
:10261000FF4F60817181072E000C880B990B0E947F
:102620004D2229E030EF4CE85AE30E94AC2220E032
:1026300030E04EE453E40E94AC220E948C24AB01B3
:102640006DE270E0C8010E947B07F101E457FF4F83
:102650000190F081E02DEE5BFF4F408151816AE2F5
:1026600070E0D4018D919C910E947B07F101E257AB
:10267000FF4F0190F081E02DE659FF4F40815181DD
:102680006CE270E0F401808191810E947B07F1018E
:10269000E057FF4F0190F081E02DEE57FE4F408153
:1026A000518166E370E0D4018D919C910E947B077B
:1026B0000091E0021091E1028091DE029091DF0230
:1026C000080F191F17FF02C00F5F1F4F15950795C1
:1026D00085E10E945E02081B190B055F1F4F073141
:1026E000110508F0B7C0E0903B04F0903C0485E190
:1026F0000E945E024C01F701E758FF4FAC016BE20C
:1027000070E0808191810E947B07BFEF8B1AB1E05E
:102710009B0A880C991CF701E057FF4F008111813B
:10272000F801E458FE4F20813181C901880F991FBB
:10273000800F911F680142E8C41A4EEFD40ADC01F1
:102740004D905C90052C000C66087708D6014D91E1
:102750005D916D917C914419550966097709DC01F9
:102760008D929C92092C000CAA08BB08CB01BA01DF
:10277000680D791D8A1D9B1DD6016D937D938D93E8
:102780009C9313972F5F3F4F2E3B31050CF0E6C211
:10279000318320830E571E4F2EEB30E040E050E097
:1027A0000E948023F80131832083F701E257FF4F15
:1027B00000811181C501B4010E944D2223EC35EF47
:1027C00048EA5EE30E941A240E948C24D801AC5986
:1027D000BF4F2D913C911197F901EE0FFF1F7F0123
:1027E000E00EF11EA8014A595F4FF7014080518069
:1027F000052C000C66087708FA0180809180A28081
:10280000B38084189508A608B708F7017183608320
:102810006B01770FEE08FF08C701B601680D791D3F
:102820008A1D9B1DFA0160837183828393832F5FCE
:102830003F4F223331050CF094C22D933C9306593F
:102840001F4F22E330E040E050E00E948023D80197
:102850002D933C938091DE029091DF029093E102F0
:102860008093E00285E10E945E029093DF028093F4
:10287000DE0200913B0410913C0481E10E945E0263
:10288000F801E457FF4F0190F081E02D24AD35AD04
:10289000D901AA0FBB1FBD016E0F7F1FAF01425CA4
:1028A0005F4FDB018D909C90092C000CAA08BB089F
:1028B000DA01CD90DD90ED90FC90C818D908EA08B7
:1028C000FB08DB018D939C93092E000CAA0BBB0B1C
:1028D000BC01CD016C0D7D1D8E1D9F1DDA016D9318
:1028E0007D938D939C9313972F5F3F4F2E3131052E
:1028F0000CF03AC235AF24AF8F010E5B1F4F2EE1B3
:1029000030E040E050E00E948023F80131832083D2
:1029100000913B0410913C0480E10E945E027C0126
:1029200007581F4FD8018D919C91FC01208D318D4E
:10293000C68CD78CA28CB38C45018C189D08648CF6
:10294000758C23014C185D08A9014C195D094E15C1
:102950005F0554F52C0D3D1DE216F3062CF5EA59E2
:10296000FF4F2081318121303105F1F034972081F2
:1029700031812130310509F0FAC1329660817181CF
:10298000FB01EE0FFF1FE80FF91F408151814150FD
:1029900051090E947B0741E050E063E370E0D801F9
:1029A0008D919C910E947B078E149F0474F5AC0C52
:1029B000BD1CEA14FB044CF5F80180819181FC01F7
:1029C000EA59FF4F2081318122303105F1F03497EF
:1029D000208131812130310509F0D7C132966081E3
:1029E0007181FB01EE0FFF1FE80FF91F408151813C
:1029F0004F5F5F4F0E947B0742E050E063E370E06F
:102A0000D8018D919C910E947B074E145F0464F560
:102A1000C60CD71CEC14FD043CF5F80180819181B3
:102A2000FC01EA59FF4F2081318123303105E1F06B
:102A3000349720813181232B41F4329620813181DA
:102A400041E050E02135310514F050E040E061E311
:102A500070E00E947B0743E050E063E370E0D80140
:102A60008D919C910E947B07B9EEEB16B3E0FB06BB
:102A70004CF050E040E063E370E0F8018081918128
:102A80000E947B07A7016EE270E0D8018D919C91B6
:102A90000E947B07E0913D04F0913E04E859FF4F0E
:102AA00080819181039709F07EC186E00E94CB016D
:102AB000019709F078C18091A602882309F476C1B4
:102AC00080913D0490913E04E0913B04F0913C04E0
:102AD000E757FF4F108244E050E064E370E00E944B
:102AE0007B0750E040E060E370E080913D0490910E
:102AF0003E040E947B075AC1B1E0B083EFEFFFEFC5
:102B0000FE87ED87F7CAF101E858FF4F80818823DF
:102B100009F4E8CA1082E1E0F0E0F2CFF101E858F0
:102B2000FF4F80818111E6CA22E030E03E872D8789
:102B3000E1CA1E861D86DECA17FF02C00D5F1F4F49
:102B40001595079515950795F10111861086178241
:102B50001682D4018D919C91FC0122A933A97801A0
:102B6000E21AF30AA70161E470E00E947B07F4E037
:102B7000EF0EF11C29E0E216F10420F4D1011496C5
:102B80000D911C91F401E080F180D7014D905C9093
:102B9000052C000C660877089801012E000C440BE8
:102BA000550B2419350946095709A8EEB3E00E94D0
:102BB0009F23F70122813381032E000C440B550B18
:102BC00024193509460957090E948023293EF3E05C
:102BD0003F0714F028EE33E037FF02C030E020E07A
:102BE000AD89BE892D933C93F101C2A4D3A4F60113
:102BF000EE0FFF1FE20DF31D42845384052C000CE1
:102C000066087708D1019C964D915D916D917C91FC
:102C10009F97441955096609770933872287290147
:102C2000330F66087708CB01BA01640D751D861D48
:102C3000971DF10164A775A786A797A796012F5F37
:102C40003F4F2031310534F533A722A76101BBE79F
:102C5000CB0ED11C20E130E040E050E00E94802308
:102C6000F60131832083F701E65BFF4F808191817C
:102C7000019729F4E8EEF3E0D601ED93FC930D39CA
:102C8000FFEF1F0709F460CAD10115961C930E933C
:102C900014975ACA9B961C921E929A97D7CFF1010D
:102CA00024813581215031092336310558F4E85803
:102CB000FF4F2081211114C021E020834FEF5FEFEF
:102CC000588B4F87EF85F889D501ED93FC93825B94
:102CD0009F4FDC018D919C91F1019583848334CACF
:102CE000188A1F86EFCF201B310B2F3131050CF4D2
:102CF00048CAF501208131812230310509F041CAED
:102D0000A80170E060E00E947B073BCA201B310BEA
:102D10002F3131050CF478CAD5012D913C91223028
:102D2000310509F071CAA80161E070E00E947B07DB
:102D30006BCAEF81F88511821082F101EF57FF4FC6
:102D400010821182128213823496108211821282B2
:102D5000138282CB10829ECB1C92A9CB118210824F
:102D600019CD1D921C926BCD15AE14AEC5CDFC01D4
:102D7000E05AFF4F40815181141615060CF00BCE1E
:102D80004150510960E370E004CEFC01E05AFF4F6E
:102D900040815181403551050CF02ECE4F5F5F4F81
:102DA00060E370E027CEB1E0B093A60280913D04CD
:102DB00090913E04FC01E859FF4F20813181232B83
:102DC00061F43A96208131812130310531F441E0BE
:102DD00050E064E370E00E947B0780913D04909195
:102DE0003E04FC01E859FF4F20813181213031053B
:102DF00061F43A96208131812330310531F442E08B
:102E000050E064E370E00E947B07E0913D04F091A4
:102E10003E04E859FF4F808191810297C0F586E01A
:102E20000E94CB0120913D0430913E04019741F076
:102E3000F901EE5AFF4F80819181853691053CF171
:102E400043E050E064E370E0C9010E947B0761E069
:102E500087E00E94F4011092A6021092AF028091C6
:102E6000E2029091E302A091E402B091E502809326
:102E7000B4029093B502A093B602B093B7028093C8
:102E8000C0029093C102A093C202B093C30282E633
:102E900093E00E94F300181619060CF098C06AE33C
:102EA000CE0101960E94130709811A8160E070E04B
:102EB000CB010115110519F0C8010E940F227B01F9
:102EC00070931101609310010115110519F0C801EB
:102ED0000E94A8256AE0CE0101960E94130709818D
:102EE0001A8160E070E0CB010115110519F0C801ED
:102EF0000E940F227093A8026093A702011511058A
:102F000019F0C8010E94A825E4E6EE16F10411F5B7
:102F100010E000E0E0913D04F0913E04C801880F0C
:102F2000991FE80FF91F40815181052E000C660B97
:102F3000770B77FFFBC382E693E00E945F0562E9AF
:102F400071E082E693E00E9404050F5F1F4F003599
:102F5000110501F7809110019091110185369105BD
:102F600061F468E071E082E693E00E94040562E9A2
:102F700071E082E693E00E94040580911001909137
:102F800011018636910561F461E071E082E693E01B
:102F90000E94040562E971E082E693E00E94040564
:102FA00060911001709111016035710554F44091E8
:102FB000A7025091A80280913D0490913E040E9486
:102FC0007B0787EE93E0909311018093100140E01E
:102FD00050E0BA018FE690E00E94B30740E050E075
:102FE000BA0182E190E00E94B30780913D04909184
:102FF0003E04FC01EA5BFF4F208131812130310525
:1030000009F09AC3B296208131812330310509F04D
:1030100093C32091DD0221118FC360E088E00E94FC
:10302000F401E0913B04F0913C04E358FF4F8081B0
:103030009181B0E0A0E040915C0350915D0360910C
:103040005E0370915F03481759076A077B0708F40E
:1030500090C340915C0350915D0360915E03709159
:103060005F03411551056105710569F084179507E6
:10307000A607B70740F480935C0390935D03A09389
:103080005E03B0935F0380913D0490913E04FC0188
:10309000E856FF4F8E5A9F4F20813181FC0180817D
:1030A0009181281739071CF4F1E0F093DD0240917B
:1030B0005C0350915D0360915E0370915F0387EA4A
:1030C00090E00E94B3078091E2029091E302A09108
:1030D000E402B091E502883E33E09307A105B10513
:1030E00058F0E0913D04F0913E04E859FF4F2081F3
:1030F00031812330310539F0E0913B04F0913C04FB
:10310000E757FF4F10824091D4025091D502609151
:10311000D6027091D702452B462B472B19F5895EB5
:103120009340A109B10983369105A105B105D0F4F9
:1031300050E040E067E370E080913D0490913E04F0
:103140000E947B078091E2029091E302A091E40249
:10315000B091E5028093D4029093D502A093D60259
:10316000B093D7028090E2029090E302A090E40234
:10317000B090E5028091D0029091D102A091D2024C
:10318000B091D302892B8A2B8B2B09F047C0D50134
:10319000C4018D5D9540A109B109873C9105A10548
:1031A000B105E0F558E2E52EF12C10E000E085E1F4
:1031B0000E945E02080F191F65E070E080E090E059
:1031C0000E949E0241E0E41AF10889F7C80168E212
:1031D00070E00E94EB24072E000C880B990B0E94D4
:1031E0004D2229E030EF4CE85AE30E94AC2220E067
:1031F00030E048E455E40E94AC220E948C24709395
:10320000CF026093CE0251E05093DD028092D00253
:103210009092D102A092D202B092D3028091CA02BF
:103220009091CB02A091CC02B091CD02892B8A2B38
:103230008B2B09F06CC081ED881A87E0980AA108F1
:10324000B10893E689169104A104B10408F05FC0A7
:1032500008E210E0F12CE12C85E10E945E02E80E0C
:10326000F91E65E070E080E090E00E949E0201504F
:10327000110991F71092DD020091CE021091CF0258
:10328000C0903D04D0903E04C70168E270E00E9407
:10329000EB24072E000C880B990B0E944D2229E08D
:1032A00030EF4CE85AE30E94AC2220E030E048E4E2
:1032B00055E40E94AC220E948C24C801861B970B07
:1032C000A80144970CF07AC24A50510963E170E0BA
:1032D000C6010E947B0780913D0490913E04DC0171
:1032E0009C964D915C9167E370E00E947B07809112
:1032F000E2029091E302A091E402B091E502809392
:10330000CA029093CB02A093CC02B093CD028091DD
:10331000E2029091E302A091E402B091E502C3972A
:10332000A105B10550F041E050E063E470E0809108
:103330003D0490913E040E947B078091E2029091AF
:10334000E302A091E402B091E5024091C6025091DF
:10335000C7026091C8027091C902841B950BA60B2D
:10336000B70B893E9340A105B10508F47EC080915A
:103370003D0490913E0420911201F1E02F2720930B
:103380001201FC01E258FF4F208131812E313105BD
:103390000CF017C2B09720813181121613060CF081
:1033A00010C22091A9023091AA022F5F3F4F3093A3
:1033B000AA022093A90248EE53E06FE370E00E9456
:1033C0007B0780913D0490913E04FC01E456FF4F41
:1033D0004091A9025091AA0220813181241735071A
:1033E0008CF41092AA021092A90248EE53E06FE307
:1033F00070E00E947B07E0913B04F0913C04E757AA
:10340000FF4F10828091DD02882309F4FFC1809173
:103410003D0490913E042091C4023091C502FC010C
:10342000E656FF4F40815181241735070CF0CEC17D
:103430007697408151814130510509F4C7C12F5F12
:103440003F4F3093C5022093C4028091E2029091D5
:10345000E302A091E402B091E5028093C60290934A
:10346000C702A093C802B093C902E0913D04F09155
:103470003E04E859FF4F8081918161E0039709F094
:1034800060E08FE00E94F401E0913D04F0913E0481
:10349000E859FF4F80819181019729F460911201D1
:1034A0008FE00E94F401E0913D04F0913E04C09051
:1034B000E202D090E302E090E402F090E502DF0146
:1034C000AA58BF4F8D919C91892B71F444A155A1AD
:1034D0004115510549F0CF0188599F4FDC018D916D
:1034E0009C91039709F497C1C092C002D092C10287
:1034F000E092C202F092C30280913D0490913E049A
:103500004091E2025091E3026091E4027091E50281
:103510000091BC021091BD022091BE023091BF0209
:10352000401B510B620B730BFC0100A111A1012E7A
:10353000000C220B330B041715072607370708F07A
:103540004DC0E05AFF4F408151814115510509F0AE
:103550002FC388599F4FDC010D911C918091AD02C2
:103560009091AE028017910771F040E061E08BE42A
:1035700094E00E947C068BE39FE10197F1F71093A2
:10358000AE020093AD020115110509F063C160E0C0
:1035900080E00E94930685E991E00E94880561E041
:1035A00080E00E94930685E991E00E9488051092D0
:1035B000560460E08BE494E00E94E0048091E20213
:1035C0009091E302A091E402B091E5028093BC02E5
:1035D0009093BD02A093BE02B093BF0280913D04C0
:1035E00090913E044091E2025091E3026091E40226
:1035F0007091E502FC01EA59FF4F20813181215091
:1036000031092230310508F421C34093B8025093A8
:10361000B9026093BA027093BB0280913D0490910D
:103620003E04FC01E859FF4F20813181B90164500B
:103630007109C090E202D090E302E090E402F090C1
:10364000E5026230710518F02230310541F4B9EB22
:10365000CB16BBE0DB06E104F10408F028C3C092FE
:10366000B402D092B502E092B602F092B702C090D6
:10367000E202D090E302E090E402F090E502809153
:103680003D0490913E044091B0025091B10260918E
:10369000B2027091B30246015701841A950AA60A34
:1036A000B70ADC019A962D913C91032E000C440B35
:1036B000550B281539054A055B0508F096C4FC0131
:1036C000EA56FF4F40815181FE97208131812417B6
:1036D00035070CF017C3B1E1CB16B7E2DB06E10406
:1036E000F10408F40FC33296208131812B35310566
:1036F0000CF408C341E050E068E370E00E947B07EF
:1037000080913D0490913E04FC0144A555A567E3DA
:1037100070E00E947B0750E040E069E370E0809138
:103720003D0490913E040E947B07CAC32AE082E6D2
:1037300093E00E94130503CCFC01E856FF4F8E5A1C
:103740009F4F20813181DC018D919C912817390791
:10375000ECF460E088E00E94F40148EE53E060E0A1
:1037600070E087EA90E00E94B30721E02093DD0239
:10377000AACC4C505E4F6F4F7F4F40935C035093E9
:103780005D0360935E0370935F0363CC8091DD0201
:103790008111DFCF61E088E00E94F40140E050E059
:1037A000BA0187EA90E00E94B30710925C0310927E
:1037B0005D0310925E0310925F0385CC445F5F4F00
:1037C00085CD1092AA021092A902F5CD50E040E0FA
:1037D00069E270E00E947B071092DD021092C50240
:1037E0001092C40280913D0490913E04FC01EC577C
:1037F000FF4F208131812130310509F026CE50E084
:1038000040E062E470E00E947B071FCE1092C50288
:103810001092C4021ACE28EE33E0DA010E94FF248F
:103820000091C0021091C1022091C2023091C302E6
:10383000C01AD10AE20AF30A6C157D058E059F05B0
:1038400008F05ACE44E050E064E370E0CF010E94FB
:103850007B0752CE0130110509F04BC00E94F204E3
:1038600060E080E00E94930686EA91E00E9488056D
:1038700061E080E00E9493068EE991E00E94880555
:103880008091AB029091AC0201969093AC02809330
:10389000AB0206978CF0E0913D04F0913E04E659AE
:1038A000FF4F80819181813591058CF084E090E01B
:1038B0009093AC028093AB026091AB028BE494E0F6
:1038C0000E94C6068BE991E00E94880577CE80357C
:1038D000910591F38C3391050CF489C583E090E058
:1038E000E7CF82E090E0E4CF1093AC020093AB020C
:1038F000E3CF0230110589F40E94F20460E080E019
:103900000E94930687EB91E00E94880561E080E0C9
:103910000E94930688EC91E0D7CF0330110509F09F
:103920001EC10E94F20480913D0490913E04FC016E
:10393000EC59FF4F20813181283E334034F448EE6A
:1039400053E062E370E00E947B0760E080E00E9449
:10395000930689ED91E00E94880561E080E00E9475
:103960009306E0913B04F0913C04EB57FF4F20E0BD
:1039700030E0A90160817181828193810E94C2241B
:1039800018160CF06DC08AEE91E00E948805E09157
:103990003B04F0913C04EB57FF4F608171818281C1
:1039A00093810E948C248BE494E00E948D0582EA2E
:1039B00091E00E94880561E08EE00E949306E0910C
:1039C0003D04F0913E04E059FF4F808191810297C0
:1039D00009F049C066E08BE494E00E94C60661E00D
:1039E0008FE00E94930680913D0490913E04FC017B
:1039F000E65AFF4F2081318167E0243631050CF40F
:103A0000A9C0FC01EE58FF4FE080F180E1E0EE1626
:103A1000F10409F040C00091AB021091AC02602F9C
:103A20008BE494E00E94C6060F5F1F4F1093AC0218
:103A30000093AB02063011050CF4C0CDE0913D04BB
:103A4000F0913E04E659FF4F8081918181359105C7
:103A50007CF084E090E09093AC028093AB02AECD1A
:103A600082EF91E0A6CF84EA91E00E948805B7CF6B
:103A70008035910509F4A2CD8C3391050CF4C3C4B3
:103A800083E090E0E8CF82E090E0E5CFF092AC02F6
:103A9000E092AB0293CD86599F4FDC018D919C91B2
:103AA000803591052CF065E08BE494E00E94C60619
:103AB000E0913D04F0913E04E659FF4F80819181F1
:103AC000CC97449728F464E08BE494E00E94C60607
:103AD000E0913D04F0913E04E659FF4F80819181D1
:103AE0008D970F9728F463E08BE494E00E94C6065C
:103AF000E0913D04F0913E04E659FF4F80819181B1
:103B000083970A9728F462E08BE494E00E94C6064B
:103B1000E0913D04F0913E04E659FF4F8081918190
:103B200049970A9728F461E08BE494E00E94C60666
:103B3000E0913D04F0913E04E659FF4F8081918170
:103B4000499724F480911201811103C084EA91E025
:103B5000BBCE60E08BE494E00E94C6062FCD04301B
:103B6000110589F40E94F20460E080E00E9493064F
:103B700080E092E00E94880561E080E00E94930668
:103B800081E192E0A1CE0530110509F017CD0E9428
:103B9000F20460E080E00E94930682E292E00E94DC
:103BA000880561E080E00E94930687EB91E08CCE6F
:103BB0004150510962E370E00E947B0760E080E0C1
:103BC0000E94930683E392E00E948805E0913D0401
:103BD000F0913E04EE59FF4F80819181019799F554
:103BE0008AE392E00E94880561E080E00E949306EB
:103BF00080E592E00E948805E0913D04F0913E044A
:103C0000EC59FF4F608171818BE494E00E948D0537
:103C10008FEE91E00E94880580913D0490913E04D2
:103C2000FC01EC59FF4F20813181220F331F820F9D
:103C3000931FFC01608171818BE494E00E948D05EB
:103C40008DE991E041CE85E492E0CCCF0091B802BD
:103C50001091B9022091BA023091BB02401B510B66
:103C6000620B730BDC0190960D911C91012E000CE0
:103C7000220B330B041715072607370708F0CDCCA6
:103C800050E040E063E370E00E947B078091E20235
:103C90009091E302A091E402B091E5028093B80212
:103CA0009093B902A093BA02B093BB02B6CC4091F4
:103CB000B4025091B5026091B6027091B702C41A75
:103CC000D50AE60AF70AFC0102A113A1012E000C95
:103CD000220B330B0C151D052E053F0508F0C7CC34
:103CE00050E040E064E370E00E947B07E0913B0419
:103CF000F0913C04E757FF4F108260E087E00E949C
:103D0000F401B5CC42E050E068E370E00E947B072C
:103D100080913D0490913E04FC01E259FF4F4081A7
:103D20005181DC019E962D913C919F97421753073C
:103D30005CF498962D913C912456310976976081D8
:103D400071816217730794F014161506ACF4FC0128
:103D500020A531A52C593F4FE85AFF4F6081718152
:103D6000261737074CF44150510902C04F5F5F4F8F
:103D700067E370E00E947B07E0913D04F0913E0410
:103D8000E259FF4F0081118161E083E00E9422022D
:103D90000115110599F560E083E00E94F40180911E
:103DA0003D0490913E04FC01E259FF4FDC019E96D8
:103DB0004D915C91208131814217530751F47E96D9
:103DC00040815181F49720813181241735070CF40B
:103DD0005CC02091AF02211158C0FC01E457FF4F95
:103DE00040815181F49720813181241735070CF4EB
:103DF00067C041E050E069E370E095CC0F3F1105EA
:103E000011F461E0C9CFE1EBF0E0E491E33019F1A6
:103E100040F4E130B1F0E230C9F0003811058CF720
:103E2000BACFE73011F1E83041F1E430B1F78091D9
:103E3000800080628093800010938B0000938A0042
:103E4000AECF84B5806884BD07BDA9CF84B580623C
:103E500084BD08BDA4CF80918000806880938000DD
:103E600010938900009388009ACF8091B0008068F9
:103E70008093B0000093B30092CF8091B000806235
:103E80008093B0000093B4008ACF43E050E069E330
:103E900070E00E947B0780913D0490913E04FC01FC
:103EA000E457FF4F885A9F4F20813181FC01808168
:103EB0009181821793070CF0EBC1F1E0F093AF0210
:103EC00000913D0410913E04F801E057FF4F01902E
:103ED000F081E02DD801A257BF4FCD90DC90119713
:103EE0000D2C000CEE08FF08D4972D913C91032E69
:103EF000000C440B550B2C193D094E095F09A4E633
:103F0000B0E00E949F23D801A059BF4F2D913C9152
:103F100011972130310509F0CAC152972D913C917A
:103F200011972115310509F0BFC1D4962D913C910F
:103F3000AF01421B530B9A01032E000C440B550B8F
:103F40002C193D094E095F090E948023A9012536DD
:103F5000310514F044E650E057FF02C050E040E065
:103F6000F801E859FF4F808191818130910509F076
:103F700092C1329680819181481759070CF08EC109
:103F800080913D0490913E04FC01E859FF4F20814F
:103F9000318123303105C9F43296208131812530B9
:103FA00031059CF44091E2025091E3026091E402F9
:103FB0007091E502413157426105710530F045E0ED
:103FC00050E064E370E00E947B078091E2029091F0
:103FD000E302A091E402B091E5028093B0029093D5
:103FE000B102A093B202B093B302C090E202D090AB
:103FF000E302E090E402F090E5028091D902909112
:10400000DA02A091DB02B091DC02C81AD90AEA0AEE
:10401000FB0A84E00E94CB01892B09F0E5C1809165
:10402000D80281116FC0B9ECCB16D104E104F104C0
:10403000D8F180913D0490913E04FC01428953895E
:10404000052E000C660B770B4C155D056E057F0584
:1040500058F1A60168E270E00E947B0700913D04E0
:1040600010913E04F801A089B189A70196010E9430
:10407000AA239B01AC0160E87DE88BE590E00E94FB
:104080008023A90169E270E0C8010E947B070E94B9
:10409000D0026093D9027093DA028093DB0290938E
:1040A000DC02F1E0F093D80280913D0490913E044F
:1040B000DC0152964D915C91052E000C660B770B3E
:1040C0004C155D056E057F05E8F550E040E068E2BF
:1040D00070E00E947B0750E040E069E270E0809170
:1040E0003D0490913E040E947B070E94D0026093A1
:1040F000D9027093DA028093DB029093DC02B1E084
:10410000B093D80280913D0490913E04FC01428915
:104110005389052E000C660B770B4C155D056E055B
:104120007F0580F450E040E068E270E00E947B0789
:1041300050E040E069E270E080913D0490913E04DF
:104140000E947B0780913D0490913E04FC01E05B5E
:10415000FF4F20813181232B39F43E96208131811C
:1041600050E040E0232B11F041E050E06BE370E0C1
:104170000E947B07809131049091320420910B04BE
:10418000F1E0F0933403209356031092350310921C
:1041900057030E94DB040E94750380910B049091E9
:1041A0000C040E9497059091E6028091E70298170F
:1041B000F1F38FEF93E00E946C04E0903D04F090E7
:1041C0003E044FEF5FEF85FF4EC080913704909122
:1041D0003804C0903504D090360420910B0431E0AF
:1041E00030933403209356031092350310925703F3
:1041F0000E94DB040E94750380910B0490910C04D3
:104200000E9497059091E6028091E7029817F1F3DA
:104210008FEF93E00E946C048C0180910B0441E0CD
:104220004093340380935603109235031092570342
:10423000C6010E94DB040E94750380910B049091DB
:104240000C040E9497059091E6028091E70298176E
:10425000F1F38FEF93E00E946C048C8B1B8A4B89E7
:104260005C89402B512B64E470E0C7010E947B07FE
:1042700080E090E0892B11F40C942D0F0E94FF0038
:10428000882311F40C942D0F0E9400000C942D0F24
:104290001092AF0215CE02970CF472CE65E370E077
:1042A000C8010E947B076CCE12161306C4F09F0152
:1042B000FF0F440B550B2C193D094E095F090E9455
:1042C0008023A9012536310514F044E650E057FF5C
:1042D00002C050E040E065E370E0C80174CED80150
:1042E000AC56BF4F2D913C91AF01421B530B9A012D
:1042F000032E000C440B550B2C193D094E095F0988
:104300000E948023A9012536310514F044E650E0CF
:1043100057FF02C050E040E0F801E859FF4F8081AC
:1043200091818130910509F04EC032968081918152
:10433000481759070CF04AC080913D0490913E0403
:10434000FC01E859FF4F208131812330310531F4E0
:1043500032962081318125303105F4F150E040E082
:1043600060E470E00E947B0780913D0490913E04E0
:10437000DC01A256BF4FFC01E058FF4F4D915C910C
:10438000208131814217530709F01FCE4091E2028C
:104390005091E3026091E4027091E502413157428D
:1043A0006105710508F411CE45E050E064E370E06A
:1043B0000E947B0750E040E060E470E080913D04A3
:1043C00090913E0400CE02970CF4B6CF65E370E006
:1043D000C8010E947B07B0CFFC01E058FF4F40812D
:1043E00051814F5F5F4FBCCF1092D8028BCE8D3280
:1043F00091050CF076CA83970CF076CA1092AC0245
:104400001092AB0259CA8D3291050CF03CCB8397C8
:104410000CF03CCB1092AC021092AB02CFC81F93B1
:10442000FC0199278827BC01E89411911032E9F327
:10443000193010F01E30C8F31B3251F01D3249F410
:10444000689406C00E943622610F711D811D911D66
:10445000119110531A30B0F33EF4909580957095F9
:1044600061957F4F8F4F9F4F1F910895592F482F70
:10447000372F262F660F771F881F991F660F771F0C
:10448000881F991F620F731F841F951F660F771F68
:10449000881F991F0895E89409C097FB3EF49095F2
:1044A0008095709561957F4F8F4F9F4F9923A9F00D
:1044B000F92F96E9BB279395F6958795779567959C
:1044C000B795F111F8CFFAF4BB0F11F460FF1BC0E0
:1044D0006F5F7F4F8F4F9F4F16C0882311F096E973
:1044E00011C0772321F09EE8872F762F05C0662321
:1044F00071F096E8862F70E060E02AF09A95660FDA
:10450000771F881FDAF7880F9695879597F9089592
:10451000990F0008550FAA0BE0E8FEEF16161706D4
:10452000E807F907C0F012161306E407F50798F03C
:10453000621B730B840B950B39F40A2661F0232B55
:10454000242B252B21F408950A2609F4A140A695D1
:104550008FEF811D811D08950E94BF220C9430238E
:104560000E94222338F00E94292320F0952311F085
:104570000C9419230C941F2311240C9464230E947F
:10458000412370F3959FC1F3950F50E0551F629F33
:10459000F001729FBB27F00DB11D639FAA27F00D9C
:1045A000B11DAA1F649F6627B00DA11D661F829FC3
:1045B0002227B00DA11D621F739FB00DA11D621FA8
:1045C000839FA00D611D221F749F3327A00D611DC5
:1045D000231F849F600D211D822F762F6A2F1124A7
:1045E0009F5750409AF0F1F088234AF0EE0FFF1FDA
:1045F000BB1F661F771F881F91505040A9F79E3F31
:10460000510580F00C9419230C9464235F3FE4F36C
:10461000983ED4F3869577956795B795F795E79586
:104620009F5FC1F7FE2B880F911D9695879597F98F
:10463000089597F99F6780E870E060E008959FEF24
:1046400080EC089500240A94161617061806090629
:10465000089500240A9412161306140605060895F8
:10466000092E0394000C11F4882352F0BB0F40F480
:10467000BF2B11F460FF04C06F5F7F4F8F4F9F4FC0
:10468000089557FD9058440F551F59F05F3F71F042
:104690004795880F97FB991F61F09F3F79F08795A9
:1046A0000895121613061406551FF2CF4695F1DF32
:1046B00008C0161617061806991FF1CF86957105C2
:1046C000610508940895E894BB2766277727CB01F6
:1046D00097F90895F999FECF92BD81BDF89A99276F
:1046E00080B50895262FF999FECF1FBA92BD81BDDE
:1046F00020BD0FB6F894FA9AF99A0FBE0196089564
:10470000052E97FB1EF400940E94972357FD07D0B7
:104710000E94E92307FC03D04EF40C949723509594
:104720004095309521953F4F4F4F5F4F089590959D
:104730008095709561957F4F8F4F9F4F08950E9490
:104740000B24A59F900DB49F900DA49F800D911DEB
:1047500011240895B7FF0C949F230E949F23821B6E
:10476000930B08952F923F924F925F926F927F9298
:104770008F929F92AF92BF92CF92DF92EF92FF9271
:104780000F931F93CF93DF93CDB7DEB7CA1BDB0B1D
:104790000FB6F894DEBF0FBECDBF09942A883988C2
:1047A00048885F846E847D848C849B84AA84B984C9
:1047B000C884DF80EE80FD800C811B81AA81B981D5
:1047C000CE0FD11D0FB6F894DEBF0FBECDBFED01E9
:1047D0000895A1E21A2EAA1BBB1BFD010DC0AA1F42
:1047E000BB1FEE1FFF1FA217B307E407F50720F05A
:1047F000A21BB30BE40BF50B661F771F881F991FD5
:104800001A9469F760957095809590959B01AC011D
:10481000BD01CF010895A29FB001B39FC001A39F26
:10482000700D811D1124911DB29F700D811D1124E9
:10483000911D08950E942E240C9430230E94292358
:1048400058F00E94222340F029F45F3F29F00C9495
:10485000192351110C9464230C941F230E944123AB
:1048600068F39923B1F3552391F3951B550BBB279F
:10487000AA2762177307840738F09F5F5F4F220FE4
:10488000331F441FAA1FA9F335D00E2E3AF0E0E8DB
:1048900032D091505040E695001CCAF72BD0FE2F25
:1048A00029D0660F771F881FBB1F261737074807B9
:1048B000AB07B0E809F0BB0B802DBF01FF27935871
:1048C0005F4F3AF09E3F510578F00C9419230C94F9
:1048D00064235F3FE4F3983ED4F38695779567951C
:1048E000B795F7959F5FC9F7880F911D96958795A6
:1048F00097F90895E1E0660F771F881FBB1F6217C5
:1049000073078407BA0720F0621B730B840BBA0B82
:10491000EE1F88F7E09508950E9493246894B111E2
:104920000C94642308950E94492388F09F5798F0BF
:10493000B92F9927B751B0F0E1F0660F771F881FA4
:10494000991F1AF0BA95C9F714C0B13091F00E94BE
:104950006323B1E008950C946323672F782F882791
:10496000B85F39F0B93FCCF3869577956795B395E5
:10497000D9F73EF490958095709561957F4F8F4F54
:104980009F4F08950E94882208F48FEF0895DB015D
:104990008F939F930E949F23BF91AF91A29F800D01
:1049A000911DA39F900DB29F900D11240895AA1BF5
:1049B000BB1B51E107C0AA1FBB1FA617B70710F00A
:1049C000A61BB70B881F991F5A95A9F7809590953C
:1049D000BC01CD01089597FB072E16F4009407D073
:1049E00077FD09D00E94D72407FC05D03EF49095AE
:1049F00081959F4F0895709561957F4F08950E940E
:104A00000B24B7FF0895821B930B0895EE0FFF1F31
:104A10000590F491E02D09940F931F93CF93DF93AA
:104A20008230910510F482E090E0E0915904F09119
:104A30005A0430E020E0B0E0A0E0309799F421156E
:104A4000310509F44AC0281B390B24303105D8F54B
:104A50008A819B816115710589F1FB0193838283B2
:104A6000FE0111C04081518102811381481759070D
:104A7000E0F04817590799F4109761F012960C93DB
:104A8000129713961C933296CF01DF91CF911F910D
:104A90000F9108950093590410935A04F4CF2115EF
:104AA000310551F04217530738F0A901DB019A0193
:104AB000BD01DF01F801C1CFEF01F9CF90935A0496
:104AC00080935904CDCFFE01E20FF31F81939193A0
:104AD0002250310939832883D7CF20915704309150
:104AE0005804232B41F42091560130915701309303
:104AF00058042093570420915401309155012115F9
:104B0000310541F42DB73EB74091580150915901FC
:104B1000241B350BE0915704F0915804E217F3077A
:104B2000A0F42E1B3F0B2817390778F0AC014E5F1D
:104B30005F4F2417350748F04E0F5F1F50935804FE
:104B400040935704819391939FCFF0E0E0E09CCF96
:104B5000CF93DF930097E9F0FC0132971382128222
:104B6000A0915904B0915A04ED0130E020E0109773
:104B7000A1F420813181820F931F2091570430913D
:104B800058042817390709F061C0F0935804E093DE
:104B90005704DF91CF910895EA01CE17DF07E8F5BA
:104BA0004A815B819E0141155105B1F7E901FB8303
:104BB000EA8349915991C40FD51FEC17FD0761F4A1
:104BC000808191810296840F951FE90199838883E2
:104BD000828193819B838A83F0E0E0E012968D913D
:104BE0009C9113970097B9F52D913C911197CD01A8
:104BF0000296820F931F2091570430915804281772
:104C0000390739F6309751F510925A041092590429
:104C1000B0935804A0935704BCCFD383C283408180
:104C20005181840F951FC817D90761F44E5F5F4FFC
:104C300088819981480F591F518340838A819B81C4
:104C4000938382832115310509F0B0CFF0935A0484
:104C5000E09359049ECFFD01DC01C0CF1382128284
:104C6000D7CFB0E0A0E0E7E3F6E20C94B4238C01E8
:104C7000009751F4CB010E940C258C01C801CDB7DF
:104C8000DEB7E0E10C94D023FC01E60FF71F9C0196
:104C900022503109E217F30708F49DC0D901CD91E4
:104CA000DC911197C617D70798F0C530D10530F3BE
:104CB000CE0104978617970708F3C61BD70B2297D8
:104CC000C193D1936D937C93CF010E94A825D6CF39
:104CD0005B01AC1ABD0A4C018C0E9D1EA0915904BB
:104CE000B0915A04512C412CF12CE12C109731F544
:104CF00080915704909158048815990509F05CC07B
:104D00004616570608F058C08091540190915501FD
:104D1000009741F48DB79EB74091580150915901C9
:104D2000841B950BE817F90708F055C0F093580459
:104D3000E0935704F90171836083A0CF8D919C911A
:104D4000119712966C90129713967C901397A81552
:104D5000B90559F56C0142E0C40ED11CCA14DB043C
:104D600020F1AC014A195B09DA011296159780F01F
:104D70006282738251834083D9016D937C93E114E5
:104D8000F10471F0D7011396FC93EE93129776CF4E
:104D900022968C0F9D1FF90191838083F301EFCF41
:104DA000F0935A04E093590469CF4816590608F461
:104DB0002C017D01D3019ACFCB010E940C257C01EF
:104DC000009749F0AE01B8010E94EE26C8010E948A
:104DD000A825870153CF10E000E050CFFB01DC0194
:104DE00002C001900D9241505040D8F70895FB0148
:104DF000DC0101900D920020E1F70895F894FFCFB7
:104E00000176332E302E33004D757369636F6E005B
:104E1000E703010E1B111B151B111F0A0A1F1F1F81
:104E20000E04040E1F1F1F1F1F1F1F0E1B111F1F0D
:104E30001F1F1F0E1B11111F1F1F1F0E1B111111F2
:104E40001F1F1F0E1B111111111F1F0E1B111111FE
:104E500011111F0100005B048000000040001400DD
:104E600054000000000035019500C2008201F300EB
:104E7000D100E50000000000AC047F04FA045C04EB
:104E80008C006C045D0400000000C6069500FA0466
:104E90000E030D0A0020202020202020202020208A
:104EA000202020202000424154544552592043489C
:104EB000415247494E47002042204120542054206F
:104EC00045205220592020002049205320202046F0
:104ED0002055204C204C202000204D2055205320D0
:104EE000492043204F204E20200054656D706F3ABA
:104EF0002000202020202053544F5020202020002C
:104F00002020202047204F204F20442020202020F8
:104F10000020202020204220592045202020202031
:104F2000200020202020204C204F2057202020200F
:104F3000202000504152414D20002D20454449542D
:104F40003A202020002D20524541443A20202000C4
:044F5000505F0000AE
:00000001FF
