:100000000C9462000C948A000C948A000C948A0070
:100010000C948A000C948A000C948A000C948A0038
:100020000C948A000C948A000C948A000C948A0028
:100030000C948A000C948A000C948A000C948A0018
:100040000C9440070C948A000C940E070C94E8065C
:100050000C948A000C948A000C948A000C948A00F8
:100060000C948A070C948A000000000025002800E8
:100070002B000000000023002600290000000000E3
:10008000240027002A0001020408102040800102F9
:1000900004081020010204081020040404040404CD
:1000A000040402020202020203030303030300002A
:1000B0000008000201000003040700000000000027
:1000C0000000DF0811241FBECFEFD8E0DEBFCDBF98
:1000D00012E0A0E0B1E0E2EEF8E402C005900D927B
:1000E000A435B107D9F724E0A4E5B2E001C01D9220
:1000F000A532B207E1F710E0C2E6D0E004C02197D4
:10010000FE010E947722C136D107C9F70E94590B20
:100110000C946F240C9400002091510381E0213253
:1001200008F044C080912D038111FCCF80915003D1
:1001300092E090932D0391E090932C039FEF909386
:100140002B0310922A0320932903A0E3B3E0E9E0F4
:10015000F3E090E0291331C0109208039091080356
:10016000880F892B8093080380910703813049F51C
:1001700010920703809108038093BB008091BC001C
:1001800083FDF8CF85EC8093BC0080912D038230F5
:10019000E1F380912B038F3FB1F080912B038032EC
:1001A000A1F080912B03803391F084E010922F0313
:1001B0001092510310922E0308953D9131939F5F49
:1001C000C9CF85EEE0CF80E0F1CF82E0EFCF83E0D2
:1001D000EDCF08950895AF92BF92CF92DF92EF9244
:1001E000FF920F931F93CF93DF936C017B018B01E1
:1001F000040F151FEB015E01AE18BF08C017D10731
:1002000059F06991D601ED91FC910190F081E02DBA
:10021000C6010995892B79F7C501DF91CF911F910F
:100220000F91FF90EF90DF90CF90BF90AF90089527
:10023000FC01538D448D252F30E0842F90E0821BEC
:10024000930B541710F0CF96089501970895FC0171
:10025000918D828D981761F0A28DAE0FBF2FB11DC9
:100260005D968C91928D9F5F9F73928F90E0089521
:100270008FEF9FEF0895FC01918D828D981731F0DB
:10028000828DE80FF11D858D90E008958FEF9FEF2F
:100290000895FC01918D228D892F90E0805C9F4F05
:1002A000821B91098F73992708958CE593E00E9432
:1002B000490121E0892B09F420E0822F089580E094
:1002C00090E0892B29F00E94550181110C940000C7
:1002D0000895FC01A48DA80FB92FB11DA35ABF4FDB
:1002E0002C91848D90E001968F739927848FA68935
:1002F000B7892C93A089B1898C91837080648C9389
:10030000938D848D981306C00288F389E02D808137
:100310008F7D80830895EF92FF920F931F93CF9369
:10032000DF93EC0181E0888F9B8D8C8D98131AC030
:10033000E889F989808185FF15C09FB7F894EE8917
:10034000FF896083E889F989808183708064808374
:100350009FBF81E090E0DF91CF911F910F91FF90BF
:10036000EF900895F62E0B8D10E00F5F1F4F0F7367
:100370001127E02E8C8D8E110CC00FB607FCFACF22
:10038000E889F989808185FFF5CFCE010E94690156
:10039000F1CFEB8DEC0FFD2FF11DE35AFF4FF082F3
:1003A0009FB7F8940B8FEA89FB8980818062CFCF59
:1003B000CF93DF93EC01888D8823B9F0AA89BB899C
:1003C000E889F9898C9185FD03C0808186FD0DC087
:1003D0000FB607FCF7CF8C9185FFF2CF808185FFA8
:1003E000EDCFCE010E946901E9CFDF91CF91089551
:1003F000833081F028F4813099F08230A9F008959B
:100400008730A9F08830C9F08430B1F48091800041
:100410008F7D03C0809180008F7780938000089546
:1004200084B58F7784BD089584B58F7DFBCF80918F
:10043000B0008F778093B00008958091B0008F7DD9
:10044000F9CFCF93DF93282F30E0F901E255FF4F2A
:100450008491F901EA57FF4FD491F901E656FF4F15
:10046000C491CC23A1F081110E94F801EC2FF0E09F
:10047000EE0FFF1FEE58FF4FA591B491EC91ED23C5
:1004800081E090E009F480E0DF91CF91089580E071
:1004900090E0FACF1F93CF93DF93282F30E0F9013C
:1004A000E255FF4F8491F901EA57FF4FD491F901CA
:1004B000E656FF4FC491CC23A9F0162F81110E945C
:1004C000F801EC2FF0E0EE0FFF1FE859FF4FA59168
:1004D000B4918FB7F894EC91111108C0D095DE2338
:1004E000DC938FBFDF91CF911F910895DE2BF8CF62
:1004F000CF93DF9390E0FC01EA57FF4F249186569B
:100500009F4FFC0184918823C9F090E0880F991FC8
:10051000FC01E458FF4FA591B491FC01E859FF4F4D
:10052000C591D49161110DC09FB7F8948C9120951D
:1005300082238C938881282328839FBFDF91CF91CA
:100540000895623051F49FB7F8943C91822F8095C2
:1005500083238C93E8812E2BEFCF8FB7F894EC9107
:100560002E2B2C938FBFEACF8E3008F08E50209127
:10057000000190E4299F900111248770822B8093C1
:100580007C0080917A00806480937A0080917A0068
:1005900086FDFCCF809178009091790008953FB757
:1005A000F8948091BC029091BD02A091BE02B091DE
:1005B000BF0226B5A89B05C02F3F19F00196A11DCB
:1005C000B11D3FBFBA2FA92F982F8827BC01CD019D
:1005D000620F711D811D911D42E0660F771F881FFC
:1005E000991F4A95D1F708958F929F92AF92BF922B
:1005F000CF92DF92EF92FF924B015C010E94CF02FB
:100600006B017C010E94CF026C197D098E099F0944
:10061000683E734081059105A8F321E0821A910894
:10062000A108B10888EEC80E83E0D81EE11CF11CB9
:1006300081149104A104B10429F7FF90EF90DF9099
:10064000CF90BF90AF909F908F9008952FB7F89460
:100650006091B8027091B9028091BA029091BB0288
:100660002FBF08950F931F930E9426036093640386
:100670007093650380936603909367038CE593E022
:100680000E94270197FF1DC00E942603009164036A
:10069000109165032091660330916703601B710B15
:1006A000820B930B00916003109161032091620310
:1006B000309163036017710782079307F8F28FEF99
:1006C0009FEF1F910F910895089585ED8093BC00D1
:1006D0008091BC0084FDFCCF10922D0308952091E1
:1006E0009402260F3327331F21323105ECF4209179
:1006F0002D03FC0190E080E0243069F082E0089551
:10070000A09194022191AC014C585D4FA40FB52FDC
:10071000B11D2C930196861798F380919402680F6F
:100720006093940280E0089581E0089510922D0373
:1007300081E080932C031092070361E082E10E9424
:100740004A0261E083E10E944A02E9EBF0E0808125
:100750008E7F808380818D7F808388E48093B80042
:1007600085E48093BC0008950895E091C6028091CD
:10077000C502E81730F4F0E0EC5AFD4F808190E0BC
:1007800008958FEF9FEF08959091C6028091C50262
:100790002FEF3FEF981748F4E92FF0E0EC5AFD4FA8
:1007A000208130E09F5F9093C602C9010895809137
:1007B000C5029091C602891B990B0895CF92DF92D2
:1007C000EF92FF920F931F93CF93DF937C01CB01A6
:1007D0008A0120912E03222389F0EB016B01C40EC4
:1007E000D51ECC15DD0569F06991D701ED91FC911D
:1007F0000190F081E02DC7010995F3CF642F0E948D
:100800006F03C801DF91CF911F910F91FF90EF907F
:10081000DF90CF900895CF93DF931F92CDB7DEB7CF
:10082000698320912E032223F9F020915103203275
:1008300058F021E030E0FC013383228390E080E037
:100840000F90DF91CF91089580912F03E82FF0E072
:10085000E05DFC4F998190838F5F80932F0380939D
:10086000510381E090E0ECCF61E0CE0101960E945F
:100870006F03F7CFFC01248131E030932E032093E6
:10088000500310922F03109251038385682B89EF38
:1008900093E00E940B040C948C0088E08093200469
:1008A00060E085E194E00C943A0490E080E00895E3
:1008B0008EBD00000DB407FEFDCF8EB50895FB017F
:1008C00001900020E9F73197AF01461B570BDC017F
:1008D000ED91FC910280F381E02D09948F929F921B
:1008E000AF92BF92EF92FF920F931F93CF93DF933C
:1008F000CDB7DEB7A1970FB6F894DEBF0FBECDBF60
:100900007C01FA01CB0119A2223008F42AE08E0101
:100910000F5D1F4F822E912CB12CA12CBF01A50180
:1009200094010E945A21F901CA016A300CF5605DF8
:10093000D8016E938D01232B242B252B79F790E082
:1009400080E0109721F0BD01C7010E945F04A196CD
:100950000FB6F894DEBF0FBECDBFDF91CF911F91D0
:100960000F91FF90EF90BF90AF909F908F90089560
:10097000695CDECFCF92DF92EF92FF920F931F93CD
:10098000CF93DF93EC016A017B01E881F98101904B
:10099000F081E02D6DE209958C0144275527BA01BD
:1009A0004C195D096E097F092AE0CE010E946E0490
:1009B000800F911FDF91CF911F910F91FF90EF90CA
:1009C000DF90CF900895BC0185E194E00C945F0422
:1009D000AB01770F660B770B77FD0C94BA042AE016
:1009E0000C946E040F931F93CF938C01C62F0E941B
:1009F0003A046C2F6460C8010E943A046C2F6B7F2C
:100A0000C8010E943A0483EC90E00197F1F7CF917E
:100A10001F910F9108950F931F93CF93DF938C0134
:100A2000D62FC42F607F642B0E94F20480E1D89FF0
:100A3000B00111246C2BC801DF91CF911F910F9150
:100A40000C94F204CF93DF93CDB7DEB728970FB69F
:100A5000F894DEBF0FBECDBF98E0EAE5F1E0DE011D
:100A6000119601900D929A95E1F790911E049617B8
:100A700008F46FEF262F30E0220F331F41E050E0E3
:100A80004C0F5D1F240F351FF9016081680F6068EE
:100A900040E085E194E028960FB6F894DEBF0FBEE3
:100AA000CDBFDF91CF910C940B0541E00E940B0567
:100AB00081E090E008950F931F93CF93DF938B0114
:100AC00098E0899FB0011124606440E085E194E0E2
:100AD0000E940B05E801085F1F4F699185E194E0D2
:100AE0000E945505C017D107C1F7DF91CF911F9123
:100AF0000F9108950F931F93CF93DF93EC0188819B
:100B00009981009759F02A813B812617370730F0E9
:100B100081E0DF91CF911F910F9108958B016F5F5D
:100B20007F4F0E94A223009759F0998388831B83EB
:100B30000A832C813D81232B59F7FC011082E8CFD9
:100B400080E0E7CFCF92DF92EF92FF920F931F9357
:100B5000CF93DF9300D0CDB7DEB78C01C62EFC015A
:100B600011821082138212821582148270E060E07A
:100B70000E947A05F80120813181811137C0211549
:100B8000310519F0C9010E941923F8011182108260
:100B900015821482138212820E9432030C2C000CE4
:100BA000DD0897FD2BC08C159D0541F189831A82C4
:100BB000F801E480F580FFEFEF1AFF0AB701C801E2
:100BC0000E947A05882379F0F8012081318184819F
:100BD0009581BE016F5F7F4F820F931F0E94682433
:100BE000F801F582E4820E943203DBCF1582148281
:100BF00064E971E0C9010E946824CECFC8010F905A
:100C00000F90DF91CF911F910F91FF90EF90DF90A8
:100C1000CF900895DF92EF92FF920F931F93CF939F
:100C2000DF93EC017A01CB014A978B01000F111F72
:100C30008C9760F4C00FD11FF982E882DF91CF91C9
:100C40001F910F91FF90EF90DF900895D42E60E0F8
:100C50004F3F510539F034F0CA016FEF70E00E9448
:100C60005C22D82EC80101960E94E3206D2DC80198
:100C700002960E94E32061E0C8018B599F4F0E94B9
:100C8000E320D8CF9F92AF92BF92CF92DF92EF92A4
:100C9000FF920F931F93CF93DF93182F092FB42E3A
:100CA000A52E962EF72E60E08AE00E944A02C3E24B
:100CB000D0E0CE010197F1F7812F0E9458048F2DCB
:100CC0000E945804C12CD12C7601C82AFE2CED2C90
:100CD000DC2CCC24892D0E945804C82AFE2CED2C33
:100CE000DC2CCC248A2D0E945804C82AFE2CED2C22
:100CF000DC2CCC248B2D0E945804C82A2197F1F7B4
:100D000061E08AE00E944A0280915A0390915B035D
:100D10008F369105D1F58091560390915703A0919C
:100D20005803B0915903892B8A2B8B2B19F1809191
:100D3000070490910804A601537050935503409303
:100D400054036CE370E00E940A06809107049091BE
:100D50000804FC01E258FF4F208131814091540387
:100D600050915503241735070CF4A9016FE370E087
:100D70000E940A06A7014F7155276DE370E080912C
:100D80000704909108040E940A0680915A039091EA
:100D90005B03429769F4D0925303C0925203A601B9
:100DA0006EE370E080910704909108040E940A06A7
:100DB00010935A0300935B03DF91CF911F910F9122
:100DC000FF90EF90DF90CF90BF90AF909F900895ED
:100DD0001F920F920FB60F9211242F933F934F93B0
:100DE0005F936F937F938F939F93AF93BF93EF9393
:100DF000FF938CE593E00E946901FF91EF91BF9111
:100E0000AF919F918F917F916F915F914F913F91A2
:100E10002F910F900FBE0F901F9018951F920F9259
:100E20000FB60F9211242F938F939F93EF93FF93FD
:100E3000E0916C03F0916D038081E0917203F09179
:100E4000730382FD1BC09081809175038F5F8F7348
:100E500020917603821741F0E0917503F0E0E45AA7
:100E6000FC4F958F80937503FF91EF919F918F9128
:100E70002F910F900FBE0F901F9018958081F4CF87
:100E80001F920F920FB60F9211242F933F938F93BF
:100E90009F93AF93BF938091B8029091B902A091B4
:100EA000BA02B091BB023091B70223E0230F2D3775
:100EB00058F50196A11DB11D2093B7028093B80289
:100EC0009093B902A093BA02B093BB028091BC0286
:100ED0009091BD02A091BE02B091BF020196A11DEA
:100EE000B11D8093BC029093BD02A093BE02B0934B
:100EF000BF02BF91AF919F918F913F912F910F9022
:100F00000FBE0F901F90189526E8230F0296A11D83
:100F1000B11DD2CF1F920F920FB60F9211242F93B3
:100F20003F934F935F936F937F938F939F93AF9371
:100F3000BF93EF93FF938091B900887F803609F4C7
:100F40004AC0F0F5883209F4A7C018F5803109F4D9
:100F50009BC0B8F4882309F4F9C0883009F494C020
:100F6000FF91EF91BF91AF919F918F917F916F9181
:100F70005F914F913F912F910F900FBE0F901F9057
:100F80001895883109F488C0803251F780932B037B
:100F900014C0803409F49DC040F48033B9F3883321
:100FA000F9F680932B0385ECB0C0803509F485C039
:100FB000883509F496C0883499F60E946503D0CF2D
:100FC000883909F48CC038F5883729F050F4883610
:100FD00011F0803729F683E080932D031092B6023A
:100FE00057C0883809F47BC0803919F0803809F07F
:100FF000B7CF8091B602803208F071C0E091B6029E
:1010000081E08E0F8093B6028091BB00F0E0EA563B
:10101000FD4F80833DC0803B39F0E0F4803A09F415
:1010200079C0883A09F09CCF84E080932D03109218
:10103000950210929402E091C302F091C4020995C6
:101040008091940281110FC081E0809394021092EC
:10105000740209C0803C09F4A6CF883C09F4A3CFF0
:10106000883B09F07DCFE091950281E08E0F80935F
:101070009502F0E0EC58FD4F80818093BB00909189
:1010800095028091940229C0809108038093BB004F
:1010900085EC8093BC0064CF90912A038091290352
:1010A000981758F5E0912A0381E08E0F80932A0368
:1010B000F0E0E75FFC4F8081E9CFE0912A0381E017
:1010C0008E0F80932A038091BB00F0E0E75FFC4F16
:1010D000808390912A03809129039817C8F285E8AC
:1010E000D8CFE0912A0381E08E0F80932A0380916C
:1010F000BB00F0E0E75FFC4F808380912C038111FF
:101100005CCF81E08093070384EA8093BC00109257
:101110002D0326CF85EC8093BC0010922D03809187
:10112000B602803230F4E091B602F0E0EA56FD4FAC
:1011300010826091B60270E0E091C102F091C202AB
:1011400086E992E009951092B6020ACF10922B031D
:1011500034CFBF92CF92DF92EF92FF920F931F9303
:10116000CF93DF936C017A01EB01CC0FDD1FCE0131
:1011700001960E94DB20B82ECE0102960E94DB2051
:10118000082F10E0CE018B599F4F0E94DB20CC0D21
:10119000DD1D813061F0F982E882DF91CF911F91EE
:1011A0000F91FF90EF90DF90CF90BF9008958FEF59
:1011B000B89E000D111D112419830883EECFEF9204
:1011C000FF920F931F93CF93DF9310925F031092C0
:1011D0005E0388EE93E0A0E0B0E08093600390931C
:1011E0006103A0936203B093630326E631E030937A
:1011F0005D0320935C0325EC30E03093690320937A
:10120000680324EC30E030936B0320936A0320ECF6
:1012100030E030936D0320936C0321EC30E0309389
:101220006F0320936E0322EC30E030937103209320
:10123000700326EC30E03093730320937203109216
:101240007503109276031092770310927803109230
:10125000FC031092FB038093FD039093FE03A09385
:10126000FF03B093000488E791E09093FA03809322
:10127000F90310921804109217044AE851E05093B1
:1012800016044093150487E28093190420E120930B
:101290001D0492E090931E0410921F0488E0809336
:1012A000200410920C0410920B0450930A044093F3
:1012B00009043FE330930D0420931104909312042A
:1012C000109213048093140480EA90E00E947D221F
:1012D000EC01FC0180569F4F11921192E817F9071B
:1012E000D9F750E040E070E060E0CE010E94A9082C
:1012F00050E040E061E070E0CE010E94A90842E8C1
:1013000050E062E070E0CE010E94A9084CE350E09A
:1013100063E070E0CE010E94A90840E250E064E082
:1013200070E0CE010E94A9084AE050E065E070E05C
:10133000CE010E94A9084DE250E066E070E0CE01C7
:101340000E94A9084AEE56E067E070E0CE010E94D4
:10135000A90848E050E068E070E0CE010E94A908CA
:1013600040E45FE169E070E0CE010E94A90840ED31
:1013700053E16AE070E0CE010E94A90844E151E027
:101380006BE070E0CE010E94A9084EEF51E06CE0E6
:1013900070E0CE010E94A90840E451E06DE070E0E9
:1013A000CE010E94A9084AEA50E06EE070E0CE014A
:1013B0000E94A90842E350E06FE070E0CE010E9475
:1013C000A90840E951E060E170E0CE010E94A9085F
:1013D00040ED57E061E170E0CE010E94A9084CE2C7
:1013E00051E062E170E0CE010E94A90844EC59E0AE
:1013F00063E170E0CE010E94A90848E552E064E193
:1014000070E0CE010E94A9084CEA5DE065E170E061
:10141000CE010E94A90841E450E066E170E0CE01EF
:101420000E94A90840E550E067E170E0CE010E940B
:10143000A90841E050E068E170E0CE010E94A908EF
:1014400046E950E066E470E0CE010E94A9084FE74B
:1014500050E067E470E0CE010E94A90844EA50E041
:1014600068E470E0CE010E94A90845E050E069E41C
:1014700070E0CE010E94A90842E150E06AE470E009
:10148000CE010E94A90848ED5FEF6BE470E0CE0149
:101490000E94A90844E853E06CE470E0CE010E9489
:1014A000A90841E050E06DE470E0CE010E94A90877
:1014B00044E050E06EE470E0CE010E94A90843E0F1
:1014C00050E06FE470E0CE010E94A908D0930804B8
:1014D000C093070482E990E00E947D228C01DC0128
:1014E00011961C921E9215961C921E921497179696
:1014F0001C921E92169719961C921E921897FC0128
:101500003A9680E2DF011D928A95E9F7F80113A669
:1015100012A614A615A616A617A67801B0E7EB0E1C
:10152000F11CF70111821082329610821182128210
:101530001382349611821082329610823396118271
:101540001082329611821082329611821082329667
:1015500010821182128213823496108211821282BA
:10156000138234961082319681E080833196108206
:1015700085E090E0D80113969C938E93129762E0D9
:101580000E94780286E090E0F80191838083E7581A
:10159000FF4FD183C083D8011B961C921E921A97CD
:1015A0001D961C921E921C971F961C921E921E97AF
:1015B00051961C921E92509753961C921E925297CF
:1015C00055961C921E92549757961C921E925697AF
:1015D00059961C921E925897E954F1091192119252
:1015E000EE15FF05D9F784E490E00E947D22FC010E
:1015F00015AE14AEFE9610821182128213823496BA
:1016000011821082FC019C01245C3F4F11921192C7
:101610002E173F07D9F7F801E457FF4F91838083D6
:101620008CE690E00E947D22DC01AC59BF4F119600
:101630001C921E92FC01EA59FF4F10821182128205
:101640001382349611821082FC0111921192AE170E
:10165000BF07D9F7F801E257FF4F9183808384E8F1
:1016600091E00E947D22DC01A458BE4F11961C928D
:101670001E92FC01E258FE4F1082118212821382E8
:10168000349611821082FC0111921192EA17FB0725
:10169000D9F7F801E057FF4F918380831093060438
:1016A00000930504DF91CF911F910F91FF90EF9070
:1016B0000895CF93DF93CDB7DEB76A970FB6F8944E
:1016C000DEBF0FBECDBF789484B5826084BD84B583
:1016D000816084BD85B5826085BD85B5816085BD2D
:1016E00080916E00816080936E00109281008091E5
:1016F000810082608093810080918100816080936D
:101700008100809180008160809380008091B10091
:1017100084608093B1008091B00081608093B000BC
:1017200080917A00846080937A0080917A00826050
:1017300080937A0080917A00816080937A00809112
:101740007A00806880937A001092C10061E087E09F
:101750000E94780261E087E00E944A0243E050E084
:1017600064E370E080910704909108040E940A06E7
:1017700083E08093000161E08AE00E94780261E0EA
:1017800083E00E94780261E089E00E94780261E0D3
:1017900088E00E94780261E08AE00E944A0260E0EC
:1017A00084E00E94780260E086E00E94780280E493
:1017B0008093800089E080938100109289001092CC
:1017C00088008CB58F7D8CBD8CB58C7F82608CBD84
:1017D0008DB58E7F8DBD8CB58C608CBD1FB7F89498
:1017E0008091C002811127C0E4EAF0E08491E0E931
:1017F000F0E09491E82FF0E0EE0FFF1FE458FF4F68
:10180000A591B491EC91E92321F461E08AE00E9472
:101810004A0261E08AE00E9478028CB580618CBD4A
:101820008CB580648CBD61E08DE00E94780261E03F
:101830008BE00E9478028091C0028F5F8093C0028B
:101840001FBFE0916C03F0916D0382E08083E09113
:101850006C03F0916D031082E0916803F0916903CD
:101860001082E0916A03F0916B0380E18083109213
:101870007403E0917003F091710386E08083E0913E
:101880006E03F0916F03808180618083E0916E032D
:10189000F0916F03808188608083E0916E03F09106
:1018A0006F03808180688083E0916E03F0916F0305
:1018B00080818F7D808340E050E0BA018BE890E02A
:1018C0000E94420643EC50E061E070E08CEE90E054
:1018D0000E94420640E650E067E070E08DEE90E046
:1018E0000E94420644E050E060E070E080E890E052
:1018F0000E94420645E05EE064E070E080E990E02E
:101900000E94420643E050E060E070E081E990E030
:101910000E94420644EF51E060E070E083E990E00D
:101920000E94420648EB5BE060E070E084E990E0F2
:101930000E94420640E951E060E070E085E990E0F5
:101940000E94420641E050E060E070E083EA90E0EF
:101950000E94420640ED57E060E070E084EA90E0CB
:101960000E9442064AE050E060E070E085EA90E0C4
:101970000E94420648E35EE060E070E086EA90E0A4
:101980000E9442064AE050E060E070E087EA90E0A2
:101990000E94420644EF51E060E070E088EA90E087
:1019A0000E94420644EF51E060E070E08AEA90E075
:1019B0000E9442064AE050E060E070E08BEA90E06E
:1019C0000E94420641E050E060E070E080EA90E072
:1019D0000E94420640E050ED67E070E08DEA90E042
:1019E0000E9442064CE850E06DE270E080910704EE
:1019F000909108040E940A0642E050E068E370E01B
:101A000080910704909108040E940A068091530176
:101A1000882309F4FDC01092C6021092C5021092EC
:101A20002F03109251030E94960379EE872E70E0E7
:101A3000972E9092C4028092C302EAEEAE2EE0E0AE
:101A4000BE2EB092C202A092C10281E080932E030A
:101A50008FE3809350030E948C00811128C08091F5
:101A60000B0490910C0490931804809317048091B8
:101A70000D048093190480910E0480931A048091C0
:101A80000F0480931B048091100480931C048091A8
:101A9000110480931D048091120480931E04809190
:101AA000130480931F0480911404809320041092E7
:101AB0002F03109251030E94960310921A048091F2
:101AC0001E04823018F098E090931A0490911F043D
:101AD000992339F0813029F480911A04846080932D
:101AE0001A0462E370E080E090E00E94F4026091EA
:101AF000200485E194E00E943A0468EE73E080E0FF
:101B000090E00E94F40260E385E194E00E94F20418
:101B10008BE496E40197F1F760E385E194E00E949D
:101B2000F2048BE496E40197F1F760E385E194E039
:101B30000E94F20483E592E00197F1F760E285E10B
:101B400094E00E94F20460911A04606240E085E132
:101B500094E00E940B0564E0B62EB0921B0440E0B6
:101B60006CE085E194E00E940B0540E061E085E1D6
:101B700094E00E940B058BE39FE10197F1F782E06F
:101B800080931C0440E066E085E194E00E940B0530
:101B900040E062E085E194E00E940B058BE39FE169
:101BA0000197F1F76BE471E080E00E945B0563E46C
:101BB00071E081E00E945B056BE371E082E00E94CE
:101BC0005B0563E371E083E00E945B056BE271E01B
:101BD00084E00E945B0563E271E085E00E945B05A2
:101BE0006BE171E086E00E945B0563E171E087E0F4
:101BF0000E945B050E944D0441E050E062E270E00B
:101C000080910704909108040E940A0610925301E3
:101C10000E942603609303037093040380930503DB
:101C20009093060320900504309006048101075824
:101C30001F4F18870F83D8018D919C91FC01E45BA5
:101C4000FF4F20813181F101EA58FF4F7F010E5F84
:101C50001F4F188B0F87D101232B09F020C6129636
:101C60008C910E942102019731F4F101E858FF4F55
:101C7000808181114CC5F10182810E94210201976E
:101C800039F4F101E858FF4F8081882309F424C515
:101C9000D10112968C910E942102892B09F423C54F
:101CA000D10112968C910E942102892B09F426C53C
:101CB0008D849E84D7018D929C92D1018C910E943B
:101CC000B402F10106811781080F191F17830683DB
:101CD0008085918501968830910509F41BC591870F
:101CE0008087D1018C910E94B4028C01EF81F8852C
:101CF00080819181DC0114962D913C9115970217FA
:101D000013076CF42D913C91A801421B530B141640
:101D100015060CF0E9C54F3151050CF0EBC5AF814C
:101D2000B8858D919C91FC012481358102171307A0
:101D300044F4D7012D913C9141E050E0223031052F
:101D400011F050E040E064E270E00E940A06EF818A
:101D5000F88580819181DC0114962D913C910217C8
:101D6000130764F4F701208131812130310531F40A
:101D700041E050E062E470E00E940A06AF81B8855D
:101D80008D919C91FC0124813581021713076CF021
:101D900022813381A801421B530B141615060CF047
:101DA000B6C54F3151050CF0B8C5EF81F88580817B
:101DB0009181DC0114962D913C910217130744F098
:101DC000F7012081318141E050E02230310511F0EE
:101DD00050E040E065E270E00E940A06810105578C
:101DE0001F4F1A8F098FD8014C91F101E558FF4F11
:101DF0007F01411102C011821082AF81B8850D9020
:101E0000BC91A02DBA87A9871A968D909C901B979C
:101E10009C868B861696AD90BC9017971E960D915A
:101E20001C911F971C968D909C909C8A8B8A8A9CF3
:101E3000C0018B9C900D9A9C900D112424E630E0FB
:101E4000B9010E945C22069FF001079FF00D169FCA
:101E5000F00D1124D101A158BF4FED93FC93D70190
:101E6000CD90DC900D2C000CEE08FF08C1018358CA
:101E70009F4F9A8B898BD101AF57BF4FBE8BAD8BD4
:101E8000442309F457C58B849C84A89CC001A99C59
:101E9000900DB89C900D1124B9010E945C22609FA6
:101EA0002001619F500C709F500C1124712C612CEB
:101EB0009F0150E040E02419350946095709C70140
:101EC000B6010E943822E8EE8E2EE3E09E2EA12C71
:101ED000B12CA50194010E94F120420E531E641EF4
:101EE000751EA989BA894D925C928AE00B851C8582
:101EF000809F2001819F500C1124052C000C660846
:101F000077080B891C89809F9001819F300D1124D7
:101F1000032E000C440B550B2419350946095709AB
:101F2000C701B6010E943822A50194010E94F12048
:101F3000CA01B901640D751D861D971D0E94BE1F43
:101F400020E030E048EC52E40E948B21AD89BE894C
:101F50006D937D938D939C931397E985FA85008506
:101F600011852B853C85209FB001219F700D309FEE
:101F7000700D1124072E000C880B990B0E94BE1FB8
:101F800020E030E040E251E40E941D200E94FD214B
:101F90002B013C01A1014B575F4F5C874B878B891D
:101FA0009C89809FB001819F700D909F700D1124BE
:101FB000072E000C880B990B0E94BE1F20E030E01A
:101FC00040E251E40E941D200E94FD219B01AC01D2
:101FD0002419350946095709C701B6010E9438225C
:101FE000A50194010E94F120CA01B901640D751D7B
:101FF000861D971D0E94BE1F20E030E048EC52E491
:102000000E948B21AB85BC856D937D938D939C93B2
:102010001397F10144815581A985BA8514968D9154
:102020009C91910127573F4FE657FF4F481759079B
:102030000CF093C4C1018A589F4FDC018D919C9193
:10204000029709F08AC481E0D9018C938083D90179
:102050008C91D101A557BF4F882309F480C480819A
:1020600081117DC481E08C9369E170E089859A8556
:102070000E940A06EF85F889408151816AE170E08B
:10208000AF81B8858D919C910E940A06F101EB57B2
:10209000FF4FC080D180E280F38020E030E048EC48
:1020A00052E4C701B6010E941D200E9404228B0148
:1020B000C701B6010E94FD21AB016FE270E0EF8124
:1020C000F885808191810E940A06C80168EE73E05C
:1020D0000E944822AB018C016BE170E0AF81B885B2
:1020E0008D919C910E940A06A8016CE170E0EF813D
:1020F000F885808191810E940A0620E030E048EC5A
:1021000052E4AD89BE896D917D918D919C910E9423
:102110001D200E940422CB0168EE73E00E94482239
:10212000AB018C016DE170E0EF81F88580819181D8
:102130000E940A06A8016EE170E0AF81B8858D911A
:102140009C910E940A06E989FA898081918168EE52
:1021500073E00E944822AB016FE170E0AF81B88567
:102160008D919C910E940A06E989FA89808191816A
:1021700068EE73E00E944822AC0160E270E0AF813B
:10218000B8858D919C910E940A06F101E757FF4F97
:10219000408150E061E270E0EF81F88580819181BB
:1021A0000E940A06F101E657FF4F408150E062E2CB
:1021B00070E0AF81B8858D919C910E940A06E98DEF
:1021C000FA8D408150E063E270E0AF81B8858D9177
:1021D0009C910E940A06EF81F88500811181F80127
:1021E000EC5AFF4F60817181072E000C880B990B10
:1021F0000E94BE1F29E030EF4CE85AE30E941D20E8
:1022000020E030E04EE453E40E941D200E94FD21B6
:10221000AB016DE270E0C8010E940A06F101E457CB
:10222000FF4F0190F081E02DEE5BFF4F4081518127
:102230006AE270E0AF81B8858D919C910E940A0698
:10224000F101E257FF4F0190F081E02DE659FF4F79
:10225000408151816CE270E0EF81F885808191814D
:102260000E940A06F101E057FF4F0190F081E02D36
:10227000EE57FE4F4081518166E370E0AF81B88533
:102280008D919C910E940A06009101031091020316
:102290008091FF0290910003080F191F17FF02C0E1
:1022A0000F5F1F4F1595079585E10E94B402081B2B
:1022B000190B055F1F4F0731110508F0BBC00091D6
:1022C00005041091060485E10E94B4026C01F80136
:1022D000E758FF4FAC016BE270E0808191810E9472
:1022E0000A06BFEFCB1AB1E0DB0ACC0CDD1CF8010B
:1022F000E057FF4F20803180F101E458FE4F2081EC
:102300003181A901440F551F420D531DC10182584F
:102310009E4F98878F83DA014D905C90052C000CBE
:1023200066087708DC018D909D90AD90BC90841874
:102330009508A608B708DA01CD92DC920D2C000CA6
:10234000EE08FF08C701B601680D791D8A1D9B1DA7
:10235000AF81B8856D937D938D939C9313972F5F79
:102360003F4F2E3B31050CF0FCC2318320835101DD
:10237000BEE7AB1ABEEFBB0A2EEB30E040E050E008
:102380000E94F120F50131832083F801E257FF4FCD
:1023900000811181C701B6010E94BE1F23EC35EFF9
:1023A00048EA5EE30E948B210E94FD21D801AC59CE
:1023B000BF4F2D913C911197F901EE0FFF1F7F0147
:1023C000E00EF11EA8014A595F4FF701408051808D
:1023D000052C000C66087708FA0180809180A280A5
:1023E000B38084189508A608B708F7017183608345
:1023F0006B01770FEE08FF08C701B601680D791D64
:102400008A1D9B1DFA0160837183828393832F5FF2
:102410003F4F223331050CF0A7C22D933C93065950
:102420001F4F22E330E040E050E00E94F120D8014D
:102430002D933C938091FF029091000390930203AF
:102440008093010385E10E94B4029093000380937E
:10245000FF02009105041091060481E10E94B4027C
:10246000F801E457FF4F0190F081E02D24AD35AD28
:10247000D901AA0FBB1F5D01AE0EBF1E8F01025C0A
:102480001F4FD5014D915C91052E000C660B770B0B
:10249000D801CD90DD90ED90FC90C41AD50AE60AE3
:1024A000F70AD5018D939C93092E000CAA0BBB0B48
:1024B000BC01CD016C0D7D1D8E1D9F1DD8016D933E
:1024C0007D938D939C9313972F5F3F4F2E31310552
:1024D0000CF04DC235AF24AF8F010E5B1F4F2EE1C4
:1024E00030E040E050E00E94F120F8013183208389
:1024F000009105041091060480E10E94B4027C0161
:1025000007581F4FD8018D919C91FC01208D318D72
:10251000C68CD78CA28CB38C45018C189D08648C1A
:10252000758C23014C185D08A9014C195D094E15E5
:102530005F0554F52C0D3D1DE216F3062CF5EA5906
:10254000FF4F2081318121303105F1F03497208116
:1025500031812130310509F00DC2329660817181DF
:10256000FB01EE0FFF1FE80FF91F40815181415021
:1025700051090E940A0641E050E063E370E0D8018F
:102580008D919C910E940A068E149F0474F5AC0CE8
:10259000BD1CEA14FB044CF5F80180819181FC011B
:1025A000EA59FF4F2081318122303105F1F0349713
:1025B000208131812130310509F0EAC132966081F4
:1025C0007181FB01EE0FFF1FE80FF91F4081518160
:1025D0004F5F5F4F0E940A0642E050E063E370E005
:1025E000D8018D919C910E940A064E145F0464F5F7
:1025F000C60CD71CEC14FD043CF5F80180819181D8
:10260000FC01EA59FF4F2081318123303105E1F08F
:10261000349720813181232B41F4329620813181FE
:1026200041E050E02135310514F050E040E061E335
:1026300070E00E940A0643E050E063E370E0D801D6
:102640008D919C910E940A06B9EEEB16B3E0FB0651
:102650004CF050E040E063E370E0F801808191814C
:102660000E940A06A7016EE270E0D8018D919C914C
:102670000E940A06E0910704F0910804E859FF4F10
:1026800080819181039709F091C186E00E94210227
:10269000019709F08BC18091C702882309F489C191
:1026A0008091070490910804E0910504F0910604DC
:1026B000E757FF4F108244E050E064E370E00E946F
:1026C0000A0650E040E060E370E0809107049091DA
:1026D00008040E940A066DC181E080830FEF1FEF9E
:1026E0001E870D87E5CAF101E858FF4F80818823D6
:1026F00009F4D6CA108201E010E0F2CFF101E858E7
:10270000FF4F80818111D4CA02E010E0E9CF1E861C
:102710001D86CECA17FF02C0095F1F4F53E01595F3
:1027200007955A95E1F7D10119961C921E921897B8
:1027300017961C921E921697EF81F88580819181E1
:10274000DC01D2962D913C916801C21AD30AA601F0
:1027500061E470E00E940A06B2E0CB0ED11CE5E015
:10276000CE16D10420F4D10114960D911C91EF8165
:10277000F885C080D180D6018D909C90092C000CEA
:10278000AA08BB089801012E000C440B550B281910
:1027900039094A095B09A8EEB3E00E941021F6014D
:1027A00022813381032E000C440B550B2819390963
:1027B0004A095B090E94F120AF85B88911963C93C4
:1027C0002E93F601E65BFF4F80819181019721F402
:1027D000E8EEF3E0ED93FC936101FBE7CF0ED11C33
:1027E000D6018D919C91893EB3E09B0714F088EE51
:1027F00093E097FF02C090E080E0EF85F889918335
:102800008083D1019A962D913C919B97F901EE0F0F
:10281000FF1FE20DF31D82849384092C000CAA088B
:10282000BB089C964D915D916D917C919F97481945
:1028300059096A097B0993878287092E000CAA0B24
:10284000BB0B4C015D01840E951EA61EB71EC50173
:10285000B401D1019C966D937D938D939C939F972A
:102860002F5F3F4F20313105B4F49B963C932E935C
:102870009A9720E130E040E050E00E94F120D6013C
:102880002D933C930D39BFEF1B0709F42ACAF101C0
:102890001583048326CAF10113A612A6EACF149663
:1028A0002D913C91215031092336310560F4F1011D
:1028B000E858FF4F2081211114C021E020830FEF41
:1028C0001FEF188F0F8B8F88988CD7018D929C9259
:1028D000825B9F4FDC018D919C91F10195838483F4
:1028E00000CA188E1F8AEFCF201B310B2F31310504
:1028F0000CF415CAF701208131812230310509F02D
:102900000ECAA80170E060E00E940A0608CA201BF7
:10291000310B2F3131050CF448CAD7012D913C9170
:102920002230310509F041CAA80161E070E00E943F
:102930000A063BCAE989FA8911821082AD89BE89EB
:102940001D921D921D921C921397F101EB57FF4FA0
:1029500010821182128213825CCB108278CB1C927F
:1029600083CB1182108203CD1D921C9258CD15AEDF
:1029700014AEB2CDFC01E05AFF4F408151811416D4
:1029800015060CF0F8CD4150510960E370E0F1CD2F
:10299000FC01E05AFF4F40815181403551050CF058
:1029A0001BCE4F5F5F4F60E370E014CE81E08093F9
:1029B000C7028091070490910804FC01E859FF4F79
:1029C00020813181232B61F43A962081318121309D
:1029D000310531F441E050E064E370E00E940A0602
:1029E0008091070490910804FC01E859FF4F208171
:1029F00031812130310561F43A96208131812330D3
:102A0000310531F442E050E064E370E00E940A06D0
:102A1000E0910704F0910804E859FF4F808191810B
:102A20000297C0F586E00E942102209107043091B0
:102A30000804019741F0F901EE5AFF4F808191811E
:102A4000853691053CF143E050E064E370E0C90154
:102A50000E940A0661E087E00E944A021092C702C3
:102A60001092D0028091030390910403A09105037A
:102A7000B09106038093D5029093D602A093D7021B
:102A8000B093D8028093E1029093E202A093E30214
:102A9000B093E4028CE593E00E94490118161906F0
:102AA0000CF098C06AE3CE0101960E94A20509814C
:102AB0001A8160E070E0CB010115110519F0C80121
:102AC0000E94801F7B01709311016093100101151A
:102AD000110519F0C8010E9419236AE0CE01019680
:102AE0000E94A20509811A8160E070E0CB01011506
:102AF000110519F0C8010E94801F7093C9026093EC
:102B0000C8020115110519F0C8010E941923B4E685
:102B1000EB16F10411F510E000E0E0910704F091EC
:102B20000804C801880F991FE80FF91F40815181DF
:102B3000052E000C660B770B77FFE7C38CE593E05F
:102B40000E94BA0462E971E08CE593E00E945F04A0
:102B50000F5F1F4F0035110501F780911001909113
:102B600011018536910561F468E071E08CE593E030
:102B70000E945F0462E971E08CE593E00E945F04CB
:102B800080911001909111018636910561F461E008
:102B900071E08CE593E00E945F0462E971E08CE5EE
:102BA00093E00E945F046091100170911101603503
:102BB000710554F44091C8025091C90280910704F4
:102BC000909108040E940A0687EE93E09093110109
:102BD0008093100140E050E0BA018FE690E00E943F
:102BE000420640E050E0BA0182E190E00E944206D5
:102BF0008091070490910804FC01EA5BFF4F20815B
:102C000031812130310509F086C3B29620813181AE
:102C10002330310509F07FC32091FE0221117BC3CF
:102C200060E088E00E944A02E0910504F091060409
:102C3000E358FF4F80819181B0E0A0E040915603BE
:102C400050915703609158037091590348175907E1
:102C50006A077B0708F47CC34091560350915703E1
:102C60006091580370915903411551056105710533
:102C700069F084179507A607B70740F480935603B9
:102C800090935703A0935803B0935903809107047E
:102C900090910804FC01E856FF4F8E5A9F4F208107
:102CA0003181DC018D919C91281739071CF481E05A
:102CB0008093FE0240915603509157036091580350
:102CC0007091590387EA90E00E94420680910303C5
:102CD00090910403A0910503B0910603883EE3E0C0
:102CE0009E07A105B10558F0E0910704F091080492
:102CF000E859FF4F208131812330310539F0E091CF
:102D00000504F0910604E757FF4F10824091F50249
:102D10005091F6026091F7027091F802452B462B14
:102D2000472B19F5895E9340A109B10983369105B6
:102D3000A105B105D0F450E040E067E370E0809178
:102D40000704909108040E940A0680910303909161
:102D50000403A0910503B09106038093F5029093BC
:102D6000F602A093F702B093F802809003039090CC
:102D70000403A0900503B09006038091F1029091A6
:102D8000F202A091F302B091F402892B8A2B8B2BD3
:102D900009F047C0D501C4018D5D9540A109B10975
:102DA000873C9105A105B105E0F558E2E52EF12C2F
:102DB00010E000E085E10E94B402080F191F65E0F1
:102DC00070E080E090E00E94F402F1E0EF1AF10878
:102DD00089F7C80168E270E00E945C22072E000CAF
:102DE000880B990B0E94BE1F29E030EF4CE85AE394
:102DF0000E941D2020E030E048E455E40E941D20A0
:102E00000E94FD217093F0026093EF0281E08093B5
:102E1000FE028092F1029092F202A092F302B0922E
:102E2000F4028091EB029091EC02A091ED02B0913E
:102E3000EE02892B8A2B8B2B09F06CC001ED801AD6
:102E400007E0900AA108B10813E681169104A104D5
:102E5000B10408F05FC008E210E0F12CE12C85E13C
:102E60000E94B402E80EF91E65E070E080E090E098
:102E70000E94F4020150110991F71092FE02009194
:102E8000EF021091F002C0900704D0900804C7012F
:102E900068E270E00E945C22072E000C880B990B00
:102EA0000E94BE1F29E030EF4CE85AE30E941D202B
:102EB00020E030E048E455E40E941D200E94FD21FE
:102EC000C801861B970BA80144970CF066C24A50B4
:102ED000510963E170E0C6010E940A06809107046F
:102EE00090910804DC019C964D915C9167E370E041
:102EF0000E940A068091030390910403A0910503A8
:102F0000B09106038093EB029093EC02A093ED0244
:102F1000B093EE028091030390910403A091050306
:102F2000B09106034091E7025091E8026091E902F6
:102F30007091EA02841B950BA60BB70B893E934058
:102F4000A105B10508F47EC08091070490910804A2
:102F50002091120131E0232720931201FC01E25855
:102F6000FF4F208131812E3131050CF019C2B0970D
:102F700020813181121613060CF012C22091CA0270
:102F80003091CB022F5F3F4F3093CB022093CA0288
:102F900048EE53E06FE370E00E940A068091070458
:102FA00090910804FC01E456FF4F4091CA025091F1
:102FB000CB0220813181241735078CF41092CB028B
:102FC0001092CA0248EE53E06FE370E00E940A06D6
:102FD000E0910504F0910604E757FF4F10828091BD
:102FE000FE02882309F401C280910704909108042D
:102FF0002091E5023091E602FC01E656FF4F408148
:103000005181241735070CF0D0C17697408151814A
:103010004130510509F4C9C12F5F3F4F3093E6029B
:103020002093E5028091030390910403A09105038E
:10303000B09106038093E7029093E802A093E9021F
:10304000B093EA02E0910704F0910804E859FF4FB9
:103050008081918161E0039709F060E08FE00E9438
:103060004A02E0910704F0910804E859FF4F80817B
:103070009181019729F4609112018FE00E944A0228
:10308000E0910704F0910804C0900303D09004037A
:10309000E0900503F0900603DF01AA58BF4F8D9121
:1030A0009C91892B71F444A155A14115510549F01A
:1030B000CF0188599F4FDC018D919C91039709F4B2
:1030C00099C1C092E102D092E202E092E302F09252
:1030D000E402809107049091080440910303509109
:1030E000040360910503709106030091DD021091C5
:1030F000DE022091DF023091E002401B510B620B97
:10310000730BFC0100A111A1012E000C220B330B4B
:10311000041715072607370708F04DC0E05AFF4F80
:10312000408151814115510509F031C388599F4FA4
:10313000DC010D911C918091CE029091CF028017FD
:10314000910771F040E061E085E194E00E940B0599
:103150008BE39FE10197F1F71093CF020093CE022A
:103160000115110509F065C160E080E00E942205AB
:1031700085E991E00E94E30461E080E00E9422057D
:1031800085E991E00E94E3041092200460E085E16B
:1031900094E00E943A048091030390910403A0916B
:1031A0000503B09106038093DD029093DE02A093A5
:1031B000DF02B093E00280910704909108044091EF
:1031C0000303509104036091050370910603FC0111
:1031D000EA59FF4F208131812150310922303105D8
:1031E00008F423C34093D9025093DA026093DB02C0
:1031F0007093DC028091070490910804FC01E85967
:10320000FF4F20813181B90164507109C0900303DF
:10321000D0900403E0900503F0900603623071053E
:1032200018F02230310541F4B9EBCB16BBE0DB06D8
:10323000E104F10408F02AC3C092D502D092D6026C
:10324000E092D702F092D802C0900303D09004031A
:10325000E0900503F0900603809107049091080424
:103260004091D1025091D2026091D3027091D40268
:1032700046015701841A950AA60AB70AB501A401A6
:10328000DC019A960D911C91012E000C220B330B40
:10329000041715072607370708F096C4FC01EA56FD
:1032A000FF4F40815181FE972081318124173507DE
:1032B0000CF017C3B1E1CB16B7E2DB06E104F10471
:1032C00008F40FC33296208131812B3531050CF47F
:1032D00008C341E050E068E370E00E940A06809174
:1032E000070490910804FC0144A555A567E370E02C
:1032F0000E940A0650E040E069E370E08091070414
:10330000909108040E940A06CAC32AE08CE593E063
:103310000E946E0417CCFC01E856FF4F8E5A9F4F57
:1033200020813181FC018081918128173907ECF4DB
:1033300060E088E00E944A0248EE53E060E070E0FE
:1033400087EA90E00E94420681E08093FE02BECCB4
:103350004C505E4F6F4F7F4F40935603509357032F
:10336000609358037093590377CC8091FE028111CA
:10337000DFCF61E088E00E944A0240E050E0BA01FD
:1033800087EA90E00E94420610925603109257037B
:10339000109258031092590399CC445F5F4F99CD16
:1033A0001092CB021092CA02F3CD50E040E069E2E5
:1033B00070E00E940A061092FE021092E60210923D
:1033C000E5028091070490910804FC01EC57FF4F3F
:1033D000208131812130310509F024CE50E040E0D8
:1033E00062E470E00E940A061DCE1092E60210927E
:1033F000E50218CE28EE33E0DA010E947022009137
:10340000E1021091E2022091E3023091E402C01A3D
:10341000D10AE20AF30A6C157D058E059F0508F0B6
:1034200058CE44E050E064E370E0CF010E940A0609
:1034300050CE0130110509F04BC00E944D0460E0F0
:1034400080E00E94220586EA91E00E94E30461E0A8
:1034500080E00E9422058EE991E00E94E3048091C1
:10346000CC029091CD0201969093CD028093CC0234
:1034700006978CF0E0910704F0910804E659FF4F9D
:1034800080819181813591058CF084E090E090936A
:10349000CD028093CC026091CC0285E194E00E9441
:1034A00055058BE991E00E94E30475CE80359105C6
:1034B00091F38C3391050CF40BC583E090E0E7CFDA
:1034C00082E090E0E4CF1093CD020093CC02E3CFF2
:1034D0000230110589F40E944D0460E080E00E94F2
:1034E000220587EB91E00E94E30461E080E00E9406
:1034F000220588EC91E0D7CF0330110509F01EC1F9
:103500000E944D048091070490910804FC01EC593D
:10351000FF4F20813181283E334034F448EE53E0A0
:1035200062E370E00E940A0660E080E00E942205EB
:1035300089ED91E00E94E30461E080E00E942205B1
:10354000E0910504F0910604EB57FF4F20E030E0D6
:10355000A90160817181828193810E9433221816B2
:103560000CF06DC08AEE91E00E94E304E091050446
:10357000F0910604EB57FF4F608171818281938146
:103580000E94FD2185E194E00E94E80482EA91E036
:103590000E94E30461E08EE00E942205E0910704AE
:1035A000F0910804E059FF4F80819181029709F062
:1035B00049C066E085E194E00E94550561E08FE036
:1035C0000E9422058091070490910804FC01E65AAC
:1035D000FF4F2081318167E0243631050CF4A9C00A
:1035E000FC01EE58FF4FE080F180E1E0EE16F104BF
:1035F00009F040C00091CC021091CD02602F85E10E
:1036000094E00E9455050F5F1F4F1093CD02009369
:10361000CC02063011050CF4BECDE0910704F09108
:103620000804E659FF4F80819181813591057CF036
:1036300084E090E09093CD028093CC02ACCD82EFF9
:1036400091E0A6CF84EA91E00E94E304B7CF8035F1
:10365000910509F4A0CD8C3391050CF445C483E0A9
:1036600090E0E8CF82E090E0E5CFF092CD02E092EA
:10367000CC0291CD86599F4FDC018D919C91803574
:1036800091052CF065E085E194E00E945505E091FC
:103690000704F0910804E659FF4F80819181CC978F
:1036A000449728F464E085E194E00E945505E09198
:1036B0000704F0910804E659FF4F808191818D97AE
:1036C0000F9728F463E085E194E00E945505E091AE
:1036D0000704F0910804E659FF4F80819181839798
:1036E0000A9728F462E085E194E00E945505E09194
:1036F0000704F0910804E659FF4F808191814997B2
:103700000A9728F461E085E194E00E945505E09174
:103710000704F0910804E659FF4F80819181499791
:1037200024F480911201811103C084EA91E0BBCEA0
:1037300060E085E194E00E9455052DCD043011052F
:1037400089F40E944D0460E080E00E94220580E040
:1037500092E00E94E30461E080E00E94220581E1A2
:1037600092E0A1CE0530110509F015CD0E944D045F
:1037700060E080E00E94220582E292E00E94E30481
:1037800061E080E00E94220587EB91E08CCE415001
:10379000510962E370E00E940A0660E080E00E9446
:1037A000220583E392E00E94E304E0910704F09194
:1037B0000804EE59FF4F80819181019799F58AE3C2
:1037C00092E00E94E30461E080E00E94220580E52F
:1037D00092E00E94E304E0910704F0910804EC59A0
:1037E000FF4F6081718185E194E00E94E8048FEED3
:1037F00091E00E94E3048091070490910804FC0189
:10380000EC59FF4F20813181220F331F820F931F0C
:10381000FC016081718185E194E00E94E8048DE9FA
:1038200091E041CE85E492E0CCCF0091D902109195
:10383000DA022091DB023091DC02401B510B620B5B
:10384000730BDC0190960D911C91012E000C220B44
:10385000330B041715072607370708F0CBCC50E0C9
:1038600040E063E370E00E940A06809103039091B8
:103870000403A0910503B09106038093D9029093AD
:10388000DA02A093DB02B093DC02B4CC4091D50203
:103890005091D6026091D7027091D802C41AD50A0D
:1038A000E60AF70AFC0102A113A1012E000C220B6B
:1038B000330B0C151D052E053F0508F0C5CC50E057
:1038C00040E064E370E00E940A06E0910504F09194
:1038D0000604E757FF4F108260E087E00E944A022B
:1038E000B3CC42E050E068E370E00E940A068091A9
:1038F000070490910804FC01E259FF4F4081518177
:10390000DC019E962D913C919F97421753075CF4E2
:1039100098962D913C91245631097697608171815A
:103920006217730794F014161506ACF4FC0120A579
:1039300031A52C593F4FE85AFF4F608171812617FE
:1039400037074CF44150510902C04F5F5F4F67E3A6
:1039500070E00E940A06E0910704F0910804E25921
:10396000FF4F0081118161E083E00E947802011520
:10397000110599F560E083E00E944A0280910704F6
:1039800090910804FC01E259FF4FDC019E964D9195
:103990005C91208131814217530751F47E9640811A
:1039A0005181F49720813181241735070CF45CC0D4
:1039B0002091D002211158C0FC01E457FF4F4081F3
:1039C0005181F49720813181241735070CF467C0A9
:1039D00041E050E069E370E095CC0F3F110511F430
:1039E00061E0C9CFE1EBF0E0E491E33019F140F49C
:1039F000E130B1F0E230C9F0003811058CF7BACFF0
:103A0000E73011F1E83041F1E430B1F78091800006
:103A100080628093800010938B0000938A00AECF69
:103A200084B5806884BD07BDA9CF84B5806284BD9C
:103A300008BDA4CF8091800080688093800010939F
:103A40008900009388009ACF8091B00080688093AD
:103A5000B0000093B30092CF8091B0008062809359
:103A6000B0000093B4008ACF43E050E069E370E017
:103A70000E940A068091070490910804FC01E45713
:103A8000FF4F885A9F4F20813181FC0180819181B5
:103A9000821793070CF06DC181E08093D0020091F2
:103AA000070410910804F801E057FF4F0190F081DE
:103AB000E02DD801A257BF4FCD90DC9011970D2C6F
:103AC000000CEE08FF08D4972D913C91032E000CBA
:103AD000440B550B2C193D094E095F09A4E6B0E0D3
:103AE0000E941021D801A059BF4F2D913C911197F0
:103AF0002130310509F04CC152972D913C9111971D
:103B00002115310509F041C1D4962D913C914F0109
:103B1000821A930A9401032E000C440B550B2C19A6
:103B20003D094E095F090E94F120A90125363105A2
:103B300014F044E650E057FF02C050E040E0F801C6
:103B4000E859FF4F808191818130910509F014C1BE
:103B5000329680819181481759070CF010C18091ED
:103B6000070490910804FC01E859FF4F208131813E
:103B700023303105C9F43296208131812530310559
:103B80009CF44091030350910403609105037091EC
:103B90000603413157426105710530F045E050E0C0
:103BA00064E370E00E940A0680910303909104038D
:103BB000A0910503B09106038093D1029093D202A5
:103BC000A093D302B093D402C0900303D090040317
:103BD000E0900503F09006038091FA029091FB02B9
:103BE000A091FC02B091FD02C81AD90AEA0AFB0AA8
:103BF00084E00E942102892B09F067C18091F902BB
:103C000081116FC0B9ECCB16D104E104F104D8F1F5
:103C10008091070490910804FC0142895389052E84
:103C2000000C660B770B4C155D056E057F0558F192
:103C3000A60168E270E00E940A0600910704109154
:103C40000804F801A089B189A70196010E941B21EF
:103C50009B01AC0160E87DE88BE590E00E94F120DB
:103C6000A90169E270E0C8010E940A060E942603C9
:103C70006093FA027093FB028093FC029093FD0222
:103C800081E08093F9028091070490910804DC019F
:103C900052964D915C91052E000C660B770B4C15DE
:103CA0005D056E057F05E8F550E040E068E270E0F4
:103CB0000E940A0650E040E069E270E0809107044B
:103CC000909108040E940A060E9426036093FA025B
:103CD0007093FB028093FC029093FD0281E080933D
:103CE000F9028091070490910804FC0142895389EC
:103CF000052E000C660B770B4C155D056E057F05D8
:103D000080F450E040E068E270E00E940A0650E073
:103D100040E069E270E080910704909108040E94FD
:103D20000A068091070490910804FC01E05BFF4FB4
:103D300020813181232B39F43E962081318150E05E
:103D400040E0232B11F041E050E06BE370E00E9473
:103D50000A0680E090E0892B11F40C94060D0E9475
:103D60005501882311F40C94060D0E9400000C9458
:103D7000060D1092D00293CE02970CF4F0CE65E3BC
:103D800070E0C8010E940A06EACE12161306C4F0BB
:103D90009F01FF0F440B550B2C193D094E095F097C
:103DA0000E94F120A9012536310514F044E650E0C7
:103DB00057FF02C050E040E065E370E0C801F2CE7A
:103DC000D801AC56BF4F2D913C91AF01421B530B14
:103DD0009A01032E000C440B550B2C193D094E097A
:103DE0005F090E94F120A9012536310514F044E64F
:103DF00050E057FF02C050E040E0F801E859FF4FA3
:103E0000808191818130910509F04EC03296808188
:103E10009181481759070CF04AC08091070490918E
:103E20000804FC01E859FF4F20813181233031051E
:103E300031F432962081318125303105F4F150E0A2
:103E400040E060E470E00E940A06809107049091CF
:103E50000804DC01A256BF4FFC01E058FF4F4D9112
:103E60005C91208131814217530709F09DCE40912A
:103E700003035091040360910503709106034131DF
:103E800057426105710508F48FCE45E050E064E3C8
:103E900070E00E940A0650E040E060E470E080912B
:103EA0000704909108047ECE02970CF4B6CF65E328
:103EB00070E0C8010E940A06B0CFFC01E058FF4F35
:103EC000408151814F5F5F4FBCCF1092F90209CF03
:103ED0008D3291050CF0F4CA83970CF0F4CA10925D
:103EE000CD021092CC02D7CA8D3291050CF0BACB1C
:103EF00083970CF0BACB1092CD021092CC024BC932
:103F00001F93FC0199278827BC01E8941191103276
:103F1000E9F3193010F01E30C8F31B3251F01D3296
:103F200049F4689406C00E94A71F610F711D811D8E
:103F3000911D119110531A30B0F33EF49095809575
:103F4000709561957F4F8F4F9F4F1F910895592F07
:103F5000482F372F262F660F771F881F991F660F50
:103F6000771F881F991F620F731F841F951F660F8D
:103F7000771F881F991F0895E89409C097FB3EF4A6
:103F800090958095709561957F4F8F4F9F4F9923A6
:103F9000A9F0F92F96E9BB279395F6958795779524
:103FA0006795B795F111F8CFFAF4BB0F11F460FFE4
:103FB0001BC06F5F7F4F8F4F9F4F16C0882311F03C
:103FC00096E911C0772321F09EE8872F762F05C050
:103FD000662371F096E8862F70E060E02AF09A95EB
:103FE000660F771F881FDAF7880F9695879597F9E0
:103FF0000895990F0008550FAA0BE0E8FEEF16167A
:104000001706E807F907C0F012161306E407F507CC
:1040100098F0621B730B840B950B39F40A2661F040
:10402000232B242B252B21F408950A2609F4A140E3
:10403000A6958FEF811D811D08950E9430200C945C
:10404000A1200E94932038F00E949A2020F095230E
:1040500011F00C948A200C94902011240C94D520FB
:104060000E94B22070F3959FC1F3950F50E0551F49
:10407000629FF001729FBB27F00DB11D639FAA27BD
:10408000F00DB11DAA1F649F6627B00DA11D661F0C
:10409000829F2227B00DA11D621F739FB00DA11D2D
:1040A000621F839FA00D611D221F749F3327A00DE7
:1040B000611D231F849F600D211D822F762F6A2F83
:1040C00011249F5750409AF0F1F088234AF0EE0FE8
:1040D000FF1FBB1F661F771F881F91505040A9F715
:1040E0009E3F510580F00C948A200C94D5205F3FB0
:1040F000E4F3983ED4F3869577956795B795F79551
:10410000E7959F5FC1F7FE2B880F911D96958795C8
:1041100097F9089597F99F6780E870E060E0089547
:104120009FEF80EC089500240A94161617061806CF
:104130000906089500240A941216130614060506AB
:104140000895092E0394000C11F4882352F0BB0F3C
:1041500040F4BF2B11F460FF04C06F5F7F4F8F4F9F
:104160009F4F089557FD9058440F551F59F05F3FDA
:1041700071F04795880F97FB991F61F09F3F79F089
:1041800087950895121613061406551FF2CF46950B
:10419000F1DF08C0161617061806991FF1CF86958D
:1041A0007105610508940895E894BB276627772771
:1041B000CB0197F90895F999FECF92BD81BDF89A88
:1041C000992780B50895262FF999FECF1FBA92BD81
:1041D00081BD20BD0FB6F894FA9AF99A0FBE0196E8
:1041E0000895052E97FB1EF400940E94082157FDA8
:1041F00007D00E945A2107FC03D04EF40C940821EA
:1042000050954095309521953F4F4F4F5F4F089502
:1042100090958095709561957F4F8F4F9F4F089532
:104220000E947C21A59F900DB49F900DA49F800DAE
:10423000911D11240895B7FF0C9410210E941021A4
:10424000821B930B08952F923F924F925F926F9231
:104250007F928F929F92AF92BF92CF92DF92EF9216
:10426000FF920F931F93CF93DF93CDB7DEB7CA1B97
:10427000DB0B0FB6F894DEBF0FBECDBF09942A88C2
:10428000398848885F846E847D848C849B84AA846A
:10429000B984C884DF80EE80FD800C811B81AA81F7
:1042A000B981CE0FD11D0FB6F894DEBF0FBECDBFC2
:1042B000ED010895A1E21A2EAA1BBB1BFD010DC042
:1042C000AA1FBB1FEE1FFF1FA217B307E407F507C6
:1042D00020F0A21BB30BE40BF50B661F771F881FA2
:1042E000991F1A9469F760957095809590959B0138
:1042F000AC01BD01CF010895A29FB001B39FC001E1
:10430000A39F700D811D1124911DB29F700D811D01
:104310001124911D08950E949F210C94A1200E94B8
:104320009A2058F00E94932040F029F45F3F29F032
:104330000C948A2051110C94D5200C9490200E944A
:10434000B22068F39923B1F3552391F3951B550BD4
:10435000BB27AA2762177307840738F09F5F5F4F58
:10436000220F331F441FAA1FA9F335D00E2E3AF097
:10437000E0E832D091505040E695001CCAF72BD0AF
:10438000FE2F29D0660F771F881FBB1F2617370700
:104390004807AB07B0E809F0BB0B802DBF01FF2732
:1043A00093585F4F3AF09E3F510578F00C948A2065
:1043B0000C94D5205F3FE4F3983ED4F3869577952F
:1043C0006795B795F7959F5FC9F7880F911D9695EB
:1043D000879597F90895E1E0660F771F881FBB1F47
:1043E000621773078407BA0720F0621B730B840BF4
:1043F000BA0BEE1F88F7E09508950E940422689496
:10440000B1110C94D52008950E94BA2088F09F57CE
:1044100098F0B92F9927B751B0F0E1F0660F771FE8
:10442000881F991F1AF0BA95C9F714C0B13091F0DE
:104430000E94D420B1E008950C94D420672F782FE7
:104440008827B85F39F0B93FCCF3869577956795A3
:10445000B395D9F73EF490958095709561957F4F0F
:104460008F4F9F4F08950E94F91F08F48FEF089512
:10447000DB018F939F930E941021BF91AF91A29F68
:10448000800D911DA39F900DB29F900D1124089552
:10449000AA1BBB1B51E107C0AA1FBB1FA617B7076A
:1044A00010F0A61BB70B881F991F5A95A9F7809586
:1044B0009095BC01CD01089597FB072E16F400944A
:1044C00007D077FD09D00E94482207FC05D03EF4B2
:1044D000909581959F4F0895709561957F4F0895B0
:1044E0000E947C21B7FF0895821B930B0895EE0F65
:1044F000FF1F0590F491E02D09940F931F93CF9324
:10450000DF938230910510F482E090E0E091230483
:10451000F091240430E020E0B0E0A0E0309799F47E
:104520002115310509F44AC0281B390B2430310507
:10453000D8F58A819B816115710589F1FB0193830F
:104540008283FE0111C0408151810281138148178D
:104550005907E0F04817590799F4109761F012963F
:104560000C93129713961C933296CF01DF91CF9143
:104570001F910F9108950093230410932404F4CF06
:104580002115310551F04217530738F0A901DB011D
:104590009A01BD01DF01F801C1CFEF01F9CF90937E
:1045A000240480932304CDCFFE01E20FF31F8193F7
:1045B00091932250310939832883D7CF2091210448
:1045C00030912204232B41F4209156013091570160
:1045D00030932204209321042091540130915501FD
:1045E0002115310541F42DB73EB740915801509146
:1045F0005901241B350BE0912104F0912204E217AC
:10460000F307A0F42E1B3F0B2817390778F0AC01F5
:104610004E5F5F4F2417350748F04E0F5F1F5093D2
:10462000220440932104819391939FCFF0E0E0E036
:104630009CCFCF93DF930097E9F0FC013297138270
:104640001282A0912304B0912404ED0130E020E017
:104650001097A1F420813181820F931F20912104B2
:10466000309122042817390709F061C0F093220421
:10467000E0932104DF91CF910895EA01CE17DF077F
:10468000E8F54A815B819E0141155105B1F7E901C9
:10469000FB83EA8349915991C40FD51FEC17FD079D
:1046A00061F4808191810296840F951FE9019983BD
:1046B0008883828193819B838A83F0E0E0E0129675
:1046C0008D919C9113970097B9F52D913C9111977D
:1046D000CD010296820F931F209121043091220474
:1046E0002817390739F6309751F5109224041092A3
:1046F0002304B0932204A0932104BCCFD383C283AC
:1047000040815181840F951FC817D90761F44E5F0E
:104710005F4F88819981480F591F518340838A8157
:104720009B81938382832115310509F0B0CFF093EB
:104730002404E09323049ECFFD01DC01C0CF13824B
:104740001282D7CFB0E0A0E0E8EAF3E20C94252192
:104750008C01009751F4CB010E947D228C01C8018D
:10476000CDB7DEB7E0E10C944121FC01E60FF71F65
:104770009C0122503109E217F30708F49DC0D901CA
:10478000CD91DC911197C617D70798F0C530D105A8
:1047900030F3CE0104978617970708F3C61BD70B93
:1047A0002297C193D1936D937C93CF010E941923DB
:1047B000D6CF5B01AC1ABD0A4C018C0E9D1EA09198
:1047C0002304B0912404512C412CF12CE12C10979E
:1047D00031F580912104909122048815990509F002
:1047E0005CC04616570608F058C08091540190915D
:1047F0005501009741F48DB79EB7409158015091F3
:104800005901841B950BE817F90708F055C0F09380
:104810002204E0932104F90171836083A0CF8D917C
:104820009C91119712966C90129713967C90139707
:10483000A815B90559F56C0142E0C40ED11CCA1483
:10484000DB0420F1AC014A195B09DA0112961597D5
:1048500080F06282738251834083D9016D937C938F
:10486000E114F10471F0D7011396FC93EE931297C3
:1048700076CF22968C0F9D1FF90191838083F301DF
:10488000EFCFF0932404E093230469CF4816590630
:1048900008F42C017D01D3019ACFCB010E947D2227
:1048A0007C01009749F0AE01B8010E945F24C80165
:1048B0000E941923870153CF10E000E050CFFB0185
:1048C000DC0102C001900D9241505040D8F708958C
:1048D000FB01DC0101900D920020E1F70895F894AE
:0248E000FFCF08
:1048E2000176332E302E33004D757369636F6E007F
:1048F200E703010E1B111B151B111F0A0A1F1F1FA5
:104902000E04040E1F1F1F1F1F1F1F0E1B111F1F30
:104912001F1F1F0E1B11111F1F1F1F0E1B11111115
:104922001F1F1F0E1B111111111F1F0E1B11111121
:1049320011111F0100002504800000004000140036
:104942005400000000008B01EB001801D80149015E
:1049520027013B01000000000B04DE035504B403F1
:10496200D703C403B503000000005505EB0055044E
:1049720064030D0A00202020202020202020202057
:1049820020202020200042415454455259204348BF
:10499200415247494E470020422041205420542092
:1049A2004520522059202000204920532020204613
:1049B2002055204C204C202000204D2055205320F3
:1049C200492043204F204E20200054656D706F3ADD
:1049D2002000202020202053544F5020202020004F
:1049E2002020202047204F204F204420202020201C
:1049F2000020202020204220592045202020202055
:104A0200200020202020204C204F20572020202032
:104A1200202000504152414D20002D204544495450
:104A22003A202020002D20524541443A20202000E7
:044A3200505F0000D1
:00000001FF
