:100000000C9462000C948A000C948A000C948A0070
:100010000C948A000C948A000C948A000C948A0038
:100020000C948A000C948A000C948A000C948A0028
:100030000C948A000C948A000C948A000C948A0018
:100040000C94EE080C948A000C94BC080C9496084E
:100050000C948A000C948A000C948A000C948A00F8
:100060000C9438090C948A00000000002500280038
:100070002B000000000023002600290000000000E3
:10008000240027002A0001020408102040800102F9
:1000900004081020010204081020040404040404CD
:1000A000040402020202020203030303030300002A
:1000B0000008000201000003040700000000000027
:1000C00000008D0A11241FBECFEFD8E0DEBFCDBFE8
:1000D00012E0A0E0B1E0E8E4FEE402C005900D9279
:1000E000A435B107D9F724E0A4E5B2E001C01D9220
:1000F000AC36B207E1F710E0C2E6D0E004C02197C9
:10010000FE010E942A25C136D107C9F70E94BA0D07
:100110000C9422270C9400002091250381E02132C9
:1001200008F044C080914C038111FCCF80912403DE
:1001300092E090934C0391E090934B039FEF909348
:100140004A031092490320934803A4E0B3E0E6E297
:10015000F3E090E0291331C01092470390914703D8
:10016000880F892B8093470380914603813049F59E
:1001700010924603809147038093BB008091BC009E
:1001800083FDF8CF85EC8093BC0080914C038230D6
:10019000E1F380914A038F3FB1F080914A038032AE
:1001A000A1F080914A03803391F084E01092030320
:1001B000109225031092020308953D9131939F5FA1
:1001C000C9CF85EEE0CF80E0F1CF82E0EFCF83E0D2
:1001D000EDCF80914D0390914E03891B990B0895AB
:1001E00008950895AF92BF92CF92DF92EF92FF925F
:1001F0000F931F93CF93DF936C017B018B01040F4F
:10020000151FEB015E01AE18BF08C017D10759F0EA
:100210006991D601ED91FC910190F081E02DC6012C
:100220000995892B79F7C501DF91CF911F910F9126
:10023000FF90EF90DF90CF90BF90AF900895FC01BA
:10024000538D448D252F30E0842F90E0821B930B3B
:10025000541710F0CF96089501970895FC01918DE1
:10026000828D981761F0A28DAE0FBF2FB11D5D96E4
:100270008C91928D9F5F9F73928F90E008958FEF86
:100280009FEF08952FB7F89480916F0390917003BA
:10029000A0917103B09172032FBF80937B03909361
:1002A0007C03A0937D03B0937E0383E793E00E94D9
:1002B0002E0197FF26C02FB7F89480916F0390917D
:1002C0007003A0917103B09172032FBF40917B0323
:1002D00050917C0360917D0370917E03841B950B8C
:1002E000A60BB70B40917703509178036091790387
:1002F00070917A0384179507A607B707B0F28FEFBE
:100300009FEF0895FC01918D828D981731F0828DB9
:10031000E80FF11D858D90E008958FEF9FEF089510
:10032000FC01918D228D892F90E0805C9F4F821B74
:1003300091098F739927089583E793E00E949001B4
:1003400021E0892B09F420E0822F089580E090E0DD
:10035000892B29F00E949C0181110C9400000895C2
:10036000FC01A48DA80FB92FB11DA35ABF4F2C912A
:10037000848D90E001968F739927848FA689B78921
:100380002C93A089B1898C91837080648C93938D18
:10039000848D981306C00288F389E02D80818F7DBB
:1003A00080830895EF92FF920F931F93CF93DF9373
:1003B000EC0181E0888F9B8D8C8D98131AC0E889A1
:1003C000F989808185FF15C09FB7F894EE89FF8970
:1003D0006083E889F98980818370806480839FBF0E
:1003E00081E090E0DF91CF911F910F91FF90EF900E
:1003F0000895F62E0B8D10E00F5F1F4F0F7311271E
:10040000E02E8C8D8E110CC00FB607FCFACFE88958
:10041000F989808185FFF5CFCE010E94B001F1CF2F
:10042000EB8DEC0FFD2FF11DE35AFF4FF0829FB7CC
:10043000F8940B8FEA89FB8980818062CFCFCF93BC
:10044000DF93EC01888D8823B9F0AA89BB89E889FC
:10045000F9898C9185FD03C0808186FD0DC00FB6A2
:1004600007FCF7CF8C9185FFF2CF808185FFEDCF20
:10047000CE010E94B001E9CFDF91CF910895833082
:1004800081F028F4813099F08230A9F00895873006
:10049000A9F08830C9F08430B1F4809180008F7D5C
:1004A00003C0809180008F7780938000089584B589
:1004B0008F7784BD089584B58F7DFBCF8091B00088
:1004C0008F778093B00008958091B0008F7DF9CF31
:1004D000CF93DF93282F30E0F901E255FF4F84914D
:1004E000F901EA57FF4FD491F901E656FF4FC49145
:1004F000CC23A1F081110E943F02EC2FF0E0EE0F1F
:10050000FF1FEE58FF4FA591B491EC91ED2381E0D0
:1005100090E009F480E0DF91CF91089580E090E0D1
:10052000FACF1F93CF93DF93282F30E0F901E255E4
:10053000FF4F8491F901EA57FF4FD491F901E65634
:10054000FF4FC491CC23A9F0162F81110E943F02C6
:10055000EC2FF0E0EE0FFF1FE859FF4FA591B4918B
:100560008FB7F894EC91111108C0D095DE23DC937D
:100570008FBFDF91CF911F910895DE2BF8CFCF93DE
:10058000DF9390E0FC01EA57FF4F249186569F4F7E
:10059000FC0184918823C9F090E0880F991FFC0129
:1005A000E458FF4FA591B491FC01E859FF4FC59164
:1005B000D49161110DC09FB7F8948C91209582233E
:1005C0008C938881282328839FBFDF91CF91089542
:1005D000623051F49FB7F8943C91822F8095832329
:1005E0008C93E8812E2BEFCF8FB7F894EC912E2BC4
:1005F0002C938FBFEACF2091000190E4299F9001B6
:1006000011248E50822B80937C0080917A0080642C
:1006100080937A0080917A0086FDFCCF80917800EB
:100620009091790008953FB7F89480919802909145
:100630009902A0919A02B0919B0226B5A89B05C091
:100640002F3F19F00196A11DB11D3FBFBA2FA92F51
:10065000982F8827BC01CD01620F711D811D911D4E
:1006600042E0660F771F881F991F4A95D1F70895BA
:100670008F929F92AF92BF92CF92DF92EF92FF92B2
:100680004B015C010E9413036B017C010E94130368
:100690006C197D098E099F09683E7340810591059B
:1006A000A8F321E0821A9108A108B10888EEC80ECB
:1006B00083E0D81EE11CF11C81149104A104B10453
:1006C00029F7FF90EF90DF90CF90BF90AF909F9071
:1006D0008F9008954F925F926F927F928F929F9228
:1006E000AF92BF92CF92DF92EF92FF920F931F9340
:1006F000CF93DF93EC015B017C012BE7E20EF11C51
:10070000F70180819181FC01E45BFF4F0081118141
:100710009E012A583F4F69010115110509F0CDC00E
:100720008A810E946802019731F4FE01E858FF4F68
:100730008081811123C08A810E946802019731F46F
:10074000FE01E858FF4F80818823A1F08A810E9432
:100750006802892B09F4A6C08A810E946802892B4D
:1007600069F4FE01E858FF4F8081811107C002E063
:1007700010E004C081E080830FEF1FEFF6011183CA
:100780000083FDE9AF16FFEFBF0611F0BD82AC821A
:10079000F70100811181F801C080D1800D2C000C7F
:1007A000EE08FF082C813D81032E000C440B550BF5
:1007B0002C193D094E095F09A8EEB3E00E94C3233E
:1007C00022813381032E000C440B550B2C193D095B
:1007D0004E095F090E94A423293EF3E03F0714F06D
:1007E00028EE33E037FF02C030E020E07E018DE7E5
:1007F000E80EF11CF701318320834AA55BA5FA01BD
:10080000EE0FFF1FEC0FFD1F82849384092C000C58
:10081000AA08BB088CA59DA5AEA5BFA52C013D01CE
:10082000481859086A087B08530142013387228718
:10083000B901330F880B990B680D791D8A1D9B1D1B
:100840006CA77DA78EA79FA74F5F5F4F40315105D3
:100850000CF051C05BA74AA720E130E040E050E037
:100860000E94A423F70131832083F801E65BFF4F48
:1008700080819181019729F488EE93E0F7019183BB
:100880008083DF91CF911F910F91FF90EF90DF90C8
:10089000CF90BF90AF909F908F907F906F905F9020
:1008A0004F900895FE01E858FF4F8081882309F496
:1008B00053CF108201E010E061CF2C813D812150A7
:1008C00031092336310560F4FE01E858FF4F2081DD
:1008D00050E040E0211104C021E020834FEF5FEFA2
:1008E000F60151834083825B9F4FFC01808191819F
:1008F0009D838C834DCF1BA61AA6AECF089585EDA0
:100900008093BC008091BC0084FDFCCF10924C030E
:10091000089520917402260F3327331F21323105A9
:10092000ECF420914C03FC0190E080E0243069F06D
:1009300082E00895A09174022191AC014C5A5D4F60
:10094000A40FB52FB11D2C930196861798F38091B3
:100950007402680F6093740280E0089581E0089546
:100960000895E0914E0380914D03E81730F4F0E0D4
:10097000E15BFC4F808190E008958FEF9FEF089539
:1009800090914E0380914D032FEF3FEF981748F45D
:10099000E92FF0E0E15BFC4F208130E09F5F909316
:1009A0004E03C9010895CF92DF92EF92FF920F9309
:1009B0001F93CF93DF937C01CB018A012091020327
:1009C000222389F0EB016B01C40ED51ECC15DD0589
:1009D00069F06991D701ED91FC910190F081E02DD2
:1009E000C7010995F3CF642F0E948904C801DF91E4
:1009F000CF911F910F91FF90EF90DF90CF900895CE
:100A0000CF93DF931F92CDB7DEB7698320910203A6
:100A10002223F9F020912503203258F021E030E024
:100A2000FC013383228390E080E00F90DF91CF912F
:100A3000089580910303E82FF0E0EC5FFC4F99816B
:100A400090838F5F809303038093250381E090E080
:100A5000ECCF61E0CE0101960E948904F7CF682FA8
:100A600080E194E00C940005FC01248131E0309396
:100A7000020320932403109203031092250383851D
:100A8000862B90E00E942F050C948C0088E08093C8
:100A9000670460E08CE594E00C94340590E080E01D
:100AA00008958EBD00000DB407FEFDCF8EB50895EC
:100AB000FB0101900020E9F73197AF01461B570B6E
:100AC000DC01ED91FC910280F381E02D09948F927D
:100AD0009F92AF92BF92EF92FF920F931F93CF938B
:100AE000DF93CDB7DEB7A1970FB6F894DEBF0FBE88
:100AF000CDBF7C01FA01CB0119A2223008F42AE013
:100B00008E010F5D1F4F822E912CB12CA12CBF01A5
:100B1000A50194010E940524F901CA016A300CF56F
:100B2000605DD8016E938D01232B242B252B79F743
:100B300090E080E0109721F0BD01C7010E945805A8
:100B4000A1960FB6F894DEBF0FBECDBFDF91CF9157
:100B50001F910F91FF90EF90BF90AF909F908F905B
:100B60000895695CDECFCF92DF92EF92FF920F93F0
:100B70001F93CF93DF93EC016A017B01E881F98138
:100B80000190F081E02D6DE209958C0144275527F5
:100B9000BA014C195D096E097F092AE0CE010E9455
:100BA0006705800F911FDF91CF911F910F91FF90EB
:100BB000EF90DF90CF900895BC018CE594E00C9409
:100BC0005805AB01770F660B770B77FD0C94B305D7
:100BD0002AE00C94670590914C039111FCCF91E0B1
:100BE00090934C0390934B032FEF20934A03109262
:100BF0004903109248039093470390914703880F4D
:100C0000892B8093470380914603813021F5109210
:100C10004603809147038093BB008091BC0083FD15
:100C2000F8CF85EC8093BC0080914C038130E1F3D8
:100C30008091490391E0811102C090914903A6E29D
:100C4000B3E0EFE4F3E080E0891307C010924E03B5
:100C500080934D03089585EEE5CF2D9121938F5F0D
:100C6000F3CF0F931F93CF93DF938C01CB01209190
:100C70001C0431E0309302032093240310920303F9
:100C8000109225030E942F050E948C0080911C0465
:100C900090911D040E94EB0590914D0380914E03AD
:100CA0009817F1F380E194E00E94C004EC01809178
:100CB0001C0491E090930203809324031092030399
:100CC00010922503C8010E942F050E948C0080917C
:100CD0001C0490911D040E94EB0590914D0380919E
:100CE0004E039817F1F380E194E00E94C00420E0E5
:100CF000382FC9018C2B9D2BDF91CF911F910F9124
:100D0000089520911C0431E03093020320932403C2
:100D100010920303109225030E942F050E948C005D
:100D200080911C0490911D040E94EB0590914D034D
:100D300080914E039817F1F380E194E00C94C00485
:100D40000F931F93CF938C01C62F0E9434056C2FF5
:100D50006460C8010E9434056C2F6B7FC8010E943B
:100D6000340583EC90E00197F1F7CF911F910F913B
:100D700008950F931F93CF93DF938C01D62FC42F29
:100D8000607F642B0E94A00680E1D89FB0011124EF
:100D90006C2BC801DF91CF911F910F910C94A0068D
:100DA000CF93DF93CDB7DEB728970FB6F894DEBFA9
:100DB0000FBECDBF98E0EBE5F1E0DE0111960190AA
:100DC0000D929A95E1F790916504961708F46FEFEC
:100DD000262F30E0220F331F41E050E04C0F5D1F03
:100DE000240F351FF9016081680F606840E08CE5D1
:100DF00094E028960FB6F894DEBF0FBECDBFDF910A
:100E0000CF910C94B90641E00E94B90681E090E0D0
:100E100008950F931F93CF93DF938B0198E0899FE1
:100E2000B0011124606440E08CE594E00E94B906B2
:100E3000E801085F1F4F69918CE594E00E94030769
:100E4000C017D107C1F7DF91CF911F910F9108957E
:100E50000F931F93CF93DF93EC01888199810097C3
:100E600059F02A813B812617370730F081E0DF9166
:100E7000CF911F910F9108958B016F5F7F4F0E945B
:100E80005526009759F0998388831B830A832C8108
:100E90003D81232B59F7FC011082E8CF80E0E7CF9A
:100EA000CF92DF92EF92FF920F931F93CF93DF9336
:100EB00000D0CDB7DEB78C01C62EFC0111821082A6
:100EC000138212821582148270E060E00E9428076B
:100ED000F80120813181811137C02115310519F0C8
:100EE000C9010E94CC25F80111821082158214825A
:100EF000138212820E9442010C2C000CDD0897FD27
:100F00002BC08C159D0541F189831A82F801E4807C
:100F1000F580FFEFEF1AFF0AB701C8010E9428070A
:100F2000882379F0F8012081318184819581BE0187
:100F30006F5F7F4F820F931F0E941B27F801F5827E
:100F4000E4820E944201DBCF1582148265E971E0E0
:100F5000C9010E941B27CECFC8010F900F90DF91CF
:100F6000CF911F910F91FF90EF90DF90CF90089558
:100F7000DF92EF92FF920F931F93CF93DF93EC01D9
:100F80007A01CB014A978B01000F111F8C9760F4F7
:100F9000C00FD11FF982E882DF91CF911F910F918D
:100FA000FF90EF90DF900895D42E60E04F3F510501
:100FB00039F034F0CA016FEF70E00E940725D82E97
:100FC000C80101960E9496236D2DC80102960E94C9
:100FD000962361E0C8018B599F4F0E949623D8CF7A
:100FE0009F92AF92BF92CF92DF92EF92FF920F93B8
:100FF0001F93CF93DF93182F092FB42EA52E962E73
:10100000F72E60E08AE00E949102C3E2D0E0CE01B8
:101010000197F1F7812F0E9451058F2D0E945105F4
:10102000C12CD12C7601C82AFE2CED2CDC2CCC2432
:10103000892D0E945105C82AFE2CED2CDC2CCC24D5
:101040008A2D0E945105C82AFE2CED2CDC2CCC24C4
:101050008B2D0E945105C82A2197F1F761E08AE0A3
:101060000E94910280910003909101038F369105B7
:10107000D1F58091FC029091FD02A091FE02B09109
:10108000FF02892B8A2B8B2B19F180914E049091B2
:101090004F04A60153705093FB024093FA026CE395
:1010A00070E00E94B80780914E0490914F04FC01BB
:1010B000E258FF4F208131814091FA025091FB02AA
:1010C000241735070CF4A9016FE370E00E94B807FC
:1010D000A7014F7155276DE370E080914E04909108
:1010E0004F040E94B807809100039091010342973A
:1010F00069F4D092F902C092F802A6016EE370E0A2
:1011000080914E0490914F040E94B8071093000301
:1011100000930103DF91CF911F910F91FF90EF900A
:10112000DF90CF90BF90AF909F9008951F920F9245
:101130000FB60F9211242F933F934F935F936F93AA
:101140007F938F939F93AF93BF93EF93FF9383E727
:1011500093E00E94B001FF91EF91BF91AF919F91F9
:101160008F917F916F915F914F913F912F910F9050
:101170000FBE0F901F9018951F920F920FB60F92EF
:1011800011242F938F939F93EF93FF93E091830309
:10119000F09184038081E0918903F0918A0382FDBC
:1011A0001BC0908180918C038F5F8F7320918D0382
:1011B000821741F0E0918C03F0E0ED58FC4F958FE1
:1011C00080938C03FF91EF919F918F912F910F90BE
:1011D0000FBE0F901F9018958081F4CF1F920F9231
:1011E0000FB60F9211242F933F938F939F93AF933A
:1011F000BF9380916F0390917003A0917103B091A0
:1012000072033091970223E0230F2D3758F5019692
:10121000A11DB11D2093970280936F0390937003DB
:10122000A0937103B09372038091980290919902F8
:10123000A0919A02B0919B020196A11DB11D8093CD
:10124000980290939902A0939A02B0939B02BF9147
:10125000AF919F918F913F912F910F900FBE0F9063
:101260001F90189526E8230F0296A11DB11DD2CF1D
:101270001F920F920FB60F9211242F933F934F930B
:101280005F936F937F938F939F93AF93BF93EF93EE
:10129000FF938091B900887F803609F44AC0F0F549
:1012A000883209F4A7C018F5803109F49BC0B8F45E
:1012B000882309F4F9C0883009F494C0FF91EF91B4
:1012C000BF91AF919F918F917F916F915F914F915E
:1012D0003F912F910F900FBE0F901F90189588315E
:1012E00009F488C0803251F780934A0314C08034D7
:1012F00009F49DC040F48033B9F38833F9F6809344
:101300004A0385ECB0C0803509F485C0883509F4FE
:1013100096C0883499F60E947F04D0CF883909F4AA
:101320008CC038F5883729F050F4883611F08037B2
:1013300029F683E080934C031092960257C08838B8
:1013400009F47BC0803919F0803809F0B7CF80915B
:101350009602803208F071C0E091960281E08E0F13
:10136000809396028091BB00F0E0EA58FD4F8083A5
:101370003DC0803B39F0E0F4803A09F479C0883A06
:1013800009F09CCF84E080934C0310927502109278
:101390007402E0919F02F091A0020995809174027D
:1013A00081110FC081E0809374021092540209C031
:1013B000803C09F4A6CF883C09F4A3CF883B09F010
:1013C0007DCFE091750281E08E0F80937502F0E091
:1013D000EC5AFD4F80818093BB0090917502809103
:1013E000740229C0809147038093BB0085EC8093F1
:1013F000BC0064CF9091490380914803981758F539
:10140000E091490381E08E0F80934903F0E0EA5DAB
:10141000FC4F8081E9CFE091490381E08E0F8093FA
:1014200049038091BB00F0E0EA5DFC4F808390911E
:101430004903809148039817C8F285E8D8CFE09116
:10144000490381E08E0F809349038091BB00F0E057
:10145000EA5DFC4F808380914B0381115CCF81E07A
:101460008093460384EA8093BC0010924C0326CFFD
:1014700085EC8093BC0010924C03809196028032E0
:1014800030F4E0919602F0E0EA58FD4F108260914E
:10149000960270E0E0919D02F0919E0286E792E054
:1014A0000995109296020ACF10924A0334CFBF9248
:1014B000CF92DF92EF92FF920F931F93CF93DF9320
:1014C0006C017A01EB01CC0FDD1FCE0101960E9469
:1014D0008E23B82ECE0102960E948E23082F10E094
:1014E000CE018B599F4F0E948E23CC0DDD1D813084
:1014F00061F0F982E882DF91CF911F910F91FF9007
:10150000EF90DF90CF90BF9008958FEFB89E000DC1
:10151000111D112419830883EECFCF92DF92EF9231
:10152000FF920F931F93CF93DF9310927603109245
:10153000750388EE93E0A0E0B0E08093770390938A
:101540007803A0937903B0937A0327E631E03093D0
:1015500074032093730325EC30E0309380032093D1
:101560007F0324EC30E0309382032093810320EC4E
:1015700030E0309384032093830321EC30E03093F8
:1015800086032093850322EC30E030938803209378
:10159000870326EC30E030938A032093890310926E
:1015A0008C0310928D0310928E0310928F03109271
:1015B0001304109212048093140490931504A093C2
:1015C0001604B093170489E791E090931104809377
:1015D000100410925F0410925E044BE851E05093A7
:1015E0005D0440935C0487E28093600420E12093D3
:1015F000640492E0909365041092660488E08093FE
:101600006704109253041092520450935104409373
:1016100050043FE3309354042093580490935904AA
:1016200010925A0480935B0480EA90E00E94302577
:101630008C01FC0180569F4F11921192E817F90717
:10164000D9F750E040E070E060E0C8010E94570A1E
:1016500050E040E061E070E0C8010E94570A42E8B3
:1016600050E062E070E0C8010E94570A4CE350E08D
:1016700063E070E0C8010E94570A40E250E064E075
:1016800070E0C8010E94570A4AE050E065E070E04F
:10169000C8010E94570A4DE250E066E070E0C801C0
:1016A0000E94570A4AEE56E067E070E0C8010E94C7
:1016B000570A48E050E068E070E0C8010E94570A0D
:1016C00040E45FE169E070E0C8010E94570A40ED24
:1016D00053E16AE070E0C8010E94570A44E151E01A
:1016E0006BE070E0C8010E94570A4EEF51E06CE0D9
:1016F00070E0C8010E94570A40E451E06DE070E0DC
:10170000C8010E94570A4AEA50E06EE070E0C80142
:101710000E94570A42E350E06FE070E0C8010E9467
:10172000570A40E951E060E170E0C8010E94570AA1
:1017300040ED57E061E170E0C8010E94570A4CE2B9
:1017400051E062E170E0C8010E94570A44EC59E0A0
:1017500063E170E0C8010E94570A48E552E064E185
:1017600070E0C8010E94570A4CEA5DE065E170E054
:10177000C8010E94570A41E450E066E170E0C801E8
:101780000E94570A40E550E067E170E0C8010E94FE
:10179000570A41E050E068E170E0C8010E94570A32
:1017A00046E950E066E470E0C8010E94570A4FE73E
:1017B00050E067E470E0C8010E94570A44EA50E034
:1017C00068E470E0C8010E94570A45E050E069E40F
:1017D00070E0C8010E94570A42E150E06AE470E0FC
:1017E000C8010E94570A48ED5FEF6BE470E0C80142
:1017F0000E94570A44E853E06CE470E0C8010E947C
:10180000570A41E050E06DE470E0C8010E94570AB9
:1018100044E050E06EE470E0C8010E94570A43E0E3
:1018200050E06FE470E0C8010E94570A10934F0423
:1018300000934E048CEC90E00E943025EC0119825C
:1018400018821D821C821F821E8219861886FC0146
:101850003A9680E2DF011D928A95E9F71BA61AA647
:101860001CA61DA61EA61FA67E01B0E7EB0EF11C4E
:10187000F701118210823296108211821282138235
:101880003496118210823296108231961182108223
:101890003496118210823296118210823296118211
:1018A0001082329610821182128213823496108234
:1018B00011821282138234961082319681E08083E5
:1018C00031961082379610821182128213823496DA
:1018D00080E090E0A0E8B0E480839183A283B383AA
:1018E000349686E390E0918380831586148681E0A8
:1018F00090E09787868782E090E0918B808B83E0F1
:1019000090E0938B828B84E090E0958B848B85E0D4
:1019100090E0978B868B26E0C22ED12CD18EC08E84
:1019200027E030E0338F228F28E030E0358F248F9E
:101930002CE030E0378F268F2DE030E031A320A35C
:101940002EE030E033A322A32FE030E035A324A320
:101950002BE030E037A326A32AE130E031A720A70F
:101960002BE130E033A722A72CE130E035A724A7F4
:101970002FEF30E037A726A79B838A8362E00E947F
:10198000BF02D982C882FE01E558FF4F1183008350
:101990001B861A861D861C861F861E86198A188A33
:1019A0001B8A1A8A1D8A1C8A1F8A1E8A198E188E03
:1019B000EB54F10911921192EE15FF05D9F784E469
:1019C00090E00E943025DC01DD961C921E92DC978F
:1019D000FC01FE96108211821282138234961182CB
:1019E0001082FC019C01245C3F4F119211922E1732
:1019F0003F07D9F7FE01E257FF4F918380838CE6C2
:101A000090E00E943025DC01AC59BF4F11961C922A
:101A10001E92FC01EA59FF4F10821182128213823A
:101A2000349611821082FC0111921192AE17BF07F9
:101A3000D9F7FE01E057FF4F9183808384E891E05E
:101A40000E943025DC01A458BE4F11961C921E92B4
:101A5000FC01E258FE4F10821182128213823496EA
:101A600011821082FC0111921192EA17FB07D9F73B
:101A7000FE01EE56FF4F91838083D0934D04C093B7
:101A80004C0486E390E090931D0480931C04109214
:101A900029041092280481E090E090932B04809315
:101AA0002A0482E090E090932D0480932C0483E03C
:101AB00090E090932F0480932E0484E090E0909324
:101AC00031048093300485E090E090933304809358
:101AD000320486E090E0909335048093340487E0EC
:101AE00090E0909337048093360488E090E09093E0
:101AF0003904809338048CE090E090933B04809309
:101B00003A048DE090E090933D0480933C048EE095
:101B100090E090933F0480933E048FE090E0909398
:101B20004104809340048BE090E0909343048093C1
:101B300042048AE190E090934504809344048BE151
:101B400090E090934704809346048CE190E090935A
:101B50004904809348048FEF90E090934B04809366
:101B60004A04DF91CF911F910F91FF90EF90DF908A
:101B7000CF900895CF93DF93CDB7DEB768970FB6B8
:101B8000F894DEBF0FBECDBF789484B5826084BD6B
:101B900084B5816084BD85B5826085BD85B5816071
:101BA00085BD80916E00816080936E0010928100EF
:101BB00080918100826080938100809181008160AA
:101BC000809381008091800081608093800080916B
:101BD000B10084608093B1008091B00081608093F7
:101BE000B00080917A00846080937A0080917A00BE
:101BF000826080937A0080917A00816080937A007D
:101C000080917A00806880937A001092C10061E030
:101C100087E00E94BF0261E087E00E94910243E0FA
:101C200050E064E370E080914E0490914F040E9474
:101C3000B80783E08093000161E08AE00E94BF0260
:101C400061E083E00E94BF0261E089E00E94BF0280
:101C500061E088E00E94BF0261E08AE00E94910298
:101C600060E084E00E94BF0260E086E00E94BF0264
:101C700080E48093800089E0809381001092890045
:101C8000109288008CB58F7D8CBD8CB58C7F826066
:101C90008CBD8DB58E7F8DBD8CB58C608CBD1FB716
:101CA000F89480919C02811127C0E4EAF0E08491CD
:101CB000E0E9F0E09491E82FF0E0EE0FFF1FE45828
:101CC000FF4FA591B491EC91E92321F461E08AE002
:101CD0000E94910261E08AE00E94BF028CB580619F
:101CE0008CBD8CB580648CBD61E08DE00E94BF022C
:101CF00061E08BE00E94BF0280919C028F5F809325
:101D00009C021FBFE0918303F091840382E08083F3
:101D1000E0918303F09184031082E0917F03F091BE
:101D200080031082E0918103F091820380E180833F
:101D300010928B03E0918703F091880386E0808303
:101D4000E0918503F0918603808180618083E0913A
:101D50008503F0918603808188608083E09185030C
:101D6000F0918603808180688083E0918503F09103
:101D7000860380818F7D808340E050E0BA018BE84C
:101D800090E00E94F00743EC50E061E070E08CEEE0
:101D900090E00E94F00740E650E067E070E08DEED2
:101DA00090E00E94F00744E050E060E070E080E8DE
:101DB00090E00E94F00745E05EE064E070E080E9BA
:101DC00090E00E94F00743E050E060E070E081E9BD
:101DD00090E00E94F00744EF51E060E070E083E99A
:101DE00090E00E94F00748EB5BE060E070E084E97F
:101DF00090E00E94F00740E951E060E070E085E982
:101E000090E00E94F00741E050E060E070E083EA7B
:101E100090E00E94F00740ED57E060E070E084EA57
:101E200090E00E94F0074AE050E060E070E085EA50
:101E300090E00E94F00748E35EE060E070E086EA30
:101E400090E00E94F0074AE050E060E070E087EA2E
:101E500090E00E94F00744EF51E060E070E088EA13
:101E600090E00E94F00744EF51E060E070E08AEA01
:101E700090E00E94F0074AE050E060E070E08BEAFA
:101E800090E00E94F00741E050E060E070E080EAFE
:101E900090E00E94F00740E050ED67E070E08DEACE
:101EA00090E00E94F0074CE850E06DE270E0809115
:101EB0004E0490914F040E94B80742E050E068E35E
:101EC00070E080914E0490914F040E94B807E09119
:101ED0004C04F0914D04E557FF4F1082809154015E
:101EE000882309F413C101E0009302038FE3809378
:101EF000240310920303109225030E948C00811189
:101F000028C0809152049091530490935F04809371
:101F10005E04809154048093600480915504809302
:101F200061048091560480936204809157048093E9
:101F300063048091580480936404809159048093D1
:101F4000650480915A048093660480915B048093B9
:101F5000670410924E0310924D03109203031092E7
:101F6000250310924C0311E010934B03109246038B
:101F700061E082E10E94910261E083E10E949102AE
:101F80008091B9008E7F8093B9008091B9008D7FD8
:101F90008093B90088E48093B80085E48093BC0006
:101FA00020EF30E03093A00220939F0241EF50E0F9
:101FB00050939E0240939D021092610480916504AB
:101FC000823018F098E09093610490916604992310
:101FD00039F0813029F48091610484608093610438
:101FE00062E370E080E090E00E9438036091670453
:101FF0008CE594E00E94340568EE73E080E090E0A8
:102000000E94380360E38CE594E00E94A0068BE414
:1020100096E40197F1F760E38CE594E00E94A00656
:102020008BE496E40197F1F760E38CE594E00E947D
:10203000A00683E592E00197F1F760E28CE594E079
:102040000E94A00660916104606240E08CE594E02B
:102050000E94B90684E08093620440E06CE08CE565
:1020600094E00E94B90640E061E08CE594E00E94B3
:10207000B9068BE39FE10197F1F782E08093630457
:1020800040E066E08CE594E00E94B90640E062E042
:102090008CE594E00E94B9068BE39FE10197F1F78C
:1020A0006CE471E080E00E94090764E471E081E083
:1020B0000E9409076CE371E082E00E94090764E373
:1020C00071E083E00E9409076CE271E084E00E9405
:1020D000090764E271E085E00E9409076CE171E0A4
:1020E00086E00E94090764E171E087E00E94090729
:1020F0000E94460541E050E062E270E080914E04AB
:1021000090914F040E94B807109254012FB7F89491
:1021100080916F0390917003A0917103B09172034D
:102120002FBF8093F4029093F502A093F602B09330
:10213000F70251E05093020380E78093240310924A
:1021400003031092250384E090E00E942F050E9473
:102150008C0080914204909143040E9481066FEFAD
:102160007FEF85FF17C060913C0470913D04809122
:102170003A0490913B040E943106BC0190E080E05B
:102180000E946F2222E538EB4EE55FE30E94D022E9
:102190000E94A82480914C0490914D040E946A03EF
:1021A00000914C0410914D0418870F832FB7F894B9
:1021B00080916F0390917003A0917103B0917203AD
:1021C0002FBF05581F4F1801893E9340A105B10547
:1021D00008F422C5D101ED91FC9102A913A9EF8069
:1021E000F884B6E7EB0EF11CF7018081918102972C
:1021F00009F067C0D1018D919C91FC01428153810E
:10220000C080D1804C155D0564F470E060E00E94F0
:10221000B807A60161E070E0D1018D919C910E9408
:10222000B807D101ED91FC91428153818081918168
:102230009A01281B390B121613060CF0F0C43595C1
:102240002795A901480F591F848195819C01241B62
:10225000350B121613060CF0EAC42F3131050CF0C1
:10226000EDC4D1018D919C91FC0122813381285CC8
:102270003109021713076CF420813181A801421B38
:10228000530B141615060CF0DFC4433351050CF044
:10229000E1C4D1018D919C91FC01208131812853B1
:1022A0003F4F201731076CF422813381A801421B74
:1022B000530B141615060CF0D3C4433351050CF020
:1022C000D5C4D1018D919C91FC01248135810217E7
:1022D000130744F4D7012D913C9141E050E02230A6
:1022E000310511F050E040E064E270E00E94B80770
:1022F000F10180819181DC0114962D913C910217AE
:10230000130744F0F7012081318141E050E0223091
:10231000310511F050E040E065E270E00E94B8073E
:10232000D1018D919C91FC01248135810217130705
:1023300064F4D7012D913C912130310531F441E015
:1023400050E062E470E00E94B8070F8118850357DF
:102350001F4F1C870B87D8014C910F81188503589C
:102360001F4F1C8B0B8B411103C0D8011D921C9277
:10237000F1010190F081E02DFA87E987028513854C
:102380001A8B098BA680B78006851785248535852D
:10239000388B2F872A9DC0012B9D900D3A9D900D63
:1023A000112424E630E0B9010E940725069FF001C0
:1023B000079FF00D169FF00D1124AF81B885AF5720
:1023C000BF4FED93FC93AB89BC89CD90DC900D2C75
:1023D000000CEE08FF088F81988581589F4F9E87DB
:1023E0008D87AF81B885AD57BF4FBE8BAD8B8F81C9
:1023F000988589579F4F988F8F8B442309F43CC44D
:10240000A989BA89AA9EC001AB9E900DBA9E900D73
:102410001124B9010E940725609F2001619F500C83
:10242000709F500C1124712C612C9F0150E040E0F2
:102430002419350946095709C701B6010E94E3244A
:10244000E8EE8E2EE3E09E2EA12CB12CA501940186
:102450000E94A423420E531E641E751EED85FE8548
:10246000518240828AE009891A89809F2001819FD8
:10247000500C1124052C000C660877080F8518896C
:10248000809F9001819F300D1124032E000C440B7E
:10249000550B2419350946095709C701B6010E9491
:1024A000E324A50194010E94A423CA01B901640D8B
:1024B000751D861D971D0E94712220E030E048ECBA
:1024C00052E40E943624AD89BE896D937D938D932D
:1024D0009C931397E985FA850085118529893A89A6
:1024E000209FB001219F700D309F700D1124072E89
:1024F000000C880B990B0E94712220E030E040E232
:1025000051E40E94D0220E94A8242B013C014F8557
:102510005889409FB001419F700D509F700D11244C
:10252000072E000C880B990B0E94712220E030E0EE
:1025300040E251E40E94D0220E94A8249B01AC01F9
:102540002419350946095709C701B6010E94E32439
:10255000A50194010E94A423CA01B901640D751D4F
:10256000861D971D0E94712220E030E048EC52E465
:102570000E943624AF89B88D6D937D938D939C9383
:102580001397E985FA85E85BFF4F808191810F8180
:10259000188505571F4FEF81F885E457FF4F892BAA
:1025A00009F47CC321E0D8012C932083D8018C91BD
:1025B000882309F475C38081811172C321E0EB8502
:1025C000FC852083EF81F8854481558169E170E0C5
:1025D00089859A850E94B807AB89BC894D915C9129
:1025E0006AE170E0F101808191810E94B807AF89B2
:1025F000B88D8D909D90AD90BC9020E030E048EC7F
:1026000052E4C501B4010E94D0220E94AF247B0194
:10261000C501B4010E94A824AB016FE270E0F10192
:10262000808191810E94B807C70168EE73E00E9423
:10263000F324AB017C016BE170E0D1018D919C91A1
:102640000E94B807A7016CE170E0F10180819181DF
:102650000E94B80720E030E048EC52E4AD89BE8922
:102660006D917D918D919C910E94D0220E94AF240A
:10267000CB0168EE73E00E94F324AB017C016DE1B5
:1026800070E0F101808191810E94B807A7016EE19D
:1026900070E0D1018D919C910E94B807ED85FE8577
:1026A0008081918168EE73E00E94F324AB016FE1B9
:1026B00070E0D1018D919C910E94B807ED85FE8557
:1026C0008081918168EE73E00E94F324AC0160E2A6
:1026D00070E0D1018D919C910E94B807F801408172
:1026E00050E061E270E0D1018D919C910E94B807A9
:1026F000EF81F885E457FF4F408150E062E270E0DF
:10270000F101808191810E94B807AB85BC854C9115
:1027100050E063E270E0F101808191810E94B8078E
:10272000D1010D911C91F801EC5AFF4F608171812C
:10273000072E000C880B990B0E94712229E030EFC4
:102740004CE85AE30E94D02220E030E04EE453E40B
:102750000E94D0220E94A824AB016DE270E0C80163
:102760000E94B807EF81F885E257FF4F0190F08192
:10277000E02DEE5BFF4F408151816AE270E0F10194
:10278000808191810E94B807EF81F885E057FF4F63
:102790000190F081E02DE659FF4F408151816CE2BC
:1027A00070E0D1018D919C910E94B807EF81F8856E
:1027B000EE56FF4F0190F081E02DEE57FE4F408125
:1027C000518166E370E0F101808191810E94B80738
:1027D0000091F2021091F3028091F0029091F102C7
:1027E000080F191F17FF02C00F5F1F4F15950795A0
:1027F00085E10E94FB02081B190B055F1F4F073183
:10280000110508F0B7C0E0904C04F0904D0485E14C
:102810000E94FB024C01F701E558FF4FAC016BE24F
:1028200070E0808191810E94B807FFEF8F1AF1E07C
:102830009F0A880C991CF701EE56FF4F0081118109
:10284000F801E458FE4F20813181C901880F991F9A
:10285000800F911F680142E8C41A4EEFD40ADC01D0
:102860004D905C90052C000C66087708D6014D91C0
:102870005D916D917C914419550966097709DC01D8
:102880008D929C92092C000CAA08BB08CB01BA01BE
:10289000680D791D8A1D9B1DD6016D937D938D93C7
:1028A0009C9313972F5F3F4F2E3B31050CF0FCC1DB
:1028B000318320830E571E4F2EEB30E040E050E076
:1028C0000E94A423F80131832083F701E057FF4FD2
:1028D00000811181C501B4010E9471222AE939E900
:1028E00049E95EE30E9436240E94A824D801AC592D
:1028F000BF4F2D913C911197F901EE0FFF1F7F0102
:10290000E00EF11EA8014A595F4FF7014080518047
:10291000052C000C66087708FA0180809180A2805F
:10292000B38084189508A608B708F70171836083FF
:102930006B01770FEE08FF08C701B601680D791D1E
:102940008A1D9B1DFA0160837183828393832F5FAD
:102950003F4F223331050CF0AAC12D933C93065909
:102960001F4F22E330E040E050E00E94A423D80152
:102970002D933C938091F0029091F1029093F30299
:102980008093F20285E10E94FB029093F102809312
:10299000F00200914C0410914D0481E10E94FB0271
:1029A000F801E257FF4F0190F081E02D24AD35ADE5
:1029B000D901AA0FBB1F5D01AE0EBF1E8F01025CC5
:1029C0001F4FD5014D915C91052E000C660B770BC6
:1029D000D801CD90DD90ED90FC90C41AD50AE60A9E
:1029E000F70AD5018D939C93092E000CAA0BBB0B03
:1029F000BC01CD016C0D7D1D8E1D9F1DD8016D93F9
:102A00007D938D939C9313972F5F3F4F2E3131050C
:102A10000CF050C135AF24AF8F010E5B1F4F2EE17C
:102A200030E040E050E00E94A423F801318320838D
:102A300000914C0410914D0480E10E94FB027C0146
:102A400005581F4FD8018D919C91FC01208D318D2F
:102A5000C68CD78CA28CB38C45018C189D08648CD5
:102A6000758C23014C185D08A9014C195D094E15A0
:102A70005F0554F52C0D3D1DE216F3062CF5EA59C1
:102A8000FF4F2081318121303105F1F034972081D1
:102A900031812130310509F010C132966081718198
:102AA000FB01EE0FFF1FE80FF91F408151814150DC
:102AB00051090E94B80741E050E063E370E0D8019B
:102AC0008D919C910E94B8078E149F0474F5AC0CF4
:102AD000BD1CEA14FB044CF5F80180819181FC01D6
:102AE000EA59FF4F2081318122303105F1F03497CE
:102AF000208131812130310509F0EDC032966081AD
:102B00007181FB01EE0FFF1FE80FF91F408151811A
:102B10004F5F5F4F0E94B80742E050E063E370E010
:102B2000D8018D919C910E94B8074E145F0464F502
:102B3000C60CD71CEC14FD043CF5F8018081918192
:102B4000FC01EA59FF4F2081318123303105E1F04A
:102B5000349720813181232B41F4329620813181B9
:102B600041E050E02135310514F050E040E061E3F0
:102B700070E00E94B80743E050E063E370E0D801E2
:102B80008D919C910E94B807B9EEEB16B3E0FB065D
:102B90004CF050E040E063E370E0F8018081918107
:102BA0000E94B807A7016EE270E0D8018D919C9158
:102BB0000E94B807E0914E04F0914F04E859FF4F8E
:102BC00080819181039709F094C086E00E94680299
:102BD000019709F08EC08091A102882309F48CC06E
:102BE00080914E0490914F04E0914C04F0914D047B
:102BF000E557FF4F108244E050E064E370E00E942C
:102C0000B80750E040E060E370E080914E0490919E
:102C10004F040E94B80770C008EE13E0E0CA9C01A0
:102C2000241B350B37FF0BCB2F5F3F4F08CB9A018F
:102C3000281B390B2F3131050CF413CB62E070E007
:102C4000CF010E94B8070DCB201B310B2333310578
:102C50000CF41FCBA80170E060E00E94B80719CB0C
:102C6000201B310B233331050CF42BCBA80161E081
:102C700070E00E94B80725CBED85FE851182108299
:102C8000AD89BE891D921D921D921C921397EF89EA
:102C9000F88D108211821282138273CC108286CC3E
:102CA000AB85BC851C928ECC1182108203CE1D9206
:102CB0001C9255CE15AE14AEAFCEFC01E05AFF4FBC
:102CC00040815181141615060CF0F5CE4150510982
:102CD00060E370E0EECEFC01E05AFF4F408151818D
:102CE000403551050CF018CF4F5F5F4F60E370E047
:102CF00011CFB1E0B093A10280914E0490914F04A6
:102D0000FC01E859FF4F20813181232B61F43A9671
:102D1000208131812130310531F441E050E064E31C
:102D200070E00E94B80780914E0490914F04FC011E
:102D3000E859FF4F208131812130310561F43A9605
:102D4000208131812330310531F442E050E064E3E9
:102D500070E00E94B807E0914E04F0914F04E859EA
:102D6000FF4F808191810297C0F586E00E94680242
:102D700020914E0430914F04019741F0F901EE5A31
:102D8000FF4F80819181853691053CF143E050E011
:102D900064E370E0C9010E94B80761E087E00E9427
:102DA00091021092A1021092C2028091F4029091BD
:102DB000F502A091F602B091F7028093C7029093BA
:102DC000C802A093C902B093CA028093D302909321
:102DD000D402A093D502B093D60283E793E00E9479
:102DE0009001181619060CF092C06AE3CE01019604
:102DF0000E94500709811A8160E070E0CB01011543
:102E0000110519F0C8010E9433227B017093110152
:102E100060931001C8010E94CC256AE0CE010196A2
:102E20000E94500709811A8160E070E0CB01011512
:102E3000110519F0C8010E9433227093A302609318
:102E4000A202C8010E94CC25E4E6EE16F10411F5B9
:102E500010E000E0E0914E04F0914F04C801880FAB
:102E6000991FE80FF91F40815181052E000C660B58
:102E7000770B77FF7AC283E793E00E94B30563E99B
:102E800071E083E793E00E9458050F5F1F4F003504
:102E9000110501F78091100190911101853691057E
:102EA00061F468E071E083E793E00E94580563E90C
:102EB00071E083E793E00E945805809110019091A2
:102EC00011018636910561F461E071E083E793E0DA
:102ED0000E94580563E971E083E793E00E9458057A
:102EE00060911001709111016035710554F44091A9
:102EF000A2025091A30280914E0490914F040E942F
:102F0000B80787EE93E0909311018093100140E0A1
:102F100050E0BA018FE690E00E94F00740E050E0F8
:102F2000BA0182E190E00E94F00780914E049091F6
:102F30004F04FC01EA5BFF4F2081318121303105D4
:102F400009F019C2B296208131812330310509F090
:102F500012C22091EF0221110EC260E088E00E94AF
:102F60009102E0914C04F0914D04E158FF4F8081B3
:102F70009181B0E0A0E04091FC025091FD0260918F
:102F8000FE027091FF02481759076A077B0708F491
:102F90000FC24091FC025091FD026091FE027091BF
:102FA000FF02411551056105710569F08417950708
:102FB000A607B70740F48093FC029093FD02A0930C
:102FC000FE02B093FF0280914E0490914F04FC01E9
:102FD000E856FF4F8E5A9F4F20813181FC0180813E
:102FE0009181281739071CF4F1E0F093EF0240912A
:102FF000FC025091FD026091FE027091FF0287EA8F
:1030000090E00E94F0078091F4029091F502A09167
:10301000F602B091F702883E13E09107A105B105D1
:1030200058F0E0914E04F0914F04E859FF4F208191
:1030300031812330310539F0E0914C04F0914D0499
:10304000E557FF4F10824091EB025091EC026091E6
:10305000ED027091EE02452B462B472B19F5895E48
:103060009340A109B10983369105A105B105D0F4BA
:1030700050E040E067E370E080914E0490914F048F
:103080000E94B8078091F4029091F502A091F60297
:10309000B091F7028093EB029093EC02A093ED02C3
:1030A000B093EE028090F4029090F502A090F602A8
:1030B000B090F7028091E7029091E802A091E902B6
:1030C000B091EA02892B8A2B8B2B09F047C0D501DE
:1030D000C4018D5D9540A109B109873C9105A10509
:1030E000B105E0F558E2E52EF12C10E000E085E1B5
:1030F0000E94FB02080F191F65E070E080E090E07D
:103100000E94380321E0E21AF10889F7C80168E259
:1031100070E00E940725072E000C880B990B0E9477
:10312000712229E030EF4CE85AE30E94D02220E0DF
:1031300030E048E455E40E94D0220E94A824709315
:10314000E6026093E50231E03093EF028092E702FD
:103150009092E802A092E902B092EA028091E10224
:103160009091E202A091E302B091E402892B8A2BB4
:103170008B2B09F06CC041ED841A47E0940AA1083A
:10318000B10853E685169104A104B10408F05FC0AC
:1031900008E210E0F12CE12C85E10E94FB02E80E30
:1031A000F91E65E070E080E090E00E943803015075
:1031B000110991F71092EF020091E5021091E602D9
:1031C000C0904E04D0904F04C70168E270E00E94A6
:1031D0000725072E000C880B990B0E94712229E00D
:1031E00030EF4CE85AE30E94D02220E030E048E47F
:1031F00055E40E94D0220E94A824C801861B970B88
:10320000A80144970CF0F9C04A50510963E170E0FD
:10321000C6010E94B80780914E0490914F04DC01D2
:103220009C964D915C9167E370E00E94B807809195
:10323000F4029091F502A091F602B091F70280930A
:10324000E1029093E202A093E302B093E402409083
:10325000F4025090F5026090F6027090F7028091AF
:10326000DD029091DE02A091DF02B091E0029301B5
:103270008201081B190B2A0B3B0BD901C801C3970C
:10328000A105B10508F4EFC08091130111E0812779
:10329000809313011093020380E78093240310921C
:1032A00003031092250385E090E00E942F050E9401
:1032B0008C0080914204909143040E94810685FF16
:1032C0009FC060913C0470913D0480913A049091BC
:1032D0003B040E943106BC0190E080E00E946F2216
:1032E00022E538EB4EE55FE30E94D0220E94A8243D
:1032F0006B017093BB026093BA0220914E0430912F
:103300004F0438872F83D90116962D903C90910158
:10331000032C000C440B550B60EA7CE880E090E045
:103320000E94A4238091B8029091B9026091B602E4
:103330007091B702B8EECB16B3E0DB060CF48EC288
:10334000F9EBCF16FBE0DF060CF45BC3883E03E02D
:1033500090070CF056C3805F914F9093B902809311
:10336000B802CB01821B930B87C22AE083E793E06C
:103370000E94670584CDFC01E856FF4F8E5A9F4F8F
:1033800020813181DC018D919C9128173907ECF463
:1033900060E088E00E94910248EE53E060E070E057
:1033A00087EA90E00E94F00701E00093EF022BCE45
:1033B0004C505E4F6F4F7F4F4093FC025093FD0285
:1033C0006093FE027093FF02E4CD8091EF028111C1
:1033D000DFCF61E088E00E94910240E050E0BA0156
:1033E00087EA90E00E94F0071092FC021092FD0222
:1033F0001092FE021092FF0206CE445F5F4F06CF8E
:103400004FEF5FEF64E470E080914E0490914F04C1
:103410000E94B80780914E0490914F04FC01EE5A2F
:10342000FF4F20813181223331053CF43C962081CD
:10343000318150E040E0232B11F041E050E06BE39C
:1034400070E00E94B8078091F4029091F502A0917B
:10345000F602B091F7028093DD029093DE02A09312
:10346000DF02B093E0028091F4029091F502A09106
:10347000F602B091F7024091D9025091DA026091C0
:10348000DB027091DC02841B950BA60BB70B893E07
:103490009340A105B10508F47EC080914E0490913F
:1034A0004F042091120131E0232720931201FC01E7
:1034B000E258FF4F20813181203531050CF0EBC2FD
:1034C000B09720813181121613060CF0E4C22091CE
:1034D000BC023091BD022F5F3F4F3093BD0220935D
:1034E000BC0248EE53E06FE370E00E94B8078091A1
:1034F0004E0490914F04FC01E456FF4F4091BC02F2
:103500005091BD0220813181241735078CF410922F
:10351000BD021092BC0248EE53E06FE370E00E94DF
:10352000B807E0914C04F0914D04E557FF4F10822D
:103530008091EF02882309F4D3C280914E049091C8
:103540004F042091D7023091D802FC01E656FF4F7C
:1035500040815181241735070CF0A2C27697408133
:1035600051814130510509F49BC22F5F3F4F309389
:10357000D8022093D7028091F4029091F502A09195
:10358000F602B091F7028093D9029093DA02A093E9
:10359000DB02B093DC02E0914E04F0914F04E85955
:1035A000FF4F8081918161E0039709F060E08FE037
:1035B0000E949102E0914E04F0914F04E859FF4FB0
:1035C00080819181019729F4609112018FE00E941E
:1035D0009102E0914E04F0914F04C090F402D0901B
:1035E000F502E090F602F090F702DF01AA58BF4F13
:1035F0008D919C91892B71F444A155A141155105E0
:1036000049F0CF0188599F4FDC018D919C91039720
:1036100009F46BC2C092D302D092D402E092D502D8
:10362000F092D60280914E0490914F044091F402A2
:103630005091F5026091F6027091F7020091CF026D
:103640001091D0022091D1023091D202401B510B37
:10365000620B730BFC0100A111A1012E000C220BC7
:10366000330B041715072607370708F04DC0E05A3B
:10367000FF4F408151814115510509F003C488591C
:103680009F4FDC010D911C918091C0029091C1026D
:103690008017910771F040E061E08CE594E00E94B2
:1036A000B9068BE39FE10197F1F71093C1020093F4
:1036B000C0020115110509F037C260E080E00E94E8
:1036C000D00686E991E00E94DC0561E080E00E947E
:1036D000D00686E991E00E94DC051092670460E064
:1036E0008CE594E00E9434058091F4029091F502FB
:1036F000A091F602B091F7028093CF029093D0028E
:10370000A093D102B093D20280914E0490914F04C5
:103710004091F4025091F5026091F6027091F70227
:10372000FC01EA59FF4F20813181215031092230BB
:10373000310508F4F5C34093CB025093CC0260935B
:10374000CD027093CE0280914E0490914F04FC0103
:10375000E859FF4F20813181B90164507109C0904F
:10376000F402D090F502E090F602F090F702623099
:10377000710518F02230310541F4B9EBCB16BBE0EE
:10378000DB06E104F10408F0FCC3C092C702D0924A
:10379000C802E092C902F092CA02C090F402D0902E
:1037A000F502E090F602F090F70280914E049091BD
:1037B0004F044091C3025091C4026091C5027091C0
:1037C000C60297018601041B150B260B370BB901A6
:1037D000A801DC019A960D911C91012E000C220B80
:1037E000330B041715072607370708F068C5FC01D7
:1037F000EA56FF4F40815181FE9720813181241785
:1038000035070CF0E9C3B1E1CB16B7E2DB06E10402
:10381000F10408F4E1C33296208131812B35310562
:103820000CF4DAC341E050E068E370E00E94B807AE
:1038300080914E0490914F04FC0144A555A567E387
:1038400070E00E94B80750E040E069E370E08091CA
:103850004E0490914F040E94B8079CC4893BEBE052
:103860009E070CF4CEC080519E409093B902809385
:10387000B802CB01820F931F9093B7028093B602D8
:1038800010E000E080E19EE0821B930B6091B602A5
:103890007091B7028617970724F41092B70210921E
:1038A000B6026091B6027091B70277FF04C09093A0
:1038B000B7028093B602D6010E941B2520E13EE0AC
:1038C00040E050E00E94A4238091B6029091B7029C
:1038D000280F391F3093B5022093B4024091B002F3
:1038E0005091B1026091B2027091B3024092B00265
:1038F0005092B1026092B2027092B3028091AE0215
:103900009091AF02843091050CF07EC0012BE9F15B
:103910002091B8023091B902441A550A052C000CC6
:10392000660877084091AA025091AB026091AC0200
:103930007091AD02440E551E661E771E4092AA027B
:103940005092AB026092AC027092AD02C21AD30ADE
:103950000D2C000CEE08FF084091A6025091A70222
:103960006091A8027091A902C40ED51EE61EF71E32
:10397000C092A602D092A702E092A802F092A902F9
:1039800001969093AF028093AE024091A4025091B1
:10399000A50263E470E08F8198850E94B80740918A
:1039A000A4025091A50257FF03C0519541955109BA
:1039B00069E270E080914E0490914F040E94B80734
:1039C0004091BA025091BB0264E470E080914E04D1
:1039D00090914F040E94B8074091B4025091B502F3
:1039E00065E470E080914E0490914F040E94B80706
:1039F0008091BA029091BB029093B9028093B80271
:103A000009CD01E010E03ECF2091A6023091A7023F
:103A10004091A8025091A902A4EFB1E00E94C323F3
:103A20006B017C012091AA023091AB024091AC0263
:103A30005091AD02A3E0B0E00E94C3239B01AC0112
:103A4000C701B6010E94A423EAE0E29FC001E39F00
:103A5000900D1124B1010E940725E69FC001E79F48
:103A6000900D11249093A5028093A4021092AA02B3
:103A70001092AB021092AC021092AD021092A6020C
:103A80001092A7021092A8021092A9021092AF02FF
:103A90001092AE027ACF1092BD021092BC0221CDDC
:103AA00050E040E069E270E00E94B8071092EF0237
:103AB0001092D8021092D70280914E0490914F0438
:103AC000FC01EC57FF4F208131812130310509F095
:103AD00052CD50E040E062E470E00E94B8074BCD68
:103AE0001092D8021092D70246CD28EE33E0DA01C8
:103AF0000E9423250091D3021091D4022091D50277
:103B00003091D602C01AD10AE20AF30A6C157D057B
:103B10008E059F0508F086CD44E050E064E370E038
:103B2000CF010E94B8077ECD0130110509F04BC0CE
:103B30000E94460560E080E00E94D00687EA91E09E
:103B40000E94DC0561E080E00E94D0068FE991E0F0
:103B50000E94DC058091BE029091BF020196909375
:103B6000BF028093BE0206978CF0E0914E04F09164
:103B70004F04E659FF4F80819181813591058CF08A
:103B800084E090E09093BF028093BE026091BE02F9
:103B90008CE594E00E9403078CE991E00E94DC052B
:103BA000A3CD8035910591F38C3391050CF443C47A
:103BB00083E090E0E7CF82E090E0E4CF1093BF0293
:103BC0000093BE02E3CF0230110589F40E9446053E
:103BD00060E080E00E94D00688EB91E00E94DC0566
:103BE00061E080E00E94D00689EC91E0D7CF0330FD
:103BF000110509F01EC10E94460580914E04909166
:103C00004F04FC01EC59FF4F20813181283E3340A5
:103C100034F448EE53E062E370E00E94B80760E0DD
:103C200080E00E94D0068AED91E00E94DC0561E010
:103C300080E00E94D006E0914C04F0914D04E957D9
:103C4000FF4F20E030E0A901608171818281938182
:103C50000E94DE2418160CF06DC08BEE91E00E94DD
:103C6000DC05E0914C04F0914D04E957FF4F608171
:103C70007181828193810E94A8248CE594E00E9446
:103C8000E10583EA91E00E94DC0561E08EE00E949C
:103C9000D006E0914E04F0914F04E059FF4F80812F
:103CA0009181029709F049C066E08CE594E00E949A
:103CB000030761E08FE00E94D00680914E0490914E
:103CC0004F04FC01E65AFF4F2081318167E0243622
:103CD00031050CF4A9C0FC01EE58FF4FE080F180E3
:103CE000E1E0EE16F10409F040C00091BE0210912F
:103CF000BF02602F8CE594E00E9403070F5F1F4F07
:103D00001093BF020093BE02063011050CF4ECCCF8
:103D1000E0914E04F0914F04E659FF4F808191816C
:103D2000813591057CF084E090E09093BF02809310
:103D3000BE02DACC83EF91E0A6CF85EA91E00E9443
:103D4000DC05B7CF8035910509F4CECC8C339105D5
:103D50000CF47DC383E090E0E8CF82E090E0E5CF13
:103D6000F092BF02E092BE02BFCC86599F4FDC01A9
:103D70008D919C91803591052CF065E08CE594E067
:103D80000E940307E0914E04F0914F04E659FF4F63
:103D900080819181CC97449728F464E08CE594E08D
:103DA0000E940307E0914E04F0914F04E659FF4F43
:103DB000808191818D970F9728F463E08CE594E0E2
:103DC0000E940307E0914E04F0914F04E659FF4F23
:103DD0008081918183970A9728F462E08CE594E0D2
:103DE0000E940307E0914E04F0914F04E659FF4F03
:103DF0008081918149970A9728F461E08CE594E0ED
:103E00000E940307E0914E04F0914F04E659FF4FE2
:103E100080819181499724F480911201811103C01E
:103E200085EA91E0BBCE60E08CE594E00E94030758
:103E30005BCC0430110589F40E94460560E080E007
:103E40000E94D00681E092E00E94DC0561E080E003
:103E50000E94D00682E192E0A1CE0530110509F062
:103E600043CC0E94460560E080E00E94D00683E2D9
:103E700092E00E94DC0561E080E00E94D00688EBC1
:103E800091E08CCE4150510962E370E00E94B80786
:103E900060E080E00E94D00684E392E00E94DC05AE
:103EA000E0914E04F0914F04EE59FF4F80819181D3
:103EB000019799F58BE392E00E94DC0561E080E0D8
:103EC0000E94D00681E592E00E94DC05E0914E045C
:103ED000F0914F04EC59FF4F608171818CE594E0C3
:103EE0000E94E10580EF91E00E94DC0580914E0484
:103EF00090914F04FC01EC59FF4F20813181220F3A
:103F0000331F820F931FFC01608171818CE594E067
:103F10000E94E1058EE991E041CE86E492E0CCCFAB
:103F20000091CB021091CC022091CD023091CE02B3
:103F3000401B510B620B730BDC0190960D911C9191
:103F4000012E000C220B330B041715072607370729
:103F500008F0F9CB50E040E063E370E00E94B8075E
:103F60008091F4029091F502A091F602B091F702CF
:103F70008093CB029093CC02A093CD02B093CE025B
:103F8000E2CB4091C7025091C8026091C902709182
:103F9000CA02C41AD50AE60AF70AFC0102A113A153
:103FA000012E000C220B330B0C151D052E053F05B1
:103FB00008F0F3CB50E040E064E370E00E94B80703
:103FC000E0914C04F0914D04E557FF4F108260E002
:103FD00087E00E949102E1CB42E050E068E370E0AC
:103FE0000E94B80780914E0490914F04FC01E25961
:103FF000FF4F40815181DC019E962D913C919F970E
:10400000421753075CF498962D913C912456310940
:104010007697608171816217730794F01416150604
:10402000ACF4FC0120A531A52C593F4FE85AFF4FB5
:1040300060817181261737074CF44150510902C045
:104040004F5F5F4F67E370E00E94B807E0914E0456
:10405000F0914F04E259FF4F0081118161E083E04C
:104060000E94BF020115110599F560E083E00E94EE
:10407000910280914E0490914F04FC01E259FF4F50
:10408000DC019E964D915C9120813181421753074E
:1040900051F47E9640815181F4972081318124171B
:1040A00035070CF45CC02091C202211158C0FC01FC
:1040B000E457FF4F40815181F497208131812417CB
:1040C00035070CF467C041E050E069E370E0C3CB12
:1040D0000F3F110511F461E0C9CFE1EBF0E0E4918D
:1040E000E33019F140F4E130B1F0E230C9F00038CA
:1040F00011058CF7BACFE73011F1E83041F1E43027
:10410000B1F78091800080628093800010938B00D3
:1041100000938A00AECF84B5806884BD07BDA9CF67
:1041200084B5806284BD08BDA4CF80918000806882
:104130008093800010938900009388009ACF80912B
:10414000B00080688093B0000093B30092CF80915C
:10415000B00080628093B0000093B4008ACF43E047
:1041600050E069E370E00E94B80780914E0490919E
:104170004F04FC01E457FF4F885A9F4F2081318143
:10418000FC0180819181821793070CF0A8C0F1E0B7
:10419000F093C20200914E0410914F04F801E057D1
:1041A000FF4F0190F081E02DD801A257BF4FCD9075
:1041B000DC9011970D2C000CEE08FF08D4972D9180
:1041C0003C91032E000C440B550B2C193D094E0954
:1041D0005F09A4E6B0E00E94C323D801A059BF4FF5
:1041E0002D913C9111972130310509F087C05297EC
:1041F0002D913C9111972115310509F07CC0D49681
:104200002D913C91AF01421B530B9A01032E000CE0
:10421000440B550B2C193D094E095F090E94A4233C
:10422000A9012536310514F044E650E057FF02C0DD
:1042300050E040E0F801E859FF4F808191818130E2
:10424000910509F04FC03296808191814817590736
:104250000CF04BC080914E0490914F04FC01E85942
:10426000FF4F2081318123303105C9F432962081FE
:104270003181253031059CF44091F4025091F502D2
:104280006091F6027091F702413157426105710564
:1042900030F045E050E064E370E00E94B8078091A0
:1042A000F4029091F502A091F602B091F70280938A
:1042B000C3029093C402A093C502B093C60280E0EB
:1042C00090E0892B11F40C946E0F0E949C018823BE
:1042D00011F40C946E0F0E9400000C946E0F10925B
:1042E000C20258CF02970CF4B5CF65E370E0C80165
:1042F0000E94B807AFCF12161306C4F09F01FF0F3C
:10430000440B550B2C193D094E095F090E94A4234B
:10431000A9012536310514F044E650E057FF02C0EC
:1043200050E040E065E370E0C801B7CFD801AC567B
:10433000BF4F2D913C91AF01421B530B9A01032EAD
:10434000000C440B550B2C193D094E095F090E94C6
:10435000A423A9012536310514F044E650E057FFA7
:1043600002C050E040E0F801E859FF4F80819181A0
:104370008130910509F04EC03296808191814817B5
:1043800059070CF04AC080914E0490914F04FC01F3
:10439000E859FF4F208131812330310531F43296C5
:1043A0002081318125303105F4F150E040E060E4B6
:1043B00070E00E94B80780914E0490914F04DC0198
:1043C000A256BF4FFC01E058FF4F4D915C912081F8
:1043D00031814217530709F062CF4091F4025091A6
:1043E000F5026091F6027091F70241315742610582
:1043F000710508F454CF45E050E064E370E00E949A
:10440000B80750E040E060E470E080914E04909185
:104410004F0443CF02970CF4B6CF65E370E0C801B8
:104420000E94B807B0CFFC01E058FF4F4081518196
:104430004F5F5F4FBCCF8D3291050CF0BCCB8397A3
:104440000CF0BCCB1092BF021092BE029FCB8D32FB
:1044500091050CF082CC83970CF082CC1092BF02B5
:104460001092BE0241C91F93FC0199278827BC0105
:10447000E89411911032E9F3193010F01E30C8F3AE
:104480001B3251F01D3249F4689406C00E945A2232
:10449000610F711D811D911D119110531A30B0F3E0
:1044A0003EF490958095709561957F4F8F4F9F4F0B
:1044B0001F910895592F482F372F262F660F771FEA
:1044C000881F991F660F771F881F991F620F731F20
:1044D000841F951F660F771F881F991F0895E89402
:1044E00009C097FB3EF490958095709561957F4F3C
:1044F0008F4F9F4F9923A9F0F92F96E9BB279395EA
:10450000F695879577956795B795F111F8CFFAF4F9
:10451000BB0F11F460FF1BC06F5F7F4F8F4F9F4F2A
:1045200016C0882311F096E911C0772321F09EE888
:10453000872F762F05C0662371F096E8862F70E0EE
:1045400060E02AF09A95660F771F881FDAF7880FC8
:104550009695879597F90895990F0008550FAA0B1E
:10456000E0E8FEEF16161706E807F907C0F0121686
:104570001306E407F50798F0621B730B840B950B89
:1045800039F40A2661F0232B242B252B21F40895DE
:104590000A2609F4A140A6958FEF811D811D08957B
:1045A0000E94E3220C9454230E94462338F00E9478
:1045B0004D2320F0952311F00C943D230C944323BC
:1045C00011240C9488230E94652370F3959FC1F3F6
:1045D000950F50E0551F629FF001729FBB27F00DB1
:1045E000B11D639FAA27F00DB11DAA1F649F662706
:1045F000B00DA11D661F829F2227B00DA11D621F55
:10460000739FB00DA11D621F839FA00D611D221F0E
:10461000749F3327A00D611D231F849F600D211DF2
:10462000822F762F6A2F11249F5750409AF0F1F075
:1046300088234AF0EE0FFF1FBB1F661F771F881FDE
:1046400091505040A9F79E3F510580F00C943D23B6
:104650000C9488235F3FE4F3983ED4F386957795D6
:104660006795B795F795E7959F5FC1F7FE2B880F84
:10467000911D9695879597F9089597F99F6780E81A
:1046800070E060E008959FEF80EC089500240A94A4
:104690001616170618060906089500240A9412161D
:1046A0001306140605060895092E0394000C11F450
:1046B000882352F0BB0F40F4BF2B11F460FF04C0FD
:1046C0006F5F7F4F8F4F9F4F089557FD9058440F56
:1046D000551F59F05F3F71F04795880F97FB991F61
:1046E00061F09F3F79F0879508951216130614061E
:1046F000551FF2CF4695F1DF08C0161617061806AB
:10470000991FF1CF86957105610508940895E89485
:10471000BB2766277727CB0197F90895F999FECF34
:1047200092BD81BDF89A992780B50895262FF999F1
:10473000FECF1FBA92BD81BD20BD0FB6F894FA9A84
:10474000F99A0FBE01960895052E97FB1EF400946A
:104750000E94BB2357FD07D00E94052407FC03D00D
:104760004EF40C94BB2350954095309521953F4FC6
:104770004F4F5F4F089590958095709561957F4F4D
:104780008F4F9F4F08950E942724A59F900DB49F9F
:10479000900DA49F800D911D112408952F923F929A
:1047A0004F925F926F927F928F929F92AF92BF9241
:1047B000CF92DF92EF92FF920F931F93CF93DF93ED
:1047C000CDB7DEB7CA1BDB0B0FB6F894DEBF0FBE4A
:1047D000CDBF09942A88398848885F846E847D8497
:1047E0008C849B84AA84B984C884DF80EE80FD8099
:1047F0000C811B81AA81B981CE0FD11D0FB6F8940F
:10480000DEBF0FBECDBFED010895A1E21A2EAA1B97
:10481000BB1BFD010DC0AA1FBB1FEE1FFF1FA21770
:10482000B307E407F50720F0A21BB30BE40BF50B6D
:10483000661F771F881F991F1A9469F760957095F6
:10484000809590959B01AC01BD01CF010895A29F79
:10485000B001B39FC001A39F700D811D1124911D54
:10486000B29F700D811D1124911D08950E944A244C
:104870000C9454230E944D2358F00E94462340F08C
:1048800029F45F3F29F00C943D2351110C948823A7
:104890000C9443230E94652368F39923B1F35523B5
:1048A00091F3951B550BBB27AA2762177307840743
:1048B00038F09F5F5F4F220F331F441FAA1FA9F3D9
:1048C00035D00E2E3AF0E0E832D091505040E695C7
:1048D000001CCAF72BD0FE2F29D0660F771F881F28
:1048E000BB1F261737074807AB07B0E809F0BB0B1B
:1048F000802DBF01FF2793585F4F3AF09E3F51052F
:1049000078F00C943D230C9488235F3FE4F3983EA9
:10491000D4F3869577956795B795F7959F5FC9F717
:10492000880F911D9695879597F90895E1E0660F98
:10493000771F881FBB1F621773078407BA0720F011
:10494000621B730B840BBA0BEE1F88F7E09508957A
:104950000E94AF246894B1110C94882308950E949A
:104960006D2388F09F5798F0B92F9927B751B0F071
:10497000E1F0660F771F881F991F1AF0BA95C9F7E3
:1049800014C0B13091F00E948723B1E008950C94D7
:104990008723672F782F8827B85F39F0B93FCCF38A
:1049A000869577956795B395D9F73EF49095809560
:1049B000709561957F4F8F4F9F4F08950E94AC2255
:1049C00008F48FEF0895DB018F939F930E94C32318
:1049D000BF91AF91A29F800D911DA39F900DB29F9B
:1049E000900D11240895AA1BBB1B51E107C0AA1FFB
:1049F000BB1FA617B70710F0A61BB70B881F991F80
:104A00005A95A9F780959095BC01CD01089597FB23
:104A1000072E16F4009407D077FD09D00E94F324E6
:104A200007FC05D03EF4909581959F4F08957095B1
:104A300061957F4F08950E942724332312F48A1B27
:104A40009B0B0C9425250E942724B7FF0895821BF9
:104A5000930B0895EE0FFF1F0590F491E02D09943C
:104A60000F931F93CF93DF938230910510F482E070
:104A700090E0E0916A04F0916B0430E020E0B0E057
:104A8000A0E0309799F42115310509F44AC0281B9C
:104A9000390B24303105D8F58A819B816115710568
:104AA00089F1FB0193838283FE0111C04081518112
:104AB0000281138148175907E0F04817590799F404
:104AC000109761F012960C93129713961C933296DE
:104AD000CF01DF91CF911F910F91089500936A0448
:104AE00010936B04F4CF2115310551F04217530791
:104AF00038F0A901DB019A01BD01DF01F801C1CF46
:104B0000EF01F9CF90936B0480936A04CDCFFE013F
:104B1000E20FF31F81939193225031093983288347
:104B2000D7CF2091680430916904232B41F4209160
:104B30005701309158013093690420936804209103
:104B40005501309156012115310541F42DB73EB77D
:104B50004091590150915A01241B350BE091680492
:104B6000F0916904E217F307A0F42E1B3F0B2817FE
:104B7000390778F0AC014E5F5F4F2417350748F0D6
:104B80004E0F5F1F50936904409368048193919383
:104B90009FCFF0E0E0E09CCFCF93DF930097E9F068
:104BA000FC01329713821282A0916A04B0916B04C7
:104BB000ED0130E020E01097A1F420813181820FD7
:104BC000931F20916804309169042817390709F070
:104BD00061C0F0936904E0936804DF91CF91089578
:104BE000EA01CE17DF07E8F54A815B819E01411596
:104BF0005105B1F7E901FB83EA8349915991C40F4B
:104C0000D51FEC17FD0761F4808191810296840F16
:104C1000951FE90199838883828193819B838A838D
:104C2000F0E0E0E012968D919C9113970097B9F512
:104C30002D913C911197CD010296820F931F2091E7
:104C40006804309169042817390739F6309751F50F
:104C500010926B0410926A04B0936904A0936804E4
:104C6000BCCFD383C28340815181840F951FC81765
:104C7000D90761F44E5F5F4F88819981480F591FB2
:104C8000518340838A819B819383828321153105DF
:104C900009F0B0CFF0936B04E0936A049ECFFD015E
:104CA000DC01C0CF13821282D7CFB0E0A0E0EBE5E9
:104CB000F6E20C94D0238C01009751F4CB010E94B2
:104CC00030258C01C801CDB7DEB7E0E10C94EC23B0
:104CD000FC01E60FF71F9C0122503109E217F30790
:104CE00008F49DC0D901CD91DC911197C617D70763
:104CF00098F0C530D10530F3CE0104978617970799
:104D000008F3C61BD70B2297C193D1936D937C9365
:104D1000CF010E94CC25D6CF5B01AC1ABD0A4C0155
:104D20008C0E9D1EA0916A04B0916B04512C412CF5
:104D3000F12CE12C109731F5809168049091690471
:104D40008815990509F05CC04616570608F058C04A
:104D50008091550190915601009741F48DB79EB70F
:104D60004091590150915A01841B950BE817F9079E
:104D700008F055C0F0936904E0936804F901718369
:104D80006083A0CF8D919C91119712966C90129791
:104D900013967C901397A815B90559F56C0142E05C
:104DA000C40ED11CCA14DB0420F1AC014A195B0902
:104DB000DA011296159780F06282738251834083E4
:104DC000D9016D937C93E114F10471F0D70113962E
:104DD000FC93EE93129776CF22968C0F9D1FF901CC
:104DE00091838083F301EFCFF0936B04E0936A0427
:104DF00069CF4816590608F42C017D01D3019ACFDA
:104E0000CB010E9430257C01009749F0AE01B8012A
:104E10000E941227C8010E94CC25870153CF10E0C1
:104E200000E050CFFB01DC0102C001900D92415027
:104E30005040D8F70895FB01DC0101900D9200204D
:084E4000E1F70895F894FFCF9B
:104E48000176332E342E32004D757369636F6E0010
:104E5800E70301010E1B111B151B111F0A0A1F1F57
:104E68001F0E04040E1F1F1F1F1F1F1F0E1B111FC5
:104E78001F1F1F1F0E1B11111F1F1F1F0E1B11119C
:104E8800111F1F1F0E1B111111111F1F0E1B1111B6
:104E98001111111F0100006C048000000040001473
:104EA80000540000000000D201F2001F011F029010
:104EB800012E018201000000000005D3044E05B058
:104EC80004E900C004B104000000000307F2004E2A
:104ED800057E040D0A0020202020202020202020EC
:104EE800202020202020004241545445525920437C
:104EF80048415247494E47002042204120542054FF
:104F080020452052205920200020492053202020CD
:104F1800462055204C204C202000204D2055205361
:104F280020492043204F204E20200054656D706F8B
:104F38003A2000202020202053544F5020202020A9
:104F4800002020202047204F204F204420202020D0
:104F580020002020202020422059204520202020E9
:104F680020200020202020204C204F2057202020C7
:104F780020202000504152414D20002D2045444919
:104F8800543A202020002D20524541443A20202028
:044F980000505F0066
:107E0000112484B714BE81FFF0D085E080938100F7
:107E100082E08093C00088E18093C10086E0809377
:107E2000C20080E18093C4008EE0C9D0259A86E02C
:107E300020E33CEF91E0309385002093840096BBD3
:107E4000B09BFECF1D9AA8958150A9F7CC24DD24C4
:107E500088248394B5E0AB2EA1E19A2EF3E0BF2EE7
:107E6000A2D0813461F49FD0082FAFD0023811F036
:107E7000013811F484E001C083E08DD089C08234E0
:107E800011F484E103C0853419F485E0A6D080C0E4
:107E9000853579F488D0E82EFF2485D0082F10E0AE
:107EA000102F00270E291F29000F111F8ED06801E7
:107EB0006FC0863521F484E090D080E0DECF843638
:107EC00009F040C070D06FD0082F6DD080E0C81688
:107ED00080E7D80618F4F601B7BEE895C0E0D1E017
:107EE00062D089930C17E1F7F0E0CF16F0E7DF06D8
:107EF00018F0F601B7BEE89568D007B600FCFDCFD4
:107F0000A601A0E0B1E02C9130E011968C91119780
:107F100090E0982F8827822B932B1296FA010C0160
:107F200087BEE89511244E5F5F4FF1E0A038BF0790
:107F300051F7F601A7BEE89507B600FCFDCF97BE46
:107F4000E89526C08437B1F42ED02DD0F82E2BD052
:107F50003CD0F601EF2C8F010F5F1F4F84911BD097
:107F6000EA94F801C1F70894C11CD11CFA94CF0C13
:107F7000D11C0EC0853739F428D08EE10CD085E9AC
:107F80000AD08FE07ACF813511F488E018D01DD067
:107F900080E101D065CF982F8091C00085FFFCCF94
:107FA0009093C60008958091C00087FFFCCF809118
:107FB000C00084FD01C0A8958091C6000895E0E648
:107FC000F0E098E1908380830895EDDF803219F02E
:107FD00088E0F5DFFFCF84E1DECF1F93182FE3DFCA
:107FE0001150E9F7F2DF1F91089580E0E8DFEE27F6
:047FF000FF270994CA
:027FFE00040479
:0400000300007E007B
:00000001FF
