:100000000C9462000C948A000C948A000C948A0070
:100010000C948A000C948A000C948A000C948A0038
:100020000C948A000C948A000C948A000C948A0028
:100030000C948A000C948A000C948A000C948A0018
:100040000C94E9080C948A000C94B7080C9491085D
:100050000C948A000C948A000C948A000C948A00F8
:100060000C9433090C948A0000000000250028003D
:100070002B000000000023002600290000000000E3
:10008000240027002A0001020408102040800102F9
:1000900004081020010204081020040404040404CD
:1000A000040402020202020203030303030300002A
:1000B0000008000201000003040700000000000027
:1000C0000000880A11241FBECFEFD8E0DEBFCDBFED
:1000D00012E0A0E0B1E0ECEBFFE402C005900D926D
:1000E000A635B107D9F724E0A6E5B2E001C01D921C
:1000F000A536B207E1F710E0C2E6D0E004C02197D0
:10010000FE010E94E425C136D107C9F70E94800D87
:100110000C94DC270C94000080914A0390914B03CF
:10012000891B990B089508950895AF92BF92CF92BD
:10013000DF92EF92FF920F931F93CF93DF936C01A7
:100140007B018B01040F151FEB015E01AE18BF0888
:10015000C017D10759F06991D601ED91FC9101903A
:10016000F081E02DC6010995892B79F7C501DF9152
:10017000CF911F910F91FF90EF90DF90CF90BF90A4
:10018000AF900895FC01538D448D252F30E0842FCE
:1001900090E0821B930B541710F0CF9608950197AF
:1001A0000895FC01918D828D981761F0A28DAE0F9C
:1001B000BF2FB11D5D968C91928D9F5F9F73928F23
:1001C00090E008958FEF9FEF0895FC01918D828D4F
:1001D000981731F0828DE80FF11D858D90E008951C
:1001E0008FEF9FEF0895FC01918D228D892F90E074
:1001F000805C9F4F821B91098F73992708958CE62D
:1002000093E00E94F30021E0892B09F420E0822F83
:10021000089580E090E0892B29F00E94FF00811171
:100220000C9400000895FC01A48DA80FB92FB11DF6
:10023000A35ABF4F2C91848D90E001968F7399271C
:10024000848FA689B7892C93A089B1898C918370FA
:1002500080648C93938D848D981306C00288F389F3
:10026000E02D80818F7D80830895EF92FF920F9320
:100270001F93CF93DF93EC0181E0888F9B8D8C8D52
:1002800098131AC0E889F989808185FF15C09FB746
:10029000F894EE89FF896083E889F9898081837009
:1002A000806480839FBF81E090E0DF91CF911F91B8
:1002B0000F91FF90EF900895F62E0B8D10E00F5FD9
:1002C0001F4F0F731127E02E8C8D8E110CC00FB6AF
:1002D00007FCFACFE889F989808185FFF5CFCE0147
:1002E0000E941301F1CFEB8DEC0FFD2FF11DE35AAE
:1002F000FF4FF0829FB7F8940B8FEA89FB898081CA
:100300008062CFCFCF93DF93EC01888D8823B9F043
:10031000AA89BB89E889F9898C9185FD03C0808110
:1003200086FD0DC00FB607FCF7CF8C9185FFF2CF8D
:10033000808185FFEDCFCE010E941301E9CFDF91CF
:10034000CF910895833081F028F4813099F0823084
:10035000A9F008958730A9F08830C9F08430B1F44D
:10036000809180008F7D03C0809180008F77809383
:100370008000089584B58F7784BD089584B58F7DFE
:10038000FBCF8091B0008F778093B000089580916B
:10039000B0008F7DF9CFCF93DF93282F30E0F901A4
:1003A000E255FF4F8491F901EA57FF4FD491F901CB
:1003B000E656FF4FC491CC23A1F081110E94A20107
:1003C000EC2FF0E0EE0FFF1FEE58FF4FA591B49118
:1003D000EC91ED2381E090E009F480E0DF91CF9192
:1003E000089580E090E0FACF1F93CF93DF93282FFA
:1003F00030E0F901E255FF4F8491F901EA57FF4FD0
:10040000D491F901E656FF4FC491CC23A9F0162FE1
:1004100081110E94A201EC2FF0E0EE0FFF1FE859BE
:10042000FF4FA591B4918FB7F894EC91111108C0CA
:10043000D095DE23DC938FBFDF91CF911F9108957C
:10044000DE2BF8CFCF93DF9390E0FC01EA57FF4F0C
:10045000249186569F4FFC0184918823C9F090E037
:10046000880F991FFC01E458FF4FA591B491FC013E
:10047000E859FF4FC591D49161110DC09FB7F89411
:100480008C91209582238C938881282328839FBF79
:10049000DF91CF910895623051F49FB7F8943C9169
:1004A000822F809583238C93E8812E2BEFCF8FB7FB
:1004B000F894EC912E2B2C938FBFEACF8E3008F05E
:1004C0008E502091000190E4299F900111248770A3
:1004D000822B80937C0080917A00806480937A00E4
:1004E00080917A0086FDFCCF809178009091790010
:1004F00008953FB7F89480919F029091A002A09137
:10050000A102B091A20226B5A89B05C02F3F19F009
:100510000196A11DB11D3FBFBA2FA92F982F882783
:10052000BC01CD01620F711D811D911D42E0660F5E
:10053000771F881F991F4A95D1F708958F929F9230
:10054000AF92BF92CF92DF92EF92FF924B015C018C
:100550000E9479026B017C010E9479026C197D096D
:100560008E099F09683E734081059105A8F321E03B
:10057000821A9108A108B10888EEC80E83E0D81E3F
:10058000E11CF11C81149104A104B10429F7FF902E
:10059000EF90DF90CF90BF90AF909F908F90089595
:1005A0002FB7F89460919B0270919C0280919D02FC
:1005B00090919E022FBF08950F931F930E94D00227
:1005C000609374037093750380937603909377031D
:1005D0008CE693E00E94D10097FF1DC00E94D002DC
:1005E0000091740310917503209176033091770385
:1005F000601B710B820B930B0091700310917103C0
:10060000209172033091730360177107820793077B
:10061000F8F28FEF9FEF1F910F91089508952091A9
:100620007702260F3327331F21323105ECF4209156
:100630004403FC0190E080E0243069F082E00895FA
:10064000A09177022191AC01495A5D4FA40FB52FBB
:10065000B11D2C930196861798F380917702680F4D
:100660006093770280E0089581E00895109244033A
:1006700081E08093430310923E0361E082E10E9497
:10068000F40161E083E10E94F401E9EBF0E0808194
:100690008E7F808380818D7F808388E48093B80003
:1006A00085E48093BC000895CF93DF9391E090930D
:1006B00056028823B9F0C091B800D091BA00809159
:1006C000BC008A7B8093BC0060E082E10E94F40160
:1006D00060E083E10E94F4010E943603D093BA00E7
:1006E000C093B800DF91CF910895CF92DF92EF923F
:1006F000FF920F931F93CF93DF93D0911D0381E05F
:10070000D13208F09CC0C0911C030E9479026B0199
:100710007C018091440381116CC082E0809344038A
:1007200081E0809343038FEF809342031092410353
:10073000D0934003ACEFB2E0EEE1F3E080E0D813F9
:100740008DC010923F0380913F03CC0FC82BC09304
:100750003F0380913E03813009F084C010923E0334
:100760000E9479026B017C0180913F038093BB0062
:100770008091460390914703A0914803B0914903AB
:10078000892B8A2B8B2BA1F00E94790200914603C2
:100790001091470320914803309149036C197D095A
:1007A0008E099F09061717072807390708F442C062
:1007B0008091BC0083FDD8CF85EC8093BC000E9463
:1007C00079026B017C0180914403823009F44CC0B2
:1007D000809142038F3F09F469C0809142038032C7
:1007E00009F466C080914203803309F463C084E059
:1007F00026C08091460390914703A0914803B09191
:100800004903892B8A2B8B2B09F483CF0E94790211
:10081000009146031091470320914803309149030A
:100820006C197D098E099F090617170728073907D4
:1008300008F06FCF809145030E94540385E0109229
:10084000FB0210921D031092FA02DF91CF911F91CB
:100850000F91FF90EF90DF90CF9008959D9191932D
:100860008F5F6DCF85EEA9CF8091460390914703AE
:10087000A0914803B0914903892B8A2B8B2B09F453
:10088000A2CF0E9479020091460310914703209164
:100890004803309149036C197D098E099F09061799
:1008A00017072807390708F08ECFC4CF80E0C7CFDD
:1008B00082E0C5CF83E0C3CF0895E0914B038091E0
:1008C0004A03E81730F4F0E0E45BFC4F808190E0ED
:1008D00008958FEF9FEF089590914B0380914A0305
:1008E0002FEF3FEF981748F4E92FF0E0E45BFC4F5F
:1008F000208130E09F5F90934B03C9010895CF9210
:10090000DF92EF92FF920F931F93CF93DF937C01BF
:10091000CB018A012091FA02222389F0EB016B01BD
:10092000C40ED51ECC15DD0569F06991D701ED9196
:10093000FC910190F081E02DC7010995F3CF642F60
:100940000E940F03C801DF91CF911F910F91FF907B
:10095000EF90DF90CF900895CF93DF931F92CDB7A4
:10096000DEB769832091FA022223F9F020911D035A
:10097000203258F021E030E0FC013383228390E004
:1009800080E00F90DF91CF9108958091FB02E82FD6
:10099000F0E0E450FD4F998190838F5F8093FB02DC
:1009A00080931D0381E090E0ECCF61E0CE010196E1
:1009B0000E940F03F7CF682F89E094E00C94AC04F9
:1009C000FC01248131E03093FA0220931C03109241
:1009D000FB0210921D038385862B90E00E94DB04AE
:1009E0000C94750388E08093600460E085E594E0F2
:1009F0000C94E00490E080E008958EBD00000DB4FA
:100A000007FEFDCF8EB50895FB0101900020E9F7A8
:100A10003197AF01461B570BDC01ED91FC91028031
:100A2000F381E02D09948F929F92AF92BF92EF9243
:100A3000FF920F931F93CF93DF93CDB7DEB7A197AC
:100A40000FB6F894DEBF0FBECDBF7C01FA01CB011B
:100A500019A2223008F42AE08E010F5D1F4F822E6A
:100A6000912CB12CA12CBF01A50194010E94C72497
:100A7000F901CA016A300CF5605DD8016E938D01F1
:100A8000232B242B252B79F790E080E0109721F081
:100A9000BD01C7010E940405A1960FB6F894DEBF00
:100AA0000FBECDBFDF91CF911F910F91FF90EF90BF
:100AB000BF90AF909F908F900895695CDECFCF92EA
:100AC000DF92EF92FF920F931F93CF93DF93EC018E
:100AD0006A017B01E881F9810190F081E02D6DE2EE
:100AE00009958C0144275527BA014C195D096E09F7
:100AF0007F092AE0CE010E941305800F911FDF912C
:100B0000CF911F910F91FF90EF90DF90CF900895BC
:100B1000BC0185E594E00C940405AB01770F660BEE
:100B2000770B77FD0C945F052AE00C941305CF92A8
:100B3000DF92EF92FF920F931F93CF93C82F0E94E3
:100B400079026B017C0180914403811164C081E0D2
:100B500080934403809343039FEF9093420310924A
:100B600041031092400380933F0380913F03CC0FD9
:100B7000C82BC0933F0380913E03813009F07DC0B4
:100B800010923E030E9479026B017C0180913F0329
:100B90008093BB008091460390914703A091480346
:100BA000B0914903892B8A2B8B2BA1F00E947902EB
:100BB0000091460310914703209148033091490367
:100BC0006C197D098E099F09061717072807390731
:100BD00008F442C08091BC0083FDD8CF85EC80939F
:100BE000BC000E9479026B017C018091440381303A
:100BF00009F445C080914103811163C08091410394
:100C0000EEE1F3E0ACE4B3E090E0981751F121910C
:100C10002D939F5FFACF8091460390914703A09157
:100C20004803B0914903892B8A2B8B2B09F48BCF76
:100C30000E947902009146031091470320914803D6
:100C4000309149036C197D098E099F090617170712
:100C50002807390708F077CF809145030E94540395
:100C600080E010924B0380934A03CF911F910F9124
:100C7000FF90EF90DF90CF90089585EEB0CF8091F8
:100C8000460390914703A0914803B0914903892BF3
:100C90008A2B8B2B09F4A9CF0E947902009146037D
:100CA0001091470320914803309149036C197D0945
:100CB0008E099F09061717072807390708F095CFEF
:100CC000CBCF81E09DCF0F931F93CF938C01C62F85
:100CD0000E94E0046C2F6460C8010E94E0046C2F45
:100CE0006B7FC8010E94E00483EC90E00197F1F76C
:100CF000CF911F910F9108950F931F93CF93DF937F
:100D00008C01D62FC42F607F642B0E94630680E184
:100D1000D89FB00111246C2BC801DF91CF911F9196
:100D20000F910C946306CF93DF93CDB7DEB728976E
:100D30000FB6F894DEBF0FBECDBF98E0ECE5F1E052
:100D4000DE01119601900D929A95E1F790915E0463
:100D5000961708F46FEF262F30E0220F331F41E083
:100D600050E04C0F5D1F240F351FF9016081680FA3
:100D7000606840E085E594E028960FB6F894DEBF01
:100D80000FBECDBFDF91CF910C947C0641E00E9455
:100D90007C0681E090E008950F931F93CF93DF933B
:100DA0008B0198E0899FB0011124606440E085E5E3
:100DB00094E00E947C06E801085F1F4F699185E579
:100DC00094E00E94C606C017D107C1F7DF91CF910A
:100DD0001F910F9108950F931F93CF93DF93EC0111
:100DE00088819981009759F02A813B81261737071E
:100DF00030F081E0DF91CF911F910F9108958B0129
:100E00006F5F7F4F0E940F27009759F09983888367
:100E10001B830A832C813D81232B59F7FC0110820F
:100E2000E8CF80E0E7CFCF92DF92EF92FF920F936F
:100E30001F93CF93DF9300D0CDB7DEB78C01C62EC2
:100E4000FC0111821082138212821582148270E0DA
:100E500060E00E94EB06F80120813181811137C0EA
:100E60002115310519F0C9010E948626F801118269
:100E7000108215821482138212820E94DC020C2CD2
:100E8000000CDD0897FD2BC08C159D0541F1898371
:100E90001A82F801E480F580FFEFEF1AFF0AB7012C
:100EA000C8010E94EB06882379F0F8012081318186
:100EB00084819581BE016F5F7F4F820F931F0E94D7
:100EC000D527F801F582E4820E94DC02DBCF15828F
:100ED000148266E971E0C9010E94D527CECFC8010E
:100EE0000F900F90DF91CF911F910F91FF90EF9096
:100EF000DF90CF900895DF92EF92FF920F931F93B0
:100F0000CF93DF93EC017A01CB014A978B01000F5D
:100F1000111F8C9760F4C00FD11FF982E882DF9116
:100F2000CF911F910F91FF90EF90DF900895D42EF5
:100F300060E04F3F510539F034F0CA016FEF70E0C7
:100F40000E94C925D82EC80101960E9450246D2DFB
:100F5000C80102960E94502461E0C8018B599F4F3E
:100F60000E945024D8CF9F92AF92BF92CF92DF922F
:100F7000EF92FF920F931F93CF93DF93182F092FB8
:100F8000B42EA52E962EF72E60E08AE00E94F40182
:100F9000C3E2D0E0CE010197F1F7812F0E94FD045A
:100FA0008F2D0E94FD04C12CD12C7601C82AFE2C65
:100FB000ED2CDC2CCC24892D0E94FD04C82AFE2CAB
:100FC000ED2CDC2CCC248A2D0E94FD04C82AFE2C9A
:100FD000ED2CDC2CCC248B2D0E94FD04C82A2197FB
:100FE000F1F761E08AE00E94F4018091F8029091AB
:100FF000F9028F369105D1F58091F4029091F502B6
:10100000A091F602B091F702892B8A2B8B2B19F154
:101010008091470490914804A60153705093F302C5
:101020004093F2026CE370E00E947B0780914704DA
:1010300090914804FC01E258FF4F2081318140919A
:10104000F2025091F302241735070CF4A9016FE363
:1010500070E00E947B07A7014F7155276DE370E098
:1010600080914704909148040E947B078091F80288
:101070009091F902429769F4D092F102C092F00285
:10108000A6016EE370E080914704909148040E94AD
:101090007B071093F8020093F902DF91CF911F9123
:1010A0000F91FF90EF90DF90CF90BF90AF909F9007
:1010B000089585ED8093BC0080914603909147038D
:1010C000A0914803B09149030796A11DB11D23E0EB
:1010D000B695A795979587952A95D1F72091BC004D
:1010E00024FD03C01092440308954091460350919B
:1010F00047036091480370914903452B462B472BCA
:1011000069F30097A105B10541F025E32A95F1F7B0
:1011100000000197A109B109E1CF809145030C942A
:1011200054031F920F920FB60F9211242F933F93E7
:101130004F935F936F937F938F939F93AF93BF93DF
:10114000EF93FF938CE693E00E941301FF91EF91E0
:10115000BF91AF919F918F917F916F915F914F91CF
:101160003F912F910F900FBE0F901F9018951F92D7
:101170000F920FB60F9211242F938F939F93EF939B
:10118000FF93E0917C03F0917D038081E0918203E5
:10119000F091830382FD1BC09081809185038F5F56
:1011A0008F7320918603821741F0E0918503F0E070
:1011B000E459FC4F958F80938503FF91EF919F91A8
:1011C0008F912F910F900FBE0F901F9018958081D7
:1011D000F4CF1F920F920FB60F9211242F933F93CB
:1011E0008F939F93AF93BF9380919B0290919C02AA
:1011F000A0919D02B0919E0230919A0223E0230FAC
:101200002D3758F50196A11DB11D20939A028093A8
:101210009B0290939C02A0939D02B0939E028091AA
:101220009F029091A002A091A102B091A20201960A
:10123000A11DB11D80939F029093A002A093A102D3
:10124000B093A202BF91AF919F918F913F912F9147
:101250000F900FBE0F901F90189526E8230F02964F
:10126000A11DB11DD2CF1F920F920FB60F92112464
:101270002F933F934F935F936F937F938F939F939E
:10128000AF93BF93EF93FF938091B900887F80362F
:1012900009F44AC0F0F5883209F4A7C018F5803186
:1012A00009F49BC0B8F4882309F4F9C0883009F424
:1012B00094C0FF91EF91BF91AF919F918F917F91DA
:1012C0006F915F914F913F912F910F900FBE0F90B3
:1012D0001F901895883109F488C0803251F78093A7
:1012E000420314C0803409F49DC040F48033B9F344
:1012F0008833F9F68093420385ECB0C0803509F459
:1013000085C0883509F496C0883499F60E9459083A
:10131000D0CF883909F48CC038F5883729F050F4DB
:10132000883611F0803729F683E0809344031092C9
:10133000990257C0883809F47BC0803919F0803889
:1013400009F0B7CF80919902803208F071C0E09126
:10135000990281E08E0F809399028091BB00F0E0AA
:10136000E758FD4F80833DC0803B39F0E0F4803A80
:1013700009F479C0883A09F09CCF84E08093440353
:101380001092780210927702E091A602F091A702E3
:1013900009958091770281110FC081E080937702D7
:1013A0001092570209C0803C09F4A6CF883C09F48A
:1013B000A3CF883B09F07DCFE091780281E08E0FCA
:1013C00080937802F0E0E95AFD4F80818093BB0062
:1013D000909178028091770229C080913F03809399
:1013E000BB0085EC8093BC0064CF90914103809159
:1013F0004003981758F5E091410381E08E0F8093E8
:101400004103F0E0E25EFC4F8081E9CFE0914103CF
:1014100081E08E0F809341038091BB00F0E0E25E9B
:10142000FC4F808390914103809140039817C8F24C
:1014300085E8D8CFE091410381E08E0F809341038E
:101440008091BB00F0E0E25EFC4F8083809143031B
:1014500081115CCF81E080933E0384EA8093BC00DD
:101460001092440326CF85EC8093BC001092440375
:1014700080919902803230F4E0919902F0E0E758CF
:10148000FD4F10826091990270E0E091A402F0910A
:10149000A50289E792E00995109299020ACF10926D
:1014A000420334CFBF92CF92DF92EF92FF920F931D
:1014B0001F93CF93DF936C017A01EB01CC0FDD1FFB
:1014C000CE0101960E944824B82ECE0102960E94B9
:1014D0004824082F10E0CE018B599F4F0E944824CA
:1014E000CC0DDD1D813061F0F982E882DF91CF9172
:1014F0001F910F91FF90EF90DF90CF90BF900895D4
:101500008FEFB89E000D111D112419830883EECFB3
:10151000EF92FF920F931F93CF93DF9310926F037D
:1015200010926E0388EE93E0A0E0B0E08093700329
:1015300090937103A0937203B093730328E631E094
:1015400030936D0320936C0325EC30E030937903E6
:101550002093780324EC30E030937B0320937A03CC
:1015600020EC30E030937D0320937C0321EC30E0CD
:1015700030937F0320937E0322EC30E0309381038D
:101580002093800326EC30E0309383032093820382
:10159000109285031092860310928703109288039D
:1015A00010920C0410920B0480930D0490930E047F
:1015B000A0930F04B09310048AE791E090930A047B
:1015C0008093090410925804109257044CE851E09B
:1015D000509356044093550487E28093590420E1C8
:1015E00020935D0492E090935E0410925F0488E083
:1015F0008093600410924C0410924B0450934A0460
:10160000409349043FE330934D0420935104909359
:101610005204109253048093540480EA90E00E9494
:10162000EA25EC01FC0180569F4F11921192E817B8
:10163000F907D9F750E040E070E060E0CE010E9489
:10164000520A50E040E061E070E0CE010E94520A90
:1016500042E850E062E070E0CE010E94520A4CE3A2
:1016600050E063E070E0CE010E94520A40E250E098
:1016700064E070E0CE010E94520A4AE050E065E06A
:1016800070E0CE010E94520A4DE250E066E070E048
:10169000CE010E94520A4AEE56E067E070E0CE01A9
:1016A0000E94520A48E050E068E070E0CE010E94DB
:1016B000520A40E45FE169E070E0CE010E94520A04
:1016C00040ED53E16AE070E0CE010E94520A44E12D
:1016D00051E06BE070E0CE010E94520A4EEF51E003
:1016E0006CE070E0CE010E94520A40E451E06DE0EF
:1016F00070E0CE010E94520A4AEA50E06EE070E0CB
:10170000CE010E94520A42E350E06FE070E0CE0149
:101710000E94520A40E951E060E170E0CE010E946F
:10172000520A40ED57E061E170E0CE010E94520A9A
:101730004CE251E062E170E0CE010E94520A44ECBA
:1017400059E063E170E0CE010E94520A48E552E0A0
:1017500064E170E0CE010E94520A4CEA5DE065E16E
:1017600070E0CE010E94520A41E450E066E170E070
:10177000CE010E94520A40E550E067E170E0CE01E0
:101780000E94520A41E050E068E170E0CE010E9400
:10179000520A46E950E066E470E0CE010E94520A27
:1017A0004FE750E067E470E0CE010E94520A44EA3D
:1017B00050E068E470E0CE010E94520A45E050E03B
:1017C00069E470E0CE010E94520A42E150E06AE40E
:1017D00070E0CE010E94520A48ED5FEF6BE470E0CA
:1017E000CE010E94520A44E853E06CE470E0CE015E
:1017F0000E94520A41E050E06DE470E0CE010E9488
:10180000520A44E050E06EE470E0CE010E94520AB9
:1018100043E050E06FE470E0CE010E94520AD093A2
:101820004804C09347048AE990E00E94EA258C01AD
:10183000DC0111961C921E9215961C921E92149712
:1018400017961C921E92169719961C921E92189724
:10185000FC013A9680E2DF011D928A95E9F7F801D2
:1018600013A612A614A615A616A617A67801B0E709
:10187000EB0EF11CF7011182108232961082118258
:10188000128213823496118210823296108233961D
:101890001182108232961182108232961182108249
:1018A0003296108211821282138234961082118233
:1018B0001282138234961082319681E080833196B1
:1018C000108237961082118212821382349680E041
:1018D00090E0A0E8B0E480839183A283B38385E0A5
:1018E00090E0D80113969C938E93129762E00E9429
:1018F000220286E090E0F80191838083E758FF4F51
:10190000D183C083D8011B961C921E921A971D96F4
:101910001C921E921C971F961C921E921E97519607
:101920001C921E92509753961C921E925297559657
:101930001C921E92549757961C921E925697599637
:101940001C921E925897E954F10911921192EE15CA
:10195000FF05D9F784E490E00E94EA25FC0115AE6A
:1019600014AEFE9610821182128213823496118276
:101970001082FC019C01245C3F4F119211922E17A2
:101980003F07D9F7F801E457FF4F918380838CE636
:1019900090E00E94EA25DC01AC59BF4F11961C92E1
:1019A0001E92FC01EA59FF4F1082118212821382AB
:1019B000349611821082FC0111921192AE17BF076A
:1019C000D9F7F801E257FF4F9183808384E891E0D3
:1019D0000E94EA25DC01A458BE4F11961C921E926B
:1019E000FC01E258FE4F108211821282138234965B
:1019F00011821082FC0111921192EA17FB07D9F7AC
:101A0000F801E057FF4F91838083109346040093C1
:101A1000450486E390E09093160480931504109299
:101A200022041092210481E090E09093240480939A
:101A3000230482E090E0909326048093250483E0C1
:101A400090E0909328048093270484E090E09093A2
:101A50002A048093290485E090E090932C048093DD
:101A60002B0486E090E090932E0480932D0487E071
:101A700090E09093300480932F0488E090E090935E
:101A80003204809331048CE090E09093340480938E
:101A900033048DE090E090933604809335048EE01B
:101AA00090E090933804809337048FE090E0909317
:101AB0003A04809339048BE090E090933C04809347
:101AC0003B048AE190E090933E0480933D048BE1D7
:101AD00090E09093400480933F048CE190E09093D9
:101AE0004204809341048FEF90E0909344048093EC
:101AF0004304DF91CF911F910F91FF90EF900895D4
:101B0000CF93DF93CDB7DEB766970FB6F894DEBFFD
:101B10000FBECDBF789484B5826084BD84B58160EA
:101B200084BD85B5826085BD85B5816085BD8091A8
:101B30006E00816080936E00109281008091810020
:101B40008260809381008091810081608093810018
:101B5000809180008160809380008091B1008460DA
:101B60008093B1008091B00081608093B00080913B
:101B70007A00846080937A0080917A0082608093FA
:101B80007A0080917A00816080937A0080917A0057
:101B9000806880937A001092C10061E087E00E9423
:101BA000220261E087E00E94F40143E050E064E338
:101BB00070E080914704909148040E947B0783E085
:101BC0008093000161E08AE00E94220261E083E0EC
:101BD0000E94220261E089E00E94220261E088E026
:101BE0000E94220261E08AE00E94F40160E084E049
:101BF0000E94220260E086E00E94220280E480933C
:101C0000800089E080938100109289001092880002
:101C10008CB58F7D8CBD8CB58C7F82608CBD8DB575
:101C20008E7F8DBD8CB58C608CBD1FB7F894809174
:101C3000A302811127C0E4EAF0E08491E0E9F0E03A
:101C40009491E82FF0E0EE0FFF1FE458FF4FA591AD
:101C5000B491EC91E92321F461E08AE00E94F4015F
:101C600061E08AE00E9422028CB580618CBD8CB557
:101C700080648CBD61E08DE00E94220261E08BE017
:101C80000E9422028091A3028F5F8093A3021FBF54
:101C9000E0917C03F0917D0382E08083E0917C03FE
:101CA000F0917D031082E0917803F0917903108226
:101CB000E0917A03F0917B0380E1808310928403AA
:101CC000E0918003F091810386E08083E0917E03C0
:101CD000F0917F03808180618083E0917E03F091A9
:101CE0007F03808188608083E0917E03F0917F0391
:101CF000808180688083E0917E03F0917F03808102
:101D00008F7D808340E050E0BA018BE890E00E9434
:101D1000B30743EC50E061E070E08CEE90E00E948D
:101D2000B30740E650E067E070E08DEE90E00E947F
:101D3000B30744E050E060E070E080E890E00E948B
:101D4000B30745E05EE064E070E080E990E00E9467
:101D5000B30743E050E060E070E081E990E00E946A
:101D6000B30744EF51E060E070E083E990E00E9447
:101D7000B30748EB5BE060E070E084E990E00E942C
:101D8000B30740E951E060E070E085E990E00E942F
:101D9000B30741E050E060E070E083EA90E00E9429
:101DA000B30740ED57E060E070E084EA90E00E9405
:101DB000B3074AE050E060E070E085EA90E00E94FE
:101DC000B30748E35EE060E070E086EA90E00E94DE
:101DD000B3074AE050E060E070E087EA90E00E94DC
:101DE000B30744EF51E060E070E088EA90E00E94C1
:101DF000B30744EF51E060E070E08AEA90E00E94AF
:101E0000B3074AE050E060E070E08BEA90E00E94A7
:101E1000B30741E050E060E070E080EA90E00E94AB
:101E2000B30740E050ED67E070E08DEA90E00E947B
:101E3000B3074CE850E06DE270E080914704909168
:101E400048040E947B0742E050E068E370E0809124
:101E50004704909148040E947B0780915501882394
:101E600009F4F8C010924B0310924A031092FB023F
:101E700010921D030E94360323E930E03093A7023D
:101E80002093A60244E950E05093A5024093A40297
:101E900051E05093FA028FE380931C030E94750374
:101EA000811128C080914B0490914C049093580468
:101EB0008093570480914D048093590480914E047F
:101EC00080935A0480914F0480935B048091500466
:101ED00080935C048091510480935D04809152044E
:101EE00080935E048091530480935F048091540436
:101EF000809360041092FB0210921D030E9436032F
:101F000010925A0480915E04823018F098E0909309
:101F10005A0490915F04992339F0813029F480911B
:101F20005A04846080935A0462E370E080E090E099
:101F30000E949E026091600485E594E00E94E004A6
:101F400068EE73E080E090E00E949E0260E385E529
:101F500094E00E9463068BE496E40197F1F760E356
:101F600085E594E00E9463068BE496E40197F1F71F
:101F700060E385E594E00E94630683E592E00197C3
:101F8000F1F760E285E594E00E94630660915A04EF
:101F9000606240E085E594E00E947C0684E08093E6
:101FA0005B0440E06CE085E594E00E947C0640E044
:101FB00061E085E594E00E947C060BE31FE1C80127
:101FC0000197F1F782E080935C0440E066E085E5EC
:101FD00094E00E947C0640E062E085E594E00E9487
:101FE0007C06C8010197F1F76DE471E080E00E9482
:101FF000CC0665E471E081E00E94CC066DE371E0FF
:1020000082E00E94CC0665E371E083E00E94CC068A
:102010006DE271E084E00E94CC0665E271E085E04B
:102020000E94CC066DE171E086E00E94CC0665E17D
:1020300071E087E00E94CC060E94F20441E050E08B
:1020400062E270E080914704909148040E947B070F
:10205000109255010E94D0026093EC027093ED0241
:102060008093EE029093EF02209045043090460456
:10207000410189E7880E911CD4018D919C91FC014E
:10208000E45BFF4F20813181F101EA58FF4F5F018E
:10209000A10145585F4F5E8B4D8B232B09F000C685
:1020A000D10112968C910E94CB01019731F4F1017C
:1020B000E858FF4F808181113DC5F10182810E9466
:1020C000CB01019739F4F101E858FF4F8081882353
:1020D00009F413C5D10112968C910E94CB01892B72
:1020E00009F412C5D10112968C910E94CB01892B63
:1020F00009F415C5ED85FE85D501ED93FC93D4015A
:10210000ED91FC91EA57FF4F808191810197E1F4B5
:10211000F10180810E945E02D10116960D911C9101
:102120001797080F191F17961C930E93169718965A
:102130008D919C91199701968430910509F4FDC405
:1021400019969C938E931897D1018C910E945E02F0
:102150008C01F40180819181DC0114962D913C91D8
:102160001597021713076CF42D913C91A801421B9F
:10217000530B141615060CF0B7C54F3151050CF072
:10218000B9C5D4018D919C91FC0124813581021740
:10219000130744F4D5012D913C9141E050E02230E9
:1021A000310511F050E040E064E270E00E947B07EE
:1021B000F40180819181DC0114962D913C910217EC
:1021C000130764F4F501208131812130310531F4A8
:1021D00041E050E062E470E00E947B07D4018D9101
:1021E0009C91FC0124813581021713076CF0228138
:1021F0003381A801421B530B141615060CF087C53A
:102200004F3151050CF089C5F40180819181DC01C9
:1022100014962D913C910217130744F0F50120818B
:10222000318141E050E02230310511F050E040E0D2
:1022300065E270E00E947B07910125573F4F3A8B82
:10224000298BD9014C91411105C0F101E558FF4F8F
:1022500011821082F401A080B180D5011A960D90F0
:10226000BC91A02DBC87AB87F50166807780068581
:102270001785248535853A872987269DC001279DA6
:10228000900D369D900D112424E630E0B9010E9496
:10229000C925069FF001079FF00D169FF00D112430
:1022A000D101A158BF4F1196FC93EE931497CD9096
:1022B000DC900D2C000CEE08FF08C10183589F4FE5
:1022C00098878F83442309F435C5AB85BC856A9E06
:1022D000C0016B9E900D7A9E900D1124B9010E9451
:1022E000C925609F2001619F500C709F500C1124E4
:1022F000712C612C9F0150E040E0241935094609FA
:102300005709C701B6010E94A52528EE33E040E039
:1023100050E00E945E24420E531E641E751EEF8123
:10232000F885518240828AE02B853C85829F20017E
:10233000839F500C1124052C000C6608770881013E
:102340000F571F4F49855A85849F9001859F300DF7
:102350001124032E000C440B550B24193509460992
:102360005709C701B6010E94A52528EE33E040E0D9
:1023700050E00E945E24CA01B901640D751D861DDE
:10238000971D0E942B2320E030E048EC52E40E948D
:10239000F824D8016D937D938D939C931397F50149
:1023A000008511852B853C85209FB001219F700DF4
:1023B000309F700D1124072E000C880B990B0E9482
:1023C0002B2320E030E040E251E40E948A230E9467
:1023D0006A252B013C01A1014B575F4F5C874B875E
:1023E00089859A85809FB001819F700D909F700DA7
:1023F0001124072E000C880B990B0E942B2320E040
:1024000030E040E251E40E948A230E946A259B0149
:10241000AC012419350946095709C701B6010E94C4
:10242000A52528EE33E040E050E00E945E24CA017A
:10243000B901640D751D861D971D0E942B2320E098
:1024400030E048EC52E40E94F824AB85BC856D93E3
:102450007D938D939C931397D10114964D915C912C
:10246000F50184819581910127573F4FF101E6578E
:10247000FF4F481759070CF06EC4C1018A589F4F8F
:10248000DC018D919C91029709F065C481E0D9012E
:102490008C938083D9018C91D101A557BF4F88239C
:1024A00009F45BC48081811158C4E1E0EC9369E1D7
:1024B00070E0C5010E947B07AD89BE894D915C919A
:1024C0006AE170E0F401808191810E947B07F10153
:1024D000EB57FF4FC080D180E280F38020E030E0F6
:1024E00048EC52E4C701B6010E948A230E9471257C
:1024F0008B01C701B6010E946A25AB016FE270E053
:10250000D4018D919C910E947B07C80168EE73E015
:102510000E94B525AB018C016BE170E0F401808174
:1025200091810E947B07A8016CE170E0D4018D913C
:102530009C910E947B07F101EF57FF4F20E030E0B4
:1025400048EC52E460817181828193810E948A23E8
:102550000E947125CB0168EE73E00E94B525AB01A6
:102560008C016DE170E0F401808191810E947B0714
:10257000A8016EE170E0D4018D919C910E947B07CF
:10258000EF81F8858081918168EE73E00E94B52526
:10259000AB016FE170E0D4018D919C910E947B07AB
:1025A000EF81F8858081918168EE73E00E94B52506
:1025B000AC0160E270E0D4018D919C910E947B0798
:1025C000F101E757FF4F408150E061E270E0F40114
:1025D000808191810E947B07F101E657FF4F408186
:1025E00050E062E270E0D4018D919C910E947B07E3
:1025F000E989FA89408150E063E270E0D4018D916D
:102600009C910E947B07F40100811181F801EC5A32
:10261000FF4F60817181072E000C880B990B0E947F
:102620002B2329E030EF4CE85AE30E948A2320E074
:1026300030E04EE453E40E948A230E946A25AB01F5
:102640006DE270E0C8010E947B07F101E457FF4F83
:102650000190F081E02DEE5BFF4F408151816AE2F5
:1026600070E0D4018D919C910E947B07F101E257AB
:10267000FF4F0190F081E02DE659FF4F40815181DD
:102680006CE270E0F401808191810E947B07F1018E
:10269000E057FF4F0190F081E02DEE57FE4F408153
:1026A000518166E370E0D4018D919C910E947B077B
:1026B0000091EA021091EB028091E8029091E90208
:1026C000080F191F17FF02C00F5F1F4F15950795C1
:1026D00085E10E945E02081B190B055F1F4F073141
:1026E000110508F0B8C0009145041091460485E139
:1026F0000E945E026C01F801E758FF4FAC016BE2EB
:1027000070E0808191810E947B07BFEFCB1AB1E01E
:10271000DB0ACC0CDD1CF801E057FF4F60807180B4
:10272000F301E458FE4F208131817901EE0CFF1C4A
:10273000E60CF71C230142E8441A4EEF540AD70175
:102740008D909C90092C000CAA08BB08D2014D91D9
:102750005D916D917C91481959096A097B09D701EE
:10276000CD92DC920D2C000CEE08FF08CB01BA01D3
:102770006C0D7D1D8E1D9F1DD2016D937D938D93DC
:102780009C9313972F5F3F4F2E3B31050CF0E7C210
:10279000318320835301BEE7AB1ABEEFBB0A2EEB99
:1027A00030E040E050E00E945E24F5013183208358
:1027B000F801E257FF4F00811181C701B6010E9465
:1027C0002B2323EC35EF48EA5EE30E94F8240E94B5
:1027D0006A25D801AC59BF4F2D913C911197F90151
:1027E000EE0FFF1F3F01600E711EA8014A595F4F97
:1027F000F30180809180092C000CAA08BB08FA0123
:10280000C080D180E280F380C818D908EA08FB08AC
:10281000F30171836083072E000C880B990B6C0DFC
:102820007D1D8E1D9F1DFA016083718382839383BA
:102830002F5F3F4F223331050CF094C22D933C9310
:1028400006591F4F22E330E040E050E00E945E2432
:10285000D8012D933C938091E8029091E9029093E6
:10286000EB028093EA0285E10E945E029093E90206
:102870008093E802009145041091460481E10E9492
:102880005E02F801E457FF4F0190F081E02D24AD86
:1028900035ADD901AA0FBB1F5D01AE0EBF1E8F0162
:1028A000025C1F4FD5014D915C91052E000C660B0B
:1028B000770BD801CD90DD90ED90FC90C41AD50A2D
:1028C000E60AF70AD5018D939C93092E000CAA0BFA
:1028D000BB0BBC01CD016C0D7D1D8E1D9F1DD80154
:1028E0006D937D938D939C9313972F5F3F4F2E3164
:1028F00031050CF03AC235AF24AF8F010E5B1F4F8C
:102900002EE130E040E050E00E945E24F801318387
:102910002083009145041091460480E10E945E02EC
:102920007C0107581F4FD8018D919C91FC01208D8F
:10293000318DC68CD78CA28CB38C45018C189D0828
:10294000648C758C23014C185D08A9014C195D0934
:102950004E155F0554F52C0D3D1DE216F3062CF5C2
:10296000EA59FF4F2081318121303105F1F0349750
:10297000208131812130310509F0FAC13296608120
:102980007181FB01EE0FFF1FE80FF91F408151819C
:10299000415051090E947B0741E050E063E370E041
:1029A000D8018D919C910E947B078E149F0474F531
:1029B000AC0CBD1CEA14FB044CF5F801808191813C
:1029C000FC01EA59FF4F2081318122303105F1F0BD
:1029D0003497208131812130310509F0D7C13296F9
:1029E00060817181FB01EE0FFF1FE80FF91F40812D
:1029F00051814F5F5F4F0E947B0742E050E063E3ED
:102A000070E0D8018D919C910E947B074E145F0469
:102A100064F5C60CD71CEC14FD043CF5F80180816C
:102A20009181FC01EA59FF4F20813181233031052A
:102A3000E1F0349720813181232B41F432962081BB
:102A4000318141E050E02135310514F050E040E0A3
:102A500061E370E00E947B0743E050E063E370E0D5
:102A6000D8018D919C910E947B07B9EEEB16B3E0E3
:102A7000FB064CF050E040E063E370E0F801808139
:102A800091810E947B07A7016EE270E0D8018D91D1
:102A90009C910E947B07E0914704F0914804E8591B
:102AA000FF4F80819181039709F07EC186E00E94EB
:102AB000CB01019709F078C18091A802882309F41D
:102AC00076C18091470490914804E0914504F091CB
:102AD0004604E757FF4F108244E050E064E370E0A3
:102AE0000E947B0750E040E060E370E08091470483
:102AF000909148040E947B075AC1B1E0B083EFEF88
:102B0000FFEFFE87ED87F6CAF101E858FF4F80819D
:102B1000882309F4E7CA1082E1E0F0E0F2CFF10186
:102B2000E858FF4F80818111E5CA22E030E03E87FE
:102B30002D87E0CA1E861D86DDCA17FF02C00D5F05
:102B40001F4F1595079515950795F101118610866C
:102B500017821682D4018D919C91FC0122A933A980
:102B60007801E21AF30AA70161E470E00E947B0792
:102B7000F4E0EF0EF11C29E0E216F10420F4D1019B
:102B800014960D911C91F401E080F180D7014D90D5
:102B90005C90052C000C660877089801012E000C4B
:102BA000440B550B2419350946095709A8EEB3E023
:102BB0000E947D24F70122813381032E000C440BF7
:102BC000550B24193509460957090E945E24293EF0
:102BD000F3E03F0714F028EE33E037FF02C030E0A7
:102BE00020E0AD89BE892D933C93F101C2A4D3A40A
:102BF000F601EE0FFF1FE20DF31D42845384052CF6
:102C0000000C66087708D1019C964D915D916D91FD
:102C10007C919F9744195509660977093387228764
:102C20002901330F66087708CB01BA01640D751DC1
:102C3000861D971DF10164A775A786A797A7960122
:102C40002F5F3F4F2031310534F533A722A76101B3
:102C5000BBE7CB0ED11C20E130E040E050E00E9409
:102C60005E24F60131832083F701E65BFF4F80810C
:102C70009181019729F4E8EEF3E0D601ED93FC93FE
:102C80000D39FFEF1F0709F45FCAD10115961C9398
:102C90000E93149759CA9B961C921E929A97D7CF5F
:102CA000F10124813581215031092336310558F451
:102CB000E858FF4F2081211114C021E020834FEFFD
:102CC0005FEF588B4F87EF85F889D501ED93FC9323
:102CD000825B9F4FDC018D919C91F10195838483F0
:102CE00033CA188A1F86EFCF201B310B2F313105D5
:102CF0000CF447CAF501208131812230310509F0F9
:102D000040CAA80170E060E00E947B073ACA201B1D
:102D1000310B2F3131050CF477CAD5012D913C913F
:102D20002230310509F070CAA80161E070E00E940C
:102D30007B076ACAEF81F88511821082F101EF5793
:102D4000FF4F1082118212821382349610821182F8
:102D50001282138281CB10829DCB1C92A8CB118250
:102D6000108218CD1D921C926BCD15AE14AEC5CD40
:102D7000FC01E05AFF4F40815181141615060CF0FA
:102D80000BCE4150510960E370E004CEFC01E05AE3
:102D9000FF4F40815181403551050CF02ECE4F5FE1
:102DA0005F4F60E370E027CEB1E0B093A80280915E
:102DB000470490914804FC01E859FF4F208131817C
:102DC000232B61F43A96208131812130310531F491
:102DD00041E050E064E370E00E947B07809147048B
:102DE00090914804FC01E859FF4F20813181213046
:102DF000310561F43A96208131812330310531F477
:102E000042E050E064E370E00E947B07E0914704F9
:102E1000F0914804E859FF4F808191810297C0F5F5
:102E200086E00E94CB01209147043091480401972D
:102E300041F0F901EE5AFF4F80819181853691056D
:102E40003CF143E050E064E370E0C9010E947B077D
:102E500061E087E00E94F4011092A8021092B10292
:102E60008091EC029091ED02A091EE02B091EF0200
:102E70008093B6029093B702A093B802B093B902C0
:102E80008093C2029093C302A093C402B093C50280
:102E90008CE693E00E94F300181619060CF098C017
:102EA0006AE3CE0101960E94130709811A8160E04E
:102EB00070E0CB010115110519F0C8010E94ED2247
:102EC0007B0170931101609310010115110519F038
:102ED000C8010E9486266AE0CE0101960E9413076F
:102EE00009811A8160E070E0CB010115110519F02C
:102EF000C8010E94ED227093AA026093A9020115F5
:102F0000110519F0C8010E948626E4E6EE16F104C8
:102F100011F510E000E0E0914704F0914804C80189
:102F2000880F991FE80FF91F40815181052E000C71
:102F3000660B770B77FFFBC38CE693E00E945F057F
:102F400064E971E08CE693E00E9404050F5F1F4F77
:102F50000035110501F7809110019091110185361E
:102F6000910561F468E071E08CE693E00E9404054D
:102F700064E971E08CE693E00E9404058091100101
:102F8000909111018636910561F461E071E08CE663
:102F900093E00E94040564E971E08CE693E00E94EE
:102FA000040560911001709111016035710554F4B0
:102FB0004091A9025091AA0280914704909148043F
:102FC0000E947B0787EE93E090931101809310019C
:102FD00040E050E0BA018FE690E00E94B30740E085
:102FE00050E0BA0182E190E00E94B307809147046B
:102FF00090914804FC01EA5BFF4F20813181213030
:10300000310509F09AC3B296208131812330310510
:1030100009F093C32091E70221118FC360E088E09B
:103020000E94F401E0914504F0914604E358FF4FFB
:1030300080819181B0E0A0E04091F4025091F502CE
:103040006091F6027091F702481759076A077B07EB
:1030500008F490C34091F4025091F5026091F60299
:103060007091F702411551056105710569F08417EA
:103070009507A607B70740F48093F4029093F502F2
:10308000A093F602B093F702809147049091480410
:10309000FC01E856FF4F8E5A9F4F20813181FC0181
:1030A00080819181281739071CF4F1E0F093E70241
:1030B0004091F4025091F5026091F6027091F7028E
:1030C00087EA90E00E94B3078091EC029091ED02B4
:1030D000A091EE02B091EF02883E33E09307A10584
:1030E000B10558F0E0914704F0914804E859FF4FCA
:1030F000208131812330310539F0E0914504F09190
:103100004604E757FF4F10824091D6025091D702F4
:103110006091D8027091D902452B462B472B19F5A7
:10312000895E9340A109B10983369105A105B105D6
:10313000D0F450E040E067E370E080914704909164
:1031400048040E947B078091EC029091ED02A091CF
:10315000EE02B091EF028093D6029093D702A09333
:10316000D802B093D9028090EC029090ED02A0902A
:10317000EE02B090EF028091D2029091D302A09122
:10318000D402B091D502892B8A2B8B2B09F047C032
:10319000D501C4018D5D9540A109B109873C910518
:1031A000A105B105E0F558E2E52EF12C10E000E0B4
:1031B00085E10E945E02080F191F65E070E080E063
:1031C00090E00E949E0241E0E41AF10889F7C801EC
:1031D00068E270E00E94C925072E000C880B990B4D
:1031E0000E942B2329E030EF4CE85AE30E948A2307
:1031F00020E030E048E455E40E948A230E946A25DA
:103200007093D1026093D00251E05093E702809214
:10321000D2029092D302A092D402B092D5028091B1
:10322000CC029091CD02A091CE02B091CF02892B19
:103230008A2B8B2B09F06CC081ED881A87E0980AE5
:10324000A108B10893E689169104A104B10408F01D
:103250005FC008E210E0F12CE12C85E10E945E02E3
:10326000E80EF91E65E070E080E090E00E949E02AA
:103270000150110991F71092E7020091D0021091CC
:10328000D102C0904704D0904804C70168E270E0C2
:103290000E94C925072E000C880B990B0E942B2336
:1032A00029E030EF4CE85AE30E948A2320E030E026
:1032B00048E455E40E948A230E946A25C801861BBF
:1032C000970BA80144970CF07AC24A50510963E168
:1032D00070E0C6010E947B078091470490914804EA
:1032E000DC019C964D915C9167E370E00E947B0746
:1032F0008091EC029091ED02A091EE02B091EF026C
:103300008093CC029093CD02A093CE02B093CF02D3
:103310008091EC029091ED02A091EE02B091EF024B
:10332000C397A105B10550F041E050E063E470E0BF
:1033300080914704909148040E947B078091EC02A1
:103340009091ED02A091EE02B091EF024091C8027F
:103350005091C9026091CA027091CB02841B950BF7
:10336000A60BB70B893E9340A105B10508F47EC0BA
:10337000809147049091480420911201F1E02F2799
:1033800020931201FC01E258FF4F208131812E3140
:1033900031050CF017C2B097208131811216130647
:1033A0000CF010C22091AB023091AC022F5F3F4F66
:1033B0003093AC022093AB0248EE53E06FE370E031
:1033C0000E947B078091470490914804FC01E456D9
:1033D000FF4F4091AB025091AC0220813181241704
:1033E00035078CF41092AC021092AB0248EE53E019
:1033F0006FE370E00E947B07E0914504F091460482
:10340000E757FF4F10828091E702882309F4FFC13C
:1034100080914704909148042091C6023091C702E0
:10342000FC01E656FF4F40815181241735070CF00F
:10343000CEC17697408151814130510509F4C7C111
:103440002F5F3F4F3093C7022093C6028091EC025A
:103450009091ED02A091EE02B091EF028093C8022C
:103460009093C902A093CA02B093CB02E0914704A3
:10347000F0914804E859FF4F8081918161E0039702
:1034800009F060E08FE00E94F401E0914704F091C0
:103490004804E859FF4F80819181019729F4609198
:1034A00012018FE00E94F401E0914704F09148047A
:1034B000C090EC02D090ED02E090EE02F090EF02AE
:1034C000DF01AA58BF4F8D919C91892B71F444A1C3
:1034D00055A14115510549F0CF0188599F4FDC0195
:1034E0008D919C91039709F497C1C092C202D0922A
:1034F000C302E092C402F092C50280914704909109
:1035000048044091EC025091ED026091EE027091FE
:10351000EF020091BE021091BF022091C0023091D3
:10352000C102401B510B620B730BFC0100A111A1E6
:10353000012E000C220B330B041715072607370743
:1035400008F04DC0E05AFF4F4081518141155105AF
:1035500009F02FC388599F4FDC010D911C91809178
:10356000AF029091B0028017910771F040E061E0E6
:1035700085E594E00E947C068BE39FE10197F1F7DB
:103580001093B0020093AF020115110509F063C159
:1035900060E080E00E94930687E991E00E94880540
:1035A00061E080E00E94930687E991E00E9488052F
:1035B0001092600460E085E594E00E94E004809150
:1035C000EC029091ED02A091EE02B091EF02809397
:1035D000BE029093BF02A093C002B093C10280913B
:1035E0004704909148044091EC025091ED026091A3
:1035F000EE027091EF02FC01EA59FF4F2081318108
:10360000215031092230310508F421C34093BA0218
:103610005093BB026093BC027093BD02809147043B
:1036200090914804FC01E859FF4F20813181B90194
:1036300064507109C090EC02D090ED02E090EE026F
:10364000F090EF026230710518F02230310541F43C
:10365000B9EBCB16BBE0DB06E104F10408F028C3AC
:10366000C092B602D092B702E092B802F092B902CC
:10367000C090EC02D090ED02E090EE02F090EF02EC
:1036800080914704909148044091B2025091B30256
:103690006091B4027091B50246015701841A950AEF
:1036A000A60AB70ADC019A962D913C91032E000CD4
:1036B000440B550B281539054A055B0508F096C4DF
:1036C000FC01EA56FF4F40815181FE9720813181F4
:1036D000241735070CF017C3B1E1CB16B7E2DB06B0
:1036E000E104F10408F40FC33296208131812B35B7
:1036F00031050CF408C341E050E068E370E00E943B
:103700007B078091470490914804FC0144A555A58E
:1037100067E370E00E947B0750E040E069E370E0FF
:1037200080914704909148040E947B07CAC32AE015
:103730008CE693E00E94130503CCFC01E856FF4F92
:103740008E5A9F4F20813181DC018D919C912817E9
:103750003907ECF460E088E00E94F40148EE53E0A1
:1037600060E070E087EA90E00E94B30721E02093D8
:10377000E702AACC4C505E4F6F4F7F4F4093F4024C
:103780005093F5026093F6027093F70263CC809138
:10379000E7028111DFCF61E088E00E94F40140E0A0
:1037A00050E0BA0187EA90E00E94B3071092F40259
:1037B0001092F5021092F6021092F70285CC445F47
:1037C0005F4F85CD1092AC021092AB02F5CD50E068
:1037D00040E069E270E00E947B071092E7021092DD
:1037E000C7021092C6028091470490914804FC01E0
:1037F000EC57FF4F208131812130310509F026CE71
:1038000050E040E062E470E00E947B071FCE10921F
:10381000C7021092C6021ACE28EE33E0DA010E94E7
:10382000DD250091C2021091C3022091C4023091A3
:10383000C502C01AD10AE20AF30A6C157D058E058D
:103840009F0508F05ACE44E050E064E370E0CF01F9
:103850000E947B0752CE0130110509F04BC00E9437
:10386000F20460E080E00E94930688EA91E00E9402
:10387000880561E080E00E94930680EA91E00E9462
:1038800088058091AD029091AE0201969093AE02B0
:103890008093AD0206978CF0E0914704F0914804C4
:1038A000E659FF4F80819181813591058CF084E04C
:1038B00090E09093AE028093AD026091AD0285E5F9
:1038C00094E00E94C6068DE991E00E94880577CEBB
:1038D0008035910591F38C3391050CF465C683E036
:1038E00090E0E7CF82E090E0E4CF1093AE02009347
:1038F000AD02E3CF0230110589F40E94F20460E0CA
:1039000080E00E94930689EB91E00E94880561E0C7
:1039100080E00E9493068AEC91E0D7CF0330110536
:1039200009F01EC10E94F20480914704909148045E
:10393000FC01EC59FF4F20813181283E334034F4A3
:1039400048EE53E062E370E00E947B0760E080E0B5
:103950000E9493068BED91E00E94880561E080E073
:103960000E949306E0914504F0914604EB57FF4F07
:1039700020E030E0A90160817181828193810E9401
:10398000A02518160CF06DC08CEE91E00E94880501
:10399000E0914504F0914604EB57FF4F608171813F
:1039A000828193810E946A2585E594E00E948D05BD
:1039B00084EA91E00E94880561E08EE00E9493060F
:1039C000E0914704F0914804E059FF4F80819181D4
:1039D000029709F049C066E085E594E00E94C606BA
:1039E00061E08FE00E949306809147049091480423
:1039F000FC01E65AFF4F2081318167E02436310512
:103A00000CF4A9C0FC01EE58FF4FE080F180E1E02A
:103A1000EE16F10409F040C00091AD021091AE0223
:103A2000602F85E594E00E94C6060F5F1F4F10933C
:103A3000AE020093AD02063011050CF4C0CDE0914A
:103A40004704F0914804E659FF4F80819181813508
:103A500091057CF084E090E09093AE028093AD02FB
:103A6000AECD84EF91E0A6CF86EA91E00E94880572
:103A7000B7CF8035910509F4A2CD8C3391050CF4B4
:103A80009FC583E090E0E8CF82E090E0E5CFF09240
:103A9000AE02E092AD0293CD86599F4FDC018D912D
:103AA0009C91803591052CF065E085E594E00E94BD
:103AB000C606E0914704F0914804E659FF4F808123
:103AC0009181CC97449728F464E085E594E00E94C6
:103AD000C606E0914704F0914804E659FF4F808103
:103AE00091818D970F9728F463E085E594E00E941B
:103AF000C606E0914704F0914804E659FF4F8081E3
:103B0000918183970A9728F462E085E594E00E940A
:103B1000C606E0914704F0914804E659FF4F8081C2
:103B2000918149970A9728F461E085E594E00E9425
:103B3000C606E0914704F0914804E659FF4F8081A2
:103B40009181499724F480911201811103C086EA82
:103B500091E0BBCE60E085E594E00E94C6062FCDE3
:103B60000430110589F40E94F20460E080E00E94B4
:103B7000930682E092E00E94880561E080E00E9466
:103B8000930683E192E0A1CE0530110509F017CD2F
:103B90000E94F20460E080E00E94930684E292E0DA
:103BA0000E94880561E080E00E94930689EB91E025
:103BB0008CCE4150510962E370E00E947B0760E0C7
:103BC00080E00E94930685E392E00E948805E091E0
:103BD0004704F0914804EE59FF4F8081918101978D
:103BE00099F58CE392E00E94880561E080E00E94F4
:103BF000930682E592E00E948805E0914704F091E7
:103C00004804EC59FF4F6081718185E594E00E9482
:103C10008D0581EF91E00E94880580914704909185
:103C20004804FC01EC59FF4F20813181220F331FE2
:103C3000820F931FFC016081718185E594E00E94F1
:103C40008D058FE991E041CE87E492E0CCCF0091E1
:103C5000BA021091BB022091BC023091BD02401B00
:103C6000510B620B730BDC0190960D911C91012E90
:103C7000000C220B330B041715072607370708F033
:103C8000CDCC50E040E063E370E00E947B07809180
:103C9000EC029091ED02A091EE02B091EF028093C0
:103CA000BA029093BB02A093BC02B093BD02B6CC03
:103CB0004091B6025091B7026091B8027091B9027A
:103CC000C41AD50AE60AF70AFC0102A113A1012EC3
:103CD000000C220B330B0C151D052E053F0508F0BB
:103CE000C7CC50E040E064E370E00E947B07E091C5
:103CF0004504F0914604E757FF4F108260E087E0EB
:103D00000E94F401B5CC42E050E068E370E00E940C
:103D10007B078091470490914804FC01E259FF4FD2
:103D200040815181DC019E962D913C919F974217D5
:103D300053075CF498962D913C912456310976975F
:103D4000608171816217730794F014161506ACF444
:103D5000FC0120A531A52C593F4FE85AFF4F608147
:103D60007181261737074CF44150510902C04F5F4B
:103D70005F4F67E370E00E947B07E0914704F0919A
:103D80004804E259FF4F0081118161E083E00E9405
:103D900022020115110599F560E083E00E94F4010B
:103DA0008091470490914804FC01E259FF4FDC01E7
:103DB0009E964D915C91208131814217530751F4B9
:103DC0007E9640815181F4972081318124173507F7
:103DD0000CF45CC02091B102211158C0FC01E457E1
:103DE000FF4F40815181F49720813181241735079D
:103DF0000CF467C041E050E069E370E095CC0F3F00
:103E0000110511F461E0C9CFE1EBF0E0E491E3309A
:103E100019F140F4E130B1F0E230C9F00038110599
:103E20008CF7BACFE73011F1E83041F1E430B1F767
:103E30008091800080628093800010938B000093BB
:103E40008A00AECF84B5806884BD07BDA9CF84B594
:103E5000806284BD08BDA4CF80918000806880937B
:103E6000800010938900009388009ACF8091B00061
:103E700080688093B0000093B30092CF8091B0002F
:103E800080628093B0000093B4008ACF43E050E09A
:103E900069E370E00E947B07809147049091480499
:103EA000FC01E457FF4F885A9F4F20813181FC016C
:103EB00080819181821793070CF073C2F1E0F09337
:103EC000B1020091470410914804F801E057FF4FF8
:103ED0000190F081E02DD801A257BF4FCD90DC902A
:103EE00011970D2C000CEE08FF08D4972D913C91F2
:103EF000032E000C440B550B2C193D094E095F098C
:103F0000A4E6B0E00E947D24D801A059BF4F2D91B6
:103F10003C9111972130310509F052C252972D91F1
:103F20003C9111972115310509F047C2D4962D9186
:103F30003C91AF01421B530B9A01032E000C440B22
:103F4000550B2C193D094E095F090E945E24A901F9
:103F50002536310514F044E650E057FF02C050E02A
:103F600040E0F801E859FF4F80819181813091054F
:103F700009F01AC2329680819181481759070CF0D6
:103F800016C28091470490914804FC01E859FF4F04
:103F90002081318123303105C9F43296208131816D
:103FA000253031059CF44091EC025091ED02609176
:103FB000EE027091EF02413157426105710530F018
:103FC00045E050E064E370E00E947B078091EC02E2
:103FD0009091ED02A091EE02B091EF028093B202B7
:103FE0009093B302A093B402B093B502C090EC02D8
:103FF000D090ED02E090EE02F090EF028091DB02B3
:104000009091DC02A091DD02B091DE02C81AD90ABB
:10401000EA0AFB0A84E00E94CB01892B09F06DC2F9
:104020008091DA0281116FC0B9ECCB16D104E104A2
:10403000F104D8F18091470490914804FC01428931
:104040005389052E000C660B770B4C155D056E052C
:104050007F0558F1A60168E270E00E947B0700919D
:10406000470410914804F801A089B189A70196017D
:104070000E9488249B01AC0160E87DE88BE590E01C
:104080000E945E24A90169E270E0C8010E947B07DA
:104090000E94D0026093DB027093DC028093DD0209
:1040A0009093DE02F1E0F093DA0280914704909160
:1040B0004804DC0152964D915C91052E000C660B74
:1040C000770B4C155D056E057F05E8F550E040E087
:1040D00068E270E00E947B0750E040E069E270E037
:1040E00080914704909148040E947B070E94D0026F
:1040F0006093DB027093DC028093DD029093DE021A
:10410000B1E0B093DA028091470490914804FC0139
:1041100042895389052E000C660B770B4C155D0503
:104120006E057F0580F450E040E068E270E00E9498
:104130007B0750E040E069E270E080914704909195
:1041400048040E947B078091470490914804FC0139
:10415000E05BFF4F20813181232B39F43E96208193
:10416000318150E040E0232B11F041E050E06BE35F
:1041700070E00E947B0780913B0490913C04209169
:104180001504F1E0F093FA0220931C031092FB0255
:1041900010921D030E94DB040E9475038091150498
:1041A000909116040E94970590914A0380914B03C9
:1041B0009817F1F389E094E00E946C0485FFA0C198
:1041C0008091350490913604E0903304F0903404EB
:1041D0002091150431E03093FA0220931C031092D1
:1041E000FB0210921D030E94DB040E947503809164
:1041F0001504909116040E94970590914A038091AE
:104200004B039817F1F389E094E00E946C048C0151
:104210008091150441E04093FA0280931C031092B0
:10422000FB0210921D03C7010E94DB040E9475036C
:1042300080911504909116040E94970590914A036D
:1042400080914B039817F1F389E094E00E946C048D
:104250008C8B1B8A8B899C89082B192BB80190E0C9
:1042600080E00E9429232EE03DE242EB5DE30E94C4
:104270008A230E946A256B019B017093E60260937A
:10428000E50200914704109148048091E302909167
:10429000E402243631050CF04DC18D32A1E09A07BD
:1042A00084F0885691409093E4028093E3028091D9
:1042B000E1029091E202865A9F4F9093E20280932E
:1042C000E1028091E3029091E402D601A81BB90BB0
:1042D000B7FD4EC1109709F044C11092140110921D
:1042E000130180911301909114018130910509F01F
:1042F00042C1B7FF03C0B195A195B1092AE530E0ED
:104300000E94DD2528E631E040E050E00E945E2476
:104310008091E1029091E202280F391F3093E00270
:104320002093DF028091DF029091E0028936F1E074
:104330009F0754F01092E2021092E1028A5591090F
:104340009093E0028093DF028091DF029091E0027F
:1043500097FF0CC028E631E03093E2022093E1029F
:10436000865A9F4F9093E0028093DF02A60164E497
:1043700070E0C8010E947B074091DF025091E0028B
:1043800065E470E080914704909148040E947B07A7
:104390008091E5029091E6029093E4028093E3021B
:1043A000B9C01092B1028DCD02970CF4EACD65E34D
:1043B00070E0C8010E947B07E4CD12161306C4F01A
:1043C0009F01FF0F440B550B2C193D094E095F0946
:1043D0000E945E24A9012536310514F044E650E020
:1043E00057FF02C050E040E065E370E0C801ECCD4B
:1043F000D801AC56BF4F2D913C91AF01421B530BDE
:104400009A01032E000C440B550B2C193D094E0943
:104410005F090E945E24A9012536310514F044E6A7
:1044200050E057FF02C050E040E0F801E859FF4F6C
:10443000808191818130910509F04EC03296808152
:104440009181481759070CF04AC080914704909118
:104450004804FC01E859FF4F2081318123303105A8
:1044600031F432962081318125303105F4F150E06C
:1044700040E060E470E00E947B07809147049091E7
:104480004804DC01A256BF4FFC01E058FF4F4D919C
:104490005C91208131814217530709F097CD4091FB
:1044A000EC025091ED026091EE027091EF02413109
:1044B00057426105710508F489CD45E050E064E399
:1044C00070E00E947B0750E040E060E470E0809183
:1044D00047049091480478CD02970CF4B6CF65E379
:1044E00070E0C8010E947B07B0CFFC01E058FF4F8D
:1044F000408151814F5F5F4FBCCF1092DA0203CEF3
:104500004FEF5FEF64E470E08091470490914804BE
:104510000E947B0780E090E0892B11F40C942D0F12
:104520000E94FF00882311F40C942D0F0E940000BC
:104530000C942D0FBDE2CB16B1E0DB060CF4C1CE1E
:10454000843691050CF0BDCE88599E4F9093E402BD
:104550008093E3028091E1029091E2028A559109F1
:10456000ACCE81E090E09093140180931301B9CE1A
:104570008FEF9FEFF8CF019609F0D4CED6012AE550
:1045800030E00E94DD2528E631E040E050E00E9466
:104590005E248091E1029091E202821B930B909342
:1045A000E0028093DF02BECE8D3291050CF09AC9F5
:1045B00083970CF09AC91092AE021092AD027DC999
:1045C0008D3291050CF060CA83970CF060CA10928E
:1045D000AE021092AD020C94DF1A1F93FC019927D2
:1045E0008827BC01E89411911032E9F3193010F0DA
:1045F0001E30C8F31B3251F01D3249F4689406C0D6
:104600000E941423610F711D811D911D1191105382
:104610001A30B0F33EF490958095709561957F4F78
:104620008F4F9F4F1F910895592F482F372F262FB7
:10463000660F771F881F991F660F771F881F991FA6
:10464000620F731F841F951F660F771F881F991FA6
:104650000895E89409C097FB3EF490958095709575
:1046600061957F4F8F4F9F4F9923A9F0F92F96E9BE
:10467000BB279395F695879577956795B795F11133
:10468000F8CFFAF4BB0F11F460FF1BC06F5F7F4FD0
:104690008F4F9F4F16C0882311F096E911C07723E2
:1046A00021F09EE8872F762F05C0662371F096E8EB
:1046B000862F70E060E02AF09A95660F771F881FBA
:1046C000DAF7880F9695879597F90895990F00085E
:1046D000550FAA0BE0E8FEEF16161706E807F907D4
:1046E000C0F012161306E407F50798F0621B730B6F
:1046F000840B950B39F40A2661F0232B242B252BF0
:1047000021F408950A2609F4A140A6958FEF811D92
:10471000811D08950E949D230C940E240E94002464
:1047200038F00E94072420F0952311F00C94F72311
:104730000C94FD2311240C9442240E941F2470F336
:10474000959FC1F3950F50E0551F629FF001729F36
:10475000BB27F00DB11D639FAA27F00DB11DAA1F45
:10476000649F6627B00DA11D661F829F2227B00D92
:10477000A11D621F739FB00DA11D621F839FA00D1D
:10478000611D221F749F3327A00D611D231F849F6D
:10479000600D211D822F762F6A2F11249F575040C4
:1047A0009AF0F1F088234AF0EE0FFF1FBB1F661F3F
:1047B000771F881F91505040A9F79E3F510580F008
:1047C0000C94F7230C9442245F3FE4F3983ED4F317
:1047D000869577956795B795F795E7959F5FC1F7AC
:1047E000FE2B880F911D9695879597F9089597F957
:1047F0009F6780E870E060E008959FEF80EC089587
:1048000000240A94161617061806090608950024AF
:104810000A9412161306140605060895092E039429
:10482000000C11F4882352F0BB0F40F4BF2B11F49D
:1048300060FF04C06F5F7F4F8F4F9F4F089557FDFC
:104840009058440F551F59F05F3F71F04795880FFE
:1048500097FB991F61F09F3F79F087950895121695
:1048600013061406551FF2CF4695F1DF08C0161641
:1048700017061806991FF1CF8695710561050894F2
:104880000895E894BB2766277727CB0197F9089509
:10489000F999FECF92BD81BDF89A992780B5089508
:1048A000262FF999FECF1FBA92BD81BD20BD0FB64C
:1048B000F894FA9AF99A0FBE01960895052E97FB7F
:1048C0001EF400940E94752457FD07D00E94C7244F
:1048D00007FC03D04EF40C94752450954095309508
:1048E00021953F4F4F4F5F4F08959095809570955C
:1048F00061957F4F8F4F9F4F08950E94E924A59F98
:10490000900DB49F900DA49F800D911D11240895CA
:10491000B7FF0C947D240E947D24821B930B089585
:104920002F923F924F925F926F927F928F929F92BF
:10493000AF92BF92CF92DF92EF92FF920F931F93AD
:10494000CF93DF93CDB7DEB7CA1BDB0B0FB6F8945E
:10495000DEBF0FBECDBF09942A88398848885F849E
:104960006E847D848C849B84AA84B984C884DF800F
:10497000EE80FD800C811B81AA81B981CE0FD11DF3
:104980000FB6F894DEBF0FBECDBFED010895A1E2D2
:104990001A2EAA1BBB1BFD010DC0AA1FBB1FEE1FB9
:1049A000FF1FA217B307E407F50720F0A21BB30B04
:1049B000E40BF50B661F771F881F991F1A9469F780
:1049C00060957095809590959B01AC01BD01CF01DC
:1049D0000895A29FB001B39FC001A39F700D811DD8
:1049E0001124911DB29F700D811D1124911D0895F8
:1049F0000E940C250C940E240E94072458F00E945B
:104A0000002440F029F45F3F29F00C94F723511162
:104A10000C9442240C94FD230E941F2468F39923D4
:104A2000B1F3552391F3951B550BBB27AA276217AA
:104A30007307840738F09F5F5F4F220F331F441FB7
:104A4000AA1FA9F335D00E2E3AF0E0E832D09150EB
:104A50005040E695001CCAF72BD0FE2F29D0660FD8
:104A6000771F881FBB1F261737074807AB07B0E81B
:104A700009F0BB0B802DBF01FF2793585F4F3AF021
:104A80009E3F510578F00C94F7230C9442245F3F2D
:104A9000E4F3983ED4F3869577956795B795F795A7
:104AA0009F5FC9F7880F911D9695879597F908958F
:104AB000E1E0660F771F881FBB1F6217730784072B
:104AC000BA0720F0621B730B840BBA0BEE1F88F73A
:104AD000E09508950E9471256894B1110C944224C8
:104AE00008950E94272488F09F5798F0B92F99279E
:104AF000B751B0F0E1F0660F771F881F991F1AF0C9
:104B0000BA95C9F714C0B13091F00E944124B1E0C8
:104B100008950C944124672F782F8827B85F39F0C7
:104B2000B93FCCF3869577956795B395D9F73EF461
:104B300090958095709561957F4F8F4F9F4F089509
:104B40000E94662308F48FEF0895DB018F939F93F3
:104B50000E947D24BF91AF91A29F800D911DA39FC4
:104B6000900DB29F900D11240895AA1BBB1B51E11B
:104B700007C0AA1FBB1FA617B70710F0A61BB70BCD
:104B8000881F991F5A95A9F780959095BC01CD0172
:104B9000089597FB072E16F4009407D077FD09D0EF
:104BA0000E94B52507FC05D03EF4909581959F4F56
:104BB0000895709561957F4F08950E94E924B7FF8D
:104BC0000895821B930B0895EE0FFF1F0590F4913B
:104BD000E02D09940F931F93CF93DF9382309105BB
:104BE00010F482E090E0E0916304F091640430E01E
:104BF00020E0B0E0A0E0309799F42115310509F4E8
:104C00004AC0281B390B24303105D8F58A819B8195
:104C10006115710589F1FB0193838283FE0111C047
:104C2000408151810281138148175907E0F04817EC
:104C3000590799F4109761F012960C9312971396F6
:104C40001C933296CF01DF91CF911F910F91089560
:104C50000093630410936404F4CF2115310551F0DF
:104C60004217530738F0A901DB019A01BD01DF01AA
:104C7000F801C1CFEF01F9CF9093640480936304EE
:104C8000CDCFFE01E20FF31F8193919322503109A2
:104C900039832883D7CF2091610430916204232B7C
:104CA00041F42091580130915901309362042093CE
:104CB000610420915601309157012115310541F4CD
:104CC0002DB73EB740915A0150915B01241B350B23
:104CD000E0916104F0916204E217F307A0F42E1B47
:104CE0003F0B2817390778F0AC014E5F5F4F241750
:104CF000350748F04E0F5F1F5093620440936104E4
:104D0000819391939FCFF0E0E0E09CCFCF93DF932E
:104D10000097E9F0FC01329713821282A09163049C
:104D2000B0916404ED0130E020E01097A1F42081FF
:104D30003181820F931F2091610430916204281702
:104D4000390709F061C0F0936204E0936104DF91D8
:104D5000CF910895EA01CE17DF07E8F54A815B811C
:104D60009E0141155105B1F7E901FB83EA834991A1
:104D70005991C40FD51FEC17FD0761F48081918113
:104D80000296840F951FE90199838883828193811C
:104D90009B838A83F0E0E0E012968D919C911397BB
:104DA0000097B9F52D913C911197CD010296820F94
:104DB000931F20916104309162042817390739F656
:104DC000309751F51092640410926304B09362041A
:104DD000A0936104BCCFD383C28340815181840FEF
:104DE000951FC817D90761F44E5F5F4F888199817D
:104DF000480F591F518340838A819B81938382830B
:104E00002115310509F0B0CFF0936404E0936304F9
:104E10009ECFFD01DC01C0CF13821282D7CFB0E05C
:104E2000A0E0E5E1F7E20C9492248C01009751F4A4
:104E3000CB010E94EA258C01C801CDB7DEB7E0E1C5
:104E40000C94AE24FC01E60FF71F9C01225031099F
:104E5000E217F30708F49DC0D901CD91DC911197B9
:104E6000C617D70798F0C530D10530F3CE010497A7
:104E70008617970708F3C61BD70B2297C193D193C8
:104E80006D937C93CF010E948626D6CF5B01AC1A2E
:104E9000BD0A4C018C0E9D1EA0916304B091640468
:104EA000512C412CF12CE12C109731F580916104AB
:104EB000909162048815990509F05CC04616570662
:104EC00008F058C08091560190915701009741F425
:104ED0008DB79EB740915A0150915B01841B950B91
:104EE000E817F90708F055C0F0936204E0936104F5
:104EF000F90171836083A0CF8D919C9111971296D7
:104F00006C90129713967C901397A815B90559F5D4
:104F10006C0142E0C40ED11CCA14DB0420F1AC01C8
:104F20004A195B09DA011296159780F06282738242
:104F300051834083D9016D937C93E114F10471F0A6
:104F4000D7011396FC93EE93129776CF22968C0F8F
:104F50009D1FF90191838083F301EFCFF0936404E7
:104F6000E093630469CF4816590608F42C017D01CB
:104F7000D3019ACFCB010E94EA257C01009749F02A
:104F8000AE01B8010E94CC27C8010E948626870185
:104F900053CF10E000E050CFFB01DC0102C00190D4
:104FA0000D9241505040D8F70895FB01DC0101906B
:0C4FB0000D920020E1F70895F894FFCF67
:104FBC000176332E302E33004D757369636F6E009E
:104FCC00E7030101000E1B111B151B111F0A0A1F01
:104FDC001F1F0E04040E1F1F1F1F1F1F1F0E1B1150
:104FEC001F1F1F1F1F0E1B11111F1F1F1F0E1B1119
:104FFC0011111F1F1F0E1B111111111F1F0E1B1141
:10500C00111111111F010000650480000000400007
:10501C00140054000000000035019500C20082010C
:10502C00F300D100E50000000000AC047F04FA049A
:10503C005C048C006C045D0400000000C606950046
:10504C00FA040E030D0A002020202020202020200E
:10505C002020202020202000424154544552592029
:10506C004348415247494E4700204220412054209A
:10507C005420452052205920200020492053202024
:10508C0020462055204C204C202000204D2055201F
:10509C005320492043204F204E20200054656D7032
:1050AC006F3A2000202020202053544F50202020E5
:1050BC0020002020202047204F204F20442020205B
:1050CC002020002020202020422059204520202074
:1050DC002020200020202020204C204F2057202052
:1050EC002020202000504152414D20002D204544CD
:1050FC0049543A202020002D20524541443A20208A
:06510C002000505F0000CE
:00000001FF
