:100000000C9462000C948A000C948A000C948A0070
:100010000C948A000C948A000C948A000C948A0038
:100020000C948A000C948A000C948A000C948A0028
:100030000C948A000C948A000C948A000C948A0018
:100040000C9419080C948A000C94E7070C94C107CF
:100050000C948A000C948A000C948A000C948A00F8
:100060000C9463080C948A0000000000250028000E
:100070002B000000000023002600290000000000E3
:10008000240027002A0001020408102040800102F9
:1000900004081020010204081020040404040404CD
:1000A000040402020202020203030303030300002A
:1000B0000008000201000003040700000000000027
:1000C0000000B80911241FBECFEFD8E0DEBFCDBFBE
:1000D00012E0A0E0B1E0EEECFAE402C005900D926F
:1000E000A435B107D9F724E0A4E5B2E001C01D9220
:1000F000AB32B207E1F710E0C2E6D0E004C02197CE
:10010000FE010E946D23C136D107C9F70E94400C41
:100110000C9465250C94000008950895AF92BF9249
:10012000CF92DF92EF92FF920F931F93CF93DF93C3
:100130006C017B018B01040F151FEB015E01AE18F2
:10014000BF08C017D10759F06991D601ED91FC9114
:100150000190F081E02DC6010995892B79F7C50141
:10016000DF91CF911F910F91FF90EF90DF90CF9093
:10017000BF90AF900895FC01538D448D252F30E042
:10018000842F90E0821B930B541710F0CF960895A4
:1001900001970895FC01918D828D981761F0A28DD1
:1001A000AE0FBF2FB11D5D968C91928D9F5F9F7397
:1001B000928F90E008958FEF9FEF0895FC01918D4D
:1001C000828D981731F0828DE80FF11D858D90E0BA
:1001D00008958FEF9FEF0895FC01918D228D892F57
:1001E00090E0805C9F4F821B91098F73992708953F
:1001F00082E693E00E94EC0021E0892B09F420E0E4
:10020000822F089580E090E0892B29F00E94F80069
:1002100081110C9400000895FC01A48DA80FB92F42
:10022000B11DA35ABF4F2C91848D90E001968F731E
:100230009927848FA689B7892C93A089B1898C913D
:10024000837080648C93938D848D981306C002888C
:10025000F389E02D80818F7D80830895EF92FF9256
:100260000F931F93CF93DF93EC0181E0888F9B8DD9
:100270008C8D98131AC0E889F989808185FF15C093
:100280009FB7F894EE89FF896083E889F9898081B6
:100290008370806480839FBF81E090E0DF91CF9185
:1002A0001F910F91FF90EF900895F62E0B8D10E0A7
:1002B0000F5F1F4F0F731127E02E8C8D8E110CC016
:1002C0000FB607FCFACFE889F989808185FFF5CF61
:1002D000CE010E940C01F1CFEB8DEC0FFD2FF11D33
:1002E000E35AFF4FF0829FB7F8940B8FEA89FB899E
:1002F00080818062CFCFCF93DF93EC01888D8823FC
:10030000B9F0AA89BB89E889F9898C9185FD03C078
:10031000808186FD0DC00FB607FCF7CF8C9185FF5D
:10032000F2CF808185FFEDCFCE010E940C01E9CF95
:10033000DF91CF910895833081F028F4813099F0D6
:100340008230A9F008958730A9F08830C9F0843050
:10035000B1F4809180008F7D03C0809180008F7701
:1003600080938000089584B58F7784BD089584B507
:100370008F7DFBCF8091B0008F778093B000089580
:100380008091B0008F7DF9CFCF93DF93282F30E09D
:10039000F901E255FF4F8491F901EA57FF4FD491DB
:1003A000F901E656FF4FC491CC23A1F081110E94C0
:1003B0009B01EC2FF0E0EE0FFF1FEE58FF4FA591D1
:1003C000B491EC91ED2381E090E009F480E0DF91BD
:1003D000CF91089580E090E0FACF1F93CF93DF9301
:1003E000282F30E0F901E255FF4F8491F901EA57D7
:1003F000FF4FD491F901E656FF4FC491CC23A9F0E9
:10040000162F81110E949B01EC2FF0E0EE0FFF1FD1
:10041000E859FF4FA591B4918FB7F894EC91111161
:1004200008C0D095DE23DC938FBFDF91CF911F9161
:100430000895DE2BF8CFCF93DF9390E0FC01EA57CD
:10044000FF4F249186569F4FFC0184918823C9F069
:1004500090E0880F991FFC01E458FF4FA591B491DB
:10046000FC01E859FF4FC591D49161110DC09FB7B0
:10047000F8948C91209582238C938881282328835B
:100480009FBFDF91CF910895623051F49FB7F894E8
:100490003C91822F809583238C93E8812E2BEFCF84
:1004A0008FB7F894EC912E2B2C938FBFEACF8E3020
:1004B00008F08E502091000190E4299F90011124B2
:1004C0008770822B80937C0080917A008064809377
:1004D0007A0080917A0086FDFCCF8091780090911F
:1004E000790008953FB7F8948091BD029091BE02C3
:1004F000A091BF02B091C00226B5A89B05C02F3FB6
:1005000019F00196A11DB11D3FBFBA2FA92F982F39
:100510008827BC01CD01620F711D811D911D42E034
:10052000660F771F881F991F4A95D1F708958F92FC
:100530009F92AF92BF92CF92DF92EF92FF924B01C8
:100540005C010E9472026B017C010E9472026C19B4
:100550007D098E099F09683E734081059105A8F3C6
:1005600021E0821A9108A108B10888EEC80E83E044
:10057000D81EE11CF11C81149104A104B10429F7D7
:10058000FF90EF90DF90CF90BF90AF909F908F90B3
:1005900008952FB7F8946091B9027091BA028091D2
:1005A000BB029091BC022FBF08950F931F930E942E
:1005B000C90260936A0370936B0380936C039093FA
:1005C0006D0382E693E00E94CA0097FF1DC00E945F
:1005D000C90200916A0310916B0320916C03309162
:1005E0006D03601B710B820B930B009166031091DE
:1005F00067032091680330916903601771078207D0
:100600009307F8F28FEF9FEF1F910F9108950895D0
:1006100020919502260F3327331F21323105ECF448
:1006200020912E03FC0190E080E0243069F082E00C
:100630000895A09195022191AC014B585D4FA40FF4
:10064000B52FB11D2C930196861798F380919502D2
:10065000680F6093950280E0089581E008951092FC
:100660002E0381E080932D031092080361E082E164
:100670000E94ED0161E083E10E94ED01E9EBF0E011
:1006800080818E7F808380818D7F808388E48093CA
:10069000B80085E48093BC000895CF93DF9391E088
:1006A000909374028823B9F0C091B800D091BA0039
:1006B0008091BC008A7B8093BC0060E082E10E9454
:1006C000ED0160E083E10E94ED010E942F03D093D1
:1006D000BA00C093B800DF91CF910895CF92DF9216
:1006E000EF92FF920F931F93CF93DF93D091570315
:1006F00081E0D13208F09CC0C09156030E94720282
:100700006B017C0180912E0381116CC082E080938B
:100710002E0381E080932D038FEF80932C031092A2
:100720002B03D0932A03A6E3B3E0EAE0F3E080E0F2
:10073000D8138DC01092090380910903CC0FC82BE8
:10074000C093090380910803813009F084C010929E
:1007500008030E9472026B017C018091090380935F
:10076000BB008091300390913103A0913203B0918E
:100770003303892B8A2B8B2BA1F00E9472020091EC
:1007800030031091310320913203309133036C19FF
:100790007D098E099F09061717072807390708F4EE
:1007A00042C08091BC0083FDD8CF85EC8093BC0013
:1007B0000E9472026B017C0180912E03823009F449
:1007C0004CC080912C038F3F09F469C080912C03A9
:1007D000803209F466C080912C03803309F463C031
:1007E00084E026C08091300390913103A0913203C0
:1007F000B0913303892B8A2B8B2B09F483CF0E9472
:100800007202009130031091310320913203309134
:1008100033036C197D098E099F09061717072807EE
:10082000390708F06FCF80912F030E944D0385E0B8
:10083000109235031092570310923403DF91CF9139
:100840001F910F91FF90EF90DF90CF9008959D91B1
:1008500091938F5F6DCF85EEA9CF809130039091FA
:100860003103A0913203B0913303892B8A2B8B2B58
:1008700009F4A2CF0E94720200913003109131035B
:1008800020913203309133036C197D098E099F0941
:10089000061717072807390708F08ECFC4CF80E066
:1008A000C7CF82E0C5CF83E0C3CF0895E091C702F0
:1008B0008091C602E81730F4F0E0EC5AFD4F8081D9
:1008C00090E008958FEF9FEF08959091C702809177
:1008D000C6022FEF3FEF981748F4E92FF0E0EC5AEB
:1008E000FD4F208130E09F5F9093C702C9010895BA
:1008F0008091C6029091C702891B990B0895CF92EF
:10090000DF92EF92FF920F931F93CF93DF937C01BF
:10091000CB018A0120913403222389F0EB016B0182
:10092000C40ED51ECC15DD0569F06991D701ED9196
:10093000FC910190F081E02DC7010995F3CF642F60
:100940000E940803C801DF91CF911F910F91FF9082
:10095000EF90DF90CF900895CF93DF931F92CDB7A4
:10096000DEB76983209134032223F9F020915703E5
:10097000203258F021E030E0FC013383228390E004
:1009800080E00F90DF91CF91089580913503E82F9B
:10099000F0E0EA5CFC4F998190838F5F8093350390
:1009A0008093570381E090E0ECCF61E0CE010196A7
:1009B0000E940803F7CFFC01248131E03093340317
:1009C0002093560310923503109257038385682BAA
:1009D0008FEF93E00E94AC040C946E0388E0809348
:1009E000260460E08BE194E00C94DB0490E080E06E
:1009F00008958EBD00000DB407FEFDCF8EB508959D
:100A0000FB0101900020E9F73197AF01461B570B1E
:100A1000DC01ED91FC910280F381E02D09948F922D
:100A20009F92AF92BF92EF92FF920F931F93CF933B
:100A3000DF93CDB7DEB7A1970FB6F894DEBF0FBE38
:100A4000CDBF7C01FA01CB0119A2223008F42AE0C3
:100A50008E010F5D1F4F822E912CB12CA12CBF0156
:100A6000A50194010E945022F901CA016A300CF5D7
:100A7000605DD8016E938D01232B242B252B79F7F4
:100A800090E080E0109721F0BD01C7010E940005B1
:100A9000A1960FB6F894DEBF0FBECDBFDF91CF9108
:100AA0001F910F91FF90EF90BF90AF909F908F900C
:100AB0000895695CDECFCF92DF92EF92FF920F93A1
:100AC0001F93CF93DF93EC016A017B01E881F981E9
:100AD0000190F081E02D6DE209958C0144275527A6
:100AE000BA014C195D096E097F092AE0CE010E9406
:100AF0000F05800F911FDF91CF911F910F91FF90F4
:100B0000EF90DF90CF900895BC018BE194E00C94BE
:100B10000005AB01770F660B770B77FD0C945B0537
:100B20002AE00C940F050F931F93CF938C01C62FCF
:100B30000E94DB046C2F6460C8010E94DB046C2FF0
:100B40006B7FC8010E94DB0483EC90E00197F1F712
:100B5000CF911F910F9108950F931F93CF93DF9320
:100B60008C01D62FC42F607F642B0E94930580E1F7
:100B7000D89FB00111246C2BC801DF91CF911F9138
:100B80000F910C949305CF93DF93CDB7DEB72897E1
:100B90000FB6F894DEBF0FBECDBF98E0EAE5F1E0F6
:100BA000DE01119601900D929A95E1F7909124043F
:100BB000961708F46FEF262F30E0220F331F41E025
:100BC00050E04C0F5D1F240F351FF9016081680F45
:100BD000606840E08BE194E028960FB6F894DEBFA1
:100BE0000FBECDBFDF91CF910C94AC0541E00E94C8
:100BF000AC0581E090E008950F931F93CF93DF93AE
:100C00008B0198E0899FB0011124606440E08BE182
:100C100094E00E94AC05E801085F1F4F69918BE1E9
:100C200094E00E94F605C017D107C1F7DF91CF917C
:100C30001F910F9108950F931F93CF93DF93EC01B2
:100C400088819981009759F02A813B8126173707BF
:100C500030F081E0DF91CF911F910F9108958B01CA
:100C60006F5F7F4F0E949824009759F09983888383
:100C70001B830A832C813D81232B59F7FC011082B1
:100C8000E8CF80E0E7CFCF92DF92EF92FF920F9311
:100C90001F93CF93DF9300D0CDB7DEB78C01C62E64
:100CA000FC0111821082138212821582148270E07C
:100CB00060E00E941B06F80120813181811137C05C
:100CC0002115310519F0C9010E940F24F801118284
:100CD000108215821482138212820E94D5020C2C7B
:100CE000000CDD0897FD2BC08C159D0541F1898313
:100CF0001A82F801E480F580FFEFEF1AFF0AB701CE
:100D0000C8010E941B06882379F0F80120813181F7
:100D100084819581BE016F5F7F4F820F931F0E9478
:100D20005E25F801F582E4820E94D502DBCF1582B0
:100D3000148264E971E0C9010E945E25CECFC8012A
:100D40000F900F90DF91CF911F910F91FF90EF9037
:100D5000DF90CF900895DF92EF92FF920F931F9351
:100D6000CF93DF93EC017A01CB014A978B01000FFF
:100D7000111F8C9760F4C00FD11FF982E882DF91B8
:100D8000CF911F910F91FF90EF90DF900895D42E97
:100D900060E04F3F510539F034F0CA016FEF70E069
:100DA0000E945223D82EC80101960E94D9216D2D90
:100DB000C80102960E94D92161E0C8018B599F4F5A
:100DC0000E94D921D8CF9F92AF92BF92CF92DF924B
:100DD000EF92FF920F931F93CF93DF93182F092F5A
:100DE000B42EA52E962EF72E60E08AE00E94ED012B
:100DF000C3E2D0E0CE010197F1F7812F0E94F90400
:100E00008F2D0E94F904C12CD12C7601C82AFE2C0A
:100E1000ED2CDC2CCC24892D0E94F904C82AFE2C50
:100E2000ED2CDC2CCC248A2D0E94F904C82AFE2C3F
:100E3000ED2CDC2CCC248B2D0E94F904C82A2197A0
:100E4000F1F761E08AE00E94ED01809160039091EA
:100E500061038F369105D1F580915C0390915D031C
:100E6000A0915E03B0915F03892B8A2B8B2B19F124
:100E700080910D0490910E04A601537050935B0372
:100E800040935A036CE370E00E94AB0680910D041E
:100E900090910E04FC01E258FF4F20813181409176
:100EA0005A0350915B03241735070CF4A9016FE333
:100EB00070E00E94AB06A7014F7155276DE370E00B
:100EC00080910D0490910E040E94AB068091600306
:100ED00090916103429769F4D0925903C0925803EC
:100EE000A6016EE370E080910D0490910E040E94C3
:100EF000AB061093600300936103DF91CF911F91C4
:100F00000F91FF90EF90DF90CF90BF90AF909F90A8
:100F1000089585ED8093BC0080913003909131035A
:100F2000A0913203B09133030796A11DB11D23E0B8
:100F3000B695A795979587952A95D1F72091BC00EE
:100F400024FD03C010922E03089540913003509168
:100F500031036091320370913303452B462B472BAD
:100F600069F30097A105B10541F025E32A95F1F752
:100F700000000197A109B109E1CF80912F030C94E2
:100F80004D031F920F920FB60F9211242F933F9390
:100F90004F935F936F937F938F939F93AF93BF9381
:100FA000EF93FF9382E693E00E940C01FF91EF9193
:100FB000BF91AF919F918F917F916F915F914F9171
:100FC0003F912F910F900FBE0F901F9018951F9279
:100FD0000F920FB60F9211242F938F939F93EF933D
:100FE000FF93E0917203F09173038081E0917803A5
:100FF000F091790382FD1BC0908180917B038F5F0C
:101000008F7320917C03821741F0E0917B03F0E025
:10101000EE59FC4F958F80937B03FF91EF919F9149
:101020008F912F910F900FBE0F901F901895808178
:10103000F4CF1F920F920FB60F9211242F933F936C
:101040008F939F93AF93BF938091B9029091BA020F
:10105000A091BB02B091BC023091B80223E0230FF3
:101060002D3758F50196A11DB11D2093B80280932C
:10107000B9029093BA02A093BB02B093BC028091D4
:10108000BD029091BE02A091BF02B091C002019634
:10109000A11DB11D8093BD029093BE02A093BF021B
:1010A000B093C002BF91AF919F918F913F912F91CB
:1010B0000F900FBE0F901F90189526E8230F0296F1
:1010C000A11DB11DD2CF1F920F920FB60F92112406
:1010D0002F933F934F935F936F937F938F939F9340
:1010E000AF93BF93EF93FF938091B900887F8036D1
:1010F00009F44AC0F0F5883209F4A7C018F5803128
:1011000009F49BC0B8F4882309F4F9C0883009F4C5
:1011100094C0FF91EF91BF91AF919F918F917F917B
:101120006F915F914F913F912F910F900FBE0F9054
:101130001F901895883109F488C0803251F7809348
:101140002C0314C0803409F49DC040F48033B9F3FB
:101150008833F9F680932C0385ECB0C0803509F410
:1011600085C0883509F496C0883499F60E948907AD
:10117000D0CF883909F48CC038F5883729F050F47D
:10118000883611F0803729F683E080932E03109281
:10119000B70257C0883809F47BC0803919F080380D
:1011A00009F0B7CF8091B702803208F071C0E091AA
:1011B000B70281E08E0F8093B7028091BB00F0E010
:1011C000E956FD4F80833DC0803B39F0E0F4803A22
:1011D00009F479C0883A09F09CCF84E080932E030B
:1011E0001092960210929502E091C402F091C5020D
:1011F00009958091950281110FC081E0809395023D
:101200001092750209C0803C09F4A6CF883C09F40D
:10121000A3CF883B09F07DCFE091960281E08E0F4D
:1012200080939602F0E0EB58FD4F80818093BB00E5
:10123000909196028091950229C080910903809334
:10124000BB0085EC8093BC0064CF90912B03809110
:101250002A03981758F5E0912B0381E08E0F8093B5
:101260002B03F0E0E65FFC4F8081E9CFE0912B0398
:1012700081E08E0F80932B038091BB00F0E0E65F4E
:10128000FC4F808390912B0380912A039817C8F21A
:1012900085E8D8CFE0912B0381E08E0F80932B035C
:1012A0008091BB00F0E0E65FFC4F808380912D03CE
:1012B00081115CCF81E08093080384EA8093BC00B5
:1012C00010922E0326CF85EC8093BC0010922E0343
:1012D0008091B702803230F4E091B702F0E0E95635
:1012E000FD4F10826091B70270E0E091C202F09170
:1012F000C30287E992E009951092B7020ACF1092D3
:101300002C0334CFBF92CF92DF92EF92FF920F93D4
:101310001F93CF93DF936C017A01EB01CC0FDD1F9C
:10132000CE0101960E94D121B82ECE0102960E94D4
:10133000D121082F10E0CE018B599F4F0E94D1215F
:10134000CC0DDD1D813061F0F982E882DF91CF9113
:101350001F910F91FF90EF90DF90CF90BF90089575
:101360008FEFB89E000D111D112419830883EECF55
:10137000EF92FF920F931F93CF93DF931092650329
:101380001092640388EE93E0A0E0B0E080936603DF
:1013900090936703A0936803B093690326E631E056
:1013A000309363032093620325EC30E030936F03A6
:1013B00020936E0324EC30E030937103209370038C
:1013C00020EC30E0309373032093720321EC30E083
:1013D000309375032093740322EC30E0309377034D
:1013E0002093760326EC30E0309379032093780342
:1013F00010927B0310927C0310927D0310927E0367
:101400001092020410920104809303049093040448
:10141000A0930504B093060488E791E0909300043C
:101420008093FF0310921E0410921D044AE851E0BD
:1014300050931C0440931B0487E280931F0420E117
:101440002093230492E0909324041092250488E0D2
:1014500080932604109212041092110450931004E9
:1014600040930F043FE330931304209317049093A9
:1014700018041092190480931A0480EA90E00E94E4
:101480007323EC01FC0180569F4F11921192E817D3
:10149000F907D9F750E040E070E060E0CE010E942B
:1014A000820950E040E061E070E0CE010E948209D4
:1014B00042E850E062E070E0CE010E9482094CE315
:1014C00050E063E070E0CE010E94820940E250E00B
:1014D00064E070E0CE010E9482094AE050E065E0DD
:1014E00070E0CE010E9482094DE250E066E070E0BB
:1014F000CE010E9482094AEE56E067E070E0CE011C
:101500000E94820948E050E068E070E0CE010E944D
:10151000820940E45FE169E070E0CE010E94820947
:1015200040ED53E16AE070E0CE010E94820944E19F
:1015300051E06BE070E0CE010E9482094EEF51E075
:101540006CE070E0CE010E94820940E451E06DE061
:1015500070E0CE010E9482094AEA50E06EE070E03D
:10156000CE010E94820942E350E06FE070E0CE01BC
:101570000E94820940E951E060E170E0CE010E94E2
:10158000820940ED57E061E170E0CE010E948209DE
:101590004CE251E062E170E0CE010E94820944EC2D
:1015A00059E063E170E0CE010E94820948E552E013
:1015B00064E170E0CE010E9482094CEA5DE065E1E1
:1015C00070E0CE010E94820941E450E066E170E0E3
:1015D000CE010E94820940E550E067E170E0CE0153
:1015E0000E94820941E050E068E170E0CE010E9473
:1015F000820946E950E066E470E0CE010E9482096B
:101600004FE750E067E470E0CE010E94820944EAAF
:1016100050E068E470E0CE010E94820945E050E0AD
:1016200069E470E0CE010E94820942E150E06AE480
:1016300070E0CE010E94820948ED5FEF6BE470E03C
:10164000CE010E94820944E853E06CE470E0CE01D0
:101650000E94820941E050E06DE470E0CE010E94FA
:10166000820944E050E06EE470E0CE010E948209FD
:1016700043E050E06FE470E0CE010E948209D09315
:101680000E04C0930D048AE990E00E9473238C013C
:10169000DC0111961C921E9215961C921E921497B4
:1016A00017961C921E92169719961C921E921897C6
:1016B000FC013A9680E2DF011D928A95E9F7F80174
:1016C00013A612A614A615A616A617A67801B0E7AB
:1016D000EB0EF11CF70111821082329610821182FA
:1016E00012821382349611821082329610823396BF
:1016F00011821082329611821082329611821082EB
:1017000032961082118212821382349610821182D4
:101710001282138234961082319681E08083319652
:10172000108237961082118212821382349680E0E2
:1017300090E0A0E8B0E480839183A283B38385E046
:1017400090E0D80113969C938E93129762E00E94CA
:101750001B0286E090E0F80191838083E758FF4FF9
:10176000D183C083D8011B961C921E921A971D9696
:101770001C921E921C971F961C921E921E975196A9
:101780001C921E92509753961C921E9252975596F9
:101790001C921E92549757961C921E9256975996D9
:1017A0001C921E925897E954F10911921192EE156C
:1017B000FF05D9F784E490E00E947323FC0115AE85
:1017C00014AEFE9610821182128213823496118218
:1017D0001082FC019C01245C3F4F119211922E1744
:1017E0003F07D9F7F801E457FF4F918380838CE6D8
:1017F00090E00E947323DC01AC59BF4F11961C92FC
:101800001E92FC01EA59FF4F10821182128213824C
:10181000349611821082FC0111921192AE17BF070B
:10182000D9F7F801E257FF4F9183808384E891E074
:101830000E947323DC01A458BE4F11961C921E9285
:10184000FC01E258FE4F10821182128213823496FC
:1018500011821082FC0111921192EA17FB07D9F74D
:10186000F801E057FF4F9183808310930C0400939D
:101870000B04DF91CF911F910F91FF90EF9008958E
:10188000CF93DF93CDB7DEB76A970FB6F894DEBF7C
:101890000FBECDBF789484B5826084BD84B581606D
:1018A00084BD85B5826085BD85B5816085BD80912B
:1018B0006E00816080936E001092810080918100A3
:1018C000826080938100809181008160809381009B
:1018D000809180008160809380008091B10084605D
:1018E0008093B1008091B00081608093B0008091BE
:1018F0007A00846080937A0080917A00826080937D
:101900007A0080917A00816080937A0080917A00D9
:10191000806880937A001092C10061E087E00E94A5
:101920001B0261E087E00E94ED0143E050E064E3C8
:1019300070E080910D0490910E040E94AB0683E04C
:101940008093000161E08AE00E941B0261E083E075
:101950000E941B0261E089E00E941B0261E088E0B6
:101960000E941B0261E08AE00E94ED0160E084E0D9
:101970000E941B0260E086E00E941B0280E48093CC
:10198000800089E080938100109289001092880085
:101990008CB58F7D8CBD8CB58C7F82608CBD8DB5F8
:1019A0008E7F8DBD8CB58C608CBD1FB7F8948091F7
:1019B000C102811127C0E4EAF0E08491E0E9F0E09F
:1019C0009491E82FF0E0EE0FFF1FE458FF4FA59130
:1019D000B491EC91E92321F461E08AE00E94ED01E9
:1019E00061E08AE00E941B028CB580618CBD8CB5E1
:1019F00080648CBD61E08DE00E941B0261E08BE0A1
:101A00000E941B028091C1028F5F8093C1021FBFA1
:101A1000E0917203F091730382E08083E09172039E
:101A2000F09173031082E0916E03F0916F031082C6
:101A3000E0917003F091710380E1808310927A034A
:101A4000E0917603F091770386E08083E091740360
:101A5000F0917503808180618083E0917403F0913F
:101A60007503808188608083E0917403F091750331
:101A7000808180688083E0917403F0917503808198
:101A80008F7D808340E050E0BA018BE890E00E94B7
:101A9000E30643EC50E061E070E08CEE90E00E94E1
:101AA000E30640E650E067E070E08DEE90E00E94D3
:101AB000E30644E050E060E070E080E890E00E94DF
:101AC000E30645E05EE064E070E080E990E00E94BB
:101AD000E30643E050E060E070E081E990E00E94BE
:101AE000E30644EF51E060E070E083E990E00E949B
:101AF000E30648EB5BE060E070E084E990E00E9480
:101B0000E30640E951E060E070E085E990E00E9482
:101B1000E30641E050E060E070E083EA90E00E947C
:101B2000E30640ED57E060E070E084EA90E00E9458
:101B3000E3064AE050E060E070E085EA90E00E9451
:101B4000E30648E35EE060E070E086EA90E00E9431
:101B5000E3064AE050E060E070E087EA90E00E942F
:101B6000E30644EF51E060E070E088EA90E00E9414
:101B7000E30644EF51E060E070E08AEA90E00E9402
:101B8000E3064AE050E060E070E08BEA90E00E94FB
:101B9000E30641E050E060E070E080EA90E00E94FF
:101BA000E30640E050ED67E070E08DEA90E00E94CF
:101BB000E3064CE850E06DE270E080910D049091F6
:101BC0000E040E94AB0642E050E068E370E08091B2
:101BD0000D0490910E040E94AB068091530188235E
:101BE00009F4F8C01092C7021092C6021092350391
:101BF000109257030E942F030CE810E01093C502C7
:101C00000093C4022DE830E03093C3022093C20257
:101C100081E0809334038FE3809356030E946E0328
:101C2000811128C0809111049091120490931E0498
:101C300080931D048091130480931F0480911404E9
:101C400080932004809115048093210480911604D0
:101C500080932204809117048093230480911804B8
:101C600080932404809119048093250480911A04A0
:101C70008093260410923503109257030E942F037D
:101C80001092200480912404823018F098E0909300
:101C9000200490912504992339F0813029F4809112
:101CA000200484608093200462E370E080E090E090
:101CB0000E949702609126048BE194E00E94DB046D
:101CC00068EE73E080E090E00E94970260E38BE1B1
:101CD00094E00E9493058BE496E40197F1F760E3AA
:101CE0008BE194E00E9493058BE496E40197F1F771
:101CF00060E38BE194E00E94930583E592E0019715
:101D0000F1F760E28BE194E00E949305609120047A
:101D1000606240E08BE194E00E94AC0534E03093D7
:101D2000210440E06CE08BE194E00E94AC0540E0CF
:101D300061E08BE194E00E94AC058BE39FE10197A9
:101D4000F1F782E08093220440E066E08BE194E0CA
:101D50000E94AC0540E062E08BE194E00E94AC059B
:101D60008BE39FE10197F1F76BE471E080E00E9463
:101D7000FC0563E471E081E00E94FC056BE371E027
:101D800082E00E94FC0563E371E083E00E94FC05B1
:101D90006BE271E084E00E94FC0563E271E085E0A3
:101DA0000E94FC056BE171E086E00E94FC0563E1A6
:101DB00071E087E00E94FC050E94EE0441E050E0E3
:101DC00062E270E080910D0490910E040E94AB06D7
:101DD000109253010E94C90260930403709305039B
:101DE000809306039093070320900B0430900C041B
:101DF000810107581F4F18870F83D8018D919C913F
:101E0000FC01E45BFF4F20813181F101EA58FF4F73
:101E10007F010E5F1F4F1C870B87232B09F020C605
:101E2000D10112968C910E94C401019731F4F10105
:101E3000E858FF4F808181115DC5F10182810E94C8
:101E4000C401019739F4F101E858FF4F80818823DC
:101E500009F435C5D10112968C910E94C401892BD9
:101E600009F434C5D10112968C910E94C401892BCA
:101E700009F437C50F851889D7010D931C93AF81DD
:101E8000B885ED91FC91EA57FF4F808191810197D0
:101E9000E1F4F10180810E945702D10116960D9163
:101EA0001C911797080F191F17961C930E931697DE
:101EB00018968D919C91199701968430910509F49B
:101EC0001CC519969C938E931897D1018C910E94F2
:101ED00057028C01EF81F88580819181DC01149695
:101EE0002D913C911597021713076CF42D913C919D
:101EF000A801421B530B141615060CF0D5C54F3123
:101F000051050CF0D7C5AF81B8858D919C91FC012E
:101F1000248135810217130744F4D7012D913C9198
:101F200041E050E02230310511F050E040E064E241
:101F300070E00E94AB06EF81F88580819181DC0121
:101F400014962D913C910217130764F4F701208138
:101F500031812130310531F441E050E062E470E03C
:101F60000E94AB06AF81B8858D919C91FC012481C4
:101F70003581021713076CF022813381A801421BBF
:101F8000530B141615060CF0A2C54F3151050CF079
:101F9000A4C5EF81F88580819181DC0114962D9193
:101FA0003C910217130744F0F7012081318141E091
:101FB00050E02230310511F050E040E065E270E081
:101FC0000E94AB06810105571F4F1A8F098FD80158
:101FD0004C91411104C0EB85FC8511821082AF81C8
:101FE000B8850D90BC91A02DBA87A9871A960D913E
:101FF0001C911B971E870D871696AD90BC90179766
:102000001E960D911C911F971C962D913C913C8B17
:102010002B8B2A9DC0012B9D900D3A9D900D112474
:1020200024E630E0B9010E945223069FF001079F89
:10203000F00D169FF00D1124D101A158BF4FED9363
:10204000FC93AB85BC85CD90DC900D2C000CEE088C
:10205000FF08C10183589F4F9A8B898BD101AF57DD
:10206000BF4FBE8BAD8B442309F444C54D855E85BF
:10207000A49EC001A59E900DB49E900D1124B9019F
:102080000E945223609F2001619F500C709F500C52
:102090001124712C612C9F0150E040E02419350976
:1020A00046095709C701B6010E942E23E8EE8E2E7D
:1020B000E3E09E2EA12CB12CA50194010E94E72102
:1020C000420E531E641E751EA989BA894D925C92F8
:1020D0008AE00D851E85809F2001819F500C112470
:1020E000052C000C660877080B891C89809F9001DD
:1020F000819F300D1124032E000C440B550B241925
:10210000350946095709C701B6010E942E23A501CA
:1021100094010E94E721CA01B901640D751D861D55
:10212000971D0E94B42020E030E048EC52E40E9469
:102130008122AD89BE896D937D938D939C93139776
:10214000E985FA85008511852D853E85209FB001A2
:10215000219F700D309F700D1124072E000C880BED
:10216000990B0E94B42020E030E040E251E40E944C
:1021700013210E94F3222B013C01A1014B575F4F19
:102180005E874D878B899C89809FB001819F700DF0
:10219000909F700D1124072E000C880B990B0E9444
:1021A000B42020E030E040E251E40E9413210E947C
:1021B000F3229B01AC012419350946095709C701CF
:1021C000B6010E942E23A50194010E94E721CA01B5
:1021D000B901640D751D861D971D0E94B42020E075
:1021E00030E048EC52E40E948122AD85BE856D93BB
:1021F0007D938D939C931397F10144815581A9851B
:10220000BA8514968D919C91910127573F4FE657BF
:10221000FF4F481759070CF080C4C1018A589F4FDF
:10222000DC018D919C91029709F077C481E0D9017E
:102230008C938083D9018C91D101A557BF4F8823FE
:1022400009F46DC4808181116AC481E08C9369E1D5
:1022500070E089859A850E94AB06EB85FC854081FC
:1022600051816AE170E0AF81B8858D919C910E94A7
:10227000AB06F101EB57FF4FC080D180E280F380C5
:1022800020E030E048EC52E4C701B6010E9413217F
:102290000E94FA228B01C701B6010E94F322AB0112
:1022A0006FE270E0EF81F885808191810E94AB063A
:1022B000C80168EE73E00E943E23AB018C016BE124
:1022C00070E0AF81B8858D919C910E94AB06A8010A
:1022D0006CE170E0EF81F885808191810E94AB060E
:1022E00020E030E048EC52E4AD89BE896D917D91EB
:1022F0008D919C910E9413210E94FA22CB0168EEDD
:1023000073E00E943E23AB018C016DE170E0EF8130
:10231000F885808191810E94AB06A8016EE170E092
:10232000AF81B8858D919C910E94AB06E989FA89AD
:102330008081918168EE73E00E943E23AB016FE1E2
:1023400070E0AF81B8858D919C910E94AB06E989C0
:10235000FA898081918168EE73E00E943E23AC018E
:1023600060E270E0AF81B8858D919C910E94AB06D0
:10237000F101E757FF4F408150E061E270E0EF81EB
:10238000F885808191810E94AB06F101E657FF4FED
:10239000408150E062E270E0AF81B8858D919C9100
:1023A0000E94AB06E98DFA8D408150E063E270E057
:1023B000AF81B8858D919C910E94AB06EF81F88525
:1023C00000811181F801EC5AFF4F60817181072E65
:1023D000000C880B990B0E94B42029E030EF4CE8E8
:1023E0005AE30E94132120E030E04EE453E40E94BF
:1023F00013210E94F322AB016DE270E0C8010E943C
:10240000AB06F101E457FF4F0190F081E02DEE5B48
:10241000FF4F408151816AE270E0AF81B8858D91B4
:102420009C910E94AB06F101E257FF4F0190F081B1
:10243000E02DE659FF4F408151816CE270E0EF8161
:10244000F885808191810E94AB06F101E057FF4F32
:102450000190F081E02DEE57FE4F4081518166E3FF
:1024600070E0AF81B8858D919C910E94AB06009180
:102470000203109103038091000390910103080F60
:10248000191F17FF02C00F5F1F4F1595079585E1B4
:102490000E945702081B190B055F1F4F07311105DA
:1024A00008F0BBC000910B0410910C0485E10E9460
:1024B00057026C01F801E758FF4FAC016BE270E086
:1024C000808191810E94AB06BFEFCB1AB1E0DB0A9D
:1024D000CC0CDD1CF801E057FF4F20803180F1016A
:1024E000E458FE4F20813181A901440F551F420D50
:1024F000531DC10182589E4F98878F83DA014D90FA
:102500005C90052C000C66087708DC018D909D908E
:10251000AD90BC9084189508A608B708DA01CD9252
:10252000DC920D2C000CEE08FF08C701B601680D07
:10253000791D8A1D9B1DAF81B8856D937D938D9309
:102540009C9313972F5F3F4F2E3B31050CF0E9C250
:10255000318320835101BEE7AB1ABEEFBB0A2EEBDD
:1025600030E040E050E00E94E721F5013183208314
:10257000F801E257FF4F00811181C701B6010E94A7
:10258000B42023EC35EF48EA5EE30E9481220E94EA
:10259000F322D801AC59BF4F2D913C911197F9010D
:1025A000EE0FFF1F7F01E00EF11EA8014A595F4F99
:1025B000F70140805180052C000C66087708FA016D
:1025C00080809180A280B38084189508A608B708FF
:1025D000F701718360836B01770FEE08FF08C70175
:1025E000B601680D791D8A1D9B1DFA0160837183F8
:1025F000828393832F5F3F4F223331050CF094C2C7
:102600002D933C9306591F4F22E330E040E050E009
:102610000E94E721D8012D933C9380910003909173
:102620000103909303038093020385E10E94570204
:10263000909301038093000300910B0410910C040C
:1026400081E10E945702F801E457FF4F0190F081A9
:10265000E02D24AD35ADD901AA0FBB1F5D01AE0E33
:10266000BF1E8F01025C1F4FD5014D915C91052E5D
:10267000000C660B770BD801CD90DD90ED90FC90AF
:10268000C41AD50AE60AF70AD5018D939C93092E40
:10269000000CAA0BBB0BBC01CD016C0D7D1D8E1D6A
:1026A0009F1DD8016D937D938D939C9313972F5FFE
:1026B0003F4F2E3131050CF03AC235AF24AF8F01B8
:1026C0000E5B1F4F2EE130E040E050E00E94E7211A
:1026D000F8013183208300910B0410910C0480E1F8
:1026E0000E9457027C0107581F4FD8018D919C9181
:1026F000FC01208D318DC68CD78CA28CB38C45010A
:102700008C189D08648C758C23014C185D08A901F8
:102710004C195D094E155F0554F52C0D3D1DE21653
:10272000F3062CF5EA59FF4F208131812130310524
:10273000F1F03497208131812130310509F0FAC15F
:10274000329660817181FB01EE0FFF1FE80FF91FC8
:1027500040815181415051090E94AB0641E050E057
:1027600063E370E0D8018D919C910E94AB068E14BA
:102770009F0474F5AC0CBD1CEA14FB044CF5F80185
:1027800080819181FC01EA59FF4F20813181223003
:102790003105F1F03497208131812130310509F084
:1027A000D7C1329660817181FB01EE0FFF1FE80FE8
:1027B000F91F408151814F5F5F4F0E94AB0642E09D
:1027C00050E063E370E0D8018D919C910E94AB06CC
:1027D0004E145F0464F5C60CD71CEC14FD043CF5E4
:1027E000F80180819181FC01EA59FF4F20813181FC
:1027F00023303105E1F0349720813181232B41F4DE
:1028000032962081318141E050E02135310514F0CC
:1028100050E040E061E370E00E94AB0643E050E02E
:1028200063E370E0D8018D919C910E94AB06B9EEF4
:10283000EB16B3E0FB064CF050E040E063E370E0E1
:10284000F801808191810E94AB06A7016EE270E0E1
:10285000D8018D919C910E94AB06E0910D04F091FE
:102860000E04E859FF4F80819181039709F07EC1E2
:1028700086E00E94C401019709F078C18091C802E6
:10288000882309F476C180910D0490910E04E091A3
:102890000B04F0910C04E757FF4F108244E050E026
:1028A00064E370E00E94AB0650E040E060E370E05B
:1028B00080910D0490910E040E94AB065AC181E0F4
:1028C00080830FEF1FEF188B0F87D4CAF101E858F0
:1028D000FF4F8081882309F4C5CA108201E010E00F
:1028E000F2CFF101E858FF4F80818111C3CA02E0A5
:1028F00010E0E9CF188A1F86BDCA17FF02C00D5F1E
:102900001F4F1595079515950795F10111861086AE
:1029100017821682AF81B8858D919C91FC0122A906
:1029200033A96801C21AD30AA60161E470E00E94CB
:10293000AB06F4E0CF0ED11C29E0C216D10420F47E
:10294000D10114960D911C91EF81F885C080D18042
:10295000D6018D909C90092C000CAA08BB08980108
:10296000012E000C440B550B281939094A095B0943
:10297000A8EEB3E00E940622F60122813381032EE5
:10298000000C440B550B281939094A095B090E94B0
:10299000E721293EF3E03F0714F028EE33E037FF4C
:1029A00002C030E020E0AB85BC852D933C93F10163
:1029B00062A473A4F301EE0FFF1FE20DF31D8284E6
:1029C0009384092C000CAA08BB08D1019C964D9158
:1029D0005D916D917C919F97481959096A097B090E
:1029E000338722874901330FAA08BB08CB01BA01FC
:1029F000680D791D8A1D9B1DF10164A775A786A727
:102A000097A793012F5F3F4F2031310524F533A75E
:102A100022A720E130E040E050E00E94E721EB8572
:102A2000FC8531832083F601E65BFF4F8081918135
:102A3000019731F4E8EEF3E0AB85BC85ED93FC93B0
:102A40000D39FFEF1F0709F440CAD10115961C93F9
:102A50000E9314973ACA9B961C921E929A97D9CFBE
:102A6000F10124813581215031092336310558F493
:102A7000E858FF4F2081211114C021E020830FEF7F
:102A80001FEF188F0F8B0F89188DD7010D931C9393
:102A9000825B9F4FDC018D919C91F1019583848332
:102AA00014CA188E1F8AEFCF201B310B2F3131052E
:102AB0000CF429CAF701208131812230310509F057
:102AC00022CAA80170E060E00E94AB061CCA201B6D
:102AD000310B2F3131050CF45CCAD7012D913C919B
:102AE0002230310509F055CAA80161E070E00E946A
:102AF000AB064FCAE989FA8911821082AD89BE8975
:102B00001D921D921D921C921397F101EB57FF4FDE
:102B100010821182128213826FCB10828BCB1C9297
:102B200096CB1182108216CD1D921C926BCD15AEE4
:102B300014AEC5CDFC01E05AFF4F408151811416FF
:102B400015060CF00BCE4150510960E370E004CE45
:102B5000FC01E05AFF4F40815181403551050CF096
:102B60002ECE4F5F5F4F60E370E027CE81E0809311
:102B7000C80280910D0490910E04FC01E859FF4FAA
:102B800020813181232B61F43A96208131812130DB
:102B9000310531F441E050E064E370E00E94AB069F
:102BA00080910D0490910E04FC01E859FF4F2081A3
:102BB00031812130310561F43A9620813181233011
:102BC000310531F442E050E064E370E00E94AB066E
:102BD000E0910D04F0910E04E859FF4F808191813E
:102BE0000297C0F586E00E94C40120910D04309147
:102BF0000E04019741F0F901EE5AFF4F8081918157
:102C0000853691053CF143E050E064E370E0C90192
:102C10000E94AB0661E087E00E94ED011092C802BD
:102C20001092D1028091040390910503A0910603B4
:102C3000B09107038093D6029093D702A093D80255
:102C4000B093D9028093E2029093E302A093E4024E
:102C5000B093E50282E693E00E94EC001816190694
:102C60000CF098C06AE3CE0101960E9443060981E8
:102C70001A8160E070E0CB010115110519F0C8015F
:102C80000E9476207B017093110160931001011561
:102C9000110519F0C8010E940F246AE0CE010196C7
:102CA0000E94430609811A8160E070E0CB010115A2
:102CB000110519F0C8010E9476207093CA02609332
:102CC000C9020115110519F0C8010E940F24B4E6CC
:102CD000EB16F10411F510E000E0E0910D04F09125
:102CE0000E04C801880F991FE80FF91F4081518118
:102CF000052E000C660B770B77FFFDC382E693E091
:102D00000E945B0562E971E082E693E00E940005A3
:102D10000F5F1F4F0035110501F780911001909151
:102D200011018536910561F468E071E082E693E077
:102D30000E94000562E971E082E693E00E940005CE
:102D400080911001909111018636910561F461E046
:102D500071E082E693E00E94000562E971E082E69C
:102D600093E00E940005609110017091110160359F
:102D7000710554F44091C9025091CA0280910D042A
:102D800090910E040E94AB0687EE93E090931101A0
:102D90008093100140E050E0BA018FE690E00E947D
:102DA000E30640E050E0BA0182E190E00E94E306D1
:102DB00080910D0490910E04FC01EA5BFF4F20818D
:102DC00031812130310509F09CC3B29620813181D7
:102DD0002330310509F095C32091FF02211191C3E1
:102DE00060E088E00E94ED01E0910B04F0910C049A
:102DF000E358FF4F80819181B0E0A0E040915C03F7
:102E000050915D0360915E0370915F03481759070D
:102E10006A077B0708F492C340915C0350915D03FD
:102E200060915E0370915F03411551056105710565
:102E300069F084179507A607B70740F480935C03F1
:102E400090935D03A0935E03B0935F0380910D04A4
:102E500090910E04FC01E856FF4F8E5A9F4F20813F
:102E60003181DC018D919C91281739071CF481E098
:102E70008093FF0240915C0350915D0360915E037B
:102E800070915F0387EA90E00E94E306809104035B
:102E900090910503A0910603B0910703883EE3E0FB
:102EA0009E07A105B10558F0E0910D04F0910E04C4
:102EB000E859FF4F208131812330310539F0E0910D
:102EC0000B04F0910C04E757FF4F10824091F6027B
:102ED0005091F7026091F8027091F902452B462B50
:102EE000472B19F5895E9340A109B10983369105F5
:102EF000A105B105D0F450E040E067E370E08091B7
:102F00000D0490910E040E94AB06809104039091F1
:102F10000503A0910603B09107038093F6029093F6
:102F2000F702A093F802B093F90280900403909006
:102F30000503A0900603B09007038091F2029091E0
:102F4000F302A091F402B091F502892B8A2B8B2B0E
:102F500009F047C0D501C4018D5D9540A109B109B3
:102F6000873C9105A105B105E0F558E2E52EF12C6D
:102F700010E000E085E10E945702080F191F65E08C
:102F800070E080E090E00E949702F1E0EF1AF10813
:102F900089F7C80168E270E00E945223072E000CF6
:102FA000880B990B0E94B42029E030EF4CE85AE3DB
:102FB0000E94132120E030E048E455E40E941321F0
:102FC0000E94F3227093F1026093F00281E08093FB
:102FD000FF028092F2029092F302A092F402B09269
:102FE000F5028091EC029091ED02A091EE02B09179
:102FF000EF02892B8A2B8B2B09F06CC001ED801A14
:1030000007E0900AA108B10813E681169104A10413
:10301000B10408F05FC008E210E0F12CE12C85E17A
:103020000E945702E80EF91E65E070E080E090E033
:103030000E9497020150110991F71092FF0200912E
:10304000F0021091F102C0900D04D0900E04C7015F
:1030500068E270E00E945223072E000C880B990B47
:103060000E94B42029E030EF4CE85AE30E9413217B
:1030700020E030E048E455E40E9413210E94F3224E
:10308000C801861B970BA80144970CF07CC24A50DC
:10309000510963E170E0C6010E94AB0680910D0406
:1030A00090910E04DC019C964D915C9167E370E079
:1030B0000E94AB068091040390910503A091060342
:1030C000B09107038093EC029093ED02A093EE027F
:1030D000B093EF028091040390910503A091060341
:1030E000B0910703C397A105B10550F041E050E04E
:1030F00063E470E080910D0490910E040E94AB0691
:103100008091040390910503A0910603B0910703F9
:103110004091E8025091E9026091EA027091EB025D
:10312000841B950BA60BB70B893E9340A105B105F7
:1031300008F47EC080910D0490910E04209112013C
:1031400031E0232720931201FC01E258FF4F208138
:1031500031812E3131050CF019C2B09720813181B7
:10316000121613060CF012C22091CB023091CC0241
:103170002F5F3F4F3093CC022093CB0248EE53E0B9
:103180006FE370E00E94AB0680910D0490910E04F5
:10319000FC01E456FF4F4091CB025091CC022081BC
:1031A0003181241735078CF41092CC021092CB0297
:1031B00048EE53E06FE370E00E94AB06E0910B0431
:1031C000F0910C04E757FF4F10828091FF02882393
:1031D00009F401C280910D0490910E042091E60241
:1031E0003091E702FC01E656FF4F408151812417E0
:1031F00035070CF0D0C1769740815181413051059F
:1032000009F4C9C12F5F3F4F3093E7022093E602D4
:103210008091040390910503A0910603B0910703E8
:103220008093E8029093E902A093EA02B093EB0244
:10323000E0910D04F0910E04E859FF4F80819181D7
:1032400061E0039709F060E08FE00E94ED01E091FA
:103250000D04F0910E04E859FF4F80819181019790
:1032600029F4609112018FE00E94ED01E0910D04BC
:10327000F0910E04C0900403D0900503E090060383
:10328000F0900703DF01AA58BF4F8D919C91892BC5
:1032900071F444A155A14115510549F0CF01885958
:1032A0009F4FDC018D919C91039709F499C1C092C5
:1032B000E202D092E302E092E402F092E502809111
:1032C0000D0490910E044091040350910503609108
:1032D0000603709107030091DE021091DF02209136
:1032E000E0023091E102401B510B620B730BFC01B9
:1032F00000A111A1012E000C220B330B041715079E
:103300002607370708F04DC0E05AFF4F4081518132
:103310004115510509F031C388599F4FDC010D91CA
:103320001C918091CF029091D0028017910771F08B
:1033300040E061E08BE194E00E94AC058BE39FE10B
:103340000197F1F71093D0020093CF0201151105F8
:1033500009F065C160E080E00E94C30585E991E065
:103360000E94840561E080E00E94C30585E991E048
:103370000E9484051092260460E08BE194E00E9494
:10338000DB048091040390910503A0910603B091A2
:1033900007038093DE029093DF02A093E002B093D4
:1033A000E10280910D0490910E044091040350912C
:1033B00005036091060370910703FC01EA59FF4F72
:1033C00020813181215031092230310508F423C395
:1033D0004093DA025093DB026093DC027093DD02CB
:1033E00080910D0490910E04FC01E859FF4F20815B
:1033F0003181B90164507109C0900403D090050374
:10340000E0900603F09007036230710518F0223057
:10341000310541F4B9EBCB16BBE0DB06E104F10466
:1034200008F02AC3C092D602D092D702E092D80206
:10343000F092D902C0900403D0900503E0900603F7
:10344000F090070380910D0490910E044091D202F8
:103450005091D3026091D4027091D50297018601F8
:10346000041B150B260B370BB901A801DC019A963A
:103470000D911C91012E000C220B330B0417150724
:103480002607370708F096C4FC01EA56FF4F408133
:103490005181FE9720813181241735070CF017C325
:1034A000B1E1CB16B7E2DB06E104F10408F40FC387
:1034B0003296208131812B3531050CF408C341E06F
:1034C00050E068E370E00E94AB0680910D0490919B
:1034D0000E04FC0144A555A567E370E00E94AB060D
:1034E00050E040E069E370E080910D0490910E049B
:1034F0000E94AB06CAC32AE082E693E00E940F0551
:1035000001CCFC01E856FF4F8E5A9F4F208131813C
:10351000FC018081918128173907ECF460E088E094
:103520000E94ED0148EE53E060E070E087EA90E031
:103530000E94E30681E08093FF02A8CC4C505E4FCE
:103540006F4F7F4F40935C0350935D0360935E0326
:1035500070935F0361CC8091FF028111DFCF61E046
:1035600088E00E94ED0140E050E0BA0187EA90E077
:103570000E94E30610925C0310925D0310925E03BA
:1035800010925F0383CC445F5F4F83CD1092CC02D7
:103590001092CB02F3CD50E040E069E270E00E946F
:1035A000AB061092FF021092E7021092E6028091A1
:1035B0000D0490910E04FC01EC57FF4F20813181E6
:1035C0002130310509F024CE50E040E062E470E0A3
:1035D0000E94AB061DCE1092E7021092E60218CEB2
:1035E00028EE33E0DA010E9466230091E202109196
:1035F000E3022091E4023091E502C01AD10AE20A06
:10360000F30A6C157D058E059F0508F058CE44E041
:1036100050E064E370E0CF010E94AB0650CE013071
:10362000110509F04BC00E94EE0460E080E00E94AA
:10363000C30586EA91E00E94840561E080E00E9473
:10364000C3058EE991E00E9484058091CD0290919E
:10365000CE0201969093CE028093CD0206978CF015
:10366000E0910D04F0910E04E659FF4F80819181A5
:10367000813591058CF084E090E09093CE028093A8
:10368000CD026091CD028BE194E00E94F6058BE9BA
:1036900091E00E94840575CE8035910591F38C33BD
:1036A00091050CF40BC583E090E0E7CF82E090E059
:1036B000E4CF1093CE020093CD02E3CF0230110588
:1036C00089F40E94EE0460E080E00E94C30587EB6D
:1036D00091E00E94840561E080E00E94C30588ECCF
:1036E00091E0D7CF0330110509F01EC10E94EE040E
:1036F00080910D0490910E04FC01EC59FF4F208144
:103700003181283E334034F448EE53E062E370E008
:103710000E94AB0660E080E00E94C30589ED91E065
:103720000E94840561E080E00E94C305E0910B04E3
:10373000F0910C04EB57FF4F20E030E0A9016081CD
:103740007181828193810E94292318160CF06DC02B
:103750008AEE91E00E948405E0910B04F0910C0444
:10376000EB57FF4F60817181828193810E94F32228
:103770008BE194E00E94890582EA91E00E94840531
:1037800061E08EE00E94C305E0910D04F0910E040B
:10379000E059FF4F80819181029709F049C066E0AE
:1037A0008BE194E00E94F60561E08FE00E94C30582
:1037B00080910D0490910E04FC01E65AFF4F208188
:1037C000318167E0243631050CF4A9C0FC01EE58C4
:1037D000FF4FE080F180E1E0EE16F10409F040C017
:1037E0000091CD021091CE02602F8BE194E00E94F7
:1037F000F6050F5F1F4F1093CE020093CD020630E7
:1038000011050CF4BECDE0910D04F0910E04E659C3
:10381000FF4F80819181813591057CF084E090E0BB
:103820009093CE028093CD02ACCD82EF91E0A6CFF3
:1038300084EA91E00E948405B7CF8035910509F4B0
:10384000A0CD8C3391050CF445C483E090E0E8CF23
:1038500082E090E0E5CFF092CE02E092CD0291CDF1
:1038600086599F4FDC018D919C91803591052CF0FC
:1038700065E08BE194E00E94F605E0910D04F09183
:103880000E04E659FF4F80819181CC97449728F42C
:1038900064E08BE194E00E94F605E0910D04F09164
:1038A0000E04E659FF4F808191818D970F9728F480
:1038B00063E08BE194E00E94F605E0910D04F09145
:1038C0000E04E659FF4F8081918183970A9728F46F
:1038D00062E08BE194E00E94F605E0910D04F09126
:1038E0000E04E659FF4F8081918149970A9728F489
:1038F00061E08BE194E00E94F605E0910D04F09107
:103900000E04E659FF4F80819181499724F48091FC
:103910001201811103C084EA91E0BBCE60E08BE12B
:1039200094E00E94F6052DCD0430110589F40E9423
:10393000EE0460E080E00E94C30580E092E00E9417
:10394000840561E080E00E94C30581E192E0A1CEA0
:103950000530110509F015CD0E94EE0460E080E00D
:103960000E94C30582E292E00E94840561E080E04B
:103970000E94C30587EB91E08CCE4150510962E370
:1039800070E00E94AB0660E080E00E94C30583E324
:1039900092E00E948405E0910D04F0910E04EE592E
:1039A000FF4F80819181019799F58AE392E00E940F
:1039B000840561E080E00E94C30580E592E00E94FA
:1039C0008405E0910D04F0910E04EC59FF4F6081E5
:1039D00071818BE194E00E9489058FEE91E00E9455
:1039E000840580910D0490910E04FC01EC59FF4F69
:1039F00020813181220F331F820F931FFC016081D0
:103A000071818BE194E00E9489058DE991E041CEBE
:103A100085E492E0CCCF0091DA021091DB02209194
:103A2000DC023091DD02401B510B620B730BDC0199
:103A300090960D911C91012E000C220B330B041754
:103A400015072607370708F0CBCC50E040E063E3CA
:103A500070E00E94AB068091040390910503A09151
:103A60000603B09107038093DA029093DB02A093E0
:103A7000DC02B093DD02B4CC4091D6025091D70263
:103A80006091D8027091D902C41AD50AE60AF70AE1
:103A9000FC0102A113A1012E000C220B330B0C150B
:103AA0001D052E053F0508F0C5CC50E040E064E35D
:103AB00070E00E94AB06E0910B04F0910C04E75714
:103AC000FF4F108260E087E00E94ED01B3CC42E03E
:103AD00050E068E370E00E94AB0680910D04909185
:103AE0000E04FC01E259FF4F40815181DC019E969A
:103AF0002D913C919F97421753075CF498962D9116
:103B00003C91245631097697608171816217730761
:103B100094F014161506ACF4FC0120A531A52C591F
:103B20003F4FE85AFF4F60817181261737074CF4E9
:103B30004150510902C04F5F5F4F67E370E00E9440
:103B4000AB06E0910D04F0910E04E259FF4F0081A5
:103B5000118161E083E00E941B020115110599F5B6
:103B600060E083E00E94ED0180910D0490910E04CD
:103B7000FC01E259FF4FDC019E964D915C91208142
:103B800031814217530751F47E9640815181F49759
:103B900020813181241735070CF45CC02091D102BB
:103BA000211158C0FC01E457FF4F40815181F49727
:103BB00020813181241735070CF467C041E050E0C3
:103BC00069E370E095CC0F3F110511F461E0C9CFB6
:103BD000E1EBF0E0E491E33019F140F4E130B1F0D1
:103BE000E230C9F0003811058CF7BACFE73011F197
:103BF000E83041F1E430B1F7809180008062809339
:103C0000800010938B0000938A00AECF84B580684B
:103C100084BD07BDA9CF84B5806284BD08BDA4CF93
:103C200080918000806880938000109389000093C9
:103C300088009ACF8091B00080688093B000009394
:103C4000B30092CF8091B00080628093B000009367
:103C5000B4008ACF43E050E069E370E00E94AB0615
:103C600080910D0490910E04FC01E457FF4F885A97
:103C70009F4F20813181FC018081918182179307C0
:103C80000CF06DC181E08093D10200910D04109180
:103C90000E04F801E057FF4F0190F081E02DD801AC
:103CA000A257BF4FCD90DC9011970D2C000CEE0861
:103CB000FF08D4972D913C91032E000C440B550B1B
:103CC0002C193D094E095F09A4E6B0E00E940622C6
:103CD000D801A059BF4F2D913C911197213031054A
:103CE00009F04CC152972D913C9111972115310546
:103CF00009F041C1D4962D913C91AF01421B530B69
:103D00009A01032E000C440B550B2C193D094E094A
:103D10005F090E94E721A9012536310514F044E628
:103D200050E057FF02C050E040E0F801E859FF4F73
:103D3000808191818130910509F014C13296808192
:103D40009181481759070CF010C180910D04909192
:103D50000E04FC01E859FF4F2081318123303105E9
:103D6000C9F4329620813181253031059CF440918F
:103D700004035091050360910603709107034131DC
:103D800057426105710530F045E050E064E370E0B2
:103D90000E94AB068091040390910503A091060355
:103DA000B09107038093D2029093D302A093D402E0
:103DB000B093D502C0900403D0900503E0900603B1
:103DC000F09007038091FB029091FC02A091FD020C
:103DD000B091FE02C81AD90AEA0AFB0A84E00E94DE
:103DE000C401892B09F067C18091FA0281116FC06B
:103DF000B9ECCB16D104E104F104D8F180910D04A3
:103E000090910E04FC0142895389052E000C660B2B
:103E1000770B4C155D056E057F0558F1A60168E22C
:103E200070E00E94AB0600910D0410910E04F801A1
:103E3000A089B189A70196010E9411229B01AC01C2
:103E400060E87DE88BE590E00E94E721A90169E246
:103E500070E0C8010E94AB060E94C9026093FB0299
:103E60007093FC028093FD029093FE0281E08093A8
:103E7000FA0280910D0490910E04DC0152964D914E
:103E80005C91052E000C660B770B4C155D056E05DD
:103E90007F05E8F550E040E068E270E00E94AB0684
:103EA00050E040E069E270E080910D0490910E04D2
:103EB0000E94AB060E94C9026093FB027093FC0251
:103EC0008093FD029093FE0281E08093FA0280913C
:103ED0000D0490910E04FC0142895389052E000CBB
:103EE000660B770B4C155D056E057F0580F450E081
:103EF00040E068E270E00E94AB0650E040E069E21A
:103F000070E080910D0490910E040E94AB068091A8
:103F10000D0490910E04FC01E05BFF4F2081318184
:103F2000232B39F43E962081318150E040E0232B51
:103F300011F041E050E06BE370E00E94AB0680E0DE
:103F400090E0892B11F40C94ED0D0E94F800882369
:103F500011F40C94ED0D0E9400000C94ED0D1092E4
:103F6000D10293CE02970CF4F0CE65E370E0C80165
:103F70000E94AB06EACE12161306C4F09F01FF0F93
:103F8000440B550B2C193D094E095F090E94E7218E
:103F9000A9012536310514F044E650E057FF02C070
:103FA00050E040E065E370E0C801F2CED801AC56C5
:103FB000BF4F2D913C91AF01421B530B9A01032E31
:103FC000000C440B550B2C193D094E095F090E944A
:103FD000E721A9012536310514F044E650E057FFEA
:103FE00002C050E040E0F801E859FF4F8081918124
:103FF0008130910509F04EC0329680819181481739
:1040000059070CF04AC080910D0490910E04FC01F8
:10401000E859FF4F208131812330310531F4329648
:104020002081318125303105F4F150E040E060E439
:1040300070E00E94AB0680910D0490910E04DC01AB
:10404000A256BF4FFC01E058FF4F4D915C9120817B
:1040500031814217530709F09DCE409104035091DE
:1040600005036091060370910703413157426105D2
:10407000710508F48FCE45E050E064E370E00E94E3
:10408000AB0650E040E060E470E080910D04909158
:104090000E047ECE02970CF4B6CF65E370E0C80143
:1040A0000E94AB06B0CFFC01E058FF4F4081518128
:1040B0004F5F5F4FBCCF1092FA0209CF8D3291054E
:1040C0000CF0F4CA83970CF0F4CA1092CE0210924E
:1040D000CD02D7CA8D3291050CF0BACB83970CF084
:1040E000BACB1092CE021092CD024BC91F93FC01A5
:1040F00099278827BC01E89411911032E9F319300F
:1041000010F01E30C8F31B3251F01D3249F4689490
:1041100006C00E949D20610F711D811D911D11918E
:1041200010531A30B0F33EF49095809570956195D8
:104130007F4F8F4F9F4F1F910895592F482F372F33
:10414000262F660F771F881F991F660F771F881FFE
:10415000991F620F731F841F951F660F771F881F9B
:10416000991F0895E89409C097FB3EF490958095B7
:10417000709561957F4F8F4F9F4F9923A9F0F92F2D
:1041800096E9BB279395F695879577956795B795AB
:10419000F111F8CFFAF4BB0F11F460FF1BC06F5F91
:1041A0007F4F8F4F9F4F16C0882311F096E911C0A3
:1041B000772321F09EE8872F762F05C0662371F0C4
:1041C00096E8862F70E060E02AF09A95660F771FD8
:1041D000881FDAF7880F9695879597F90895990FB4
:1041E0000008550FAA0BE0E8FEEF16161706E807C1
:1041F000F907C0F012161306E407F50798F0621BE2
:10420000730B840B950B39F40A2661F0232B242BB6
:10421000252B21F408950A2609F4A140A6958FEFD5
:10422000811D811D08950E9426210C9497210E94D2
:10423000892138F00E94902120F0952311F00C94F0
:1042400080210C94862111240C94CB210E94A8215A
:1042500070F3959FC1F3950F50E0551F629FF001D9
:10426000729FBB27F00DB11D639FAA27F00DB11DF2
:10427000AA1F649F6627B00DA11D661F829F22277B
:10428000B00DA11D621F739FB00DA11D621F839F02
:10429000A00D611D221F749F3327A00D611D231FD8
:1042A000849F600D211D822F762F6A2F11249F5726
:1042B00050409AF0F1F088234AF0EE0FFF1FBB1F29
:1042C000661F771F881F91505040A9F79E3F5105E8
:1042D00080F00C9480210C94CB215F3FE4F3983E56
:1042E000D4F3869577956795B795F795E7959F5F92
:1042F000C1F7FE2B880F911D9695879597F9089524
:1043000097F99F6780E870E060E008959FEF80EC88
:10431000089500240A94161617061806090608952B
:1043200000240A9412161306140605060895092E91
:104330000394000C11F4882352F0BB0F40F4BF2B00
:1043400011F460FF04C06F5F7F4F8F4F9F4F089540
:1043500057FD9058440F551F59F05F3F71F0479536
:10436000880F97FB991F61F09F3F79F0879508951B
:10437000121613061406551FF2CF4695F1DF08C03A
:10438000161617061806991FF1CF86957105610557
:1043900008940895E894BB2766277727CB0197F9FF
:1043A0000895F999FECF92BD81BDF89A992780B5FD
:1043B0000895262FF999FECF1FBA92BD81BD20BD69
:1043C0000FB6F894FA9AF99A0FBE01960895052E41
:1043D00097FB1EF400940E94FE2157FD07D00E9417
:1043E000502207FC03D04EF40C94FE2150954095CA
:1043F000309521953F4F4F4F5F4F08959095809591
:10440000709561957F4F8F4F9F4F08950E94722244
:10441000A59F900DB49F900DA49F800D911D112418
:104420000895B7FF0C9406220E940622821B930B6C
:1044300008952F923F924F925F926F927F928F9248
:104440009F92AF92BF92CF92DF92EF92FF920F9323
:104450001F93CF93DF93CDB7DEB7CA1BDB0B0FB62D
:10446000F894DEBF0FBECDBF09942A8839884888EA
:104470005F846E847D848C849B84AA84B984C88480
:10448000DF80EE80FD800C811B81AA81B981CE0F77
:10449000D11D0FB6F894DEBF0FBECDBFED0108955C
:1044A000A1E21A2EAA1BBB1BFD010DC0AA1FBB1F38
:1044B000EE1FFF1FA217B307E407F50720F0A21BAA
:1044C000B30BE40BF50B661F771F881F991F1A9417
:1044D00069F760957095809590959B01AC01BD0141
:1044E000CF010895A29FB001B39FC001A39F700D9B
:1044F000811D1124911DB29F700D811D1124911DEC
:1045000008950E9495220C9497210E94902158F0C2
:104510000E94892140F029F45F3F29F00C9480210A
:1045200051110C94CB210C9486210E94A82168F390
:104530009923B1F3552391F3951B550BBB27AA275C
:1045400062177307840738F09F5F5F4F220F331F96
:10455000441FAA1FA9F335D00E2E3AF0E0E832D05E
:1045600091505040E695001CCAF72BD0FE2F29D061
:10457000660F771F881FBB1F261737074807AB0733
:10458000B0E809F0BB0B802DBF01FF2793585F4FA8
:104590003AF09E3F510578F00C9480210C94CB2189
:1045A0005F3FE4F3983ED4F3869577956795B7958A
:1045B000F7959F5FC9F7880F911D9695879597F995
:1045C0000895E1E0660F771F881FBB1F621773070E
:1045D0008407BA0720F0621B730B840BBA0BEE1F23
:1045E00088F7E09508950E94FA226894B1110C941E
:1045F000CB2108950E94B02188F09F5798F0B92FE1
:104600009927B751B0F0E1F0660F771F881F991F07
:104610001AF0BA95C9F714C0B13091F00E94CA21BE
:10462000B1E008950C94CA21672F782F8827B85FCE
:1046300039F0B93FCCF3869577956795B395D9F75F
:104640003EF490958095709561957F4F8F4F9F4F69
:1046500008950E94EF2008F48FEF0895DB018F93F7
:104660009F930E940622BF91AF91A29F800D911D42
:10467000A39F900DB29F900D11240895AA1BBB1B00
:1046800051E107C0AA1FBB1FA617B70710F0A61B52
:10469000B70B881F991F5A95A9F780959095BC0173
:1046A000CD01089597FB072E16F4009407D077FDEF
:1046B00009D00E943E2307FC05D03EF490958195D9
:1046C0009F4F0895709561957F4F08950E947222C3
:1046D000B7FF0895821B930B0895EE0FFF1F0590FF
:1046E000F491E02D09940F931F93CF93DF938230C1
:1046F000910510F482E090E0E0912904F0912A0401
:1047000030E020E0B0E0A0E0309799F421153105C9
:1047100009F44AC0281B390B24303105D8F58A81A9
:104720009B816115710589F1FB0193838283FE01F1
:1047300011C0408151810281138148175907E0F06F
:104740004817590799F4109761F012960C93129735
:1047500013961C933296CF01DF91CF911F910F9149
:1047600008950093290410932A04F4CF21153105EC
:1047700051F04217530738F0A901DB019A01BD013E
:10478000DF01F801C1CFEF01F9CF90932A048093A4
:104790002904CDCFFE01E20FF31F819391932250A4
:1047A000310939832883D7CF2091270430912804F9
:1047B000232B41F420915601309157013093280466
:1047C0002093270420915401309155012115310582
:1047D00041F42DB73EB74091580150915901241B27
:1047E000350BE0912704F0912804E217F307A0F4B9
:1047F0002E1B3F0B2817390778F0AC014E5F5F4F37
:104800002417350748F04E0F5F1F5093280440933C
:104810002704819391939FCFF0E0E0E09CCFCF936A
:10482000DF930097E9F0FC01329713821282A09186
:104830002904B0912A04ED0130E020E01097A1F4A2
:1048400020813181820F931F209127043091280409
:104850002817390709F061C0F0932804E093270472
:10486000DF91CF910895EA01CE17DF07E8F54A817D
:104870005B819E0141155105B1F7E901FB83EA8394
:1048800049915991C40FD51FEC17FD0761F4808140
:1048900091810296840F951FE90199838883828113
:1048A00093819B838A83F0E0E0E012968D919C9146
:1048B00013970097B9F52D913C911197CD01029670
:1048C000820F931F2091270430912804281739075D
:1048D00039F6309751F510922A0410922904B093BA
:1048E0002804A0932704BCCFD383C2834081518185
:1048F000840F951FC817D90761F44E5F5F4F8881F9
:104900009981480F591F518340838A819B819383EA
:1049100082832115310509F0B0CFF0932A04E0938A
:1049200029049ECFFD01DC01C0CF13821282D7CFB4
:10493000B0E0A0E0EEE9F4E20C941B228C010097B9
:1049400051F4CB010E9473238C01C801CDB7DEB7AF
:10495000E0E10C943722FC01E60FF71F9C01225086
:104960003109E217F30708F49DC0D901CD91DC911C
:104970001197C617D70798F0C530D10530F3CE018F
:1049800004978617970708F3C61BD70B2297C19386
:10499000D1936D937C93CF010E940F24D6CF5B01FE
:1049A000AC1ABD0A4C018C0E9D1EA0912904B09139
:1049B0002A04512C412CF12CE12C109731F58091D7
:1049C0002704909128048815990509F05CC04616C3
:1049D000570608F058C080915401909155010097F6
:1049E00041F48DB79EB74091580150915901841BF5
:1049F000950BE817F90708F055C0F0932804E093E9
:104A00002704F90171836083A0CF8D919C91119748
:104A100012966C90129713967C901397A815B9056F
:104A200059F56C0142E0C40ED11CCA14DB0420F11C
:104A3000AC014A195B09DA011296159780F062827F
:104A4000738251834083D9016D937C93E114F10407
:104A500071F0D7011396FC93EE93129776CF2296BE
:104A60008C0F9D1FF90191838083F301EFCFF093A9
:104A70002A04E093290469CF4816590608F42C014A
:104A80007D01D3019ACFCB010E9473237C01009753
:104A900049F0AE01B8010E945525C8010E940F24BB
:104AA000870153CF10E000E050CFFB01DC0102C0D2
:104AB00001900D9241505040D8F70895FB01DC0160
:0E4AC00001900D920020E1F70895F894FFCFC9
:104ACE000176332E302E33004D757369636F6E0091
:104ADE00E703010E1B111B151B111F0A0A1F1F1FB7
:104AEE000E04040E1F1F1F1F1F1F1F0E1B111F1F43
:104AFE001F1F1F0E1B11111F1F1F1F0E1B11111128
:104B0E001F1F1F0E1B111111111F1F0E1B11111133
:104B1E0011111F0100002B04800000004000140042
:104B2E005400000000002E018E00BB007B01EC0043
:104B3E00CA00DE0000000000AC047F04F604550439
:104B4E0078046504560400000000F6058E00F60495
:104B5E0007030D0A002020202020202020202020C6
:104B6E0020202020200042415454455259204348D1
:104B7E00415247494E4700204220412054205420A4
:104B8E004520522059202000204920532020204625
:104B9E002055204C204C202000204D205520532005
:104BAE00492043204F204E20200054656D706F3AEF
:104BBE002000202020202053544F50202020200061
:104BCE002020202047204F204F204420202020202E
:104BDE000020202020204220592045202020202067
:104BEE00200020202020204C204F20572020202045
:104BFE00202000504152414D20002D204544495463
:104C0E003A202020002D20524541443A20202000F9
:044C1E00505F0000E3
:00000001FF
