:100000000C94BD000C94E5000C94E5000C94E50004
:100010000C94E5000C94E5000C94E5000C94E500CC
:100020000C94E5000C94E5000C94E5000C94E500BC
:100030000C94E5000C94E5000C94E5000C94E500AC
:100040000C94C10B0C94E5000C948F0B0C94690B71
:100050000C94E5000C94E5000C94E5000C94E5008C
:100060000C940B0C0C94E500000000002500280007
:100070002B000000000023002600290000000008DB
:10008000000201000003040700000000000000005F
:1000900000000000240027002A00010204081020AC
:1000A000408001020408102001020408102004040A
:1000B0000404040404040202020202020303030310
:1000C00003034E002D004F002D0043002D0049007A
:1000D0002D0053002D0055002D004D002D00204D0A
:1000E0002055205320492043204F204E20200045FA
:1000F0000020202020202020202020002020202040
:1001000020002D3E00203D005D005B003E004500CC
:100110002D0059002D0042002D0044002D004F00FD
:100120002D004F002D0047002D00424154544552F0
:1001300059204348415247494E470047002D004E41
:10014000002D0049002D0047002D0052002D0041D8
:10015000002D0048002D0043002D0059002D0052B5
:10016000002D0045002D0054002D0054002D0041AD
:10017000002D0042002D00002A0D11241FBECFEFDC
:10018000D8E0DEBFCDBF12E0A0E0B1E0EAE9F9E4DB
:1001900002C005900D92A635B107D9F724E0A6E577
:1001A000B2E001C01D92A734B207E1F710E0CDEB39
:1001B000D0E004C02197FE010E948C23CC3BD107E4
:1001C000C9F70E94210E0C94CB240C94000091E0FE
:1001D00090931C0380931B0310921A03109219032F
:1001E00008958091F7029091F802891B990B089568
:1001F00008950895DC01ED91FC910190F081E02DCE
:100200000994EF92FF920F931F93CF93DF938C018A
:100210007B01D0E0C0E0F701EC0FFD1F6491662385
:1002200061F0D801ED91FC910190F081E02DC801C1
:100230000995892B11F02196EECFCE01DF91CF9158
:100240001F910F91FF90EF900895AF92BF92CF92C0
:10025000DF92EF92FF920F931F93CF93DF936C0186
:100260007B018B01040F151FEB015E01AE18BF0867
:10027000C017D10759F06991D601ED91FC91019019
:10028000F081E02DC6010995892B79F7C501DF9131
:10029000CF911F910F91FF90EF90DF90CF90BF9083
:1002A000AF900895FC01538D448D252F30E0842FAD
:1002B00090E0821B930B541710F0CF96089501978E
:1002C0000895FC01918D828D981761F0A28DAE0F7B
:1002D000BF2FB11D5D968C91928D9F5F9F73928F02
:1002E00090E008958FEF9FEF0895FC01918D828D2E
:1002F000981731F0828DE80FF11D858D90E00895FB
:100300008FEF9FEF0895FC01918D228D892F90E052
:10031000805C9F4F821B91098F73992708958DE10F
:1003200093E00E94830121E0892B09F420E0822FD1
:10033000089580E090E0892B29F00E948F018111BF
:100340000C9400000895FC01A48DA80FB92FB11DD5
:10035000A35ABF4F2C91848D90E001968F739927FB
:10036000848FA689B7892C93A089B1898C918370D9
:1003700080648C93938D848D981306C00288F389D2
:10038000E02D80818F7D80830895EF92FF920F93FF
:100390001F93CF93DF93EC0181E0888F9B8D8C8D31
:1003A00098131AC0E889F989808185FF15C09FB725
:1003B000F894EE89FF896083E889F98980818370E8
:1003C000806480839FBF81E090E0DF91CF911F9197
:1003D0000F91FF90EF900895F62E0B8D10E00F5FB8
:1003E0001F4F0F731127E02E8C8D8E110CC00FB68E
:1003F00007FCFACFE889F989808185FFF5CFCE0126
:100400000E94A301F1CFEB8DEC0FFD2FF11DE35AFC
:10041000FF4FF0829FB7F8940B8FEA89FB898081A8
:100420008062CFCFCF93DF93EC01888D8823B9F022
:10043000AA89BB89E889F9898C9185FD03C08081EF
:1004400086FD0DC00FB607FCF7CF8C9185FFF2CF6C
:10045000808185FFEDCFCE010E94A301E9CFDF911E
:10046000CF910895833081F028F4813099F0823063
:10047000A9F008958730A9F08830C9F08430B1F42C
:10048000809180008F7D03C0809180008F77809362
:100490008000089584B58F7784BD089584B58F7DDD
:1004A000FBCF8091B0008F778093B000089580914A
:1004B000B0008F7DF9CFCF93DF93282F30E0F90183
:1004C000E458FF4F8491F901E656FF4FD491F901AA
:1004D000E255FF4FC491CC23A1F081110E9432025A
:1004E000EC2FF0E0EE0FFF1FEE58FF4FA591B491F7
:1004F000EC91ED2381E090E009F480E0DF91CF9171
:10050000089580E090E0FACF1F93CF93DF93282FD8
:1005100030E0F901E458FF4F8491F901E656FF4FAE
:10052000D491F901E255FF4FC491CC23A9F0162FC5
:1005300081110E943202EC2FF0E0EE0FFF1FE8590C
:10054000FF4FA591B4918FB7F894EC91111108C0A9
:10055000D095DE23DC938FBFDF91CF911F9108955B
:10056000DE2BF8CFCF93DF9390E0FC01E656FF4FF0
:10057000249182559F4FFC0184918823C9F090E01B
:10058000880F991FFC01E057FF4FA591B491FC0122
:10059000E859FF4FC591D49161110DC09FB7F894F0
:1005A0008C91209582238C938881282328839FBF58
:1005B000DF91CF910895623051F49FB7F8943C9148
:1005C000822F809583238C93E8812E2BEFCF8FB7DA
:1005D000F894EC912E2B2C938FBFEACF1F93CF93DF
:1005E000DF93182FEB0161E00E94B202209739F4EB
:1005F00060E0812FDF91CF911F910C948402CF3F57
:10060000D10511F461E0F5CFE12FF0E0E458FF4FA0
:10061000E491E33031F140F4E130B1F0E230E1F067
:10062000C038D1057CF7E4CFE73029F1E83059F143
:10063000E430B1F780918000806280938000D09395
:100640008B00C0938A0004C084B5806884BDC7BD98
:10065000DF91CF911F91089584B5806284BDC8BD9C
:10066000F7CF80918000806880938000D0938900CC
:10067000C0938800EDCF8091B00080688093B00077
:10068000C093B300E5CF8091B00080628093B0004A
:10069000C093B400DDCF2091000190E4299F900128
:1006A00011248E50822B80937C0080917A0080648C
:1006B00080937A0080917A0086FDFCCF809178004B
:1006C0009091790008953FB7F89480919F0290919E
:1006D000A002A091A102B091A20226B5A89B05C0DC
:1006E0002F3F19F00196A11DB11D3FBFBA2FA92FB1
:1006F000982F8827BC01CD01620F711D811D911DAE
:1007000042E0660F771F881F991F4A95D1F7089519
:100710008F929F92AF92BF92CF92DF92EF92FF9211
:100720004B015C010E9463036B017C010E94630327
:100730006C197D098E099F09683E734081059105FA
:10074000A8F321E0821A9108A108B10888EEC80E2A
:1007500083E0D81EE11CF11C81149104A104B104B2
:1007600029F7FF90EF90DF90CF90BF90AF909F90D0
:100770008F9008952FB7F89460919B0270919C021E
:1007800080919D0290919E022FBF0895089520911F
:100790007702260F3327331F21323105ECF42091E5
:1007A000F102FC0190E080E0243069F082E00895DD
:1007B000A09177022191AC01495A5D4FA40FB52F4A
:1007C000B11D2C930196861798F380917702680FDC
:1007D0006093770280E0089581E008951092F1021D
:1007E00081E08093F0021092EB0261E082E10E94CE
:1007F000840261E083E10E948402E9EBF0E0808101
:100800008E7F808380818D7F808388E48093B80091
:1008100085E48093BC000895CF93DF9391E090939B
:1008200056028823B9F0C091B800D091BA008091E7
:10083000BC008A7B8093BC0060E082E10E9484025D
:1008400060E083E10E9484020E94EE03D093BA002C
:10085000C093B800DF91CF910895CF92DF92EF92CD
:10086000FF920F931F93CF93DF93D091190381E0F1
:10087000D13208F09CC0C0911B030E9463036B013E
:100880007C018091F10281116CC082E08093F102C1
:1008900081E08093F0028FEF8093EF021092EE02DE
:1008A000D093ED02ABEAB2E0EBECF2E080E0D813DB
:1008B0008DC01092EC028091EC02CC0FC82BC0933B
:1008C000EC028091EB02813009F084C01092EB02BF
:1008D0000E9463036B017C018091EC028093BB005A
:1008E0008091F3029091F402A091F502B091F6028A
:1008F000892B8A2B8B2BA1F00E9463030091F302BA
:100900001091F4022091F5023091F6026C197D09E4
:100910008E099F09061717072807390708F442C0F0
:100920008091BC0083FDD8CF85EC8093BC000E94F1
:1009300063036B017C018091F102823009F44CC0A9
:100940008091EF028F3F09F469C08091EF028032FD
:1009500009F466C08091EF02803309F463C084E03B
:1009600026C08091F3029091F402A091F502B0911B
:10097000F602892B8A2B8B2B09F483CF0E94630309
:100980000091F3021091F4022091F5023091F602E9
:100990006C197D098E099F09061717072807390763
:1009A00008F06FCF8091F2020E940C0485E0109253
:1009B0001A031092190310921C03DF91CF911F911B
:1009C0000F91FF90EF90DF90CF9008959D919193BC
:1009D0008F5F6DCF85EEA9CF8091F3029091F402E5
:1009E000A091F502B091F602892B8A2B8B2B09F48A
:1009F000A2CF0E9463030091F3021091F4022091B0
:100A0000F5023091F6026C197D098E099F090617CF
:100A100017072807390708F08ECFC4CF80E0C7CF6B
:100A200082E0C5CF83E0C3CF0895E091F8028091C2
:100A3000F702E81730F4F0E0E750FD4F808190E0D6
:100A400008958FEF9FEF08959091F8028091F7023B
:100A50002FEF3FEF981748F4E92FF0E0E750FD4FF4
:100A6000208130E09F5F9093F802C9010895CF92F2
:100A7000DF92EF92FF920F931F93CF93DF937C014E
:100A8000CB018A0120911C03222389F0EB016B0129
:100A9000C40ED51ECC15DD0569F06991D701ED9125
:100AA000FC910190F081E02DC7010995F3CF642FEF
:100AB0000E94C703C801DF91CF911F910F91FF9052
:100AC000EF90DF90CF900895CF93DF931F92CDB733
:100AD000DEB7698320911C032223F9F020911903CA
:100AE000203258F021E030E0FC013383228390E093
:100AF00080E00F90DF91CF91089580911A03E82F45
:100B0000F0E0E555FD4F998190838F5F80931A0344
:100B10008093190381E090E0ECCF61E0CE01019673
:100B20000E94C703F7CF682F8AEB93E00C9464050B
:100B30000F931F93CF938C01C62FFC0184810E94D9
:100B4000E700F80183858C2B90E00E949305CF91FC
:100B50001F910F910C942D0490E080E008958EBDBC
:100B600000000DB407FEFDCF8EB50895CF93C82FBA
:100B70000E94E7000E942D04811102C0C093AA02C6
:100B8000CF9108951F93CF93DF93162F672FEC011A
:100B9000CC0FDD1FCE010E94BC20612FCE0101963B
:100BA000DF91CF911F910C94BC20CF92DF92EF92F6
:100BB000FF920F931F93CF93C82F0E9463036B0183
:100BC0007C018091F102811164C081E08093F10287
:100BD0008093F0029FEF9093EF021092EE0210923A
:100BE000ED028093EC028091EC02CC0FC82BC093F5
:100BF000EC028091EB02813009F07DC01092EB0293
:100C00000E9463036B017C018091EC028093BB0026
:100C10008091F3029091F402A091F502B091F60256
:100C2000892B8A2B8B2BA1F00E9463030091F30286
:100C30001091F4022091F5023091F6026C197D09B1
:100C40008E099F09061717072807390708F442C0BD
:100C50008091BC0083FDD8CF85EC8093BC000E94BE
:100C600063036B017C018091F102813009F445C07E
:100C70008091EE02811163C08091EE02EBECF2E014
:100C8000A9EFB2E090E0981751F121912D939F5F69
:100C9000FACF8091F3029091F402A091F502B09105
:100CA000F602892B8A2B8B2B09F48BCF0E946303CE
:100CB0000091F3021091F4022091F5023091F602B6
:100CC0006C197D098E099F09061717072807390730
:100CD00008F077CF8091F2020E940C0480E010921D
:100CE000F8028093F702CF911F910F91FF90EF9040
:100CF000DF90CF90089585EEB0CF8091F302909170
:100D0000F402A091F502B091F602892B8A2B8B2B6D
:100D100009F4A9CF0E9463030091F3021091F40239
:100D20002091F5023091F6026C197D098E099F0918
:100D3000061717072807390708F095CFCBCF81E0B2
:100D40009DCFCF93DF93EC01809110040E94E700C8
:100D5000CE010E9493050E942D0480911004909171
:100D600011040E94D5059091F7028091F80298171E
:100D7000F1F38AEB93E0DF91CF910C9424050F936C
:100D80001F93CF93DF938C01EB01809110040E949D
:100D9000E700CE010E9493050E942D04809110046B
:100DA000909111040E94D5059091F7028091F8026C
:100DB0009817F1F38AEB93E00E942405EC018091EF
:100DC00010040E94E700C8010E9493050E942D04B0
:100DD00080911004909111040E94D5059091F70222
:100DE0008091F8029817F1F38AEB93E00E942405B2
:100DF00020E0382FC9018C2B9D2BDF91CF911F91C3
:100E00000F9108950F931F93CF93C82FE0910C0477
:100E1000F0910D04E05BFF4F808191819C012A528B
:100E2000310922303105C0F48B97A1F461E001C093
:100E3000660FCA95EAF7C62F80E70E94E7006C2F7D
:100E40008AEB93E00E9464050E942D04CF911F91CC
:100E50000F910895CC5FF0CF80E70E94E70001E09A
:100E600010E0B8010C2E01C0660F0A94EAF78AEB75
:100E700093E00E9464050E942D0486E30E94E7002F
:100E80000E942D0481110FC0E0910C04F0910D041B
:100E900015A704A7E05BFF4F8BE290E0918380836E
:100EA00090E080E0D3CF80E70E94E70064E06C0F21
:100EB0008AEB93E00E9464050E942D0486E30E9461
:100EC000E7000E942D04E0910C04F0910D048111C3
:100ED00007C015A704A7E05BFF4F8AE290E0DECFD2
:100EE00015A614A6E05BFF4F1182108282E090E00D
:100EF000ADCFCF93DF9380E00E940207181619064A
:100F000084F1E0910C04F0910D0484A595A501975E
:100F100041F580913604909137040E94A10685FF27
:100F200020C0609130047091310480912E04909122
:100F30002F040E94BF06C0910C04D0910D04BC0187
:100F400090E080E00E943F2222E03EE041E65FE345
:100F50000E94F6220E94092279A368A381E080936F
:100F60000504DF91CF910895CF92DF92EF92FF9227
:100F70006B017C010E94BA03DC01CB018C199D0935
:100F8000AE09BF0981152DE79207A105B10530F41F
:100F9000E0910C04F0910D04978B868BFF90EF90FD
:100FA000DF90CF9008957F928F929F92AF92BF92E1
:100FB000CF92DF92EF92FF920F931F93CF93DF9325
:100FC000EC01B62EA72E922E832E742EF52E60E005
:100FD0008AE00E94840203E210E0C8010197F1F761
:100FE0008B2D0E94AF058F2D0E94AF05C12CD12CF7
:100FF0007601C82AFE2CED2CDC2CCC24872D0E94F7
:10100000AF05C82AFE2CED2CDC2CCC24882D0E94A8
:10101000AF05C82AFE2CED2CDC2CCC24892D0E9497
:10102000AF05C82AC8010197F1F761E08AE00E9484
:1010300084028B859C858F369105F9F4C6019370E7
:101040009B8B8A8BE881F98191AB80ABC7018F7153
:1010500099279D8B8C8B93AB82ABBB86AC86DF9143
:10106000CF911F910F91FF90EF90DF90CF90BF90A5
:10107000AF909F908F907F900895429771F7DF8A8D
:10108000CE8AE881F981D5AAC4AAE7CF0F931F932E
:10109000CF938C01C62F0E9498056C2F6460C80105
:1010A0000E9498056C2F6B7FC8010E94980583EC05
:1010B00090E00197F1F7CF911F910F9108950F9351
:1010C0001F93CF93DF938C01D62FC42F607F642BA7
:1010D0000E94460880E1D89FB00111246C2BC80102
:1010E000DF91CF911F910F910C94460841E00E942F
:1010F0005F0881E090E00895EF92FF920F931F93B5
:10110000CF93DF938C017A0188E0689FB0011124AE
:10111000606440E0C8010E945F08E70188E0E80ED3
:10112000F11C6991C8010E947608CE15DF05C9F748
:10113000DF91CF911F910F91FF90EF900895CF9382
:10114000DF93CDB7DEB728970FB6F894DEBF0FBE9A
:10115000CDBF28E0EFE3F1E0DE01119601900D92A2
:101160002A95E1F7FC012185241708F44FEF50E0A0
:10117000440F551F21E030E02C0F3D1F420F531F3D
:10118000FA012081620F606840E028960FB6F8945B
:10119000DEBF0FBECDBFDF91CF910C945F0840E062
:1011A00061E00E945F088BE39FE10197F1F70895EA
:1011B000FB0101900020E9F73197AF01461B570B67
:1011C000DC01ED91FC910280F381E02D09948F9276
:1011D0009F92AF92BF92EF92FF920F931F93CF9384
:1011E000DF93CDB7DEB7A1970FB6F894DEBF0FBE81
:1011F000CDBF7C01FA01CB0119A2223008F42AE00C
:101200008E010F5D1F4F822E912CB12CA12CBF019E
:10121000A50194010E94F420F901CA016A300CF57D
:10122000605DD8016E938D01232B242B252B79F73C
:1012300090E080E0109721F0BD01C7010E94D8081E
:10124000A1960FB6F894DEBF0FBECDBFDF91CF9150
:101250001F910F91FF90EF90BF90AF909F908F9054
:101260000895695CDECFCF92DF92EF92FF920F93E9
:101270001F93CF93DF936B01770FEE08FF08F7FE04
:101280001BC0EC016DE20E94FA008C014427552737
:10129000BA014C195D096E097F092AE0CE010E944E
:1012A000E708800F911FDF91CF911F910F91FF9061
:1012B000EF90DF90CF9008952AE0B701A601DF916B
:1012C000CF911F910F91FF90EF90DF90CF900C94F2
:1012D000E7084F925F926F927F928F929F92AF92A8
:1012E000BF92EF92FF920F931F93CF93DF938C01E6
:1012F0004A015B01E22EAB019401CB01B4010E94D3
:10130000632361E172E0811126C024013501E89474
:1013100077F82FEF3FEF4FE75FE7C301B2010E947D
:10132000632381110CC02FEF3FEF4FE75FE7C3014D
:10133000B2010E94922165E172E0181664F02FEF6D
:101340003FEF4FE75FE4C501B4010E94F122181698
:101350009CF469E172E0C801DF91CF911F910F9178
:10136000FF90EF90BF90AF909F908F907F906F9085
:101370005F904F900C94D8082FEF3FEF4FE75FEC52
:10138000C501B4010E94922187FDE3CF20E030E047
:10139000A901C501B4010E949221D0E0C0E087FFFD
:1013A00009C06DE2C8010E94FA00EC01B7FAB094DE
:1013B000B7F8B094FE2C712C60E070E080E09FE301
:1013C0007E1440F420E030E040E251E40E94972196
:1013D0007394F6CFA50194010E9426214B015C0174
:1013E0000E9410222B013C012AE0BC01A201C8018D
:1013F0000E94E708C80FD91FEE20D1F1C301B20146
:101400000E943F229B01AC01C501B4010E9425212D
:101410004B015C016EE2C8010E94FA00C80FD91F9F
:10142000FA948FEFF81621F120E030E040E251E429
:10143000C501B4010E94F6222B013C010E9410223A
:101440004B01B12CA12C2AE0B501A401C8010E94D6
:10145000E708C80FD91FC501B4010E943F229B01B4
:10146000AC01C301B2010E9425214B015C01D8CF20
:10147000CE01DF91CF911F910F91FF90EF90BF9020
:10148000AF909F908F907F906F905F904F90089556
:101490000C94D8080F931F93CF93DF93EC018981AD
:1014A0009A81EB81FC81E85BFF4F20813181213003
:1014B000310509F05BC0DC01ED91FC910190F081F8
:1014C000E02D66E00995EB81FC81DF01A25BBF4F57
:1014D0008D919C91019709F054C0028D138D8D8DD3
:1014E0009E8D049714F01E8E1D8E8D8D9E8D892BE2
:1014F00099F589819A81DC01ED91FC910190F0814F
:10150000E02D6B8D09958B8D9C8D01969C8F8B8F1B
:10151000069714F1033A110524F084E090E09C8FC3
:101520008B8FC801865991090D9720F483E090E0D4
:101530009C8F8B8FC8018C5891090A9720F482E008
:1015400090E09C8F8B8FC801825891090A9798F47C
:1015500081E090E09C8F8B8F8D8D9E8D01969E8F6C
:101560008D8FDF91CF911F910F9108956BE472E001
:101570000E94480AA8CF0238110574F71C8E1B8EF2
:10158000EBCFEA5BFF4F008111810436110551F466
:1015900089819A81DC01ED91FC910190F081E02D2F
:1015A00065E00995C8018B549109499750F48981E8
:1015B0009A81DC01ED91FC910190F081E02D64E0D5
:1015C0000995C801C297499750F489819A81DC0135
:1015D000ED91FC910190F081E02D63E00995C80147
:1015E0004997499750F489819A81DC01ED91FC91EA
:1015F0000190F081E02D62E0099589819A8198013E
:101600002150310928313105D0F4DC01ED91FC91F4
:101610000190F081E02D61E009956BE472E0898131
:101620009A810E94480A17FF9CCF6BE472E089817F
:101630009A81DF91CF911F910F910C94480A011567
:10164000110559F72F8D222341F3DC01ED91FC9117
:101650000190F081E02D60E0DF91CF911F910F911B
:10166000099485ED8093BC008091F3029091F4027F
:10167000A091F502B091F6020796A11DB11D23E0DD
:10168000B695A795979587952A95D1F72091BC0097
:1016900024FD03C01092F10208954091F30250918D
:1016A000F4026091F5027091F602452B462B472B10
:1016B00069F30097A105B10541F025E32A95F1F7FB
:1016C00000000197A109B109E1CF8091F2020C94C9
:1016D0000C041F920F920FB60F9211242F933F9379
:1016E0004F935F936F937F938F939F93AF93BF932A
:1016F000EF93FF938DE193E00E94A301FF91EF919F
:10170000BF91AF919F918F917F916F915F914F9119
:101710003F912F910F900FBE0F901F9018951F9221
:101720000F920FB60F9211242F938F939F93EF93E5
:10173000FF93E0912D03F0912E038081E09133031C
:10174000F091340382FD1BC09081809136038F5F3E
:101750008F7320913703821741F0E0913603F0E058
:10176000E35EFC4F958F80933603FF91EF919F913D
:101770008F912F910F900FBE0F901F901895808121
:10178000F4CF1F920F920FB60F9211242F933F9315
:101790008F939F93AF93BF9380919B0290919C02F4
:1017A000A0919D02B0919E0230919A0223E0230FF6
:1017B0002D3758F50196A11DB11D20939A028093F3
:1017C0009B0290939C02A0939D02B0939E028091F5
:1017D0009F029091A002A091A102B091A202019655
:1017E000A11DB11D80939F029093A002A093A1021E
:1017F000B093A202BF91AF919F918F913F912F9192
:101800000F900FBE0F901F90189526E8230F029699
:10181000A11DB11DD2CF1F920F920FB60F921124AE
:101820002F933F934F935F936F937F938F939F93E8
:10183000AF93BF93EF93FF938091B900887F803679
:1018400009F44AC0F0F5883209F4A7C018F58031D0
:1018500009F49BC0B8F4882309F4F9C0883009F46E
:1018600094C0FF91EF91BF91AF919F918F917F9124
:101870006F915F914F913F912F910F900FBE0F90FD
:101880001F901895883109F488C0803251F78093F1
:10189000EF0214C0803409F49DC040F48033B9F3E2
:1018A0008833F9F68093EF0285ECB0C0803509F4F7
:1018B00085C0883509F496C0883499F60E94310BAA
:1018C000D0CF883909F48CC038F5883729F050F426
:1018D000883611F0803729F683E08093F102109268
:1018E000990257C0883809F47BC0803919F08038D4
:1018F00009F0B7CF80919902803208F071C0E09171
:10190000990281E08E0F809399028091BB00F0E0F4
:10191000E758FD4F80833DC0803B39F0E0F4803ACA
:1019200009F479C0883A09F09CCF84E08093F102F1
:101930001092780210927702E091A402F091A50231
:1019400009958091770281110FC081E08093770221
:101950001092570209C0803C09F4A6CF883C09F4D4
:10196000A3CF883B09F07DCFE091780281E08E0F14
:1019700080937802F0E0E95AFD4F80818093BB00AC
:10198000909178028091770229C08091EC02809337
:10199000BB0085EC8093BC0064CF9091EE028091F7
:1019A000ED02981758F5E091EE0281E08E0F8093DA
:1019B000EE02F0E0E553FD4F8081E9CFE091EE02C9
:1019C00081E08E0F8093EE028091BB00F0E0E55342
:1019D000FD4F80839091EE028091ED029817C8F23E
:1019E00085E8D8CFE091EE0281E08E0F8093EE0281
:1019F0008091BB00F0E0E553FD4F80838091F002C1
:101A000081115CCF81E08093EB0284EA8093BC007B
:101A10001092F10226CF85EC8093BC001092F10267
:101A200080919902803230F4E0919902F0E0E75819
:101A3000FD4F10826091990270E0E091A602F09152
:101A4000A70289E792E00995109299020ACF1092B5
:101A5000EF0234CFCF93DF93EDE1F3E013821282F4
:101A600088EE93E0A0E0B0E084839583A683B783FB
:101A700021EF31E03183208325EC30E03587248766
:101A800024EC30E03787268720EC30E0318B208B48
:101A900021EC30E0338B228B22EC30E0358B248B31
:101AA00026EC30E0378B268B118E128E138E148E1F
:101AB000EAEBF3E01382128284839583A683B783D3
:101AC00083E092E091838083E6ECF3E01082118260
:101AD00012821382148215821682178280E09DE79B
:101AE000A0E0B0E080879187A287B387148615862F
:101AF00016861786108A118A128A138A148A158A02
:101B0000168A178A108E118E128E138E148E158ED1
:101B1000168E178E10A211A212A213A280E09CE3CF
:101B2000ACE1B6E484A395A3A6A3B7A310A611A61F
:101B300012A613A615A614A6A4EFB3E08CE0ED013F
:101B400019928A95E9F713AE12AE15AE14AE17AE20
:101B500086E390E0909311048093100410921D048A
:101B600010921C0481E090E090931F0480931E0467
:101B700082E090E0909321048093200483E090E041
:101B8000909323048093220484E090E090932504B2
:101B90008093240485E090E09093270480932604AA
:101BA00086E090E0909329048093280487E090E0F9
:101BB00090932B0480932A0488E090E090932D0466
:101BC00080932C048CE090E090932F0480932E045B
:101BD0008DE090E090933104809330048EE090E0AB
:101BE00090933304809332048FE090E09093350417
:101BF000809334048BE090E0909337048093360414
:101C00008AE190E090933904809338048BE190E06E
:101C100090933B0480933A048CE190E090933D04D0
:101C200080933C048FEF90E090933F0480933E04B8
:101C3000109241041092400410924204DF91CF911F
:101C40000895CF93DF93CDB7DEB762970FB6F894C0
:101C5000DEBF0FBECDBF789484B5826084BD84B5ED
:101C6000816084BD85B5826085BD85B5816085BD97
:101C700080916E00816080936E001092810080914F
:101C800081008260809381008091810081608093D7
:101C90008100809180008160809380008091B100FC
:101CA00084608093B1008091B00081608093B00027
:101CB00080917A00846080937A0080917A008260BB
:101CC00080937A0080917A00816080937A0080917D
:101CD0007A00806880937A001092C10061E087E00A
:101CE0000E94B20261E087E00E94840287E20E94C3
:101CF000B6058FE30E94B6058091AA02882309F4F5
:101D0000B6C01C821B822BE431E03A8329838D8389
:101D100080E1898782E08A871B8618E01C87109201
:101D2000F8021092F70210921A03109219030E94FF
:101D3000EE0388EF90E09093A5028093A40289EFD0
:101D400090E09093A7028093A6021E828A8582303B
:101D500008F01E839B85992329F0813019F48E8128
:101D600084608E8362E370E080E090E00E948803EC
:101D70006C858E010F5F1F4FC8010E94980568EEA9
:101D800073E080E090E00E94880360E3C8010E9455
:101D90004608ABE4EA2EA6E4FA2EC7010197F1F754
:101DA00060E3C8010E944608C7010197F1F760E3AC
:101DB000C8010E94460883E592E00197F1F760E2CE
:101DC000C8010E9446086E81606240E0C8010E941E
:101DD0005F0884E08F8340E06CE0C8010E945F08E8
:101DE000C8010E94CF0882E0888740E066E0C80111
:101DF0000E945F0840E062E0C8010E945F088BE338
:101E00009FE10197F1F741E351E060E0C8010E94D2
:101E10007C0849E251E061E0C8010E947C0841E28F
:101E200051E062E0C8010E947C0849E151E063E0B2
:101E3000C8010E947C0841E151E064E0C8010E94B1
:101E40007C0849E051E065E0C8010E947C0841E05F
:101E500051E066E0C8010E947C088091A802909140
:101E6000A9020E94CF081093A9020093A802A09093
:101E7000A802B090A90283E08093000162E085E0AF
:101E80000E94B202B0920B04A0920A0481E991E090
:101E90000E94A6238C0180E991E0D801FC011D92EB
:101EA0003197E9F74801F0E78F1AFEEF9F0AD40156
:101EB0001C9228013801CC24C394D12CF12CE12CA4
:101EC00022242394C701880F991F0E94B420382E22
:101ED000C6010E94B420232D30E0322F2227820F2A
:101EE000932F911DF301819391933F01F7ECEF162E
:101EF000F10411F4D4012C92BFEFEB1AFB0AE2E0DB
:101F0000CE0ED11CF8ECEF16F104E1F6D8018D915C
:101F10009C91893E934009F4F5C0F12CE12CF2012B
:101F2000119211922F0170E060E0C7010E94C2057A
:101F3000FFEFEF1AFF0A28ECE216F10481F789EEB1
:101F400093E0D8018D939C9369EE73E090E080E07C
:101F50000E94C20583E090E0F8019383828363E0EE
:101F600070E081E090E00E94C2058EEF91E0D80120
:101F700019969C938E9318976EEF71E084E090E031
:101F80000E94C20580E491E0F8019387828760E4B3
:101F900071E085E090E00E94C20585EF90E0D801F5
:101FA0001D969C938E931C9765EF70E086E090E001
:101FB0000E94C2058AEA90E0F801978786876AEA5C
:101FC00070E087E090E00E94C2058EE190E0D801C9
:101FD00051969C938E9350976EE170E088E090E06C
:101FE0000E94C205F80113A212A270E060E081E134
:101FF00090E00E94C205EE24EA94FE2CD80195964A
:10200000FC92EE9294976FEF7FEF82E190E00E9456
:10201000C205F801F7A2E6A26FEF7FEF83E190E03F
:102020000E94C2058AEE96E0D801D7969C938E93C3
:10203000D6976AEE76E08BE190E00E94C2058AE0D6
:1020400090E0F80191AF80AF6AE070E08CE190E041
:102050000E94C2058DE290E0D801DB969C938E939E
:10206000DA976DE270E08DE190E00E94C2055CE3DA
:10207000E52EF12CF801F5AEE4AE6CE370E08EE1F4
:1020800090E00E94C205F801E05CFF4FF182E0821F
:102090006CE370E080E290E00E94C20584E690E08C
:1020A000F801EE5BFF4F9183808364E670E081E28C
:1020B00090E00E94C2058FE790E0F801EC5BFF4FD3
:1020C000918380836FE770E082E290E00E94C20516
:1020D00068E5E62E62E0F62EF801E65BFF4FF1823E
:1020E000E08268E572E085E290E00E94C205F801B6
:1020F000EC5AFF4FF182E08268E572E08AE290E0FC
:102100000E94C20510930D0400930C04E0912D036E
:10211000F0912E0382E08083E0912D03F0912E0355
:102120001082E0912903F0912A031082E0912B03A1
:10213000F0912C0380E1808310923503E09131030C
:10214000F091320386E08083E0912F03F091300319
:10215000808180618083E0912F03F0913003808142
:1021600088608083E0912F03F09130038081806844
:102170008083E0912F03F091300380818F7D8083F5
:102180001092F8021092F70210921A03109219039B
:102190000E94EE0388EF90E09093A5028093A40242
:1021A00089EF90E09093A7028093A6028CE0809341
:1021B000B80080E290E00E94A6238C01C0900C043D
:1021C000D0900D04DC011C9281E015968C9315973C
:1021D00084E190E01F969C938E931E9751961C92DB
:1021E0001E92509752961C92529754961C921E9291
:1021F000539756961C921E92559758961C921E9273
:10220000579759961C9259975A961C925A975C96D2
:102210001C921E925B975E961C921E925D975F9633
:102220001C925F971496DC92CE9213971296BC92F2
:10223000AE92119710930904009308048AE390E08A
:102240000E94A6237C01FC0110821582168217824F
:102250001086168E158E14AA13AA15AA16AA17AAE6
:1022600010AE82E381AFD282C1821483038361E026
:1022700087E00E94B20261E087E00E94840260E091
:1022800086E00E94B20261E083E00E94B202D701C0
:102290001196ED91FC9183E090E093838283F0921C
:1022A0000704E092060489E190E00E94A6238C01D5
:1022B00080910C0490910D04F80112821382148213
:1022C000158216821782108611861286148613864E
:1022D000158616861786108A118A138A128A158A1D
:1022E000148A178A168A108E9183808361E08AE0AF
:1022F0000E94B20261E089E00E94B20261E088E0DF
:102300000E94B20261E08AE00E94840280E480932D
:10231000800089E0809381001092890010928800EB
:102320008CB58F7D8CBD8CB58C7F82608CBD8DB55E
:102330008E7F8DBD8CB58C608CBDFFB6F89480917E
:10234000A302811127C0E8EBF0E08491E4EAF0E019
:102350009491E82FF0E0EE0FFF1FE057FF4FA5919B
:10236000B491EC91E92321F461E08AE00E948402B7
:1023700061E08AE00E94B2028CB580618CBD8CB5B0
:1023800080648CBD61E08DE00E94B20261E08BE070
:102390000E94B2028091A3028F5F8093A302FFBECE
:1023A00020E030E0A9016BE870E0C8010E94D3078B
:1023B00023EC30E041E050E06CEE70E0C8010E9498
:1023C000D30720E630E047E050E06DEE70E0C80152
:1023D0000E94D30724E030E040E050E060E870E085
:1023E000C8010E94D30725E03EE044E050E060E9E8
:1023F00070E0C8010E94D30723E030E040E050E0E5
:1024000061E970E0C8010E94D30724EF31E040E0A9
:1024100050E063E970E0C8010E94D30728EB3BE07D
:1024200040E050E064E970E0C8010E94D30720E971
:1024300031E040E050E065E970E0C8010E94D30758
:1024400021E030E040E050E063EA70E0C8010E9423
:10245000D3072AE030E040E050E064EA70E0C801D1
:102460000E94D3072AE030E040E050E065EA70E0E7
:10247000C8010E94D30728E33EE040E050E066EA4E
:1024800070E0C8010E94D3072AE030E040E050E04D
:1024900067EA70E0C8010E94D30724EF31E040E012
:1024A00050E068EA70E0C8010E94D30724EF31E0F1
:1024B00040E050E06AEA70E0C8010E94D3072AE0D9
:1024C00030E040E050E06BEA70E0C8010E94D307C2
:1024D00021E030E040E050E060EA70E0C8010E9496
:1024E000D30720E030ED47E050E06DEA70E0C8012E
:1024F0000E94D30710930F0400930E04E0910C0484
:10250000F0910D0417A616A6332433940091080405
:1025100010910904D80115968C911597882311F014
:1025200015961C92D8011396ED91FC91149784890D
:10253000958950962D913C9151972130310509F4A0
:10254000DFC42230310509F4F0C4D8011396ED91AF
:10255000FC91149784899589892B11F452961C92C9
:1025600000910E0410910F04D801ED91FC91119788
:102570001A968C9162E0C62ED12C8111C2C582A51B
:1025800093A5809721F480A591A5029751F0D801D9
:1025900058968C91882329F082819381039709F4BE
:1025A000ADC517A616A620E030E0A9016FE670E0E1
:1025B000C8010E94D30720E030E0A90162E170E089
:1025C000C8010E94D307D801ED91FC91119786A50F
:1025D00097A58130910509F097C5A0ACB1AC24ADA9
:1025E00035ADE6A8F7A842AD53AD1D963C92429F8B
:1025F000C001439F900D529F900D112464E670E03E
:102600000E9478236B012A9DC0012B9D900D3A9D5D
:10261000900D112464E670E00E9478236E9D4001C5
:102620006F9D900C7E9D900C1124B12CA12C22A5A5
:1026300033A5032E000C440B550B205231094109E0
:102640005109EC9CB001ED9C700DFC9C700D1124A7
:1026500090E080E0681979098A099B090E94682343
:1026600020E730E040E050E00E94CA20820E931E36
:10267000A41EB51EF801858560E0811101C061E0EE
:1026800088E00E948402A501940167EA70E0C80115
:102690000E94D3070E94BA03AB01BC01D801AD90E0
:1026A000BC90D501A05CBF4FF50186AD97AD97FFFB
:1026B00003C09195819591092D913C9182179307C3
:1026C0003CF4D80116964D935D936D937C931997C6
:1026D000F80186819781A085B1856A017B01C81ABE
:1026E000D90AEA0AFB0AD701C601F501EE5BFF4FE2
:1026F000C080D1800D2C000CEE08FF08C816D9064A
:10270000EA06FB0670F4F80182819381A481B58109
:10271000892B8A2B8B2B29F4428353836483758303
:102720003286F80182858823B1F082819381A48169
:10273000B581481B590B6A0B7B0B413D5740610526
:10274000710548F0D80112961D921D921D921C929F
:1027500015971A961C9200910604109107040E9486
:10276000BA0328EC30E040E050E00E94F420672BF0
:10277000682B692B09F0D6C081E10E944B03F80158
:10278000E3A8F4A86701CC0CDD1CC00ED11EBC016F
:10279000990F880B990B0E9441222DEC3CEC4CE8E0
:1027A0005AE30E94F62220E030E04EE453E40E9417
:1027B000F6220E940922D60190967C936E935F9731
:1027C000BFEFEB1AFB0AEAE0EE16F10409F4ADC420
:1027D000D801D496FC92EE92D397F8017F96980197
:1027E0002D5C3F4F90E080E041915191840F951F07
:1027F0002E173F07C9F76AE070E00E947823D801DE
:102800001196ED91FC911297738F628F86A597A513
:10281000019711F416963C92848D958D6B01C81A20
:10282000D90AC60145973CF0D80116961C92CB01F7
:102830000897958F848FDF01A25BBF4F8D919C918C
:10284000019709F076C4D80116961C926850710958
:10285000758F648F85E10E944B038E5F9140BC01B0
:10286000990F880B990B0E94412222E335E540E540
:1028700050E40E94F6229B01AC010E942621F8013F
:10288000C58CD68C7601EE0CFF1CE00EF11E0E946A
:102890000922D7011A967C936E931997BFEFCB1A32
:1028A000DB0AEAE0CE16D10409F452C4D8015E96E0
:1028B000DC92CE925D97F80139969801235E3F4FE6
:1028C00090E080E041915191840F951F2E173F07B2
:1028D000C9F76AE070E00E947823D8011196ED9163
:1028E000FC91718F608FDF01A85BBF4F8D919C9130
:1028F00011978130910509F02FC4693C71050CF4E2
:1029000033C416968D939C93828D938D9F012A5B81
:102910003F4F790105970CF02BC48FEF9FEFD90142
:102920008D939C9386E00E945B02019709F042C45C
:10293000D80118968C91189781113CC417963C9237
:1029400086E00E945B0221E0892B09F420E0D80197
:1029500018962C9318971196ED91FC91C280D38014
:10296000B3E0CB16D104E9F4D80117968C911797F0
:102970008823B9F084E090E0938382831396ED90EE
:10298000FC90F701818192810E94CF08D701519676
:10299000DC92CE92509784E190E01F969C938E93A8
:1029A0001E97D8011196ED91FC9182819381892B1C
:1029B000E1F4DF01A25BBF4F8D919C9181309105C5
:1029C000A1F493838283F801E380F480D701119608
:1029D0008D919C910E94CF0885E690E0F701918B44
:1029E000808B88E290E097878687D8011196ED91D9
:1029F000FC91828193810197E9F4DF01A25BBF4FD3
:102A00008D919C91892BB1F484E090E09383828333
:102A1000F801E380F480D70111968D919C910E947A
:102A2000CF0883E090E0F701918B808B84E190E008
:102A300097878687D8011196ED91FC911297828134
:102A40009381029768F517968C91811104C086AD29
:102A500097AD4F972CF183E090E09383828361E000
:102A600087E00E948402F801E380F480D701119688
:102A70008D919C910E94CF08F701118A108A84E100
:102A800090E0978786876FEF70E08FE00E94EE02FC
:102A9000D8011196ED91FC91EE5AFF4F11821082F0
:102AA000D8011196ED91FC91C280D380B3E0CB1692
:102AB000D10419F5DF01AC5ABF4F8D919C9111974C
:102AC00012972D913C9182179307BCF418161906A2
:102AD000A4F484E090E093838283F801E380F4809F
:102AE000D70111968D919C910E94CF08F701D18A50
:102AF000C08A84E190E097878687D8011196ED918E
:102B0000FC911297828193810497A9F413968D9179
:102B10009C91DC0150968D919C918436910559F4DD
:102B20001382128270E060E08FE00E94EE0260E0AB
:102B300087E00E948402F801C5A8D6A8E7A8F0ACF7
:102B4000F8EECF0EF3E0DF1EE11CF11C0E94BA0389
:102B5000C616D706E806F90608F072C0D801119625
:102B6000ED91FC911297828193818330910509F058
:102B700024C38FEF15968C93D80115966C9170E055
:102B80008FE00E94EE02F801E180F280D7015896B2
:102B90002D913C915997A85BBF4F293DEFEF3E0720
:102BA0000CF419C3CC24C394D12C1196DC92CE9290
:102BB000C7018A5B9F4FFC018081918197FD05C011
:102BC0008D919C911197892B19F480E4F80181AFC4
:102BD000C701865B9F4FFC018081918128173907CF
:102BE00064F4F80161AD6F3F41F04D915C91119734
:102BF0004130510511F46F5F61AF845D9E4F8217C4
:102C000093075CF4F80181AD882339F02D913C9154
:102C10002130310511F4815081AFD801D9966C91E2
:102C200070E0F701E45BFF4F7183608383E00E94F3
:102C3000EE020E94BA03F80165AB76AB87AB90AFAA
:102C40000E94BA0328E230E040E050E00E94F42005
:102C5000672B682B692B09F0E7C000910C041091D9
:102C60000D0480E10E944B03D80153969C938E93F0
:102C70005297E0910C04F0910D042289338940852C
:102C8000518580899189BA01681B790B6217730796
:102C900014F5840F951F28173907ECF412E0C12EA4
:102CA000D12CD58AC48A6091D6037091D7038091C4
:102CB000D8039091D903611571058105910509F03B
:102CC0008EC20E94BA036093D6037093D703809399
:102CD000D8039093D903E0910C04F0910D0422895C
:102CE00033894285538580899189BA01681B790BA4
:102CF0006217730714F5840F951F28173907ECF432
:102D0000EE24E394F12CF58AE48A6091D603709165
:102D1000D7038091D8039091D9036115710581057E
:102D2000910509F05FC20E94BA036093D6037093C5
:102D3000D7038093D8039093D903E0910C04F091CA
:102D40000D04228933894485558580899189BA018A
:102D5000681B790B621773070CF5840F951F2817F2
:102D60003907E4F483E090E0958B848B6091D6037F
:102D70007091D7038091D8039091D90361157105A3
:102D80008105910509F031C20E94BA036093D60310
:102D90007093D7038093D8039093D903E0910C04E8
:102DA000F0910D0422893389468557858089918960
:102DB000BA01681B790B621773070CF5840F951F16
:102DC00028173907E4F484E090E0958B848B6091B8
:102DD000D6037091D7038091D8039091D9036115E0
:102DE00071058105910509F003C20E94BA03609341
:102DF000D6037093D7038093D8039093D903E091BF
:102E00000C04F0910D0482899389893E934064F00B
:102E1000158A148A178A168A1092D6031092D7033D
:102E20001092D8031092D903C090DA03D090DB033C
:102E3000E090DC03F090DD0330E5C30ED11CE11C13
:102E4000F11C0E94BA03C616D706E806F90630F54B
:102E5000809142048823C1F0009108041091090474
:102E6000D80150968D919C9151978330910509F42A
:102E7000A2C40CF0C0C18130910509F47DC20CF0F0
:102E8000ECC2892B09F4E4C10E94BA036093DA030F
:102E90007093DB038093DC039093DD038091420405
:102EA000882309F4C0C680910504882309F4BBC6B1
:102EB00085E00E945B02019721F480910404811156
:102EC00073C685E00E945B02019729F48091040497
:102ED000882309F425C685E00E945B02892B09F44A
:102EE00057C685E00E945B02892B09F01FC68091BE
:102EF000040481111BC682E090E09A8B898B16C670
:102F00009C01215031092230310518F0049709F055
:102F10001CCBF8018289811118CB328E22E0C22E9F
:102F2000D12CD18AC08A328A10CB0397A9F4529649
:102F30008C915297811110C05A963C925A97CC248A
:102F4000C394D12C5196DC92CE92509754961C92F9
:102F50001E92539752963C92848995890197B1F5B8
:102F6000D80152968C915297811130C053968D9111
:102F70009C91549759962C915997222309F499C002
:102F800027E0289FD001299FB00D1124AD5ABE4FD4
:102F90008D919C919C01220F331FE20FF31F6081E2
:102FA00071816F5F7F4F718360830E94C205D8017A
:102FB0001396ED91FC91EE5AFF4F84ECC82EDD2460
:102FC000DA94D182C082D80152963C92D8011396ED
:102FD000ED91FC91149784899589029741F5529659
:102FE0008C915297811123C053968D919C91549747
:102FF00059962C91222309F470C027E0289FD00114
:10300000299FB00D1124AD5ABE4F8D919C919C010A
:10301000220F331FE20FF31F60817181615071092C
:10302000718360830E94C205D80152963C92D801F8
:103030001396ED91FC91149784899589049751F525
:1030400052968C915297811125C071EFC72E78ED61
:10305000D72E5896DC92CE9257975696DC92CE9207
:10306000559753968D919C9127E0289FD001299FD9
:10307000B00D1124AD5ABE4F16968C91882339F0AD
:10308000D80159968C915997832559968C93D801DC
:1030900052963C92848995890197029708F055CA07
:1030A000868997898D3D95400CF44FCAF801128AA4
:1030B0004CCAE1EFF8ED5896FC93EE93579756966D
:1030C000FC93EE935597181619060CF07CCF0197D8
:1030D00054969C938E93539776CFE1EFCE2EE8EDE6
:1030E000DE2EF801D08EC78AD68AC58A019686312F
:1030F000910508F099CF948B838B96CFCC24C39401
:10310000D12CD7A6C6A64FCA029731F0F801158672
:10311000812C912C5401AECA1D963C9248EE842E0F
:1031200043E0942EA12CB12CA5CAF80114AA13AA2D
:1031300054CB848D958DD80116962C91211102C007
:1031400068507109861797070CF082CBBC0180CBC1
:10315000F801168E158EAFCB892B31F4DF01A25BFF
:10316000BF4F1D921C92D0CB64367105BCF3CCCB03
:10317000248D358D2639310514F025E930E02F37BF
:10318000310514F42FE730E0032E000C440B550BEF
:103190002F57310941095109A4E6B0E00E94E92006
:1031A00026E130E040E050E00E94CA20F701318380
:1031B0002083B8CBF8011782C3CB009719F4F8012C
:1031C0001582DACC15962C911597019709F0D4CC7D
:1031D0002111F5CFCECC11961C921E92E9CC0E9403
:1031E000B40779CD0E94B407A8CD0E94B407D6CD0C
:1031F0000E94B40704CE8336910509F464C3853672
:10320000910509F48CC3049709F03ECE5A968C912F
:103210005A978823B1F011968D919C910E94CF0806
:1032200040E060E0F801818192810E949F086AE29B
:1032300071E0D80111968D919C910E940101F801D5
:10324000128E41E06EE0D80111968D919C91FFC0E5
:10325000F8018181928128E0DC011B962C9360E0CB
:103260000E949805D8011E96ED91FC911F97379703
:10327000EE30F10500F5ED5BF64E11968D919C91C7
:1032800040E00C948C23B619B019AA19A4199E1900
:10329000981992198C19861980197A1974196A1952
:1032A000511961E00E949F086CED70E0F801818186
:1032B00092810E940101F801868597850197978781
:1032C0008687CC24C394D12C892B09F0DDCDD18AFB
:1032D000C08ADACD61E00E949F086AED70E0D801F3
:1032E00011968D919C91E5CF63E00E949F0868ED57
:1032F00070E0DCCF63E00E949F0866ED70E0EFCFE6
:1033000065E00E949F0864ED70E0D0CF65E00E9408
:103310009F0862ED70E0E3CF67E00E949F0860EDD8
:1033200070E0C4CF67E00E949F086EEC70E0D7CFDA
:1033300069E00E949F086CEC70E0B8CF69E00E94E1
:103340009F086AEC70E0CBCF6BE00E949F0868ECAE
:1033500070E0ACCF6BE00E949F0866EC70E0BFCFDE
:103360006DE00E949F0864EC70E0A0CF6DE00E94C9
:103370009F0862EC70E0B3CF5A968C915A978823DD
:10338000B1F011968D919C910E94CF0840E060E0D1
:10339000F801818192810E949F086EED70E0D80152
:1033A00011968D919C910E940101F801128E41E0CD
:1033B00060E0D80111968D919C910E949F08D801E0
:1033C0001396ED91FC91149786A597A5892B39F456
:1033D0006DE172E011968D919C910E94480AD8018E
:1033E0001396ED91FC91149786A597A50197D1F4BA
:1033F00069E272E011968D919C910E94480AD80171
:103400001396ED91FC91149762A573A511968D9179
:103410009C910E94330969E472E0F80181819281F4
:103420000E94480AD8011396ED91FC91149786A545
:1034300097A5029739F460E372E011968D919C9103
:103440000E94480A41E06EE0F801818192810E9469
:103450009F08C8010E944A0A17CD5A968C915A9724
:10346000882379F011968D919C910E94CF08F1EFFD
:10347000CF2EF8EDDF2EF801D08EC78AD68AC58A06
:10348000128ED8015396AD90BC904501EFEF8E1A85
:103490009E0AB5E1AB16B10419F488248A94982CDD
:1034A00040E060E0D80111968D919C910E949F08A8
:1034B0006CE071E0F801818192810E9401016AE073
:1034C00071E0D80111968D919C910E94010187E0D5
:1034D0008A9DF0018B9DF00D1124ED5AFE4FE08086
:1034E000F180B701F801818192810E94330968E07F
:1034F00071E0D80111968D919C910E940101B7FC59
:1035000096C0D8011396ED91FC911497EE0CFF1C18
:10351000EE0DFF1D55962D913C915697808191811E
:103520002817390709F479C040E065E011968D91BC
:103530009C910E949F08F801218D8181928165E014
:1035400071E0211102C062E071E00E94010140E0DF
:1035500068E0D80111968D919C910E949F086CEFB4
:1035600070E0F801818192810E94010140E068E0F1
:10357000D80111968D919C910E949F0827E02A9D69
:10358000C0012B9D900D1124FC01ED5AFE4F6F01DF
:10359000A480B580D8011396ED91FC91EE0DFF1D2E
:1035A00060817181072E000C880B990B0E944122CB
:1035B0002B013C01F60162817381072E000C880B00
:1035C000990B0E9441229B01AC01C301B2010E94F0
:1035D0009721AB01BC019501D80111968D919C9169
:1035E0000E94690961EF70E0F801818192810E9477
:1035F0000101D60116968C91882379F040E06FE0A6
:10360000F801818192810E949F086FEE70E0D801DD
:1036100011968D919C910E940101F8018381948102
:10362000E80EF91ED7018D919C91968B858B41E018
:1036300060E0F801818192810E949F08D801119673
:103640008D919C91129797FC04C059962C9122233E
:1036500029F06CE372E00E94480A16CC6BE472E039
:103660000E94480A6DE472E0F801818192810E9413
:10367000480A27E0289DC001299D900D11249C0136
:103680002D5A3E4F6901D901ED90FC90B701F80128
:10369000818192810E9433096FE472E0D801119612
:1036A0008D919C910E94480AF7FCEECBD8011396AD
:1036B000ED91FC911497EE0CFF1CEE0DFF1D57963B
:1036C0002D913C915897808191812817390709F4F1
:1036D00063C041E065E011968D919C910E949F0826
:1036E00061E572E0F801818192810E94480A41E01F
:1036F00068E0D80111968D919C910E949F0862E428
:1037000072E0F801818192810E94480A41E068E0FC
:10371000D80111968D919C910E949F08F601A4807A
:10372000B580D8011396ED91FC91EE0DFF1D6081DF
:103730007181072E000C880B990B0E9441222B01EE
:103740003C01F60162817381072E000C880B990BF6
:103750000E9441229B01AC01C301B2010E9497214A
:10376000AB01BC019501D80111968D919C910E94ED
:103770006909F6018681882379F041E06FE0D8017C
:1037800011968D919C910E949F0864E572E0F8016A
:10379000818192810E94480AD80113968D919C9153
:1037A0001497E80EF91EF7018081918158969C9339
:1037B0008E93579769CB1E96ED91FC911F97379783
:1037C000EE30F10500F5E551F44E11968D919C9186
:1037D00040E00C948C235D1C571C511C4B1C451C59
:1037E0003F1C391C331C2D1C271C211C1B1C111CAD
:1037F000F91B64E00E949F0868E271E0F801818192
:1038000092810E940101F80186859785019797872B
:103810008687892B09F038CB83E690E0918B808BEB
:1038200033CB64E00E949F0866E271E0D8011196F4
:103830008D919C91E6CF65E00E949F0864E271E063
:10384000DDCF65E00E949F0862E271E0EFCF66E0A5
:103850000E949F0860E271E0D1CF66E00E949F085D
:103860006EE171E0E3CF67E00E949F086CE171E0D8
:10387000C5CF67E00E949F086AE171E0D7CF69E099
:103880000E949F0868E171E0B9CF69E00E949F083B
:1038900066E171E0CBCF6AE00E949F0864E171E0CD
:1038A000ADCF6AE00E949F0862E171E0BFCF6BE09C
:1038B0000E949F0860E171E0A1CF6BE00E949F0829
:1038C0006EE071E0B3CF40E060E0F8018181928169
:1038D0000E949F086CE372E0D80111968D919C9133
:1038E0000E94480A41E060E0F801818192810E94D3
:1038F0009F086CE372E0D80111968D919C910E9413
:10390000480AF80181819281DC011B961C9260E0DB
:103910000E94980554E6C52ED12CF801D8CC1196FA
:103920008D919C9128E0FC01238760E00E9498051E
:10393000D8011E96ED91FC911F973B97EE31F10552
:1039400008F030C0E655F34E11968D919C9140E001
:103950000C948C238A1D841D7E1D781D721D6C1D88
:10396000661D601D5A1D541D4E1D481D421D3C1DE7
:10397000361D301D2A1D241D1E1D181D121D0C1D57
:10398000061D001DFA1CF41CEE1CE81CDE1CC81CE5
:1039900060E00E949F0865E771E0F80181819281F3
:1039A0000E940101F8018685978501979787868790
:1039B000892B09F069CA84E090E030CF60E00E9472
:1039C0009F0863E771E0D80111968D919C91E8CF33
:1039D00061E00E949F0861E771E0DFCF61E00E9433
:1039E0009F086FE671E0EFCF62E00E949F086DE6EE
:1039F00071E0D3CF62E00E949F086BE671E0E3CFF5
:103A000063E00E949F0869E671E0C7CF63E00E940F
:103A10009F0867E671E0D7CF64E00E949F0865E6E3
:103A200071E0BBCF64E00E949F0863E671E0CBCFFA
:103A300065E00E949F0861E671E0AFCF65E00E94FB
:103A40009F086FE571E0BFCF66E00E949F086DE5BB
:103A500071E0A3CF66E00E949F086BE571E0B3CFF1
:103A600068E00E949F0869E571E097CF68E00E94D6
:103A70009F0867E571E0A7CF69E00E949F0865E5B0
:103A800071E08BCF69E00E949F0863E571E09BCFF6
:103A90006AE00E949F0861E571E07FCF6AE00E94C2
:103AA0009F086FE471E08FCF6BE00E949F086DE488
:103AB00071E073CF6BE00E949F086BE471E083CFED
:103AC0006CE00E949F0869E471E067CF6CE00E949F
:103AD0009F0867E471E077CF6DE00E949F0865E47E
:103AE00071E05BCF6DE00E949F0863E471E06BCFF3
:103AF0006EE00E949F0861E471E04FCF6EE00E948B
:103B00009F086FE371E05FCF6FE00E949F086DE355
:103B100071E043CF6FE00E949F086BE371E053CFE9
:103B2000309204042FEF3FEF3A8B298BE0910C0485
:103B3000F0910D0480A191A1C988DA88D1A6C0A610
:103B400096012130310509F087C10E947907E09183
:103B50000C04F0910D0400A111A184A195A126A14E
:103B600037A18F3F980719F52F3F320701F515A3AD
:103B700004A3B80182E190E00E94C205E0910C0428
:103B8000F0910D0417A306A3B80183E190E02DC0C6
:103B900080910404882309F4A4C91092040441E02C
:103BA00050E05A8B498BC2CF1A8A198ABFCFAC0119
:103BB000421B530B14161506D4F082179307B9F461
:103BC000C901801B910B181619061CF0C801821B35
:103BD000930B883097400CF03AC12017310794F2CC
:103BE00015A304A3B80182E190E00E94C2050091F0
:103BF0000C0410910D04D8019496CD90DC9095970B
:103C00009696ED91FC91C6018E1B9F0B97FF03C00A
:103C10009195819591098C32B1E09B070CF047C1D9
:103C2000F80113A212A2C090DE03D090DF03E0904F
:103C3000E003F090E103F4E1CF0ED11CE11CF11C94
:103C40000E94BA03C616D706E806F90608F08BC02C
:103C500081E00E940207181619060CF478C0E09162
:103C60000C04F0910D0484A595A5019709F06FC08F
:103C700080913604909137040E94A10685FF67C0A9
:103C8000609130047091310480912E0490912F0442
:103C90000E94BF06BC0190E080E00E943F2222E02B
:103CA0003EE041E65FE30E94F6226B017C010E9448
:103CB00063032B013C018090EA039090EB03A090FA
:103CC000EC03B090ED0320E030E04AEF53E4C5018F
:103CD000B4010E94922187FF0AC020E030EC41E449
:103CE00055E4C701B6010E94F1221816F4F020E055
:103CF00030E04AEF53E4C701B6010E94922187FFEA
:103D00000AC020E030EC41E455E4C501B4010E9452
:103D1000F122181654F020E03CE34CE156E4C501D2
:103D2000B4010E949221811110C1C092EA03D09285
:103D3000EB03E092EC03F092ED030E9463036093C7
:103D4000E2037093E3038093E4039093E5030E94FE
:103D500079070E94BA036093DE037093DF038093B8
:103D6000E0039093E103E0910C04F0910D0482A133
:103D700093A1892B71F082A593A5809751F480A51A
:103D800091A5029731F4A0910E04B0910F045896BA
:103D90003C92DF01A057BE4F8C91811130924204BA
:103DA00082819381039729F0E0910E04F0910F0432
:103DB000108EC090E603D090E703E090E803F09007
:103DC000E903F8EECF0EF3E0DF1EE11CF11C0E94C8
:103DD000BA03C616D706E806F906E0F4E09108042F
:103DE000F0910904878D8325878F0E94BA03609321
:103DF000E6037093E7038093E8039093E903E0916F
:103E00000C04F0910D04EE5AFF4F808191810196D0
:103E100091838083E0910C04F0910D0486AD97AD01
:103E2000181619060CF097C10B970CF098C180E09A
:103E300090E0892B11F40C9486120E948F01882344
:103E400011F40C9486120E9400000C948612021742
:103E500013070CF0C5CE96CE29893A892230310558
:103E600009F0C5CE24A135A1A901481B590B141690
:103E700015061CF0AC01421B530B66A177A19B01F8
:103E8000281B390B121613061CF09C01261B370B3E
:103E9000473951050CF4ABCE273931050CF4A7CEC8
:103EA0008FEF9FEF95A384A397A386A3A0CED801FD
:103EB00090962D913C919197EE24E394F12C93965A
:103EC000FC92EE9292978930974044F0E05FF14F78
:103ED000283057E0350714F4205F314F84E1C80ED5
:103EE000D11C0D2C000CEE08FF08032E000C440B17
:103EF000550B2C193D094E095F09A0E7B0E00E945F
:103F0000E9209F0124513109032E000C440B550B6D
:103F10002C193D094E095F090E94CA20205E3F4FBF
:103F20004F4F5F4FD8019B963C932E939A97213920
:103F3000310514F020E930E02032310514F420E29C
:103F400030E0F80133A722A76ECE2091E203309132
:103F5000E3034091E4035091E5032D873E874F87AB
:103F6000588BA5019401C701B6010E9425214B0180
:103F70005C010091F2031091F30320E030E0A9010D
:103F80000E94F12287FDD2C00230110534F40F5F88
:103F90001F4F1093F3030093F2038091F20390916B
:103FA000F3030196039708F4C0CE00910C0410911E
:103FB0000D0420E030E0A901C701B6010E94F12202
:103FC00020E030E040E05FE387FDB8C0C701B60104
:103FD0000E9426210E940922D8015F967C936E934D
:103FE0005E9720E030E0A901C501B4010E94F122F2
:103FF00018160CF4A8C0C501B401905820E030E0B8
:1040000048E453E40E94922187FF8FCE20E034E2FF
:1040100044EF58E4C501B4010E94F62220E030E0EC
:1040200040E251E40E94F6224B015C01A30192019F
:104030008D859E85AF85B889281B390B4A0B5B0B94
:10404000A3E0B0E00E94E9200E943F229B01AC0166
:10405000C501B4010E9497214B015C01D801DC9697
:104060006D917C91072E000C880B990B0E944122C8
:104070009B01AC01C501B4010E949721209100046D
:10408000309101042F5F3F4F3093010420930004CF
:104090002330310521F41092010410920004E091C4
:1040A0000004F0910104EE0FFF1FEE0FFF1FEA5313
:1040B000FC4F66A777A780AB91AB2091F8033091B6
:1040C000F9034091FA035091FB036091F40370915E
:1040D000F5038091F6039091F7030E942621209129
:1040E000FC033091FD034091FE035091FF030E94B9
:1040F000262120E030E040E450E40E9497214B016B
:104100005C0120E030E0A9010E94F12220E030E0D3
:1041100040E05FE387FD1AC0C501B4010E9426217B
:104120000E940922F80177AF66AFFFCD0F3F3FEF46
:1041300013070CF432CF015011092BCFC701B60180
:104140000E94252147CFC501B40158CFC501B40154
:104150000E942521E5CF863F9F4F0CF068CEEE5A96
:10416000FF4F1182108263CEF999FECF92BD81BDBF
:10417000F89A992780B50895262FF999FECF1FBA8E
:1041800092BD81BD20BD0FB6F894FA9AF99A0FBE80
:1041900001960895052E97FB1EF400940E94E120DD
:1041A00057FD07D00E94F42007FC03D04EF40C9476
:1041B000E12050954095309521953F4F4F4F5F4FEF
:1041C000089590958095709561957F4F8F4F9F4F83
:1041D00008950E941621A59F900DB49F900DA49F55
:1041E000800D911D11240895A1E21A2EAA1BBB1B5C
:1041F000FD010DC0AA1FBB1FEE1FFF1FA217B307B3
:10420000E407F50720F0A21BB30BE40BF50B661FC8
:10421000771F881F991F1A9469F76095709580958C
:1042200090959B01AC01BD01CF010895A29FB00103
:10423000B39FC001A39F700D811D1124911DB29FDA
:10424000700D811D1124911D08955058BB27AA2778
:104250000E943D210C94B7220E94A92238F00E94AE
:10426000B02220F039F49F3F19F426F40C94A622D2
:104270000EF4E095E7FB0C94A022E92F0E94C822DF
:1042800058F3BA17620773078407950720F079F48B
:10429000A6F50C94EA220EF4E0950B2EBA2FA02D71
:1042A0000B01B90190010C01CA01A0011124FF27E3
:1042B000591B99F0593F50F4503E68F11A16F040DE
:1042C000A22F232F342F4427585FF3CF46953795DD
:1042D0002795A795F0405395C9F77EF41F16BA0BA2
:1042E000620B730B840BBAF09150A1F0FF0FBB1F50
:1042F000661F771F881FC2F70EC0BA0F621F731F99
:10430000841F48F4879577956795B795F7959E3FF5
:1043100008F0B0CF9395880F08F09927EE0F979586
:10432000879508950E947C2208F481E008950E94F8
:10433000AB210C94B7220E94B02258F00E94A9220F
:1043400040F029F45F3F29F00C94A02251110C9405
:10435000EB220C94A6220E94C82268F39923B1F3A1
:10436000552391F3951B550BBB27AA27621773079B
:10437000840738F09F5F5F4F220F331F441FAA1F2F
:10438000A9F335D00E2E3AF0E0E832D091505040EB
:10439000E695001CCAF72BD0FE2F29D0660F771F99
:1043A000881FBB1F261737074807AB07B0E809F07F
:1043B000BB0B802DBF01FF2793585F4F3AF09E3F04
:1043C000510578F00C94A0220C94EB225F3FE4F3AB
:1043D000983ED4F3869577956795B795F7959F5F47
:1043E000C9F7880F911D9695879597F90895E1E093
:1043F000660F771F881FBB1F621773078407BA07F2
:1044000020F0621B730B840BBA0BEE1F88F7E0954C
:1044100008950E9410226894B1110C94EB22089523
:104420000E94D02288F09F5798F0B92F9927B75152
:10443000B0F0E1F0660F771F881F991F1AF0BA9548
:10444000C9F714C0B13091F00E94EA22B1E008959A
:104450000C94EA22672F782F8827B85F39F0B93F8C
:10446000CCF3869577956795B395D9F73EF49095FB
:104470008095709561957F4F8F4F9F4F0895E89479
:1044800009C097FB3EF490958095709561957F4F9C
:104490008F4F9F4F9923A9F0F92F96E9BB2793954A
:1044A000F695879577956795B795F111F8CFFAF45A
:1044B000BB0F11F460FF1BC06F5F7F4F8F4F9F4F8B
:1044C00016C0882311F096E911C0772321F09EE8E9
:1044D000872F762F05C0662371F096E8862F70E04F
:1044E00060E02AF09A95660F771F881FDAF7880F29
:1044F0009695879597F90895990F0008550FAA0B7F
:10450000E0E8FEEF16161706E807F907C0F01216E6
:104510001306E407F50798F0621B730B840B950BE9
:1045200039F40A2661F0232B242B252B21F408953E
:104530000A2609F4A140A6958FEF811D811D0895DB
:1045400097F99F6780E870E060E008959FEF80EC46
:10455000089500240A9416161706180609060895E9
:1045600000240A9412161306140605060895092E4F
:104570000394000C11F4882352F0BB0F40F4BF2BBE
:1045800011F460FF04C06F5F7F4F8F4F9F4F0895FE
:1045900057FD9058440F551F59F05F3F71F04795F4
:1045A000880F97FB991F61F09F3F79F087950895D9
:1045B000121613061406551FF2CF4695F1DF08C0F8
:1045C000161617061806991FF1CF86957105610515
:1045D00008940895E894BB2766277727CB0197F9BD
:1045E00008950E947C2208F48FEF08950E94092309
:1045F0000C94B7220E94A92238F00E94B02220F029
:10460000952311F00C94A0220C94A62211240C9452
:10461000EB220E94C82270F3959FC1F3950F50E0E2
:10462000551F629FF001729FBB27F00DB11D639F64
:10463000AA27F00DB11DAA1F649F6627B00DA11D0A
:10464000661F829F2227B00DA11D621F739FB00DB0
:10465000A11D621F839FA00D611D221F749F332720
:10466000A00D611D231F849F600D211D822F762FB9
:104670006A2F11249F5750409AF0F1F088234AF096
:10468000EE0FFF1FBB1F661F771F881F9150504002
:10469000A9F79E3F510580F00C94A0220C94EB22C8
:1046A0005F3FE4F3983ED4F3869577956795B79589
:1046B000F795E7959F5FC1F7FE2B880F911D9695A3
:1046C000879597F908950E947C22880B990B08958D
:1046D000DB018F939F930E94E920BF91AF91A29F2E
:1046E000800D911DA39F900DB29F900D11240895F0
:1046F00097FB072E16F4009407D077FD09D00E948F
:10470000922307FC05D03EF4909581959F4F089524
:10471000709561957F4F0895EE0FFF1F0590F491FE
:10472000E02D0994AA1BBB1B51E107C0AA1FBB1FA8
:10473000A617B70710F0A61BB70B881F991F5A952D
:10474000A9F780959095BC01CD0108950F931F9313
:10475000CF93DF938230910510F482E090E0E091F6
:104760004504F091460430E020E0B0E0A0E030974E
:1047700099F42115310509F44AC0281B390B24305E
:104780003105D8F58A819B816115710589F1FB019D
:1047900093838283FE0111C0408151810281138184
:1047A00048175907E0F04817590799F4109761F036
:1047B00012960C93129713961C933296CF01DF91A9
:1047C000CF911F910F9108950093450410934604D3
:1047D000F4CF2115310551F04217530738F0A901E4
:1047E000DB019A01BD01DF01F801C1CFEF01F9CF73
:1047F0009093460480934504CDCFFE01E20FF31F52
:10480000819391932250310939832883D7CF209106
:10481000430430914404232B41F420913B01309117
:104820003C0130934404209343042091390130919A
:104830003A012115310541F42DB73EB740913D01B4
:1048400050913E01241B350BE0914304F091440448
:10485000E217F307A0F42E1B3F0B2817390778F057
:10486000AC014E5F5F4F2417350748F04E0F5F1FB6
:104870005093440440934304819391939FCFF0E07D
:10488000E0E09CCFCF93DF930097E9F0FC013297F3
:1048900013821282A0914504B0914604ED0130E0EC
:1048A00020E01097A1F420813181820F931F209185
:1048B0004304309144042817390709F061C0F0938C
:1048C0004404E0934304DF91CF910895EA01CE17A9
:1048D000DF07E8F54A815B819E0141155105B1F77B
:1048E000E901FB83EA8349915991C40FD51FEC1765
:1048F000FD0761F4808191810296840F951FE90183
:1049000099838883828193819B838A83F0E0E0E0AE
:1049100012968D919C9113970097B9F52D913C912A
:104920001197CD010296820F931F2091430430917D
:1049300044042817390739F6309751F51092460488
:1049400010924504B0934404A0934304BCCFD38396
:10495000C28340815181840F951FC817D90761F424
:104960004E5F5F4F88819981480F591F5183408363
:104970008A819B81938382832115310509F0B0CF11
:10498000F0934604E09345049ECFFD01DC01C0CFC7
:0A49900013821282D7CFF894FFCFF4
:10499A00010A0A1F1F1F0E04040E1F1F1F1F1F1FBD
:1049AA001F0E1B111F1F1F1F1F0E1B11111F1F1F61
:1049BA001F0E1B1111111F1F1F0E1B111111111F89
:1049CA001F0E1B11111111111F0000470480000056
:1049DA00004000140054000000000076082501ACD5
:1049EA0005C6030C0001000000000D000A000100CA
:1049FA00000E000A0001000023000100000000264A
:104A0A00000100000000270001000000000F000A5A
:104A1A00000100001B0001000000011C000A000147
:104A2A0000001D000A000100001E000A000100002B
:104A3A001F000A0001000010000A00010000120015
:104A4A000A0001000013000A00010000150001001D
:104A5A000000001B0001000000010000010001002D
:104A6A00010B0001000100002800010000000029DC
:104A7A000001000000002A000100000001000000FF
:104A8A0000C501250152011202830161017501006D
:104A9A0000000064053705AC051405F1002405156E
:104AAA00056E616E00696E66006F766600202020D2
:104ABA00202053544F50202000544143543A2000A0
:104ACA0020202020214252414B4521002020202035
:104ADA00202020202020202020202020005B005D94
:064AEA00002D3E00450016
:00000001FF
