:100000000C94BD000C94E5000C94E5000C94E50004
:100010000C94E5000C94E5000C94E5000C94E500CC
:100020000C94E5000C94E5000C94E5000C94E500BC
:100030000C94E5000C94E5000C94E5000C94E500AC
:100040000C94510F0C94E5000C941F0F0C94F90EB6
:100050000C94E5000C94E5000C94E5000C94E5008C
:100060000C949B0F0C94E500000000002500280074
:100070002B000000000023002600290000000008DB
:10008000000201000003040700000000000000005F
:100090004E002D004F002D0043002D0049002D0083
:1000A00053002D0055002D004D002D00204D2055F2
:1000B000205320492043204F204E2020004500207F
:1000C0002020202020202020200020202020200070
:1000D0002D3E00203D005D005B003E0045002D00F0
:1000E00059002D0042002D0044002D004F002D002E
:1000F0004F002D0047002D004241545445525920D5
:100100004348415247494E470047002D004E002DBD
:100110000049002D0047002D0052002D0041002D08
:100120000048002D0043002D0059002D0052002DE5
:100130000045002D0054002D0054002D0041002DDD
:100140000042002D0000000000240027002A0001CA
:10015000020408102040800102040810200102045B
:10016000081020040404040404040402020202022D
:100170000203030303030300BA1011241FBECFEFD1
:10018000D8E0DEBFCDBF12E0A0E0B1E0E8EFFDE4D3
:1001900002C005900D92A437B107D9F724E0A4E777
:1001A000B2E001C01D92A736B207E1F710E0CDEB37
:1001B000D0E004C02197FE010E94BB25CC3BD107B3
:1001C000C9F70E94BC110C94FA260C94000091E02F
:1001D00090933A03809339031092380310923703B7
:1001E00008958091150390911603891B990B08952A
:1001F00008950895DC01ED91FC910190F081E02DCE
:100200000994EF92FF920F931F93CF93DF938C018A
:100210007B01D0E0C0E0F701EC0FFD1F6491662385
:1002200061F0D801ED91FC910190F081E02DC801C1
:100230000995892B11F02196EECFCE01DF91CF9158
:100240001F910F91FF90EF900895AF92BF92CF92C0
:10025000DF92EF92FF920F931F93CF93DF936C0186
:100260007B018B01040F151FEB015E01AE18BF0867
:10027000C017D10759F06991D601ED91FC91019019
:10028000F081E02DC6010995892B79F7C501DF9131
:10029000CF911F910F91FF90EF90DF90CF90BF9083
:1002A000AF900895FC01538D448D252F30E0842FAD
:1002B00090E0821B930B541710F0CF96089501978E
:1002C0000895FC01918D828D981761F0A28DAE0F7B
:1002D000BF2FB11D5D968C91928D9F5F9F73928F02
:1002E00090E008958FEF9FEF0895FC01918D828D2E
:1002F000981731F0828DE80FF11D858D90E00895FB
:100300008FEF9FEF0895FC01918D228D892F90E052
:10031000805C9F4F821B91098F73992708958BE30F
:1003200093E00E94830121E0892B09F420E0822FD1
:10033000089580E090E0892B29F00E948F018111BF
:100340000C9400000895FC01A48DA80FB92FB11DD5
:10035000A35ABF4F2C91848D90E001968F739927FB
:10036000848FA689B7892C93A089B1898C918370D9
:1003700080648C93938D848D981306C00288F389D2
:10038000E02D80818F7D80830895EF92FF920F93FF
:100390001F93CF93DF93EC0181E0888F9B8D8C8D31
:1003A00098131AC0E889F989808185FF15C09FB725
:1003B000F894EE89FF896083E889F98980818370E8
:1003C000806480839FBF81E090E0DF91CF911F9197
:1003D0000F91FF90EF900895F62E0B8D10E00F5FB8
:1003E0001F4F0F731127E02E8C8D8E110CC00FB68E
:1003F00007FCFACFE889F989808185FFF5CFCE0126
:100400000E94A301F1CFEB8DEC0FFD2FF11DE35AFC
:10041000FF4FF0829FB7F8940B8FEA89FB898081A8
:100420008062CFCFCF93DF93EC01888D8823B9F022
:10043000AA89BB89E889F9898C9185FD03C08081EF
:1004400086FD0DC00FB607FCF7CF8C9185FFF2CF6C
:10045000808185FFEDCFCE010E94A301E9CFDF911E
:10046000CF910895833081F028F4813099F0823063
:10047000A9F008958730A9F08830C9F08430B1F42C
:10048000809180008F7D03C0809180008F77809362
:100490008000089584B58F7784BD089584B58F7DDD
:1004A000FBCF8091B0008F778093B000089580914A
:1004B000B0008F7DF9CFCF93DF93282F30E0F90183
:1004C000E458FF4F8491F901E15BFE4FD491F901AB
:1004D000ED59FE4FC491CC23A1F081110E9432024C
:1004E000EC2FF0E0EE0FFF1FEE58FF4FA591B491F7
:1004F000EC91ED2381E090E009F480E0DF91CF9171
:10050000089580E090E0FACF1F93CF93DF93282FD8
:1005100030E0F901E458FF4F8491F901E15BFE4FAF
:10052000D491F901ED59FE4FC491CC23A9F0162FB7
:1005300081110E943202EC2FF0E0EE0FFF1FE8590C
:10054000FF4FA591B4918FB7F894EC91111108C0A9
:10055000D095DE23DC938FBFDF91CF911F9108955B
:10056000DE2BF8CFCF93DF9390E0FC01E15BFE4FF1
:1005700024918D599E4FFC0184918823C9F090E00D
:10058000880F991FFC01EB5BFE4FA591B491FC0114
:10059000E859FF4FC591D49161110DC09FB7F894F0
:1005A0008C91209582238C938881282328839FBF58
:1005B000DF91CF910895623051F49FB7F8943C9148
:1005C000822F809583238C93E8812E2BEFCF8FB7DA
:1005D000F894EC912E2B2C938FBFEACF1F93CF93DF
:1005E000DF93182FEB0161E00E94B202209739F4EB
:1005F00060E0812FDF91CF911F910C948402CF3F57
:10060000D10511F461E0F5CFE12FF0E0E458FF4FA0
:10061000E491E33031F140F4E130B1F0E230E1F067
:10062000C038D1057CF7E4CFE73029F1E83059F143
:10063000E430B1F780918000806280938000D09395
:100640008B00C0938A0004C084B5806884BDC7BD98
:10065000DF91CF911F91089584B5806284BDC8BD9C
:10066000F7CF80918000806880938000D0938900CC
:10067000C0938800EDCF8091B00080688093B00077
:10068000C093B300E5CF8091B00080628093B0004A
:10069000C093B400DDCF2091380190E4299F9001F0
:1006A00011248E50822B80937C0080917A0080648C
:1006B00080937A0080917A0086FDFCCF809178004B
:1006C0009091790008953FB7F8948091BD02909180
:1006D000BE02A091BF02B091C00226B5A89B05C082
:1006E0002F3F19F00196A11DB11D3FBFBA2FA92FB1
:1006F000982F8827BC01CD01620F711D811D911DAE
:1007000042E0660F771F881F991F4A95D1F7089519
:100710008F929F92AF92BF92CF92DF92EF92FF9211
:100720004B015C010E9463036B017C010E94630327
:100730006C197D098E099F09683E734081059105FA
:10074000A8F321E0821A9108A108B10888EEC80E2A
:1007500083E0D81EE11CF11C81149104A104B104B2
:1007600029F7FF90EF90DF90CF90BF90AF909F90D0
:100770008F9008952FB7F8946091B9027091BA02E2
:100780008091BB029091BC022FBF089508952091E3
:100790009502260F3327331F21323105ECF42091C7
:1007A0000F03FC0190E080E0243069F082E00895BE
:1007B000A09195022191AC014B585D4FA40FB52F2C
:1007C000B11D2C930196861798F380919502680FBE
:1007D0006093950280E0089581E0089510920F03E0
:1007E00081E080930E031092090361E082E10E9490
:1007F000840261E083E10E948402E9EBF0E0808101
:100800008E7F808380818D7F808388E48093B80091
:1008100085E48093BC000895CF93DF9391E090939B
:1008200074028823B9F0C091B800D091BA008091C9
:10083000BC008A7B8093BC0060E082E10E9484025D
:1008400060E083E10E9484020E94EE03D093BA002C
:10085000C093B800DF91CF910895CF92DF92EF92CD
:10086000FF920F931F93CF93DF93D091370381E0D3
:10087000D13208F09CC0C09139030E9463036B0120
:100880007C0180910F0381116CC082E080930F0383
:1008900081E080930E038FEF80930D0310920C0381
:1008A000D0930B03A9ECB2E0E9EEF2E080E0D813BC
:1008B0008DC010920A0380910A03CC0FC82BC093FD
:1008C0000A0380910903813009F084C01092090362
:1008D0000E9463036B017C0180910A038093BB003B
:1008E0008091110390911203A0911303B09114030E
:1008F000892B8A2B8B2BA1F00E946303009111039B
:100900001091120320911303309114036C197D0987
:100910008E099F09061717072807390708F442C0F0
:100920008091BC0083FDD8CF85EC8093BC000E94F1
:1009300063036B017C0180910F03823009F44CC08A
:1009400080910D038F3F09F469C080910D038032BF
:1009500009F466C080910D03803309F463C084E01C
:1009600026C08091110390911203A0911303B091BE
:100970001403892B8A2B8B2B09F483CF0E946303EA
:10098000009111031091120320911303309114036D
:100990006C197D098E099F09061717072807390763
:1009A00008F06FCF809110030E940C0485E0109234
:1009B00038031092370310923A03DF91CF911F91C1
:1009C0000F91FF90EF90DF90CF9008959D919193BC
:1009D0008F5F6DCF85EEA9CF8091110390911203A7
:1009E000A0911303B0911403892B8A2B8B2B09F44C
:1009F000A2CF0E9463030091110310911203209172
:100A00001303309114036C197D098E099F09061791
:100A100017072807390708F08ECFC4CF80E0C7CF6B
:100A200082E0C5CF83E0C3CF0895E09116038091A3
:100A30001503E81730F4F0E0E95EFC4F808190E0A8
:100A400008958FEF9FEF08959091160380911503FD
:100A50002FEF3FEF981748F4E92FF0E0E95EFC4FE5
:100A6000208130E09F5F90931603C9010895CF92D3
:100A7000DF92EF92FF920F931F93CF93DF937C014E
:100A8000CB018A0120913A03222389F0EB016B010B
:100A9000C40ED51ECC15DD0569F06991D701ED9125
:100AA000FC910190F081E02DC7010995F3CF642FEF
:100AB0000E94C703C801DF91CF911F910F91FF9052
:100AC000EF90DF90CF900895CF93DF931F92CDB733
:100AD000DEB7698320913A032223F9F0209137038E
:100AE000203258F021E030E0FC013383228390E093
:100AF00080E00F90DF91CF91089580913803E82F27
:100B0000F0E0E753FD4F998190838F5F8093380326
:100B10008093370381E090E0ECCF61E0CE01019655
:100B20000E94C703F7CF682F88ED93E00C9464050B
:100B30000F931F93CF938C01C62FFC0184810E94D9
:100B4000E700F80183858C2B90E00E949305CF91FC
:100B50001F910F910C942D0490E080E008958EBDBC
:100B600000000DB407FEFDCF8EB50895CF93C82FBA
:100B70000E94E7000E942D04811102C0C093C302AD
:100B8000CF910895CF92DF92EF92FF920F931F9330
:100B9000CF93C82F0E9463036B017C0180910F03E8
:100BA000811164C081E080930F0380930E039FEF57
:100BB00090930D0310920C0310920B0380930A0381
:100BC00080910A03CC0FC82BC0930A0380910903BC
:100BD000813009F07DC0109209030E9463036B010C
:100BE0007C0180910A038093BB0080911103909156
:100BF0001203A0911303B0911403892B8A2B8B2B22
:100C0000A1F00E946303009111031091120320913F
:100C10001303309114036C197D098E099F0906177F
:100C200017072807390708F442C08091BC0083FDEC
:100C3000D8CF85EC8093BC000E9463036B017C01DC
:100C400080910F03813009F445C080910C0381111C
:100C500063C080910C03E9EEF2E0A7E1B3E090E01D
:100C6000981751F121912D939F5FFACF8091110335
:100C700090911203A0911303B0911403892B8A2B36
:100C80008B2B09F48BCF0E94630300911103109109
:100C9000120320911303309114036C197D098E09FE
:100CA0009F09061717072807390708F077CF8091A3
:100CB00010030E940C0480E0109216038093150329
:100CC000CF911F910F91FF90EF90DF90CF900895FB
:100CD00085EEB0CF8091110390911203A091130380
:100CE000B0911403892B8A2B8B2B09F4A9CF0E9476
:100CF00063030091110310911203209113033091AB
:100D000014036C197D098E099F0906171707280718
:100D1000390708F095CFCBCF81E09DCFCF93DF93FC
:100D2000EC01809130040E94E700CE010E949305FF
:100D30000E942D0480913004909131040E94C205DC
:100D400090911503809116039817F1F388ED93E0C5
:100D5000DF91CF910C9424050F931F93CF93DF93D2
:100D60008C01EB01809130040E94E700CE010E94CB
:100D700093050E942D0480913004909131040E94CB
:100D8000C20590911503809116039817F1F388ED31
:100D900093E00E942405EC01809130040E94E7005A
:100DA000C8010E9493050E942D0480913004909107
:100DB00031040E94C2059091150380911603981783
:100DC000F1F388ED93E00E94240520E0382FC9015B
:100DD0008C2B9D2BDF91CF911F910F9108950F9335
:100DE0001F93CF938C01C62F0E9498056C2F6460CF
:100DF000C8010E9498056C2F6B7FC8010E9498055E
:100E000083EC90E00197F1F7CF911F910F91089536
:100E10000F931F93CF93DF938C01D62FC42F607F46
:100E2000642B0E94EF0680E1D89FB00111246C2B47
:100E3000C801DF91CF911F910F910C94EF0641E013
:100E40000E94080781E090E00895EF92FF920F93CF
:100E50001F93CF93DF938C017A0188E0689FB001E4
:100E60001124606440E0C8010E940807E70188E09F
:100E7000E80EF11C6991C8010E941F07CE15DF051D
:100E8000C9F7DF91CF911F910F91FF90EF900895D7
:100E9000CF93DF93CDB7DEB728970FB6F894DEBFB8
:100EA0000FBECDBF28E0EFE3F1E0DE011196019027
:100EB0000D922A95E1F7FC012185241708F44FEFE4
:100EC00050E0440F551F21E030E02C0F3D1F420F32
:100ED000531FFA012081620F606840E028960FB628
:100EE000F894DEBF0FBECDBFDF91CF910C94080701
:100EF00040E061E00E9408078BE39FE10197F1F772
:100F00000895FB0101900020E9F73197AF01461BDE
:100F1000570BDC01ED91FC910280F381E02D0994E7
:100F20008F929F92AF92BF92EF92FF920F931F9377
:100F3000CF93DF93CDB7DEB7A1970FB6F894DEBF9E
:100F40000FBECDBF7C01FA01CB0119A2223008F4FB
:100F50002AE08E010F5D1F4F822E912CB12CA12C07
:100F6000BF01A50194010E942323F901CA016A303F
:100F70000CF5605DD8016E938D01232B242B252B5E
:100F800079F790E080E0109721F0BD01C7010E9441
:100F90008107A1960FB6F894DEBF0FBECDBFDF91DB
:100FA000CF911F910F91FF90EF90BF90AF909F90C6
:100FB0008F900895695CDECFCF92DF92EF92FF921F
:100FC0000F931F93CF93DF936B01770FEE08FF080A
:100FD000F7FE1BC0EC016DE20E94FA008C01442771
:100FE0005527BA014C195D096E097F092AE0CE0127
:100FF0000E949007800F911FDF91CF911F910F9159
:10100000FF90EF90DF90CF9008952AE0B701A601FE
:10101000DF91CF911F910F91FF90EF90DF90CF90D4
:101020000C9490074F925F926F927F928F929F9253
:10103000AF92BF92EF92FF920F931F93CF93DF93E4
:101040008C014A015B01E22EAB019401CB01B4019A
:101050000E9492256DE272E0811126C024013501C3
:10106000E89477F82FEF3FEF4FE75FE7C301B20156
:101070000E94922581110CC02FEF3FEF4FE75FE7F1
:10108000C301B2010E94C12361E372E0181664F04B
:101090002FEF3FEF4FE75FE4C501B4010E94202529
:1010A00018169CF465E372E0C801DF91CF911F919F
:1010B0000F91FF90EF90BF90AF909F908F907F9097
:1010C0006F905F904F900C9481072FEF3FEF4FE7A9
:1010D0005FECC501B4010E94C12387FDE3CF20E08E
:1010E00030E0A901C501B4010E94C123D0E0C0E0F5
:1010F00087FF09C06DE2C8010E94FA00EC01B7FA4F
:10110000B094B7F8B094FE2C712C60E070E080E0F1
:101110009FE37E1440F420E030E040E251E40E947E
:10112000C6237394F6CFA50194010E9455234B0169
:101130005C010E943F242B013C012AE0BC01A2017A
:10114000C8010E949007C80FD91FEE20D1F1C3013A
:10115000B2010E946E249B01AC01C501B4010E9442
:1011600054234B015C016EE2C8010E94FA00C80FD3
:10117000D91FFA948FEFF81621F120E030E040E219
:1011800051E4C501B4010E9425252B013C010E94B8
:101190003F244B01B12CA12C2AE0B501A401C801C8
:1011A0000E949007C80FD91FC501B4010E946E2488
:1011B0009B01AC01C301B2010E9454234B015C01AD
:1011C000D8CFCE01DF91CF911F910F91FF90EF907B
:1011D000BF90AF909F908F907F906F905F904F9057
:1011E00008950C9481070F931F93CF93DF93EC0125
:1011F00089819A81EB81FC81E85BFF4F20813181FD
:101200002130310509F05BC0DC01ED91FC910190CA
:10121000F081E02D66E00995EB81FC81DF01A25BA6
:10122000BF4F8D919C91019709F054C0028D138D91
:101230008D8D9E8D049714F01E8E1D8E8D8D9E8D2E
:10124000892B99F589819A81DC01ED91FC910190BE
:10125000F081E02D6B8D09958B8D9C8D01969C8F77
:101260008B8F069714F1033A110524F084E090E087
:101270009C8F8B8FC801865991090D9720F483E0CC
:1012800090E09C8F8B8FC8018C5891090A9720F4AD
:1012900082E090E09C8F8B8FC801825891090A9759
:1012A00098F481E090E09C8F8B8F8D8D9E8D0196C0
:1012B0009E8F8D8FDF91CF911F910F91089568E6DA
:1012C00072E00E94F108A8CF0238110574F71C8E55
:1012D0001B8EEBCFEA5BFF4F0081118104361105B5
:1012E00051F489819A81DC01ED91FC910190F081AA
:1012F000E02D65E00995C8018B549109499750F498
:1013000089819A81DC01ED91FC910190F081E02DC1
:1013100064E00995C801C297499750F489819A8180
:10132000DC01ED91FC910190F081E02D63E00995E5
:10133000C8014997499750F489819A81DC01ED9160
:10134000FC910190F081E02D62E0099589819A81FC
:1013500098012150310928313105D0F4DC01ED919B
:10136000FC910190F081E02D61E0099568E672E062
:1013700089819A810E94F10817FF9CCF68E672E08C
:1013800089819A81DF91CF911F910F910C94F1087F
:101390000115110559F72F8D222341F3DC01ED9141
:1013A000FC910190F081E02D60E0DF91CF911F91E1
:1013B0000F91099485ED8093BC0080911103909169
:1013C0001203A0911303B09114030796A11DB11D40
:1013D00023E0B695A795979587952A95D1F7209103
:1013E000BC0024FD03C010920F0308954091110327
:1013F000509112036091130370911403452B462BF7
:10140000472B69F30097A105B10541F02AE22A951F
:10141000F1F700C00197A109B109E1CF8091100354
:101420000C940C04BF92CF92DF92EF92FF920F9335
:101430001F93CF93DF93EC018B01B42E6B01CC0C87
:10144000DD1C7C01EC0CFD1CF70140835183222341
:1014500049F0652FC6010E94EB226B2DC601019653
:101460000E94EB220C51110902301105F0F4FE012B
:10147000E85AFF4F8AAD9BAD25E0880F991F2A954A
:10148000E1F72AE030E0B9010E94A725718360836B
:10149000329688AD99AD45E0880F991F4A95E1F7DE
:1014A000B9010E94A72571836083F7018081918132
:1014B000DF91CF911F910F91FF90EF90DF90CF9030
:1014C000BF900895CF93C82FE0912C04F0912D0484
:1014D000E05BFF4F808191819C012A5231092230CB
:1014E0003105B0F48B9791F461E001C0660FCA95A5
:1014F000EAF7C62F80E70E94E7006C2F88ED93E0A3
:101500000E9464050E942D04CF910895CC5FF2CF14
:1015100080E70E94E70061E070E00C2E01C0660FDA
:101520000A94EAF788ED93E00E9464050E942D0476
:1015300086E30E94E7000E942D04811119C020E07B
:1015400041E050E066E170E080912C0490912D0420
:101550000E94120A20E04BE250E068E270E08091C5
:101560002C0490912D040E94120A90E080E0CCCFD0
:1015700080E70E94E70064E06C0F88ED93E00E9432
:1015800064050E942D0486E30E94E7000E942D045A
:10159000E0912C04F0912D0420E081110BC041E07A
:1015A00050E066E170E0CF010E94120A20E04AE2BA
:1015B00050E0D3CF50E040E066E170E0CF010E9400
:1015C000120A20E050E040E068E270E080912C04D4
:1015D00090912D040E94120A82E090E095CF80E065
:1015E0000E94620A18161906A4F1E0912C04F091E9
:1015F0002D0484A595A5019761F5809156049091DD
:1016000057040E948E0685FF24C06091500470919B
:10161000510480914E0490914F040E94AC06BC018D
:1016200090E080E00E946E2422E03EE041E65FE32D
:101630000E9425250E94382420E0AB0160E170E083
:1016400080912C0490912D040E94120A81E08093D5
:1016500025040895CF92DF92EF92FF926B017C01F7
:101660000E94BA03AB01BC014C195D096E097F09E8
:1016700041158DE758076105710568F420E06BE0BE
:1016800070E080912C0490912D04FF90EF90DF90FA
:10169000CF900C94120AFF90EF90DF90CF900895B6
:1016A0007F928F929F92AF92BF92CF92DF92EF92F2
:1016B000FF920F931F93CF93DF93EC01B62EA72ECB
:1016C000922E832E742EF52E60E08AE00E94840212
:1016D00003E210E0C8010197F1F78B2D0E94AF05DE
:1016E0008F2D0E94AF05C12CD12C7601C82AFE2C6B
:1016F000ED2CDC2CCC24872D0E94AF05C82AFE2CB3
:10170000ED2CDC2CCC24882D0E94AF05C82AFE2CA1
:10171000ED2CDC2CCC24892D0E94AF05C82AC801F1
:101720000197F1F761E08AE00E9484028A899B892F
:101730008F369105B9F4A60153705A8F498F20E076
:1017400068E170E0888199810E94120AA7014F71B7
:1017500055275C8F4B8F20E069E170E0888199818B
:101760000E94120A8A899B89429751F4DE8ECD8E9F
:1017700020E0A6016AE170E0888199810E94120A46
:10178000BA8AAB8ADF91CF911F910F91FF90EF90B2
:10179000DF90CF90BF90AF909F908F907F900895F3
:1017A0006F927F928F929F92AF92BF92CF92DF9271
:1017B000EF92FF920F931F93CF93DF936C0183E01F
:1017C0008093380162E085E00E94B202D0922B043F
:1017D000C0922A0481E991E00E94D525EC0180E9BC
:1017E00091E0FE019C01119221503040E1F74E0141
:1017F00030E7831A3EEF930AF40110825E01EE2473
:10180000E394F12C10E000E077247394C801880F72
:10181000991F0E94E322682EC7010E94E322262D11
:1018200030E0322F2227820F932F911DF5018193F3
:1018300091935F01073C110511F4F40170820F5F71
:101840001F4FF2E0EF0EF11C083C1105F9F68881FC
:101850009981893E934009F4AEC010E000E021E098
:1018600050E040E0B801CE010E94120A0F5F1F4F06
:10187000083C1105A1F721E049EE53E070E060E07B
:10188000CE010E94120A21E043E050E061E070E0E6
:10189000CE010E94120A21E04EEF51E064E070E0B8
:1018A000CE010E94120A21E040E451E065E070E0C0
:1018B000CE010E94120A21E045EF50E066E070E0A0
:1018C000CE010E94120A21E04AEA50E067E070E08F
:1018D000CE010E94120A21E04EE150E068E070E083
:1018E000CE010E94120A21E050E040E061E170E088
:1018F000CE010E94120A21E04FEF5FEF62E170E03B
:10190000CE010E94120A21E04FEF5FEF63E170E029
:10191000CE010E94120A21E04AEE56E06BE170E02F
:10192000CE010E94120A21E04AE050E06CE170E032
:10193000CE010E94120A21E04DE250E06DE170E01C
:10194000CE010E94120A21E04CE350E06EE170E00B
:10195000CE010E94120A21E04CE350E060E270E008
:10196000CE010E94120A21E044E650E061E270E0FC
:10197000CE010E94120A21E04FE750E062E270E0DF
:10198000CE010E94120A21E048E552E065E270E0D3
:10199000CE010E94120A21E048E552E06AE270E0BE
:1019A000CE010E94120A21E050E040E06EE270E0B9
:1019B000CE010E94120AFE01E85AFF4F8AAD9BAD8C
:1019C00025E0880F991F2A95E1F72AE030E0B90158
:1019D0000E94A72571836083329688AD99AD45E05A
:1019E000880F991F4A95E1F7B9010E94A7257183D5
:1019F0006083D0932D04C0932C04E0914B03F091AD
:101A00004C0382E08083E0914B03F0914C03108201
:101A1000E0914703F09148031082E0914903F0916F
:101A20004A0380E1808310925303E0914F03F091C9
:101A3000500386E08083E0914D03F0914E03808156
:101A400080618083E0914D03F0914E038081886036
:101A50008083E0914D03F0914E0380818068808304
:101A6000E0914D03F0914E0380818F7D8083109231
:101A700016031092150310923803109237030E9438
:101A8000EE0388EF90E09093C6028093C50289EF41
:101A900090E09093C8028093C7028CE08093B800D6
:101AA00080E290E00E94D525EC01E0902C04F090BB
:101AB0002D04188281E08D8384E190E09F878E87DA
:101AC000198A188A1A8A1C8A1B8A1E8A1D8A188EED
:101AD0001F8A198E1A8E1C8E1B8E1E8E1D8E1F8EB7
:101AE000FC82EB82DA82C982D0932904C093280455
:101AF0008AE390E00E94D5258C01FC0110821582BA
:101B0000168217821086168E158E14AA13AA15AA8D
:101B100016AA17AA10AE82E381AFF282E182D483C3
:101B2000C38361E087E00E94B20261E087E00E9427
:101B3000840260E086E00E94B20261E083E00E94DD
:101B4000B20220E043E050E061E070E0F801818102
:101B500092810E94120A109327040093260480E2C7
:101B600090E00E94D525EC0180912C0490912D04E9
:101B70001A821B821C821D821E821F821886198671
:101B80001A861B861C861D861F861E86188A198A41
:101B90001B8A1A8A1C8A1D8A1E8A1F8A188E1A8E10
:101BA000198E1C8E1B8E1E8E1D8E1F8E9983888310
:101BB00061E08AE00E94B20261E089E00E94B20224
:101BC00061E088E00E94B20261E08AE00E94840243
:101BD00080E48093800089E08093810010928900E6
:101BE000109288008CB58F7D8CBD8CB58C7F826007
:101BF0008CBD8DB58E7F8DBD8CB58C608CBD1FB7B7
:101C0000F8948091C402811127C0EDE6F1E084913F
:101C1000E9E5F1E09491E82FF0E0EE0FFF1FEB5BB8
:101C2000FE4FA591B491EC91E92321F461E08AE0A3
:101C30000E94840261E08AE00E94B2028CB5806159
:101C40008CBD8CB580648CBD61E08DE00E94B202D9
:101C500061E08BE00E94B2028091C4028F5F8093AA
:101C6000C4021FBF20E030E0A9016BE870E0CE01A4
:101C70000E94500B23EC30E041E050E06CEE70E04D
:101C8000CE010E94500B20E630E047E050E06DEEC0
:101C900070E0CE010E94500B24E030E040E050E0C4
:101CA00060E870E0CE010E94500B25E03EE044E089
:101CB00050E060E970E0CE010E94500B23E030E07C
:101CC00040E050E061E970E0CE010E94500B24EF4B
:101CD00031E040E050E063E970E0CE010E94500B3B
:101CE00028EB3BE040E050E064E970E0CE010E9468
:101CF000500B20E931E040E050E065E970E0CE01B2
:101D00000E94500B21E030E040E050E063EA70E0D8
:101D1000CE010E94500B2AE030E040E050E064EA3F
:101D200070E0CE010E94500B2AE030E040E050E02D
:101D300065EA70E0CE010E94500B28E33EE040E0EF
:101D400050E066EA70E0CE010E94500B2AE030E0DD
:101D500040E050E067EA70E0CE010E94500B24EFB3
:101D600031E040E050E068EA70E0CE010E94500BA4
:101D700024EF31E040E050E06AEA70E0CE010E94DA
:101D8000500B2AE030E040E050E06BEA70E0CE011A
:101D90000E94500B21E030E040E050E060EA70E04B
:101DA000CE010E94500B20E030ED47E050E06DEA9C
:101DB00070E0CE010E94500BD0932F04C0932E04EC
:101DC00020E050E040E067E170E080912C049091C9
:101DD0002D04DF91CF911F910F91FF90EF90DF9035
:101DE000CF90BF90AF909F908F907F906F900C940A
:101DF000120A1F920F920FB60F9211242F933F9346
:101E00004F935F936F937F938F939F93AF93BF9302
:101E1000EF93FF938BE393E00E94A301FF91EF9177
:101E2000BF91AF919F918F917F916F915F914F91F2
:101E30003F912F910F900FBE0F901F9018951F92FA
:101E40000F920FB60F9211242F938F939F93EF93BE
:101E5000FF93E0914B03F0914C038081E09151039B
:101E6000F091520382FD1BC09081809154038F5FDB
:101E70008F7320915503821741F0E0915403F0E0F5
:101E8000E55CFC4F958F80935403FF91EF919F91F8
:101E90008F912F910F900FBE0F901F9018958081FA
:101EA000F4CF1F920F920FB60F9211242F933F93EE
:101EB0008F939F93AF93BF938091B9029091BA0291
:101EC000A091BB02B091BC023091B80223E0230F75
:101ED0002D3758F50196A11DB11D2093B8028093AE
:101EE000B9029093BA02A093BB02B093BC02809156
:101EF000BD029091BE02A091BF02B091C0020196B6
:101F0000A11DB11D8093BD029093BE02A093BF029C
:101F1000B093C002BF91AF919F918F913F912F914C
:101F20000F900FBE0F901F90189526E8230F029672
:101F3000A11DB11DD2CF1F920F920FB60F92112487
:101F40002F933F934F935F936F937F938F939F93C1
:101F5000AF93BF93EF93FF938091B900887F803652
:101F600009F44AC0F0F5883209F4A7C018F58031A9
:101F700009F49BC0B8F4882309F4F9C0883009F447
:101F800094C0FF91EF91BF91AF919F918F917F91FD
:101F90006F915F914F913F912F910F900FBE0F90D6
:101FA0001F901895883109F488C0803251F78093CA
:101FB0000D0314C0803409F49DC040F48033B9F39C
:101FC0008833F9F680930D0385ECB0C0803509F4B1
:101FD00085C0883509F496C0883499F60E94DA09DC
:101FE000D0CF883909F48CC038F5883729F050F4FF
:101FF000883611F0803729F683E080930F03109222
:10200000B70257C0883809F47BC0803919F080388E
:1020100009F0B7CF8091B702803208F071C0E0912B
:10202000B70281E08E0F8093B7028091BB00F0E091
:10203000E956FD4F80833DC0803B39F0E0F4803AA3
:1020400009F479C0883A09F09CCF84E080930F03AB
:102050001092960210929502E091C502F091C6028C
:1020600009958091950281110FC081E080939502BE
:102070001092750209C0803C09F4A6CF883C09F48F
:10208000A3CF883B09F07DCFE091960281E08E0FCF
:1020900080939602F0E0EB58FD4F80818093BB0067
:1020A000909196028091950229C080910A038093B5
:1020B000BB0085EC8093BC0064CF90910C038091B1
:1020C0000B03981758F5E0910C0381E08E0F809375
:1020D0000C03F0E0E751FD4F8081E9CFE0910C0364
:1020E00081E08E0F80930C038091BB00F0E0E751FC
:1020F000FD4F808390910C0380910B039817C8F2D9
:1021000085E8D8CFE0910C0381E08E0F80930C031B
:102110008091BB00F0E0E751FD4F808380910E037A
:1021200081115CCF81E08093090384EA8093BC0035
:1021300010920F0326CF85EC8093BC0010920F0302
:102140008091B702803230F4E091B702F0E0E956B6
:10215000FD4F10826091B70270E0E091C702F091EC
:10216000C80287E992E009951092B7020ACF10924F
:102170000D0334CFCF93DF93EBE3F3E013821282AE
:1021800088EE93E0A0E0B0E084839583A683B783D4
:102190002DE032E03183208325EC30E03587248741
:1021A00024EC30E03787268720EC30E0318B208B21
:1021B00021EC30E0338B228B22EC30E0358B248B0A
:1021C00026EC30E0378B268B118E128E138E148EF8
:1021D000E8EDF3E01382128284839583A683B783AC
:1021E0008FE192E091838083E4EEF3E0108211822C
:1021F00012821382148215821682178280E09DE774
:10220000A0E0B0E080879187A287B3871486158607
:1022100016861786108A118A128A138A148A158ADA
:10222000168A178A108E118E128E138E148E158EAA
:10223000168E178E10A211A212A213A280E09CE3A8
:10224000ACE1B6E484A395A3A6A3B7A310A611A6F8
:1022500012A613A615A614A6A6E1B4E088E0ED0127
:1022600019928A95E9F780E090E0A8ECB2E486A79D
:1022700097A7A0ABB1AB13AE12AE15AE14AE17AEAE
:1022800016AE1092250486E390E09093310480937B
:10229000300410923D0410923C0481E090E0909351
:1022A0003F0480933E0482E090E090934104809349
:1022B000400483E090E0909343048093420484E0E0
:1022C00090E0909345048093440485E090E09093DF
:1022D00047048093460486E090E0909349048093FD
:1022E000480487E090E090934B0480934A0488E090
:1022F00090E090934D0480934C048CE090E0909398
:102300004F0480934E048DE090E0909351048093AD
:1023100050048EE090E090935304809352048FE039
:1023200090E090935504809354048BE090E0909358
:102330005704809356048AE190E090935904809367
:1023400058048BE190E090935B0480935A048CE1F5
:1023500090E090935D0480935C048FEF90E0909305
:102360005F0480935E0410926104109260041092E6
:102370006204DF91CF910895CF93DF93CDB7DEB79D
:1023800066970FB6F894DEBF0FBECDBF789484B5C4
:10239000826084BD84B5816084BD85B5826085BD61
:1023A00085B5816085BD80916E00816080936E00EF
:1023B00010928100809181008260809381008091E1
:1023C0008100816080938100809180008160809392
:1023D00080008091B10084608093B1008091B00052
:1023E00081608093B00080917A00846080937A004D
:1023F00080917A00826080937A0080917A00816077
:1024000080937A0080917A00806880937A0010929D
:10241000C10087E20E94B6058FE30E94B605809155
:10242000C302882309F4B6C01C821B822BE431E06E
:102430003A8329838D8380E1898782E08A871B869E
:1024400018E01C871092160310921503109238039F
:10245000109237030E94EE0388EF90E09093C6023B
:102460008093C50289EF90E09093C8028093C702E1
:102470001E828A85823008F01E839B85992329F06D
:10248000813019F48E8184608E8362E370E080E095
:1024900090E00E9488036C858E010F5F1F4FC8017A
:1024A0000E94980568EE73E080E090E00E94880347
:1024B00060E3C8010E94EF064BE4E42E46E4F42EEC
:1024C000C7010197F1F760E3C8010E94EF06C70159
:1024D0000197F1F760E3C8010E94EF0683E592E0FF
:1024E0000197F1F760E2C8010E94EF066E81606219
:1024F00040E0C8010E94080784E08F8340E06CE060
:10250000C8010E940807C8010E94780782E08887F6
:1025100040E066E0C8010E94080740E062E0C801B0
:102520000E9408078BE39FE10197F1F740E351E038
:1025300060E0C8010E94250748E251E061E0C8015F
:102540000E94250740E251E062E0C8010E94250791
:1025500048E151E063E0C8010E94250740E151E0F5
:1025600064E0C8010E94250748E051E065E0C80129
:102570000E94250740E051E066E0C8010E9425075F
:102580008091C1029091C2020E9478071093C2020A
:102590000093C1028091C1029091C2020E94D00BAF
:1025A000332433940091280410912904D8011596FE
:1025B0008C911597882311F015961C92F801838150
:1025C0009481DC0154962D913C9140895189413090
:1025D000510509F4DAC54230510509F4EAC5D801BC
:1025E0001396ED91FC91149784899589892B11F4A8
:1025F00052961C9200912E0410912F04F8018081B4
:1026000091812189222309F4ADC620E042E050E007
:1026100067E170E00E94120A20E030E0A9016FE655
:1026200070E0C8010E94500B20E030E0A90162E197
:1026300070E0C8010E94500BD801ED91FC911197F8
:1026400086A597A58130910509F0B5C6E0ACF1AC3F
:1026500024AD35ADA6A8B7A842AD53AD54963C9273
:10266000429FC001439F900D529F900D112464E63C
:1026700070E00E94A7254B012E9DC0012F9D900D5B
:102680003E9D900D112464E670E00E94A7256A9D8E
:1026900060016B9DD00C7A9DD00C1124F12CE12CA3
:1026A000DF01A65ABF4F4D905C90052C000C6608C8
:1026B000770822A533A5032E000C440B550B2419D3
:1026C000350946095709A89CB001A99C700DB89C12
:1026D000700D112490E080E06C197D098E099F092E
:1026E0000E949725E85AFF4F20813181032E000C6C
:1026F000440B550B24193509460957090E94F92244
:10270000C20ED31EE41EF51EF801848960E081111B
:1027100001C061E088E00E948402A701960167EA97
:1027200070E0C8010E94500B0E94BA03D801ED91DD
:10273000FC91DF01A65ABF4F4D915C9122A533A5B4
:102740004217530741F420A531A52230310519F471
:10275000D80150961C9226AD37AD37FF03C0319596
:1027600021953109DF01A05CBF4F4D915C91241789
:1027700035070CF031C6F80166837783808791872F
:10278000683EF3E07F078105910560F4D801129659
:10279000CD90DD90ED90FC901597CD28CE28CF28D8
:1027A00009F43FC6F8012189222391F0C280D38029
:1027B000E480F5806C197D098E099F09693C7105DB
:1027C0008105910528F01282138214821582118AE4
:1027D000F801C284D384E484F584F8EECF0EF3E0EC
:1027E000DF1EE11CF11C0E94BA03C616D706E806DC
:1027F000F906B0F5D8018D919C911197FC0126A5A1
:1028000037A521303105D1F41E964D915C911F976B
:10281000268D378D421B530B9A012B5B3F4F2B3874
:10282000310560F450963C9257FF03C05195419595
:10283000510920E06BE270E00E94120A0E94BA0384
:10284000D8011A966D937D938D939C931D97ED916E
:10285000FC911197868D978D1F969C938E931E9752
:10286000D801ED91FC9186A597A5019769F00E948A
:10287000BA03F801628773878487958730E1432E16
:1028800037E2532E57864686D8018D919C91119739
:10289000FC01E05AFF4F208131811216130654F4D7
:1028A000825A9F4FFC01808191812817390714F4C7
:1028B00050963C9200912604109127040E94BA037E
:1028C00028EC30E040E050E00E942323672B682B87
:1028D000692B09F035C181E10E944B03D801D396E1
:1028E000ED90FC906701CC0CDD1CC00ED11EBC012C
:1028F000990F880B990B0E9470242DEC3CEC4CE84E
:102900005AE30E94252520E030E04EE453E40E9483
:1029100025250E943824F60170A3678FFFEFEF1A78
:10292000FF0A2AE0E216F10409F484C5D801D4961E
:10293000FC92EE92D397F8017F9698012D5C3F4F61
:1029400090E080E041915191840F951F2E173F0731
:10295000C9F76AE070E00E94A725AB0120E06DE0B6
:1029600070E0D80111968D919C910E94120AD801B5
:102970001196ED91FC91129786A597A5019711F4F8
:1029800016963C92428D538D848D958D2A01481A5E
:10299000590AC20145975CF0D80116961C9248501E
:1029A000510920E06EE070E0CF010E94120AF801A8
:1029B00081819281DC015A964D915C915B97FC017B
:1029C000E25BFF4F208131812130310509F036C5AE
:1029D000F80116824850510920E06EE070E00E9434
:1029E000120A85E10E944B038E5F9140BC01990F52
:1029F000880B990B0E94702422E335E540E550E4F2
:102A00000E9425259B01AC010E945523D8015D96AB
:102A1000CD90DC907601EE0CFF1CE00EF11E0E94C2
:102A20003824F70172876187FFEFCF1ADF0A2AE0A7
:102A3000C216D10409F411C5D8015E96DC92CE927B
:102A40005D97F80139969801235E3F4F90E080E052
:102A500041915191840F951F2E173F07C9F76AE0E6
:102A600070E00E94A725AB0120E06CE070E0D80187
:102A700011968D919C910E94120AF8018181928198
:102A8000FC01E85BFF4F208131812130310571F479
:102A9000DC0158962D913C91293C31053CF020E019
:102AA00041E050E067E270E00E94120AF801818183
:102AB0009281FC01E85BFF4F20813181232B39F0AB
:102AC000DC0158962D913C91243631053CF420E0F0
:102AD00050E040E067E270E00E94120AF801E180F5
:102AE000F280D7015A968D919C9120E04FEF5FEFD5
:102AF00005970CF1F701248D358D2639310514F039
:102B000025E930E02F37310514F42FE730E0032EAC
:102B1000000C440B550B2F57310941095109A4E60C
:102B2000B0E00E94182326E130E040E050E00E942F
:102B3000F922A90120E063E270E0C7010E94120AB5
:102B400086E00E945B02019709F08BC4D8011896B9
:102B50008C911897811185C417963C9286E00E944B
:102B60005B0221E0892B09F420E0D80118962C9310
:102B7000189711968D919C911297FC01C280D38079
:102B8000F3E0CF16D104F9F417962C912223D9F053
:102B900020E044E050E061E070E00E94120AD801B9
:102BA0001396ED90FC90F701818192810E94780745
:102BB000D7015196DC92CE92509784E190E01F9617
:102BC0009C938E931E97F80181819281DC0112966D
:102BD0002D913C91232B09F5FC01E25BFF4F2081F5
:102BE000318121303105C9F420E041E050E061E05D
:102BF00070E00E94120AF801E380F480D701119678
:102C00008D919C910E94780785E690E0F701918B69
:102C1000808B88E290E097878687D80111968D9106
:102C20009C91FC01228133812130310519F5E25B51
:102C3000FF4F20813181232BE9F420E044E050E074
:102C400061E070E00E94120AD8011396ED90FC90AA
:102C5000F701818192810E94780783E090E0D7019B
:102C600051969C938E93509784E190E01F969C938D
:102C70008E931E97F80181819281DC0112962D912D
:102C80003C9113972230310570F427812111F0C354
:102C9000DE962D913C91121613060CF0E5C32F31F0
:102CA00031050CF0E5C3F80181819281DC011296B7
:102CB000ED90FC90FC01E85BFF4F208131812130D9
:102CC000310509F001C4B3E0EB16F10441F53C967F
:102CD0002081318132974081518124173507FCF4DE
:102CE00012161306E4F43A9620813181232BB9F4AD
:102CF00020E044E050E061E070E00E94120AF80138
:102D0000C380D480D60111968D919C910E94780742
:102D1000F601F18AE08A84E190E097878687F801DE
:102D200081819281DC0112962D913C9124303105F4
:102D3000C1F40380F481E02D2089318924363105E6
:102D400081F420E050E040E061E070E00E94120A6F
:102D500070E060E08FE00E94EE0260E087E00E9499
:102D60008402F801C5A8D6A8E7A8F0ACF8EECF0E0B
:102D7000F3E0DF1EE11CF11C0E94BA03C616D70661
:102D8000E806F90608F07FC0D8011196ED91FC9194
:102D90001297828193818330910509F0C6C38FEF2A
:102DA00015968C93D80115966C9170E08FE00E9477
:102DB000EE02F80181819281DC0158962D913C91BF
:102DC000293D3F4F0CF4BFC320E041E050E064E2F6
:102DD00070E00E94120AF80181819281FC01EA5B95
:102DE000FF4F2081318137FD05C03296208131812E
:102DF000232B21F420E4D801D9962C93FC01408D9B
:102E0000518DE65BFF4F20813181421753077CF4DF
:102E1000F801A1ADAF3F59F0FC01E85BFF4F6081C5
:102E200071816130710519F4AF5FF801A1AF245DC4
:102E30003E4F241735078CF4D801D9962C91D99799
:102E4000222359F0FC01E85BFF4F40815181413062
:102E5000510519F42150D9962C93F80141AD50E059
:102E600020E066E270E00E94120AD801D9966C91C7
:102E700070E083E00E94EE020E94BA03F80165ABA5
:102E800076AB87AB90AF0E94BA0328E230E040E017
:102E900050E00E942323672B682B692B09F007C1A0
:102EA00000912C0410912D0480E10E944B0320E03E
:102EB000AC0169E070E0C8010E94120AE0912C04A4
:102EC000F0912D042289338940855185808991892B
:102ED000BA01681B790B621773072CF5840F951FD5
:102EE0002817390704F520E042E050E06AE070E07E
:102EF000CF010E94120A6091F4037091F503809152
:102F0000F6039091F703611571058105910509F0AC
:102F10001EC30E94BA036093F4037093F503809379
:102F2000F6039093F703E0912C04F0912D0422898D
:102F300033894285538580899189BA01681B790B51
:102F4000621773072CF5840F951F2817390704F5AE
:102F500020E041E050E06AE070E0CF010E94120AF8
:102F60006091F4037091F5038091F6039091F7035B
:102F7000611571058105910509F0ECC20E94BA0343
:102F80006093F4037093F5038093F6039093F70333
:102F9000E0912C04F0912D042289338944855585D4
:102FA00080899189BA01681B790B621773072CF528
:102FB000840F951F2817390704F520E043E050E0FF
:102FC0006AE070E0CF010E94120A6091F4037091F0
:102FD000F5038091F6039091F70361157105810562
:102FE000910509F0BAC20E94BA036093F40370938A
:102FF000F5038093F6039093F703E0912C04F0918E
:103000002D04228933894685578580899189BA01A3
:10301000681B790B621773072CF5840F951F28170F
:10302000390704F520E044E050E06AE070E0CF01A9
:103030000E94120A6091F4037091F5038091F603E7
:103040009091F703611571058105910509F088C21A
:103050000E94BA036093F4037093F5038093F60320
:103060009093F70380912C0490912D04DC015296EB
:103070002D913C91293E3340D4F020E050E040E0D7
:103080006AE070E00E94120A20E050E040E06BE04D
:1030900070E080912C0490912D040E94120A1092ED
:1030A000F4031092F5031092F6031092F703C09008
:1030B000F803D090F903E090FA03F090FB03E0E509
:1030C000CE0ED11CE11CF11C0E94BA03C616D70615
:1030D000E806F90630F5809162048823C1F000917A
:1030E000280410912904D80150968D919C915197F4
:1030F0008330910509F417C50CF035C28130910574
:1031000009F4F2C20CF061C3892B09F459C20E9480
:10311000BA036093F8037093F9038093FA039093D2
:10312000FB0380916204882309F40AC78091250477
:10313000882309F405C785E00E945B02019729F402
:103140008091240481110C94182185E00E945B0277
:10315000019729F480912404882309F499C685E015
:103160000E945B02892B11F40C940B2185E00E94D4
:103170005B02892B09F092C68091240481118EC6CE
:1031800082E090E09E878D8789C6C90101970297EA
:1031900020F02430310509F022CAF801828981111A
:1031A0001ECA328E32E0432E512C518A408A328A16
:1031B00016CA2330310589F4D801228921110DC0A6
:1031C000328EE1E0F0E05196FC93EE9350975496E6
:1031D0001C921E92539752963C92DC0154962D916C
:1031E0003C912130310571F5F801228921112AC065
:1031F00023893489418D442309F492C047E0429FDA
:10320000F001439FF00D1124ED5AFE4F6081718152
:10321000FB01EE0FFF1FE80FF91F408151814F5F47
:103220005F4F21E00E94120A20E044EC5FEF69E268
:1032300070E0D80113968D919C910E94120AD801DA
:1032400052963C92F80183819481DC0154962D9131
:103250003C912230310511F5228921111FC02389AB
:103260003489418D442309F46CC047E0429FF0014A
:10327000439FF00D1124ED5AFE4F60817181FB01D7
:10328000EE0FFF1FE80FF91F408151814150510996
:1032900021E00E94120AD80152963C92D80113965E
:1032A000ED91FC91149784899589049751F5529674
:1032B0008C915297811125C051EF452E58ED552E16
:1032C00058965C924E92579756965C924E925597AE
:1032D00053968D919C9127E0289FD001299FB00D96
:1032E0001124AD5ABE4F16968C91882339F0D8011F
:1032F00059968C915997832559968C93D80152965B
:103300003C92848995890197029708F068C986895B
:1033100097898D3D95400CF462C9F801128A5FC906
:10332000B1EF4B2EB8ED5B2E508E478A568A458AF8
:10333000121613060CF083CF21503109348B238BE6
:103340007ECF61EF462E68ED562E508E478A568A04
:10335000458A2F5F3F4F2A31310508F09CCF348BCF
:10336000238B99CFFC01E65AFF4F40815181DC014C
:103370009A962D913C919B974217530731F498965A
:103380002D913C912230310571F0F801278D2223D7
:1033900051F0DC0112962D913C912330310519F446
:1033A0002089222321F020E050E040E031C920E0D4
:1033B00041E050E02DC9029731F0F801148AC12C88
:1033C000D12C7601A1C954963C9248EEC42E43E01C
:1033D000D42EE12CF12C98C9683EB3E07B0781051F
:1033E000910508F4D3C9D8011696CD90DD90ED90E3
:1033F000FC9019972B013C014C185D086E087F0862
:1034000073016201EE5BFF4F80809180092C000CFC
:10341000AA08BB088C149D04AE04BF0408F4B6C906
:10342000C1C912966D937D938D939C931597519678
:103430003C92B8C9F80114AA13AA7DCA5C962D91D2
:103440003C91F8016681611102C04850510924176E
:1034500035070CF0C1CAA901BFCAF801168E158E36
:10346000F0CAF80117827ACB223E3F4F0CF01BCCFA
:1034700020E043E050E061E070E00E94120A61E069
:1034800087E00E948402F801E380F480D70111965E
:103490008D919C910E947807F701118A108A84E12E
:1034A00090E0978786876FEF70E08FE00E94EE02D2
:1034B00020E050E040E069E270E0D80111968D9183
:1034C0009C910E94120AEFCBF3E0EF16F10409F091
:1034D00026CCFC01EC5AFF4F20813181329740818C
:1034E0005181241735070CF01ACC121613060CF074
:1034F00016CC20E044E050E061E070E00E94120A47
:10350000D8011396CD90DC90F601818192810E94C2
:103510007807D6015196FC92EE92509784E190E0A4
:103520001F969C938E931E97FACB009719F4F8017F
:10353000158238CC15962C911597019709F032CC4D
:103540002111F5CF2CCC20E050E040E040CC0E948F
:103550002A0BE9CC0E942A0B1BCD0E942A0B4DCDD1
:103560000E942A0B7FCD8336910509F464C385360A
:10357000910509F48CC3049709F0C9CD5A968C9132
:103580005A978823B1F011968D919C910E947807EB
:1035900040E060E0F801818192810E94480768EF75
:1035A00070E0D80111968D919C910E940101F80163
:1035B000128E41E06EE0D80111968D919C91FFC072
:1035C000F8018181928128E0DC011B962C9360E058
:1035D0000E949805D8011E96ED91FC911F97379790
:1035E000EE30F10500F5E550F54E11968D919C9168
:1035F00040E00C94BB256E1B681B621B5C1B561BBA
:10360000501B4A1B441B3E1B381B321B2C1B221B0E
:10361000091B61E00E9448076AEA70E0F8018181B5
:1036200092810E940101F80186859785019797870D
:10363000868744244394512C892B09F068CD518A04
:10364000408A65CD61E00E94480768EA70E0D801D1
:1036500011968D919C91E5CF63E00E94480766EA40
:1036600070E0DCCF63E00E94480764EA70E0EFCFCF
:1036700065E00E94480762EA70E0D0CF65E00E94F2
:10368000480760EA70E0E3CF67E00E9448076EE910
:1036900070E0C4CF67E00E9448076CE970E0D7CFC4
:1036A00069E00E9448076AE970E0B8CF69E00E94CB
:1036B000480768E970E0CBCF6BE00E94480766E9F5
:1036C00070E0ACCF6BE00E94480764E970E0BFCFC8
:1036D0006DE00E94480762E970E0A0CF6DE00E94B3
:1036E000480760E970E0B3CF5A968C915A978823C7
:1036F000B1F011968D919C910E94780740E060E0B6
:10370000F801818192810E9448076CEA70E0D8013B
:1037100011968D919C910E940101F801128E41E059
:1037200060E0D80111968D919C910E944807D801C4
:103730001396ED91FC91149786A597A5892B39F4E2
:1037400069E372E011968D919C910E94F108D80175
:103750001396ED91FC91149786A597A50197D1F446
:1037600065E472E011968D919C910E94F108D80158
:103770001396ED91FC91149762A573A511968D9106
:103780009C910E94DC0766E672E0F80181819281DB
:103790000E94F108D8011396ED91FC91149786A52B
:1037A00097A5029739F46DE472E011968D919C9182
:1037B0000E94F10841E06EE0F801818192810E944F
:1037C0004807C8010E94F308A2CC5A968C915A97D8
:1037D000882379F011968D919C910E94780771EF62
:1037E000472E78ED572EF801508E478A568A458A23
:1037F000128ED8015396AD90BC904501EFEF8E1A12
:103800009E0AB9E1AB16B10419F488248A94982C65
:1038100040E060E0D80111968D919C910E9448078C
:103820006AED70E0F801818192810E94010168EDEA
:1038300070E0D80111968D919C910E94010187E062
:103840008A9DF0018B9DF00D1124ED5AFE4FE08012
:10385000F180B701F801818192810E94DC0766ED59
:1038600070E0D80111968D919C910E940101B7FCE6
:1038700096C0D8011396ED91FC911497EE0CFF1CA5
:10388000EE0DFF1D55962D913C91569780819181AB
:103890002817390709F479C040E065E011968D9149
:1038A0009C910E944807F801218D8181928163EDEE
:1038B00070E0211102C060ED70E00E94010140E063
:1038C00068E0D80111968D919C910E9448076AEC9E
:1038D00070E0F801818192810E94010140E068E07E
:1038E000D80111968D919C910E94480727E02A9D4E
:1038F000C0012B9D900D1124FC01ED5AFE4F6F016C
:10390000A480B580D8011396ED91FC91EE0DFF1DBA
:1039100060817181072E000C880B990B0E94702426
:103920002B013C01F60162817381072E000C880B8C
:10393000990B0E9470249B01AC01C301B2010E944B
:10394000C623AB01BC019501D80111968D919C91C4
:103950000E9412086FEB70E0F801818192810E9451
:103960000101D60116968C91882379F040E06FE032
:10397000F801818192810E9448076DEB70E0D801C7
:1039800011968D919C910E940101F801838194818F
:10399000E80EF91ED7018D919C91968B858B41E0A5
:1039A00060E0F801818192810E944807D801119658
:1039B0008D919C91129797FC04C059962C912223CB
:1039C00029F069E572E00E94F108A1CB68E672E097
:1039D0000E94F1086AE672E0F801818192810E94FA
:1039E000F10827E0289DC001299D900D11249C011C
:1039F0002D5A3E4F6901D901ED90FC90B701F801B5
:103A0000818192810E94DC076CE672E0D8011196F8
:103A10008D919C910E94F108F7FC79CBD801139607
:103A2000ED91FC911497EE0CFF1CEE0DFF1D5796C7
:103A30002D913C915897808191812817390709F47D
:103A400063C041E065E011968D919C910E9448070A
:103A50006EE672E0F801818192810E94F10841E0F6
:103A600068E0D80111968D919C910E9448076FE5FE
:103A700072E0F801818192810E94F10841E068E0E2
:103A8000D80111968D919C910E944807F601A4805F
:103A9000B580D8011396ED91FC91EE0DFF1D60816C
:103AA0007181072E000C880B990B0E9470242B014A
:103AB0003C01F60162817381072E000C880B990B83
:103AC0000E9470249B01AC01C301B2010E94C62375
:103AD000AB01BC019501D80111968D919C910E947A
:103AE0001208F6018681882379F041E06FE0D80161
:103AF00011968D919C910E94480761E772E0F80150
:103B0000818192810E94F108D80113968D919C9138
:103B10001497E80EF91EF7018081918158969C93C5
:103B20008E935797F4CA1E96ED91FC911F97379785
:103B3000EE30F10500F5ED55F24E11968D919C9108
:103B400040E00C94BB25151E0F1E091E031EFD1D13
:103B5000F71DF11DEB1DE51DDF1DD91DD31DC91D71
:103B6000B11D64E00E94480766EF70E0F8018181B2
:103B700092810E940101F8018685978501979787B8
:103B80008687892B09F0C3CA83E690E0918B808BEE
:103B9000BECA64E00E94480764EF70E0D801119645
:103BA0008D919C91E6CF65E00E94480762EF70E03E
:103BB000DDCF65E00E94480760EF70E0EFCF66E080
:103BC0000E9448076EEE70E0D1CF66E00E94480781
:103BD0006CEE70E0E3CF67E00E9448076AEE70E0A9
:103BE000C5CF67E00E94480768EE70E0D7CF69E074
:103BF0000E94480766EE70E0B9CF69E00E9448076E
:103C000064EE70E0CBCF6AE00E94480762EE70E09D
:103C1000ADCF6AE00E94480760EE70E0BFCF6BE076
:103C20000E9448076EED70E0A1CF6BE00E9448074C
:103C30006CED70E0B3CF40E060E0F80181819281EB
:103C40000E94480769E572E0D80111968D919C9118
:103C50000E94F10841E060E0F801818192810E94B8
:103C6000480769E572E0D80111968D919C910E94F8
:103C7000F108F80181819281DC011B961C9260E0C1
:103C80000E94980534E6432E512CF801D8CC1196A9
:103C90008D919C9128E0FC01238760E00E949805AB
:103CA000D8011E96ED91FC911F973B97EE31F105DF
:103CB00008F030C0EE59F14E11968D919C9140E084
:103CC0000C94BB25421F3C1F361F301F2A1F241F88
:103CD0001E1F181F121F0C1F061F001FFA1EF41EA6
:103CE000EE1EE81EE21EDC1ED61ED01ECA1EC41E1C
:103CF000BE1EB81EB21EAC1EA61EA01E961E801EA4
:103D000060E00E94480763E471E0F80181819281DC
:103D10000E940101F801868597850197978786871C
:103D2000892B09F0F4C984E090E030CF60E00E9474
:103D3000480761E471E0D80111968D919C91E8CF1C
:103D400061E00E9448076FE371E0DFCF61E00E940D
:103D500048076DE371E0EFCF62E00E9448076BE334
:103D600071E0D3CF62E00E94480769E371E0E3CFDE
:103D700063E00E94480767E371E0C7CF63E00E94F9
:103D8000480765E371E0D7CF64E00E94480763E32A
:103D900071E0BBCF64E00E94480761E371E0CBCFE4
:103DA00065E00E9448076FE271E0AFCF65E00E94D6
:103DB00048076DE271E0BFCF66E00E9448076BE202
:103DC00071E0A3CF66E00E94480769E271E0B3CFDB
:103DD00068E00E94480767E271E097CF68E00E94C0
:103DE000480765E271E0A7CF69E00E94480763E2F7
:103DF00071E08BCF69E00E94480761E271E09BCFE0
:103E00006AE00E9448076FE171E07FCF6AE00E949C
:103E100048076DE171E08FCF6BE00E9448076BE1CE
:103E200071E073CF6BE00E94480769E171E083CFD6
:103E30006CE00E94480767E171E067CF6CE00E9488
:103E4000480765E171E077CF6DE00E94480763E1C4
:103E500071E05BCF6DE00E94480761E171E06BCFDC
:103E60006EE00E9448076FE071E04FCF6EE00E9465
:103E700048076DE071E05FCF6FE00E9448076BE09C
:103E800071E043CF6FE00E94480769E071E053CFD3
:103E9000309224042FEF3FEF3E872D8720E04D85A1
:103EA0005E8564E170E080912C0490912D040E9465
:103EB000120AAD85BE85119729F50E94EF0A8091FF
:103EC0002C0490912D04FC0100A111A124A135A185
:103ED00046A157A12F3F320709F0ADC14F3F54070C
:103EE00009F0A9C121E0A80162E170E00E94120A74
:103EF00021E0A80163E170E080912C0490912D04F1
:103F00000E94120A80912C0490912D04FC0144A07F
:103F100055A086A097A07201E818F908F7FE03C023
:103F2000F194E194F108FCE2EF16F1E0FF060CF0E9
:103F3000A9C120E050E040E061E170E00E94120A77
:103F4000C090FC03D090FD03E090FE03F090FF03CF
:103F500024E1C20ED11CE11CF11C0E94BA03C6165A
:103F6000D706E806F90608F08BC081E00E94620AD5
:103F7000181619060CF478C0E0912C04F0912D0469
:103F800084A595A5019709F06FC080915604909182
:103F900057040E948E0685FF67C06091500470919F
:103FA000510480914E0490914F040E94AC06BC01D4
:103FB00090E080E00E946E2422E03EE041E65FE374
:103FC0000E9425256B017C010E9463032B013C01AB
:103FD0008090080490900904A0900A04B0900B040B
:103FE00020E030E04AEF53E4C501B4010E94C12350
:103FF00087FF0AC020E030EC41E455E4C701B60178
:104000000E9420251816F4F020E030E04AEF53E437
:10401000C701B6010E94C12387FF0AC020E030EC2F
:1040200041E455E4C501B4010E942025181654F05E
:1040300020E03CE34CE156E4C501B4010E94C123F9
:104040008111A1C1C0920804D0920904E0920A042F
:10405000F0920B040E9463036093000470930104C8
:1040600080930204909303040E94EF0A0E94BA0313
:104070006093FC037093FD038093FE039093FF0312
:10408000E0912C04F0912D0482A193A1892BA1F041
:10409000DF01A65ABF4F2D913C9182A593A5281709
:1040A000390751F480A591A5029731F4A0912E040F
:1040B000B0912F045F963C92DF01A057BE4F8C91C8
:1040C00081113092620482819381039729F0E091FB
:1040D0002E04F0912F04178EC0900404D090050494
:1040E000E0900604F0900704B8EECB0EB3E0DB1EC0
:1040F000E11CF11C0E94BA03C616D706E806F906B1
:1041000008F069C0E0912804F0912904878D832587
:10411000878F0E94BA036093040470930504809310
:1041200006049093070480912C0490912D04FC01C7
:10413000EE5AFF4F408151814033E5E75E073CF482
:104140004F5F5F4F20E069E270E00E94120A8091A9
:104150002C0490912D04FC01E25AFF4F40815181C3
:104160004033F5E75F077CF4DC019E962D913C918E
:104170002130310509F017C24F5F5F4F20E06FE239
:1041800070E00E94120A4091220450912304809111
:104190002C0490912D04FC0162A573A59A01261BA5
:1041A000370B121613061CF09B01241B350B233012
:1041B00031058CF020E050E040E06FE270E00E94BA
:1041C000120AE0912C04F0912D0482A593A59093FE
:1041D00023048093220480912C0490912D04DC010F
:1041E000DE962D913C91121613060CF0E0C12B3097
:1041F00031050CF0E0C180E090E0892B11F40C94C3
:10420000D2120E948F01882311F40C94D2120E94C2
:1042100000000C94D21280912404882311F40C9491
:10422000B6181092240441E050E05E874D8736CEE8
:104230001E861D8633CEB901641B750B1616170634
:104240000CF460CE2417350709F05CCE9A01201BD0
:10425000310B121613061CF09801241B350B283065
:10426000374044F421E04017510744F4A80163E1CA
:1042700070E046CE21E004171507C4F3A80162E1FF
:1042800070E03ECEDC0190960D911C9120E041E063
:1042900050E061E170E00E94120AC0902C04D090BE
:1042A0002D04B9E0EB16B7E0FB066CF0F60186A032
:1042B00097A0F0EF8F1AF1EF9F0A083027E012075E
:1042C00014F4005F114FF601E85AFF4FA080B1804F
:1042D0003296E080F180C7010F2C000CAA0BBB0BBB
:1042E0008F87988BA98BBA8B94E1490E511C920150
:1042F000550C440B550B2B8B3C8B4D8B5E8B012E41
:10430000000C220B330BA90198014B885C886D8847
:104310007E882419350946095709B5010B2C000C74
:10432000880B990B4F84588869887A8864197509B5
:10433000860997090E949725940124513109032E7B
:10434000000C440B550B6B887C888D889E88261941
:104350003709480959090E94F9228F859889A98946
:10436000BA89820F931FA41FB51F8E159F052CF0CD
:104370007C01A816B9060CF4750120E0A70165E1DF
:1043800070E0C601DBCD8091000490910104A09102
:104390000204B09103048F87988BA98BBA8BA50177
:1043A0009401C701B6010E9454234B015C010091A6
:1043B00010041091110420E030E0A9010E94202592
:1043C00087FDDCC00230110534F40F5F1F4F1093DE
:1043D000110400931004809110049091110401962F
:1043E000039708F42FCE00912C0410912D0420E0A7
:1043F00030E0A901C701B6010E94202520E030E08D
:1044000040E05FE387FDC2C0C701B6010E945523AB
:104410000E94382420E0AB016FE070E0C8010E94E8
:10442000120A20E030E0A901C501B4010E94202554
:1044300018160CF4B0C0C501B401905820E030E06B
:1044400048E453E40E94C12387FFFCCD20E034E21E
:1044500044EF58E4C501B4010E94252520E030E076
:1044600040E251E40E9425254B015C01A301920129
:104470008F859889A989BA89281B390B4A0B5B0B50
:10448000A3E0B0E00E9418230E946E249B01AC01BF
:10449000C501B4010E94C6234B015C0100912C04AC
:1044A00010912D04D801DC966D917C91072E000CA3
:1044B000880B990B0E9470249B01AC01C501B401CB
:1044C0000E94C62320911E0430911F042F5F3F4F8E
:1044D00030931F0420931E042330310521F41092E1
:1044E0001F0410921E04E0911E04F0911F04EE0FB1
:1044F000FF1FEE0FFF1FEC51FC4F66A777A780ABA5
:1045000091AB2091160430911704409118045091FA
:104510001904609112047091130480911404909115
:1045200015040E94552320911A0430911B044091D8
:104530001C0450911D040E94552320E030E040E40B
:1045400050E40E94C6234B015C0120E030E0A90149
:104550000E94202520E030E040E05FE387FD1EC0A0
:10456000C501B4010E9455230E94382420E0AB010C
:104570006FE170E0C8010E94120A64CD0F3F9FEF07
:1045800019070CF428CF0150110921CFC701B6013A
:104590000E9454233DCFC501B40150CFC501B401E1
:1045A0000E945423E1CF20E050E040E0E8CD263FD8
:1045B0003F4F0CF020CE20E050E040E069E270E098
:1045C0000E94120A18CEF999FECF92BD81BDF89AC9
:1045D000992780B50895262FF999FECF1FBA92BD6D
:1045E00081BD20BD0FB6F894FA9AF99A0FBE0196D4
:1045F0000895052E97FB1EF400940E94102357FD8A
:1046000007D00E94232307FC03D04EF40C94102300
:1046100050954095309521953F4F4F4F5F4F0895EE
:1046200090958095709561957F4F8F4F9F4F08951E
:104630000E944523A59F900DB49F900DA49F800DCF
:10464000911D11240895A1E21A2EAA1BBB1BFD0186
:104650000DC0AA1FBB1FEE1FFF1FA217B307E40761
:10466000F50720F0A21BB30BE40BF50B661F771FB9
:10467000881F991F1A9469F7609570958095909599
:104680009B01AC01BD01CF010895A29FB001B39F72
:10469000C001A39F700D811D1124911DB29F700D4B
:1046A000811D1124911D08955058BB27AA270E94EF
:1046B0006C230C94E6240E94D82438F00E94DF2456
:1046C00020F039F49F3F19F426F40C94D5240EF40D
:1046D000E095E7FB0C94CF24E92F0E94F72458F3D0
:1046E000BA17620773078407950720F079F4A6F5D7
:1046F0000C9419250EF4E0950B2EBA2FA02D0B016A
:10470000B90190010C01CA01A0011124FF27591B16
:1047100099F0593F50F4503E68F11A16F040A22F1C
:10472000232F342F4427585FF3CF4695379527958D
:10473000A795F0405395C9F77EF41F16BA0B620B8C
:10474000730B840BBAF09150A1F0FF0FBB1F661FD3
:10475000771F881FC2F70EC0BA0F621F731F841F16
:1047600048F4879577956795B795F7959E3F08F03C
:10477000B0CF9395880F08F09927EE0F97958795FE
:1047800008950E94AB2408F481E008950E94DA2382
:104790000C94E6240E94DF2458F00E94D82440F0B4
:1047A00029F45F3F29F00C94CF2451110C941A2561
:1047B0000C94D5240E94F72468F39923B1F3552370
:1047C00091F3951B550BBB27AA2762177307840724
:1047D00038F09F5F5F4F220F331F441FAA1FA9F3BA
:1047E00035D00E2E3AF0E0E832D091505040E695A8
:1047F000001CCAF72BD0FE2F29D0660F771F881F09
:10480000BB1F261737074807AB07B0E809F0BB0BFB
:10481000802DBF01FF2793585F4F3AF09E3F51050F
:1048200078F00C94CF240C941A255F3FE4F3983E63
:10483000D4F3869577956795B795F7959F5FC9F7F8
:10484000880F911D9695879597F90895E1E0660F79
:10485000771F881FBB1F621773078407BA0720F0F2
:10486000621B730B840BBA0BEE1F88F7E09508955B
:104870000E943F246894B1110C941A2508950E9457
:10488000FF2488F09F5798F0B92F9927B751B0F0BF
:10489000E1F0660F771F881F991F1AF0BA95C9F7C4
:1048A00014C0B13091F00E941925B1E008950C9424
:1048B0001925672F782F8827B85F39F0B93FCCF3D7
:1048C000869577956795B395D9F73EF49095809541
:1048D000709561957F4F8F4F9F4F0895E89409C061
:1048E00097FB3EF490958095709561957F4F8F4F23
:1048F0009F4F9923A9F0F92F96E9BB279395F69539
:10490000879577956795B795F111F8CFFAF4BB0FB6
:1049100011F460FF1BC06F5F7F4F8F4F9F4F16C01A
:10492000882311F096E911C0772321F09EE8872FA4
:10493000762F05C0662371F096E8862F70E060E060
:104940002AF09A95660F771F881FDAF7880F9695D9
:10495000879597F90895990F0008550FAA0BE0E87D
:10496000FEEF16161706E807F907C0F01216130631
:10497000E407F50798F0621B730B840B950B39F471
:104980000A2661F0232B242B252B21F408950A26D7
:1049900009F4A140A6958FEF811D811D089597F917
:1049A0009F6780E870E060E008959FEF80EC0895D5
:1049B00000240A94161617061806090608950024FE
:1049C0000A9412161306140605060895092E039478
:1049D000000C11F4882352F0BB0F40F4BF2B11F4EC
:1049E00060FF04C06F5F7F4F8F4F9F4F089557FD4B
:1049F0009058440F551F59F05F3F71F04795880F4D
:104A000097FB991F61F09F3F79F0879508951216E3
:104A100013061406551FF2CF4695F1DF08C016168F
:104A200017061806991FF1CF869571056105089440
:104A30000895E894BB2766277727CB0197F9089557
:104A40000E94AB2408F48FEF08950E9438250C943F
:104A5000E6240E94D82438F00E94DF2420F0952319
:104A600011F00C94CF240C94D52411240C941A2505
:104A70000E94F72470F3959FC1F3950F50E0551FE6
:104A8000629FF001729FBB27F00DB11D639FAA27A3
:104A9000F00DB11DAA1F649F6627B00DA11D661FF2
:104AA000829F2227B00DA11D621F739FB00DA11D13
:104AB000621F839FA00D611D221F749F3327A00DCD
:104AC000611D231F849F600D211D822F762F6A2F69
:104AD00011249F5750409AF0F1F088234AF0EE0FCE
:104AE000FF1FBB1F661F771F881F91505040A9F7FB
:104AF0009E3F510580F00C94CF240C941A255F3F03
:104B0000E4F3983ED4F3869577956795B795F79536
:104B1000E7959F5FC1F7FE2B880F911D96958795AE
:104B200097F908950E94AB24880B990B0895DB0137
:104B30008F939F930E941823BF91AF91A29F800DE6
:104B4000911DA39F900DB29F900D1124089597FB86
:104B5000072E16F4009407D077FD09D00E94C125D6
:104B600007FC05D03EF4909581959F4F0895709570
:104B700061957F4F0895EE0FFF1F0590F491E02D92
:104B80000994AA1BBB1B51E107C0AA1FBB1FA61794
:104B9000B70710F0A61BB70B881F991F5A95A9F7E6
:104BA00080959095BC01CD0108950F931F93CF93ED
:104BB000DF938230910510F482E090E0E09165048B
:104BC000F091660430E020E0B0E0A0E0309799F486
:104BD0002115310509F44AC0281B390B2430310551
:104BE000D8F58A819B816115710589F1FB01938359
:104BF0008283FE0111C040815181028113814817D7
:104C00005907E0F04817590799F4109761F0129688
:104C10000C93129713961C933296CF01DF91CF918C
:104C20001F910F9108950093650410936604F4CFCB
:104C30002115310551F04217530738F0A901DB0166
:104C40009A01BD01DF01F801C1CFEF01F9CF9093C7
:104C5000660480936504CDCFFE01E20FF31F8193BC
:104C600091932250310939832883D7CF209163044F
:104C700030916404232B41F420913B0130913C019D
:104C800030936404209363042091390130913A01F8
:104C90002115310541F42DB73EB740913D015091AA
:104CA0003E01241B350BE0916304F0916404E2178C
:104CB000F307A0F42E1B3F0B2817390778F0AC013F
:104CC0004E5F5F4F2417350748F04E0F5F1F50931C
:104CD000640440936304819391939FCFF0E0E0E0FC
:104CE0009CCFCF93DF930097E9F0FC0132971382BA
:104CF0001282A0916504B0916604ED0130E020E0DD
:104D00001097A1F420813181820F931F20916304B9
:104D1000309164042817390709F061C0F0936404E6
:104D2000E0936304DF91CF910895EA01CE17DF0786
:104D3000E8F54A815B819E0141155105B1F7E90112
:104D4000FB83EA8349915991C40FD51FEC17FD07E6
:104D500061F4808191810296840F951FE901998306
:104D60008883828193819B838A83F0E0E0E01296BE
:104D70008D919C9113970097B9F52D913C911197C6
:104D8000CD010296820F931F209163043091640439
:104D90002817390739F6309751F5109266041092AA
:104DA0006504B0936404A0936304BCCFD383C2832F
:104DB00040815181840F951FC817D90761F44E5F58
:104DC0005F4F88819981480F591F518340838A81A1
:104DD0009B81938382832115310509F0B0CFF09335
:104DE0006604E09365049ECFFD01DC01C0CF138211
:084DF0001282D7CFF894FFCF27
:104DF8000A0A1F1F1F0E04040E1F1F1F1F1F1F1F3D
:104E08000E1B111F1F1F1F1F0E1B11111F1F1F1FFE
:104E18000E1B1111111F1F1F0E1B111111111F1F26
:104E28000E1B11111111111F0100006704800000F1
:104E380000400014005400000000001F072501ACCA
:104E480005C6030C0001000000000D000A00010067
:104E5800000E000A000100002300010000000026E7
:104E6800000100000000270001000000000F000AF8
:104E7800000100001B0001000000011C000A0001E5
:104E880000011D000A000100012D000100000000C2
:104E98002C0001000000001E000A000100001F0095
:104EA8000A0001000010000A0001000012000A00B8
:104EB80001000013000A00010000150001000000B5
:104EC80000000001000100010B00010001000028A2
:104ED800000100000000290001000000002A000174
:104EE800000000012E0001000000012F0001000059
:104EF80000003000010000000100000000C501258D
:104F08000152011202830161017501000000006471
:104F1800053705AC051405F100240515056E616E0D
:104F280000696E66006F76660020202020205354AA
:104F38004F5020200054454D504F3A20002020204B
:104F480020214252414B45210020202020202020B2
:104F5800202020202020202020005B005D002D3E06
:044F68000045000000
:00000001FF
